{
	"UniversalADs.sol": {
		"UniversalADs": {
			"abi": [
				{
					"inputs": [],
					"stateMutability": "nonpayable",
					"type": "constructor"
				},
				{
					"inputs": [],
					"name": "EnforcedPause",
					"type": "error"
				},
				{
					"inputs": [],
					"name": "ExpectedPause",
					"type": "error"
				},
				{
					"inputs": [
						{
							"internalType": "address",
							"name": "owner",
							"type": "address"
						}
					],
					"name": "OwnableInvalidOwner",
					"type": "error"
				},
				{
					"inputs": [
						{
							"internalType": "address",
							"name": "account",
							"type": "address"
						}
					],
					"name": "OwnableUnauthorizedAccount",
					"type": "error"
				},
				{
					"inputs": [
						{
							"internalType": "uint256",
							"name": "",
							"type": "uint256"
						},
						{
							"internalType": "uint256",
							"name": "",
							"type": "uint256"
						},
						{
							"internalType": "address",
							"name": "",
							"type": "address"
						}
					],
					"name": "PriceNotMet",
					"type": "error"
				},
				{
					"inputs": [
						{
							"internalType": "uint256",
							"name": "end",
							"type": "uint256"
						}
					],
					"name": "ThereIsActiveAd",
					"type": "error"
				},
				{
					"inputs": [],
					"name": "Unauthorized",
					"type": "error"
				},
				{
					"inputs": [
						{
							"internalType": "address",
							"name": "",
							"type": "address"
						}
					],
					"name": "UserClaimedAlready",
					"type": "error"
				},
				{
					"anonymous": false,
					"inputs": [
						{
							"indexed": false,
							"internalType": "address",
							"name": "sender",
							"type": "address"
						},
						{
							"indexed": false,
							"internalType": "uint256",
							"name": "amount",
							"type": "uint256"
						}
					],
					"name": "Claimed",
					"type": "event"
				},
				{
					"anonymous": false,
					"inputs": [
						{
							"indexed": true,
							"internalType": "address",
							"name": "previousOwner",
							"type": "address"
						},
						{
							"indexed": true,
							"internalType": "address",
							"name": "newOwner",
							"type": "address"
						}
					],
					"name": "OwnershipTransferred",
					"type": "event"
				},
				{
					"anonymous": false,
					"inputs": [
						{
							"indexed": false,
							"internalType": "address",
							"name": "account",
							"type": "address"
						}
					],
					"name": "Paused",
					"type": "event"
				},
				{
					"anonymous": false,
					"inputs": [
						{
							"indexed": false,
							"internalType": "address",
							"name": "account",
							"type": "address"
						}
					],
					"name": "Unpaused",
					"type": "event"
				},
				{
					"inputs": [],
					"name": "VERSION",
					"outputs": [
						{
							"internalType": "string",
							"name": "",
							"type": "string"
						}
					],
					"stateMutability": "view",
					"type": "function"
				},
				{
					"inputs": [],
					"name": "_claimCounter",
					"outputs": [
						{
							"internalType": "uint256",
							"name": "_value",
							"type": "uint256"
						}
					],
					"stateMutability": "view",
					"type": "function"
				},
				{
					"inputs": [
						{
							"internalType": "string",
							"name": "_metadata",
							"type": "string"
						},
						{
							"internalType": "uint256",
							"name": "_duration",
							"type": "uint256"
						}
					],
					"name": "advertiser",
					"outputs": [
						{
							"internalType": "bool",
							"name": "",
							"type": "bool"
						},
						{
							"internalType": "uint256",
							"name": "",
							"type": "uint256"
						}
					],
					"stateMutability": "payable",
					"type": "function"
				},
				{
					"inputs": [],
					"name": "amount",
					"outputs": [
						{
							"internalType": "uint256",
							"name": "",
							"type": "uint256"
						}
					],
					"stateMutability": "view",
					"type": "function"
				},
				{
					"inputs": [
						{
							"internalType": "uint256",
							"name": "_amount",
							"type": "uint256"
						},
						{
							"internalType": "uint256",
							"name": "bps",
							"type": "uint256"
						}
					],
					"name": "calcPercentage",
					"outputs": [
						{
							"internalType": "uint256",
							"name": "",
							"type": "uint256"
						}
					],
					"stateMutability": "pure",
					"type": "function"
				},
				{
					"inputs": [],
					"name": "claim",
					"outputs": [
						{
							"internalType": "bool",
							"name": "",
							"type": "bool"
						}
					],
					"stateMutability": "nonpayable",
					"type": "function"
				},
				{
					"inputs": [],
					"name": "claimPercentage",
					"outputs": [
						{
							"internalType": "uint256",
							"name": "",
							"type": "uint256"
						}
					],
					"stateMutability": "view",
					"type": "function"
				},
				{
					"inputs": [],
					"name": "duration",
					"outputs": [
						{
							"internalType": "uint256",
							"name": "",
							"type": "uint256"
						}
					],
					"stateMutability": "view",
					"type": "function"
				},
				{
					"inputs": [],
					"name": "end",
					"outputs": [
						{
							"internalType": "uint256",
							"name": "",
							"type": "uint256"
						}
					],
					"stateMutability": "view",
					"type": "function"
				},
				{
					"inputs": [],
					"name": "fee",
					"outputs": [
						{
							"internalType": "uint256",
							"name": "",
							"type": "uint256"
						}
					],
					"stateMutability": "view",
					"type": "function"
				},
				{
					"inputs": [],
					"name": "getAD",
					"outputs": [
						{
							"internalType": "uint256",
							"name": "",
							"type": "uint256"
						},
						{
							"internalType": "uint256",
							"name": "",
							"type": "uint256"
						},
						{
							"internalType": "uint256",
							"name": "",
							"type": "uint256"
						},
						{
							"internalType": "address",
							"name": "",
							"type": "address"
						},
						{
							"internalType": "string",
							"name": "",
							"type": "string"
						}
					],
					"stateMutability": "view",
					"type": "function"
				},
				{
					"inputs": [],
					"name": "getBalance",
					"outputs": [
						{
							"internalType": "uint256",
							"name": "",
							"type": "uint256"
						}
					],
					"stateMutability": "view",
					"type": "function"
				},
				{
					"inputs": [],
					"name": "manager",
					"outputs": [
						{
							"internalType": "address",
							"name": "",
							"type": "address"
						}
					],
					"stateMutability": "view",
					"type": "function"
				},
				{
					"inputs": [],
					"name": "metadata",
					"outputs": [
						{
							"internalType": "string",
							"name": "",
							"type": "string"
						}
					],
					"stateMutability": "view",
					"type": "function"
				},
				{
					"inputs": [],
					"name": "owner",
					"outputs": [
						{
							"internalType": "address",
							"name": "",
							"type": "address"
						}
					],
					"stateMutability": "view",
					"type": "function"
				},
				{
					"inputs": [],
					"name": "pause",
					"outputs": [],
					"stateMutability": "nonpayable",
					"type": "function"
				},
				{
					"inputs": [],
					"name": "paused",
					"outputs": [
						{
							"internalType": "bool",
							"name": "",
							"type": "bool"
						}
					],
					"stateMutability": "view",
					"type": "function"
				},
				{
					"inputs": [
						{
							"internalType": "uint256",
							"name": "",
							"type": "uint256"
						}
					],
					"name": "permission",
					"outputs": [
						{
							"internalType": "address",
							"name": "",
							"type": "address"
						}
					],
					"stateMutability": "view",
					"type": "function"
				},
				{
					"inputs": [],
					"name": "price",
					"outputs": [
						{
							"internalType": "uint256",
							"name": "",
							"type": "uint256"
						}
					],
					"stateMutability": "view",
					"type": "function"
				},
				{
					"inputs": [],
					"name": "renounceOwnership",
					"outputs": [],
					"stateMutability": "nonpayable",
					"type": "function"
				},
				{
					"inputs": [],
					"name": "requiredFollowers",
					"outputs": [
						{
							"internalType": "uint256",
							"name": "",
							"type": "uint256"
						}
					],
					"stateMutability": "view",
					"type": "function"
				},
				{
					"inputs": [],
					"name": "time",
					"outputs": [
						{
							"internalType": "uint256",
							"name": "",
							"type": "uint256"
						}
					],
					"stateMutability": "view",
					"type": "function"
				},
				{
					"inputs": [
						{
							"internalType": "address payable",
							"name": "_to",
							"type": "address"
						},
						{
							"internalType": "uint256",
							"name": "_amount",
							"type": "uint256"
						}
					],
					"name": "transferBalance",
					"outputs": [],
					"stateMutability": "nonpayable",
					"type": "function"
				},
				{
					"inputs": [
						{
							"internalType": "address",
							"name": "newOwner",
							"type": "address"
						}
					],
					"name": "transferOwnership",
					"outputs": [],
					"stateMutability": "nonpayable",
					"type": "function"
				},
				{
					"inputs": [],
					"name": "unpause",
					"outputs": [],
					"stateMutability": "nonpayable",
					"type": "function"
				},
				{
					"inputs": [
						{
							"internalType": "string",
							"name": "_metadata",
							"type": "string"
						}
					],
					"name": "updateAds",
					"outputs": [
						{
							"internalType": "bool",
							"name": "",
							"type": "bool"
						}
					],
					"stateMutability": "nonpayable",
					"type": "function"
				},
				{
					"inputs": [
						{
							"internalType": "uint256",
							"name": "_newVal",
							"type": "uint256"
						}
					],
					"name": "updateClaimPercentage",
					"outputs": [
						{
							"internalType": "bool",
							"name": "",
							"type": "bool"
						}
					],
					"stateMutability": "nonpayable",
					"type": "function"
				},
				{
					"inputs": [],
					"name": "withdraw",
					"outputs": [],
					"stateMutability": "nonpayable",
					"type": "function"
				}
			],
			"devdoc": {
				"author": "Aratta Labs",
				"custom:emoji": "📢",
				"custom:security-contact": "atenyun@gmail.com",
				"details": "You will find the deployed contract addresses in the repo",
				"errors": {
					"EnforcedPause()": [
						{
							"details": "The operation failed because the contract is paused."
						}
					],
					"ExpectedPause()": [
						{
							"details": "The operation failed because the contract is not paused."
						}
					],
					"OwnableInvalidOwner(address)": [
						{
							"details": "The owner is not a valid owner account. (eg. `address(0)`)"
						}
					],
					"OwnableUnauthorizedAccount(address)": [
						{
							"details": "The caller account is not authorized to perform an operation."
						}
					]
				},
				"events": {
					"Paused(address)": {
						"details": "Emitted when the pause is triggered by `account`."
					},
					"Unpaused(address)": {
						"details": "Emitted when the pause is lifted by `account`."
					}
				},
				"kind": "dev",
				"methods": {
					"calcPercentage(uint256,uint256)": {
						"params": {
							"_amount": "The total amount",
							"bps": "The precentage"
						},
						"returns": {
							"_0": "percentage"
						}
					},
					"owner()": {
						"details": "Returns the address of the current owner."
					},
					"paused()": {
						"details": "Returns true if the contract is paused, and false otherwise."
					},
					"renounceOwnership()": {
						"details": "Leaves the contract without owner. It will not be possible to call `onlyOwner` functions. Can only be called by the current owner. NOTE: Renouncing ownership will leave the contract without an owner, thereby disabling any functionality that is only available to the owner."
					},
					"transferOwnership(address)": {
						"details": "Transfers ownership of the contract to a new account (`newOwner`). Can only be called by the current owner."
					}
				},
				"title": "UniversalADs",
				"version": 1
			},
			"evm": {
				"assembly": "    /* \"UniversalADs.sol\":589:4912  contract UniversalADs is Ownable(msg.sender), Pausable {... */\n  mstore(0x40, 0x80)\n    /* \"UniversalADs.sol\":769:771  20 */\n  0x14\n    /* \"UniversalADs.sol\":734:771  uint256 public requiredFollowers = 20 */\n  0x02\n  sstore\n    /* \"UniversalADs.sol\":798:799  1 */\n  0x01\n    /* \"UniversalADs.sol\":777:799  uint256 public fee = 1 */\n  0x03\n  sstore\n    /* \"UniversalADs.sol\":841:848  1 ether */\n  0x0de0b6b3a7640000\n    /* \"UniversalADs.sol\":818:848  uint256 public price = 1 ether */\n  0x04\n  sstore\n    /* \"UniversalADs.sol\":898:899  2 */\n  0x02\n    /* \"UniversalADs.sol\":865:899  uint256 public claimPercentage = 2 */\n  0x05\n  sstore\n    /* \"UniversalADs.sol\":1136:1152  constructor() {} */\n  callvalue\n  dup1\n  iszero\n  tag_1\n  jumpi\n  revert(0x00, 0x00)\ntag_1:\n  pop\n    /* \"UniversalADs.sol\":622:632  msg.sender */\n  caller\n    /* \"_ownable.sol\":1318:1319  0 */\n  0x00\n    /* \"_ownable.sol\":1294:1320  initialOwner == address(0) */\n  0xffffffffffffffffffffffffffffffffffffffff\n  and\n    /* \"_ownable.sol\":1294:1306  initialOwner */\n  dup2\n    /* \"_ownable.sol\":1294:1320  initialOwner == address(0) */\n  0xffffffffffffffffffffffffffffffffffffffff\n  and\n  sub\n    /* \"_ownable.sol\":1290:1385  if (initialOwner == address(0)) {... */\n  tag_6\n  jumpi\n    /* \"_ownable.sol\":1371:1372  0 */\n  0x00\n    /* \"_ownable.sol\":1343:1374  OwnableInvalidOwner(address(0)) */\n  mload(0x40)\n  0x1e4fbdf700000000000000000000000000000000000000000000000000000000\n  dup2\n  mstore\n  0x04\n  add\n  tag_7\n  swap2\n  swap1\n  tag_8\n  jump\t// in\ntag_7:\n  mload(0x40)\n  dup1\n  swap2\n  sub\n  swap1\n  revert\n    /* \"_ownable.sol\":1290:1385  if (initialOwner == address(0)) {... */\ntag_6:\n    /* \"_ownable.sol\":1394:1426  _transferOwnership(initialOwner) */\n  tag_9\n    /* \"_ownable.sol\":1413:1425  initialOwner */\n  dup2\n    /* \"_ownable.sol\":1394:1412  _transferOwnership */\n  shl(0x20, tag_10)\n    /* \"_ownable.sol\":1394:1426  _transferOwnership(initialOwner) */\n  0x20\n  shr\n  jump\t// in\ntag_9:\n    /* \"_ownable.sol\":1246:1433  constructor(address initialOwner) {... */\n  pop\n    /* \"_pausable.sol\":1262:1267  false */\n  0x00\n    /* \"_pausable.sol\":1252:1259  _paused */\n  0x00\n  0x14\n    /* \"_pausable.sol\":1252:1267  _paused = false */\n  0x0100\n  exp\n  dup2\n  sload\n  dup2\n  0xff\n  mul\n  not\n  and\n  swap1\n  dup4\n  iszero\n  iszero\n  mul\n  or\n  swap1\n  sstore\n  pop\n    /* \"UniversalADs.sol\":589:4912  contract UniversalADs is Ownable(msg.sender), Pausable {... */\n  jump(tag_13)\n    /* \"_ownable.sol\":2933:3120  function _transferOwnership(address newOwner) internal virtual {... */\ntag_10:\n    /* \"_ownable.sol\":3006:3022  address oldOwner */\n  0x00\n    /* \"_ownable.sol\":3025:3031  _owner */\n  0x00\n  0x00\n  swap1\n  sload\n  swap1\n  0x0100\n  exp\n  swap1\n  div\n  0xffffffffffffffffffffffffffffffffffffffff\n  and\n    /* \"_ownable.sol\":3006:3031  address oldOwner = _owner */\n  swap1\n  pop\n    /* \"_ownable.sol\":3050:3058  newOwner */\n  dup2\n    /* \"_ownable.sol\":3041:3047  _owner */\n  0x00\n  0x00\n    /* \"_ownable.sol\":3041:3058  _owner = newOwner */\n  0x0100\n  exp\n  dup2\n  sload\n  dup2\n  0xffffffffffffffffffffffffffffffffffffffff\n  mul\n  not\n  and\n  swap1\n  dup4\n  0xffffffffffffffffffffffffffffffffffffffff\n  and\n  mul\n  or\n  swap1\n  sstore\n  pop\n    /* \"_ownable.sol\":3104:3112  newOwner */\n  dup2\n    /* \"_ownable.sol\":3073:3113  OwnershipTransferred(oldOwner, newOwner) */\n  0xffffffffffffffffffffffffffffffffffffffff\n  and\n    /* \"_ownable.sol\":3094:3102  oldOwner */\n  dup2\n    /* \"_ownable.sol\":3073:3113  OwnershipTransferred(oldOwner, newOwner) */\n  0xffffffffffffffffffffffffffffffffffffffff\n  and\n  0x8be0079c531659141344cd1fd0a4f28419497f9722a3daafe3b4186f6b6457e0\n  mload(0x40)\n  mload(0x40)\n  dup1\n  swap2\n  sub\n  swap1\n  log3\n    /* \"_ownable.sol\":2996:3120  {... */\n  pop\n    /* \"_ownable.sol\":2933:3120  function _transferOwnership(address newOwner) internal virtual {... */\n  pop\n  jump\t// out\n    /* \"#utility.yul\":7:133   */\ntag_15:\n    /* \"#utility.yul\":44:51   */\n  0x00\n    /* \"#utility.yul\":84:126   */\n  0xffffffffffffffffffffffffffffffffffffffff\n    /* \"#utility.yul\":77:82   */\n  dup3\n    /* \"#utility.yul\":73:127   */\n  and\n    /* \"#utility.yul\":62:127   */\n  swap1\n  pop\n    /* \"#utility.yul\":7:133   */\n  swap2\n  swap1\n  pop\n  jump\t// out\n    /* \"#utility.yul\":139:235   */\ntag_16:\n    /* \"#utility.yul\":176:183   */\n  0x00\n    /* \"#utility.yul\":205:229   */\n  tag_21\n    /* \"#utility.yul\":223:228   */\n  dup3\n    /* \"#utility.yul\":205:229   */\n  tag_15\n  jump\t// in\ntag_21:\n    /* \"#utility.yul\":194:229   */\n  swap1\n  pop\n    /* \"#utility.yul\":139:235   */\n  swap2\n  swap1\n  pop\n  jump\t// out\n    /* \"#utility.yul\":241:359   */\ntag_17:\n    /* \"#utility.yul\":328:352   */\n  tag_23\n    /* \"#utility.yul\":346:351   */\n  dup2\n    /* \"#utility.yul\":328:352   */\n  tag_16\n  jump\t// in\ntag_23:\n    /* \"#utility.yul\":323:326   */\n  dup3\n    /* \"#utility.yul\":316:353   */\n  mstore\n    /* \"#utility.yul\":241:359   */\n  pop\n  pop\n  jump\t// out\n    /* \"#utility.yul\":365:587   */\ntag_8:\n    /* \"#utility.yul\":458:462   */\n  0x00\n    /* \"#utility.yul\":496:498   */\n  0x20\n    /* \"#utility.yul\":485:494   */\n  dup3\n    /* \"#utility.yul\":481:499   */\n  add\n    /* \"#utility.yul\":473:499   */\n  swap1\n  pop\n    /* \"#utility.yul\":509:580   */\n  tag_25\n    /* \"#utility.yul\":577:578   */\n  0x00\n    /* \"#utility.yul\":566:575   */\n  dup4\n    /* \"#utility.yul\":562:579   */\n  add\n    /* \"#utility.yul\":553:559   */\n  dup5\n    /* \"#utility.yul\":509:580   */\n  tag_17\n  jump\t// in\ntag_25:\n    /* \"#utility.yul\":365:587   */\n  swap3\n  swap2\n  pop\n  pop\n  jump\t// out\n    /* \"UniversalADs.sol\":589:4912  contract UniversalADs is Ownable(msg.sender), Pausable {... */\ntag_13:\n  dataSize(sub_0)\n  dup1\n  dataOffset(sub_0)\n  0x00\n  codecopy\n  0x00\n  return\nstop\n\nsub_0: assembly {\n        /* \"UniversalADs.sol\":589:4912  contract UniversalADs is Ownable(msg.sender), Pausable {... */\n      mstore(0x40, 0x80)\n      jumpi(tag_1, lt(calldatasize, 0x04))\n      shr(0xe0, calldataload(0x00))\n      dup1\n      0x715018a6\n      gt\n      tag_30\n      jumpi\n      dup1\n      0xa37b06d4\n      gt\n      tag_31\n      jumpi\n      dup1\n      0xefbe1c1c\n      gt\n      tag_32\n      jumpi\n      dup1\n      0xefbe1c1c\n      eq\n      tag_26\n      jumpi\n      dup1\n      0xf2fde38b\n      eq\n      tag_27\n      jumpi\n      dup1\n      0xfb2228fe\n      eq\n      tag_28\n      jumpi\n      dup1\n      0xffa1ad74\n      eq\n      tag_29\n      jumpi\n      jump(tag_1)\n    tag_32:\n      dup1\n      0xa37b06d4\n      eq\n      tag_23\n      jumpi\n      dup1\n      0xaa8c217c\n      eq\n      tag_24\n      jumpi\n      dup1\n      0xddca3f43\n      eq\n      tag_25\n      jumpi\n      jump(tag_1)\n    tag_31:\n      dup1\n      0x7d38c997\n      gt\n      tag_33\n      jumpi\n      dup1\n      0x7d38c997\n      eq\n      tag_19\n      jumpi\n      dup1\n      0x8456cb59\n      eq\n      tag_20\n      jumpi\n      dup1\n      0x8da5cb5b\n      eq\n      tag_21\n      jumpi\n      dup1\n      0xa035b1fe\n      eq\n      tag_22\n      jumpi\n      jump(tag_1)\n    tag_33:\n      dup1\n      0x715018a6\n      eq\n      tag_16\n      jumpi\n      dup1\n      0x72b121c9\n      eq\n      tag_17\n      jumpi\n      dup1\n      0x7a895f5d\n      eq\n      tag_18\n      jumpi\n      jump(tag_1)\n    tag_30:\n      dup1\n      0x3f4ba83a\n      gt\n      tag_34\n      jumpi\n      dup1\n      0x56a6d9ef\n      gt\n      tag_35\n      jumpi\n      dup1\n      0x56a6d9ef\n      eq\n      tag_12\n      jumpi\n      dup1\n      0x5a05ec90\n      eq\n      tag_13\n      jumpi\n      dup1\n      0x5c975abb\n      eq\n      tag_14\n      jumpi\n      dup1\n      0x6098178f\n      eq\n      tag_15\n      jumpi\n      jump(tag_1)\n    tag_35:\n      dup1\n      0x3f4ba83a\n      eq\n      tag_9\n      jumpi\n      dup1\n      0x481c6a75\n      eq\n      tag_10\n      jumpi\n      dup1\n      0x4e71d92d\n      eq\n      tag_11\n      jumpi\n      jump(tag_1)\n    tag_34:\n      dup1\n      0x12065fe0\n      gt\n      tag_36\n      jumpi\n      dup1\n      0x12065fe0\n      eq\n      tag_5\n      jumpi\n      dup1\n      0x16ada547\n      eq\n      tag_6\n      jumpi\n      dup1\n      0x392f37e9\n      eq\n      tag_7\n      jumpi\n      dup1\n      0x3ccfd60b\n      eq\n      tag_8\n      jumpi\n      jump(tag_1)\n    tag_36:\n      dup1\n      0x074819c8\n      eq\n      tag_2\n      jumpi\n      dup1\n      0x0cbb0cc7\n      eq\n      tag_3\n      jumpi\n      dup1\n      0x0fb5a6b4\n      eq\n      tag_4\n      jumpi\n    tag_1:\n      revert(0x00, 0x00)\n        /* \"UniversalADs.sol\":3748:3891  function updateClaimPercentage(uint256 _newVal) public onlyOwner returns (bool) {... */\n    tag_2:\n      callvalue\n      dup1\n      iszero\n      tag_37\n      jumpi\n      revert(0x00, 0x00)\n    tag_37:\n      pop\n      tag_38\n      0x04\n      dup1\n      calldatasize\n      sub\n      dup2\n      add\n      swap1\n      tag_39\n      swap2\n      swap1\n      tag_40\n      jump\t// in\n    tag_39:\n      tag_41\n      jump\t// in\n    tag_38:\n      mload(0x40)\n      tag_42\n      swap2\n      swap1\n      tag_43\n      jump\t// in\n    tag_42:\n      mload(0x40)\n      dup1\n      swap2\n      sub\n      swap1\n      return\n        /* \"UniversalADs.sol\":2433:2680  function updateAds(string memory _metadata) public whenNotPaused returns (bool) {... */\n    tag_3:\n      callvalue\n      dup1\n      iszero\n      tag_44\n      jumpi\n      revert(0x00, 0x00)\n    tag_44:\n      pop\n      tag_45\n      0x04\n      dup1\n      calldatasize\n      sub\n      dup2\n      add\n      swap1\n      tag_46\n      swap2\n      swap1\n      tag_47\n      jump\t// in\n    tag_46:\n      tag_48\n      jump\t// in\n    tag_45:\n      mload(0x40)\n      tag_49\n      swap2\n      swap1\n      tag_43\n      jump\t// in\n    tag_49:\n      mload(0x40)\n      dup1\n      swap2\n      sub\n      swap1\n      return\n        /* \"UniversalADs.sol\":944:967  uint256 public duration */\n    tag_4:\n      callvalue\n      dup1\n      iszero\n      tag_50\n      jumpi\n      revert(0x00, 0x00)\n    tag_50:\n      pop\n      tag_51\n      tag_52\n      jump\t// in\n    tag_51:\n      mload(0x40)\n      tag_53\n      swap2\n      swap1\n      tag_54\n      jump\t// in\n    tag_53:\n      mload(0x40)\n      dup1\n      swap2\n      sub\n      swap1\n      return\n        /* \"UniversalADs.sol\":4542:4639  function getBalance() public view returns (uint256) {... */\n    tag_5:\n      callvalue\n      dup1\n      iszero\n      tag_55\n      jumpi\n      revert(0x00, 0x00)\n    tag_55:\n      pop\n      tag_56\n      tag_57\n      jump\t// in\n    tag_56:\n      mload(0x40)\n      tag_58\n      swap2\n      swap1\n      tag_54\n      jump\t// in\n    tag_58:\n      mload(0x40)\n      dup1\n      swap2\n      sub\n      swap1\n      return\n        /* \"UniversalADs.sol\":4825:4910  function time() public view returns (uint256) {... */\n    tag_6:\n      callvalue\n      dup1\n      iszero\n      tag_59\n      jumpi\n      revert(0x00, 0x00)\n    tag_59:\n      pop\n      tag_60\n      tag_61\n      jump\t// in\n    tag_60:\n      mload(0x40)\n      tag_62\n      swap2\n      swap1\n      tag_54\n      jump\t// in\n    tag_62:\n      mload(0x40)\n      dup1\n      swap2\n      sub\n      swap1\n      return\n        /* \"UniversalADs.sol\":1028:1050  string public metadata */\n    tag_7:\n      callvalue\n      dup1\n      iszero\n      tag_63\n      jumpi\n      revert(0x00, 0x00)\n    tag_63:\n      pop\n      tag_64\n      tag_65\n      jump\t// in\n    tag_64:\n      mload(0x40)\n      tag_66\n      swap2\n      swap1\n      tag_67\n      jump\t// in\n    tag_66:\n      mload(0x40)\n      dup1\n      swap2\n      sub\n      swap1\n      return\n        /* \"UniversalADs.sol\":3991:4181  function withdraw() public onlyOwner {... */\n    tag_8:\n      callvalue\n      dup1\n      iszero\n      tag_68\n      jumpi\n      revert(0x00, 0x00)\n    tag_68:\n      pop\n      tag_69\n      tag_70\n      jump\t// in\n    tag_69:\n      stop\n        /* \"UniversalADs.sol\":4756:4819  function unpause() public onlyOwner {... */\n    tag_9:\n      callvalue\n      dup1\n      iszero\n      tag_71\n      jumpi\n      revert(0x00, 0x00)\n    tag_71:\n      pop\n      tag_72\n      tag_73\n      jump\t// in\n    tag_72:\n      stop\n        /* \"UniversalADs.sol\":1000:1022  address public manager */\n    tag_10:\n      callvalue\n      dup1\n      iszero\n      tag_74\n      jumpi\n      revert(0x00, 0x00)\n    tag_74:\n      pop\n      tag_75\n      tag_76\n      jump\t// in\n    tag_75:\n      mload(0x40)\n      tag_77\n      swap2\n      swap1\n      tag_78\n      jump\t// in\n    tag_77:\n      mload(0x40)\n      dup1\n      swap2\n      sub\n      swap1\n      return\n        /* \"UniversalADs.sol\":2707:3386  function claim() public whenNotPaused returns (bool) {... */\n    tag_11:\n      callvalue\n      dup1\n      iszero\n      tag_79\n      jumpi\n      revert(0x00, 0x00)\n    tag_79:\n      pop\n      tag_80\n      tag_81\n      jump\t// in\n    tag_80:\n      mload(0x40)\n      tag_82\n      swap2\n      swap1\n      tag_43\n      jump\t// in\n    tag_82:\n      mload(0x40)\n      dup1\n      swap2\n      sub\n      swap1\n      return\n        /* \"UniversalADs.sol\":4255:4484  function transferBalance(address payable _to, uint256 _amount) public onlyOwner {... */\n    tag_12:\n      callvalue\n      dup1\n      iszero\n      tag_83\n      jumpi\n      revert(0x00, 0x00)\n    tag_83:\n      pop\n      tag_84\n      0x04\n      dup1\n      calldatasize\n      sub\n      dup2\n      add\n      swap1\n      tag_85\n      swap2\n      swap1\n      tag_86\n      jump\t// in\n    tag_85:\n      tag_87\n      jump\t// in\n    tag_84:\n      stop\n        /* \"UniversalADs.sol\":1158:1411  function getAD()... */\n    tag_13:\n      callvalue\n      dup1\n      iszero\n      tag_88\n      jumpi\n      revert(0x00, 0x00)\n    tag_88:\n      pop\n      tag_89\n      tag_90\n      jump\t// in\n    tag_89:\n      mload(0x40)\n      tag_91\n      swap6\n      swap5\n      swap4\n      swap3\n      swap2\n      swap1\n      tag_92\n      jump\t// in\n    tag_91:\n      mload(0x40)\n      dup1\n      swap2\n      sub\n      swap1\n      return\n        /* \"_pausable.sol\":1871:1955  function paused() public view virtual returns (bool) {... */\n    tag_14:\n      callvalue\n      dup1\n      iszero\n      tag_93\n      jumpi\n      revert(0x00, 0x00)\n    tag_93:\n      pop\n      tag_94\n      tag_95\n      jump\t// in\n    tag_94:\n      mload(0x40)\n      tag_96\n      swap2\n      swap1\n      tag_43\n      jump\t// in\n    tag_96:\n      mload(0x40)\n      dup1\n      swap2\n      sub\n      swap1\n      return\n        /* \"UniversalADs.sol\":1417:2427  function advertiser(string memory _metadata, uint256 _duration) public payable whenNotPaused returns (bool, uint256) {... */\n    tag_15:\n      tag_97\n      0x04\n      dup1\n      calldatasize\n      sub\n      dup2\n      add\n      swap1\n      tag_98\n      swap2\n      swap1\n      tag_99\n      jump\t// in\n    tag_98:\n      tag_100\n      jump\t// in\n    tag_97:\n      mload(0x40)\n      tag_101\n      swap3\n      swap2\n      swap1\n      tag_102\n      jump\t// in\n    tag_101:\n      mload(0x40)\n      dup1\n      swap2\n      sub\n      swap1\n      return\n        /* \"_ownable.sol\":2314:2415  function renounceOwnership() public virtual onlyOwner {... */\n    tag_16:\n      callvalue\n      dup1\n      iszero\n      tag_103\n      jumpi\n      revert(0x00, 0x00)\n    tag_103:\n      pop\n      tag_104\n      tag_105\n      jump\t// in\n    tag_104:\n      stop\n        /* \"UniversalADs.sol\":734:771  uint256 public requiredFollowers = 20 */\n    tag_17:\n      callvalue\n      dup1\n      iszero\n      tag_106\n      jumpi\n      revert(0x00, 0x00)\n    tag_106:\n      pop\n      tag_107\n      tag_108\n      jump\t// in\n    tag_107:\n      mload(0x40)\n      tag_109\n      swap2\n      swap1\n      tag_54\n      jump\t// in\n    tag_109:\n      mload(0x40)\n      dup1\n      swap2\n      sub\n      swap1\n      return\n        /* \"UniversalADs.sol\":865:899  uint256 public claimPercentage = 2 */\n    tag_18:\n      callvalue\n      dup1\n      iszero\n      tag_110\n      jumpi\n      revert(0x00, 0x00)\n    tag_110:\n      pop\n      tag_111\n      tag_112\n      jump\t// in\n    tag_111:\n      mload(0x40)\n      tag_113\n      swap2\n      swap1\n      tag_54\n      jump\t// in\n    tag_113:\n      mload(0x40)\n      dup1\n      swap2\n      sub\n      swap1\n      return\n        /* \"UniversalADs.sol\":1056:1083  address[] public permission */\n    tag_19:\n      callvalue\n      dup1\n      iszero\n      tag_114\n      jumpi\n      revert(0x00, 0x00)\n    tag_114:\n      pop\n      tag_115\n      0x04\n      dup1\n      calldatasize\n      sub\n      dup2\n      add\n      swap1\n      tag_116\n      swap2\n      swap1\n      tag_40\n      jump\t// in\n    tag_116:\n      tag_117\n      jump\t// in\n    tag_115:\n      mload(0x40)\n      tag_118\n      swap2\n      swap1\n      tag_78\n      jump\t// in\n    tag_118:\n      mload(0x40)\n      dup1\n      swap2\n      sub\n      swap1\n      return\n        /* \"UniversalADs.sol\":4667:4726  function pause() public onlyOwner {... */\n    tag_20:\n      callvalue\n      dup1\n      iszero\n      tag_119\n      jumpi\n      revert(0x00, 0x00)\n    tag_119:\n      pop\n      tag_120\n      tag_121\n      jump\t// in\n    tag_120:\n      stop\n        /* \"_ownable.sol\":1659:1744  function owner() public view virtual returns (address) {... */\n    tag_21:\n      callvalue\n      dup1\n      iszero\n      tag_122\n      jumpi\n      revert(0x00, 0x00)\n    tag_122:\n      pop\n      tag_123\n      tag_124\n      jump\t// in\n    tag_123:\n      mload(0x40)\n      tag_125\n      swap2\n      swap1\n      tag_78\n      jump\t// in\n    tag_125:\n      mload(0x40)\n      dup1\n      swap2\n      sub\n      swap1\n      return\n        /* \"UniversalADs.sol\":818:848  uint256 public price = 1 ether */\n    tag_22:\n      callvalue\n      dup1\n      iszero\n      tag_126\n      jumpi\n      revert(0x00, 0x00)\n    tag_126:\n      pop\n      tag_127\n      tag_128\n      jump\t// in\n    tag_127:\n      mload(0x40)\n      tag_129\n      swap2\n      swap1\n      tag_54\n      jump\t// in\n    tag_129:\n      mload(0x40)\n      dup1\n      swap2\n      sub\n      swap1\n      return\n        /* \"UniversalADs.sol\":3531:3701  function calcPercentage(uint256 _amount, uint256 bps) public pure returns (uint256) {... */\n    tag_23:\n      callvalue\n      dup1\n      iszero\n      tag_130\n      jumpi\n      revert(0x00, 0x00)\n    tag_130:\n      pop\n      tag_131\n      0x04\n      dup1\n      calldatasize\n      sub\n      dup2\n      add\n      swap1\n      tag_132\n      swap2\n      swap1\n      tag_133\n      jump\t// in\n    tag_132:\n      tag_134\n      jump\t// in\n    tag_131:\n      mload(0x40)\n      tag_135\n      swap2\n      swap1\n      tag_54\n      jump\t// in\n    tag_135:\n      mload(0x40)\n      dup1\n      swap2\n      sub\n      swap1\n      return\n        /* \"UniversalADs.sol\":973:994  uint256 public amount */\n    tag_24:\n      callvalue\n      dup1\n      iszero\n      tag_136\n      jumpi\n      revert(0x00, 0x00)\n    tag_136:\n      pop\n      tag_137\n      tag_138\n      jump\t// in\n    tag_137:\n      mload(0x40)\n      tag_139\n      swap2\n      swap1\n      tag_54\n      jump\t// in\n    tag_139:\n      mload(0x40)\n      dup1\n      swap2\n      sub\n      swap1\n      return\n        /* \"UniversalADs.sol\":777:799  uint256 public fee = 1 */\n    tag_25:\n      callvalue\n      dup1\n      iszero\n      tag_140\n      jumpi\n      revert(0x00, 0x00)\n    tag_140:\n      pop\n      tag_141\n      tag_142\n      jump\t// in\n    tag_141:\n      mload(0x40)\n      tag_143\n      swap2\n      swap1\n      tag_54\n      jump\t// in\n    tag_143:\n      mload(0x40)\n      dup1\n      swap2\n      sub\n      swap1\n      return\n        /* \"UniversalADs.sol\":920:938  uint256 public end */\n    tag_26:\n      callvalue\n      dup1\n      iszero\n      tag_144\n      jumpi\n      revert(0x00, 0x00)\n    tag_144:\n      pop\n      tag_145\n      tag_146\n      jump\t// in\n    tag_145:\n      mload(0x40)\n      tag_147\n      swap2\n      swap1\n      tag_54\n      jump\t// in\n    tag_147:\n      mload(0x40)\n      dup1\n      swap2\n      sub\n      swap1\n      return\n        /* \"_ownable.sol\":2564:2779  function transferOwnership(address newOwner) public virtual onlyOwner {... */\n    tag_27:\n      callvalue\n      dup1\n      iszero\n      tag_148\n      jumpi\n      revert(0x00, 0x00)\n    tag_148:\n      pop\n      tag_149\n      0x04\n      dup1\n      calldatasize\n      sub\n      dup2\n      add\n      swap1\n      tag_150\n      swap2\n      swap1\n      tag_151\n      jump\t// in\n    tag_150:\n      tag_152\n      jump\t// in\n    tag_149:\n      stop\n        /* \"UniversalADs.sol\":691:728  Counters.Counter public _claimCounter */\n    tag_28:\n      callvalue\n      dup1\n      iszero\n      tag_153\n      jumpi\n      revert(0x00, 0x00)\n    tag_153:\n      pop\n      tag_154\n      tag_155\n      jump\t// in\n    tag_154:\n      mload(0x40)\n      tag_156\n      swap2\n      swap1\n      tag_54\n      jump\t// in\n    tag_156:\n      mload(0x40)\n      dup1\n      swap2\n      sub\n      swap1\n      return\n        /* \"UniversalADs.sol\":1089:1129  string public constant VERSION = \"1.0.0\" */\n    tag_29:\n      callvalue\n      dup1\n      iszero\n      tag_157\n      jumpi\n      revert(0x00, 0x00)\n    tag_157:\n      pop\n      tag_158\n      tag_159\n      jump\t// in\n    tag_158:\n      mload(0x40)\n      tag_160\n      swap2\n      swap1\n      tag_67\n      jump\t// in\n    tag_160:\n      mload(0x40)\n      dup1\n      swap2\n      sub\n      swap1\n      return\n        /* \"UniversalADs.sol\":3748:3891  function updateClaimPercentage(uint256 _newVal) public onlyOwner returns (bool) {... */\n    tag_41:\n        /* \"UniversalADs.sol\":3822:3826  bool */\n      0x00\n        /* \"_ownable.sol\":1552:1565  _checkOwner() */\n      tag_162\n        /* \"_ownable.sol\":1552:1563  _checkOwner */\n      tag_163\n        /* \"_ownable.sol\":1552:1565  _checkOwner() */\n      jump\t// in\n    tag_162:\n        /* \"UniversalADs.sol\":3856:3863  _newVal */\n      dup2\n        /* \"UniversalADs.sol\":3838:3853  claimPercentage */\n      0x05\n        /* \"UniversalADs.sol\":3838:3863  claimPercentage = _newVal */\n      dup2\n      swap1\n      sstore\n      pop\n        /* \"UniversalADs.sol\":3880:3884  true */\n      0x01\n        /* \"UniversalADs.sol\":3873:3884  return true */\n      swap1\n      pop\n        /* \"UniversalADs.sol\":3748:3891  function updateClaimPercentage(uint256 _newVal) public onlyOwner returns (bool) {... */\n      swap2\n      swap1\n      pop\n      jump\t// out\n        /* \"UniversalADs.sol\":2433:2680  function updateAds(string memory _metadata) public whenNotPaused returns (bool) {... */\n    tag_48:\n        /* \"UniversalADs.sol\":2507:2511  bool */\n      0x00\n        /* \"_pausable.sol\":1495:1514  _requireNotPaused() */\n      tag_166\n        /* \"_pausable.sol\":1495:1512  _requireNotPaused */\n      tag_167\n        /* \"_pausable.sol\":1495:1514  _requireNotPaused() */\n      jump\t// in\n    tag_166:\n        /* \"UniversalADs.sol\":2566:2573  manager */\n      0x09\n      0x00\n      swap1\n      sload\n      swap1\n      0x0100\n      exp\n      swap1\n      div\n      0xffffffffffffffffffffffffffffffffffffffff\n      and\n        /* \"UniversalADs.sol\":2550:2573  _msgSender() != manager */\n      0xffffffffffffffffffffffffffffffffffffffff\n      and\n        /* \"UniversalADs.sol\":2550:2562  _msgSender() */\n      tag_169\n        /* \"UniversalADs.sol\":2550:2560  _msgSender */\n      tag_170\n        /* \"UniversalADs.sol\":2550:2562  _msgSender() */\n      jump\t// in\n    tag_169:\n        /* \"UniversalADs.sol\":2550:2573  _msgSender() != manager */\n      0xffffffffffffffffffffffffffffffffffffffff\n      and\n      eq\n      iszero\n        /* \"UniversalADs.sol\":2550:2598  _msgSender() != manager && end < block.timestamp */\n      dup1\n      iszero\n      tag_171\n      jumpi\n      pop\n        /* \"UniversalADs.sol\":2583:2598  block.timestamp */\n      timestamp\n        /* \"UniversalADs.sol\":2577:2580  end */\n      sload(0x06)\n        /* \"UniversalADs.sol\":2577:2598  end < block.timestamp */\n      lt\n        /* \"UniversalADs.sol\":2550:2598  _msgSender() != manager && end < block.timestamp */\n    tag_171:\n        /* \"UniversalADs.sol\":2546:2621  if (_msgSender() != manager && end < block.timestamp) revert Unauthorized() */\n      iszero\n      tag_172\n      jumpi\n        /* \"UniversalADs.sol\":2607:2621  Unauthorized() */\n      mload(0x40)\n      0x82b4290000000000000000000000000000000000000000000000000000000000\n      dup2\n      mstore\n      0x04\n      add\n      mload(0x40)\n      dup1\n      swap2\n      sub\n      swap1\n      revert\n        /* \"UniversalADs.sol\":2546:2621  if (_msgSender() != manager && end < block.timestamp) revert Unauthorized() */\n    tag_172:\n        /* \"UniversalADs.sol\":2642:2651  _metadata */\n      dup2\n        /* \"UniversalADs.sol\":2631:2639  metadata */\n      0x0a\n        /* \"UniversalADs.sol\":2631:2651  metadata = _metadata */\n      swap1\n      dup2\n      tag_173\n      swap2\n      swap1\n      tag_174\n      jump\t// in\n    tag_173:\n      pop\n        /* \"UniversalADs.sol\":2669:2673  true */\n      0x01\n        /* \"UniversalADs.sol\":2662:2673  return true */\n      swap1\n      pop\n        /* \"UniversalADs.sol\":2433:2680  function updateAds(string memory _metadata) public whenNotPaused returns (bool) {... */\n      swap2\n      swap1\n      pop\n      jump\t// out\n        /* \"UniversalADs.sol\":944:967  uint256 public duration */\n    tag_52:\n      sload(0x07)\n      dup2\n      jump\t// out\n        /* \"UniversalADs.sol\":4542:4639  function getBalance() public view returns (uint256) {... */\n    tag_57:\n        /* \"UniversalADs.sol\":4585:4592  uint256 */\n      0x00\n        /* \"UniversalADs.sol\":4611:4632  address(this).balance */\n      selfbalance\n        /* \"UniversalADs.sol\":4604:4632  return address(this).balance */\n      swap1\n      pop\n        /* \"UniversalADs.sol\":4542:4639  function getBalance() public view returns (uint256) {... */\n      swap1\n      jump\t// out\n        /* \"UniversalADs.sol\":4825:4910  function time() public view returns (uint256) {... */\n    tag_61:\n        /* \"UniversalADs.sol\":4862:4869  uint256 */\n      0x00\n        /* \"UniversalADs.sol\":4888:4903  block.timestamp */\n      timestamp\n        /* \"UniversalADs.sol\":4881:4903  return block.timestamp */\n      swap1\n      pop\n        /* \"UniversalADs.sol\":4825:4910  function time() public view returns (uint256) {... */\n      swap1\n      jump\t// out\n        /* \"UniversalADs.sol\":1028:1050  string public metadata */\n    tag_65:\n      0x0a\n      dup1\n      sload\n      tag_177\n      swap1\n      tag_178\n      jump\t// in\n    tag_177:\n      dup1\n      0x1f\n      add\n      0x20\n      dup1\n      swap2\n      div\n      mul\n      0x20\n      add\n      mload(0x40)\n      swap1\n      dup2\n      add\n      0x40\n      mstore\n      dup1\n      swap3\n      swap2\n      swap1\n      dup2\n      dup2\n      mstore\n      0x20\n      add\n      dup3\n      dup1\n      sload\n      tag_179\n      swap1\n      tag_178\n      jump\t// in\n    tag_179:\n      dup1\n      iszero\n      tag_180\n      jumpi\n      dup1\n      0x1f\n      lt\n      tag_181\n      jumpi\n      0x0100\n      dup1\n      dup4\n      sload\n      div\n      mul\n      dup4\n      mstore\n      swap2\n      0x20\n      add\n      swap2\n      jump(tag_180)\n    tag_181:\n      dup3\n      add\n      swap2\n      swap1\n      0x00\n      mstore\n      keccak256(0x00, 0x20)\n      swap1\n    tag_182:\n      dup2\n      sload\n      dup2\n      mstore\n      swap1\n      0x01\n      add\n      swap1\n      0x20\n      add\n      dup1\n      dup4\n      gt\n      tag_182\n      jumpi\n      dup3\n      swap1\n      sub\n      0x1f\n      and\n      dup3\n      add\n      swap2\n    tag_180:\n      pop\n      pop\n      pop\n      pop\n      pop\n      dup2\n      jump\t// out\n        /* \"UniversalADs.sol\":3991:4181  function withdraw() public onlyOwner {... */\n    tag_70:\n        /* \"_ownable.sol\":1552:1565  _checkOwner() */\n      tag_184\n        /* \"_ownable.sol\":1552:1563  _checkOwner */\n      tag_163\n        /* \"_ownable.sol\":1552:1565  _checkOwner() */\n      jump\t// in\n    tag_184:\n        /* \"UniversalADs.sol\":4038:4053  uint256 _amount */\n      0x00\n        /* \"UniversalADs.sol\":4056:4077  address(this).balance */\n      selfbalance\n        /* \"UniversalADs.sol\":4038:4077  uint256 _amount = address(this).balance */\n      swap1\n      pop\n        /* \"UniversalADs.sol\":4088:4100  bool success */\n      0x00\n        /* \"UniversalADs.sol\":4106:4113  owner() */\n      tag_186\n        /* \"UniversalADs.sol\":4106:4111  owner */\n      tag_124\n        /* \"UniversalADs.sol\":4106:4113  owner() */\n      jump\t// in\n    tag_186:\n        /* \"UniversalADs.sol\":4106:4118  owner().call */\n      0xffffffffffffffffffffffffffffffffffffffff\n      and\n        /* \"UniversalADs.sol\":4126:4133  _amount */\n      dup3\n        /* \"UniversalADs.sol\":4106:4138  owner().call{value: _amount}(\"\") */\n      mload(0x40)\n      tag_187\n      swap1\n      tag_188\n      jump\t// in\n    tag_187:\n      0x00\n      mload(0x40)\n      dup1\n      dup4\n      sub\n      dup2\n      dup6\n      dup8\n      gas\n      call\n      swap3\n      pop\n      pop\n      pop\n      returndatasize\n      dup1\n      0x00\n      dup2\n      eq\n      tag_191\n      jumpi\n      mload(0x40)\n      swap2\n      pop\n      and(add(returndatasize, 0x3f), not(0x1f))\n      dup3\n      add\n      0x40\n      mstore\n      returndatasize\n      dup3\n      mstore\n      returndatasize\n      0x00\n      0x20\n      dup5\n      add\n      returndatacopy\n      jump(tag_190)\n    tag_191:\n      0x60\n      swap2\n      pop\n    tag_190:\n      pop\n        /* \"UniversalADs.sol\":4087:4138  (bool success, ) = owner().call{value: _amount}(\"\") */\n      pop\n      swap1\n      pop\n        /* \"UniversalADs.sol\":4156:4163  success */\n      dup1\n        /* \"UniversalADs.sol\":4148:4174  require(success, \"Failed\") */\n      tag_192\n      jumpi\n      mload(0x40)\n      0x08c379a000000000000000000000000000000000000000000000000000000000\n      dup2\n      mstore\n      0x04\n      add\n      tag_193\n      swap1\n      tag_194\n      jump\t// in\n    tag_193:\n      mload(0x40)\n      dup1\n      swap2\n      sub\n      swap1\n      revert\n    tag_192:\n        /* \"UniversalADs.sol\":4028:4181  {... */\n      pop\n      pop\n        /* \"UniversalADs.sol\":3991:4181  function withdraw() public onlyOwner {... */\n      jump\t// out\n        /* \"UniversalADs.sol\":4756:4819  function unpause() public onlyOwner {... */\n    tag_73:\n        /* \"_ownable.sol\":1552:1565  _checkOwner() */\n      tag_196\n        /* \"_ownable.sol\":1552:1563  _checkOwner */\n      tag_163\n        /* \"_ownable.sol\":1552:1565  _checkOwner() */\n      jump\t// in\n    tag_196:\n        /* \"UniversalADs.sol\":4802:4812  _unpause() */\n      tag_198\n        /* \"UniversalADs.sol\":4802:4810  _unpause */\n      tag_199\n        /* \"UniversalADs.sol\":4802:4812  _unpause() */\n      jump\t// in\n    tag_198:\n        /* \"UniversalADs.sol\":4756:4819  function unpause() public onlyOwner {... */\n      jump\t// out\n        /* \"UniversalADs.sol\":1000:1022  address public manager */\n    tag_76:\n      0x09\n      0x00\n      swap1\n      sload\n      swap1\n      0x0100\n      exp\n      swap1\n      div\n      0xffffffffffffffffffffffffffffffffffffffff\n      and\n      dup2\n      jump\t// out\n        /* \"UniversalADs.sol\":2707:3386  function claim() public whenNotPaused returns (bool) {... */\n    tag_81:\n        /* \"UniversalADs.sol\":2754:2758  bool */\n      0x00\n        /* \"_pausable.sol\":1495:1514  _requireNotPaused() */\n      tag_201\n        /* \"_pausable.sol\":1495:1512  _requireNotPaused */\n      tag_167\n        /* \"_pausable.sol\":1495:1514  _requireNotPaused() */\n      jump\t// in\n    tag_201:\n        /* \"UniversalADs.sol\":2796:2799  end */\n      sload(0x06)\n        /* \"UniversalADs.sol\":2778:2793  block.timestamp */\n      timestamp\n        /* \"UniversalADs.sol\":2778:2799  block.timestamp < end */\n      lt\n        /* \"UniversalADs.sol\":2770:2825  require(block.timestamp < end, \"There is no active ad\") */\n      tag_203\n      jumpi\n      mload(0x40)\n      0x08c379a000000000000000000000000000000000000000000000000000000000\n      dup2\n      mstore\n      0x04\n      add\n      tag_204\n      swap1\n      tag_205\n      jump\t// in\n    tag_204:\n      mload(0x40)\n      dup1\n      swap2\n      sub\n      swap1\n      revert\n    tag_203:\n        /* \"UniversalADs.sol\":2841:2850  uint256 i */\n      0x00\n        /* \"UniversalADs.sol\":2853:2854  0 */\n      0x00\n        /* \"UniversalADs.sol\":2841:2854  uint256 i = 0 */\n      swap1\n      pop\n        /* \"UniversalADs.sol\":2836:2983  for (uint256 i = 0; i < permission.length; i++) {... */\n    tag_206:\n        /* \"UniversalADs.sol\":2860:2870  permission */\n      0x0b\n        /* \"UniversalADs.sol\":2860:2877  permission.length */\n      dup1\n      sload\n      swap1\n      pop\n        /* \"UniversalADs.sol\":2856:2857  i */\n      dup2\n        /* \"UniversalADs.sol\":2856:2877  i < permission.length */\n      lt\n        /* \"UniversalADs.sol\":2836:2983  for (uint256 i = 0; i < permission.length; i++) {... */\n      iszero\n      tag_207\n      jumpi\n        /* \"UniversalADs.sol\":2919:2931  _msgSender() */\n      tag_209\n        /* \"UniversalADs.sol\":2919:2929  _msgSender */\n      tag_170\n        /* \"UniversalADs.sol\":2919:2931  _msgSender() */\n      jump\t// in\n    tag_209:\n        /* \"UniversalADs.sol\":2902:2931  permission[i] == _msgSender() */\n      0xffffffffffffffffffffffffffffffffffffffff\n      and\n        /* \"UniversalADs.sol\":2902:2912  permission */\n      0x0b\n        /* \"UniversalADs.sol\":2913:2914  i */\n      dup3\n        /* \"UniversalADs.sol\":2902:2915  permission[i] */\n      dup2\n      sload\n      dup2\n      lt\n      tag_210\n      jumpi\n      tag_211\n      tag_212\n      jump\t// in\n    tag_211:\n    tag_210:\n      swap1\n      0x00\n      mstore\n      keccak256(0x00, 0x20)\n      add\n      0x00\n      swap1\n      sload\n      swap1\n      0x0100\n      exp\n      swap1\n      div\n      0xffffffffffffffffffffffffffffffffffffffff\n      and\n        /* \"UniversalADs.sol\":2902:2931  permission[i] == _msgSender() */\n      0xffffffffffffffffffffffffffffffffffffffff\n      and\n      sub\n        /* \"UniversalADs.sol\":2898:2972  if (permission[i] == _msgSender()) revert UserClaimedAlready(_msgSender()) */\n      tag_214\n      jumpi\n        /* \"UniversalADs.sol\":2959:2971  _msgSender() */\n      tag_215\n        /* \"UniversalADs.sol\":2959:2969  _msgSender */\n      tag_170\n        /* \"UniversalADs.sol\":2959:2971  _msgSender() */\n      jump\t// in\n    tag_215:\n        /* \"UniversalADs.sol\":2940:2972  UserClaimedAlready(_msgSender()) */\n      mload(0x40)\n      0x33de2ce300000000000000000000000000000000000000000000000000000000\n      dup2\n      mstore\n      0x04\n      add\n      tag_216\n      swap2\n      swap1\n      tag_78\n      jump\t// in\n    tag_216:\n      mload(0x40)\n      dup1\n      swap2\n      sub\n      swap1\n      revert\n        /* \"UniversalADs.sol\":2898:2972  if (permission[i] == _msgSender()) revert UserClaimedAlready(_msgSender()) */\n    tag_214:\n        /* \"UniversalADs.sol\":2879:2882  i++ */\n      dup1\n      dup1\n      0x01\n      add\n      swap2\n      pop\n      pop\n        /* \"UniversalADs.sol\":2836:2983  for (uint256 i = 0; i < permission.length; i++) {... */\n      jump(tag_206)\n    tag_207:\n      pop\n        /* \"UniversalADs.sol\":2993:3018  _claimCounter.increment() */\n      tag_217\n        /* \"UniversalADs.sol\":2993:3006  _claimCounter */\n      0x01\n        /* \"UniversalADs.sol\":2993:3016  _claimCounter.increment */\n      tag_218\n        /* \"UniversalADs.sol\":2993:3018  _claimCounter.increment() */\n      jump\t// in\n    tag_217:\n        /* \"UniversalADs.sol\":3028:3038  permission */\n      0x0b\n        /* \"UniversalADs.sol\":3044:3056  _msgSender() */\n      tag_219\n        /* \"UniversalADs.sol\":3044:3054  _msgSender */\n      tag_170\n        /* \"UniversalADs.sol\":3044:3056  _msgSender() */\n      jump\t// in\n    tag_219:\n        /* \"UniversalADs.sol\":3028:3057  permission.push(_msgSender()) */\n      swap1\n      dup1\n      0x01\n      dup2\n      sload\n      add\n      dup1\n      dup3\n      sstore\n      dup1\n      swap2\n      pop\n      pop\n      0x01\n      swap1\n      sub\n      swap1\n      0x00\n      mstore\n      keccak256(0x00, 0x20)\n      add\n      0x00\n      swap1\n      swap2\n      swap1\n      swap2\n      swap1\n      swap2\n      0x0100\n      exp\n      dup2\n      sload\n      dup2\n      0xffffffffffffffffffffffffffffffffffffffff\n      mul\n      not\n      and\n      swap1\n      dup4\n      0xffffffffffffffffffffffffffffffffffffffff\n      and\n      mul\n      or\n      swap1\n      sstore\n      pop\n        /* \"UniversalADs.sol\":3103:3122  uint256 claimAmount */\n      0x00\n        /* \"UniversalADs.sol\":3125:3164  calcPercentage(amount, claimPercentage) */\n      tag_221\n        /* \"UniversalADs.sol\":3140:3146  amount */\n      sload(0x08)\n        /* \"UniversalADs.sol\":3148:3163  claimPercentage */\n      sload(0x05)\n        /* \"UniversalADs.sol\":3125:3139  calcPercentage */\n      tag_134\n        /* \"UniversalADs.sol\":3125:3164  calcPercentage(amount, claimPercentage) */\n      jump\t// in\n    tag_221:\n        /* \"UniversalADs.sol\":3103:3164  uint256 claimAmount = calcPercentage(amount, claimPercentage) */\n      swap1\n      pop\n        /* \"UniversalADs.sol\":3175:3187  bool success */\n      0x00\n        /* \"UniversalADs.sol\":3201:3213  _msgSender() */\n      tag_222\n        /* \"UniversalADs.sol\":3201:3211  _msgSender */\n      tag_170\n        /* \"UniversalADs.sol\":3201:3213  _msgSender() */\n      jump\t// in\n    tag_222:\n        /* \"UniversalADs.sol\":3193:3219  address(_msgSender()).call */\n      0xffffffffffffffffffffffffffffffffffffffff\n      and\n        /* \"UniversalADs.sol\":3227:3238  claimAmount */\n      dup3\n        /* \"UniversalADs.sol\":3193:3243  address(_msgSender()).call{value: claimAmount}(\"\") */\n      mload(0x40)\n      tag_223\n      swap1\n      tag_188\n      jump\t// in\n    tag_223:\n      0x00\n      mload(0x40)\n      dup1\n      dup4\n      sub\n      dup2\n      dup6\n      dup8\n      gas\n      call\n      swap3\n      pop\n      pop\n      pop\n      returndatasize\n      dup1\n      0x00\n      dup2\n      eq\n      tag_226\n      jumpi\n      mload(0x40)\n      swap2\n      pop\n      and(add(returndatasize, 0x3f), not(0x1f))\n      dup3\n      add\n      0x40\n      mstore\n      returndatasize\n      dup3\n      mstore\n      returndatasize\n      0x00\n      0x20\n      dup5\n      add\n      returndatacopy\n      jump(tag_225)\n    tag_226:\n      0x60\n      swap2\n      pop\n    tag_225:\n      pop\n        /* \"UniversalADs.sol\":3174:3243  (bool success, ) = address(_msgSender()).call{value: claimAmount}(\"\") */\n      pop\n      swap1\n      pop\n        /* \"UniversalADs.sol\":3261:3268  success */\n      dup1\n        /* \"UniversalADs.sol\":3253:3293  require(success, \"Failed to send Ether\") */\n      tag_227\n      jumpi\n      mload(0x40)\n      0x08c379a000000000000000000000000000000000000000000000000000000000\n      dup2\n      mstore\n      0x04\n      add\n      tag_228\n      swap1\n      tag_229\n      jump\t// in\n    tag_228:\n      mload(0x40)\n      dup1\n      swap2\n      sub\n      swap1\n      revert\n    tag_227:\n        /* \"UniversalADs.sol\":3323:3357  Claimed(_msgSender(), claimAmount) */\n      0xd8138f8a3f377c5259ca548e70e4c2de94f129f5a11036a15b69513cba2b426a\n        /* \"UniversalADs.sol\":3331:3343  _msgSender() */\n      tag_230\n        /* \"UniversalADs.sol\":3331:3341  _msgSender */\n      tag_170\n        /* \"UniversalADs.sol\":3331:3343  _msgSender() */\n      jump\t// in\n    tag_230:\n        /* \"UniversalADs.sol\":3345:3356  claimAmount */\n      dup4\n        /* \"UniversalADs.sol\":3323:3357  Claimed(_msgSender(), claimAmount) */\n      mload(0x40)\n      tag_231\n      swap3\n      swap2\n      swap1\n      tag_232\n      jump\t// in\n    tag_231:\n      mload(0x40)\n      dup1\n      swap2\n      sub\n      swap1\n      log1\n        /* \"UniversalADs.sol\":3375:3379  true */\n      0x01\n        /* \"UniversalADs.sol\":3368:3379  return true */\n      swap3\n      pop\n      pop\n      pop\n        /* \"UniversalADs.sol\":2707:3386  function claim() public whenNotPaused returns (bool) {... */\n      swap1\n      jump\t// out\n        /* \"UniversalADs.sol\":4255:4484  function transferBalance(address payable _to, uint256 _amount) public onlyOwner {... */\n    tag_87:\n        /* \"_ownable.sol\":1552:1565  _checkOwner() */\n      tag_234\n        /* \"_ownable.sol\":1552:1563  _checkOwner */\n      tag_163\n        /* \"_ownable.sol\":1552:1565  _checkOwner() */\n      jump\t// in\n    tag_234:\n        /* \"UniversalADs.sol\":4395:4407  bool success */\n      0x00\n        /* \"UniversalADs.sol\":4413:4416  _to */\n      dup3\n        /* \"UniversalADs.sol\":4413:4421  _to.call */\n      0xffffffffffffffffffffffffffffffffffffffff\n      and\n        /* \"UniversalADs.sol\":4429:4436  _amount */\n      dup3\n        /* \"UniversalADs.sol\":4413:4441  _to.call{value: _amount}(\"\") */\n      mload(0x40)\n      tag_236\n      swap1\n      tag_188\n      jump\t// in\n    tag_236:\n      0x00\n      mload(0x40)\n      dup1\n      dup4\n      sub\n      dup2\n      dup6\n      dup8\n      gas\n      call\n      swap3\n      pop\n      pop\n      pop\n      returndatasize\n      dup1\n      0x00\n      dup2\n      eq\n      tag_239\n      jumpi\n      mload(0x40)\n      swap2\n      pop\n      and(add(returndatasize, 0x3f), not(0x1f))\n      dup3\n      add\n      0x40\n      mstore\n      returndatasize\n      dup3\n      mstore\n      returndatasize\n      0x00\n      0x20\n      dup5\n      add\n      returndatacopy\n      jump(tag_238)\n    tag_239:\n      0x60\n      swap2\n      pop\n    tag_238:\n      pop\n        /* \"UniversalADs.sol\":4394:4441  (bool success, ) = _to.call{value: _amount}(\"\") */\n      pop\n      swap1\n      pop\n        /* \"UniversalADs.sol\":4459:4466  success */\n      dup1\n        /* \"UniversalADs.sol\":4451:4477  require(success, \"Failed\") */\n      tag_240\n      jumpi\n      mload(0x40)\n      0x08c379a000000000000000000000000000000000000000000000000000000000\n      dup2\n      mstore\n      0x04\n      add\n      tag_241\n      swap1\n      tag_194\n      jump\t// in\n    tag_241:\n      mload(0x40)\n      dup1\n      swap2\n      sub\n      swap1\n      revert\n    tag_240:\n        /* \"UniversalADs.sol\":4335:4484  {... */\n      pop\n        /* \"UniversalADs.sol\":4255:4484  function transferBalance(address payable _to, uint256 _amount) public onlyOwner {... */\n      pop\n      pop\n      jump\t// out\n        /* \"UniversalADs.sol\":1158:1411  function getAD()... */\n    tag_90:\n        /* \"UniversalADs.sol\":1233:1240  uint256 */\n      0x00\n        /* \"UniversalADs.sol\":1254:1261  uint256 */\n      0x00\n        /* \"UniversalADs.sol\":1275:1282  uint256 */\n      0x00\n        /* \"UniversalADs.sol\":1296:1303  address */\n      0x00\n        /* \"UniversalADs.sol\":1317:1330  string memory */\n      0x60\n        /* \"UniversalADs.sol\":1363:1366  end */\n      sload(0x06)\n        /* \"UniversalADs.sol\":1368:1376  duration */\n      sload(0x07)\n        /* \"UniversalADs.sol\":1378:1384  amount */\n      sload(0x08)\n        /* \"UniversalADs.sol\":1386:1393  manager */\n      0x09\n      0x00\n      swap1\n      sload\n      swap1\n      0x0100\n      exp\n      swap1\n      div\n      0xffffffffffffffffffffffffffffffffffffffff\n      and\n        /* \"UniversalADs.sol\":1395:1403  metadata */\n      0x0a\n        /* \"UniversalADs.sol\":1355:1404  return (end, duration, amount, manager, metadata) */\n      dup1\n      dup1\n      sload\n      tag_243\n      swap1\n      tag_178\n      jump\t// in\n    tag_243:\n      dup1\n      0x1f\n      add\n      0x20\n      dup1\n      swap2\n      div\n      mul\n      0x20\n      add\n      mload(0x40)\n      swap1\n      dup2\n      add\n      0x40\n      mstore\n      dup1\n      swap3\n      swap2\n      swap1\n      dup2\n      dup2\n      mstore\n      0x20\n      add\n      dup3\n      dup1\n      sload\n      tag_244\n      swap1\n      tag_178\n      jump\t// in\n    tag_244:\n      dup1\n      iszero\n      tag_245\n      jumpi\n      dup1\n      0x1f\n      lt\n      tag_246\n      jumpi\n      0x0100\n      dup1\n      dup4\n      sload\n      div\n      mul\n      dup4\n      mstore\n      swap2\n      0x20\n      add\n      swap2\n      jump(tag_245)\n    tag_246:\n      dup3\n      add\n      swap2\n      swap1\n      0x00\n      mstore\n      keccak256(0x00, 0x20)\n      swap1\n    tag_247:\n      dup2\n      sload\n      dup2\n      mstore\n      swap1\n      0x01\n      add\n      swap1\n      0x20\n      add\n      dup1\n      dup4\n      gt\n      tag_247\n      jumpi\n      dup3\n      swap1\n      sub\n      0x1f\n      and\n      dup3\n      add\n      swap2\n    tag_245:\n      pop\n      pop\n      pop\n      pop\n      pop\n      swap1\n      pop\n      swap5\n      pop\n      swap5\n      pop\n      swap5\n      pop\n      swap5\n      pop\n      swap5\n      pop\n        /* \"UniversalADs.sol\":1158:1411  function getAD()... */\n      swap1\n      swap2\n      swap3\n      swap4\n      swap5\n      jump\t// out\n        /* \"_pausable.sol\":1871:1955  function paused() public view virtual returns (bool) {... */\n    tag_95:\n        /* \"_pausable.sol\":1918:1922  bool */\n      0x00\n        /* \"_pausable.sol\":1941:1948  _paused */\n      0x00\n      0x14\n      swap1\n      sload\n      swap1\n      0x0100\n      exp\n      swap1\n      div\n      0xff\n      and\n        /* \"_pausable.sol\":1934:1948  return _paused */\n      swap1\n      pop\n        /* \"_pausable.sol\":1871:1955  function paused() public view virtual returns (bool) {... */\n      swap1\n      jump\t// out\n        /* \"UniversalADs.sol\":1417:2427  function advertiser(string memory _metadata, uint256 _duration) public payable whenNotPaused returns (bool, uint256) {... */\n    tag_100:\n        /* \"UniversalADs.sol\":1519:1523  bool */\n      0x00\n        /* \"UniversalADs.sol\":1525:1532  uint256 */\n      0x00\n        /* \"_pausable.sol\":1495:1514  _requireNotPaused() */\n      tag_250\n        /* \"_pausable.sol\":1495:1512  _requireNotPaused */\n      tag_167\n        /* \"_pausable.sol\":1495:1514  _requireNotPaused() */\n      jump\t// in\n    tag_250:\n        /* \"UniversalADs.sol\":1544:1556  uint256 aDay */\n      0x00\n        /* \"UniversalADs.sol\":1559:1565  1 days */\n      0x015180\n        /* \"UniversalADs.sol\":1544:1565  uint256 aDay = 1 days */\n      swap1\n      pop\n        /* \"UniversalADs.sol\":1680:1681  0 */\n      0x00\n        /* \"UniversalADs.sol\":1668:1677  _duration */\n      dup5\n        /* \"UniversalADs.sol\":1668:1681  _duration > 0 */\n      gt\n        /* \"UniversalADs.sol\":1660:1717  require(_duration > 0, \"Duration must be grather than 0\") */\n      tag_252\n      jumpi\n      mload(0x40)\n      0x08c379a000000000000000000000000000000000000000000000000000000000\n      dup2\n      mstore\n      0x04\n      add\n      tag_253\n      swap1\n      tag_254\n      jump\t// in\n    tag_253:\n      mload(0x40)\n      dup1\n      swap2\n      sub\n      swap1\n      revert\n    tag_252:\n        /* \"UniversalADs.sol\":1792:1795  end */\n      sload(0x06)\n        /* \"UniversalADs.sol\":1774:1789  block.timestamp */\n      timestamp\n        /* \"UniversalADs.sol\":1774:1795  block.timestamp < end */\n      lt\n        /* \"UniversalADs.sol\":1770:1824  if (block.timestamp < end) revert ThereIsActiveAd(end) */\n      iszero\n      tag_255\n      jumpi\n        /* \"UniversalADs.sol\":1820:1823  end */\n      sload(0x06)\n        /* \"UniversalADs.sol\":1804:1824  ThereIsActiveAd(end) */\n      mload(0x40)\n      0x010408dd00000000000000000000000000000000000000000000000000000000\n      dup2\n      mstore\n      0x04\n      add\n      tag_256\n      swap2\n      swap1\n      tag_54\n      jump\t// in\n    tag_256:\n      mload(0x40)\n      dup1\n      swap2\n      sub\n      swap1\n      revert\n        /* \"UniversalADs.sol\":1770:1824  if (block.timestamp < end) revert ThereIsActiveAd(end) */\n    tag_255:\n        /* \"UniversalADs.sol\":1941:1950  _duration */\n      dup4\n        /* \"UniversalADs.sol\":1933:1938  price */\n      sload(0x04)\n        /* \"UniversalADs.sol\":1933:1950  price * _duration */\n      tag_257\n      swap2\n      swap1\n      tag_258\n      jump\t// in\n    tag_257:\n        /* \"UniversalADs.sol\":1921:1930  msg.value */\n      callvalue\n        /* \"UniversalADs.sol\":1921:1950  msg.value < price * _duration */\n      lt\n        /* \"UniversalADs.sol\":1917:2010  if (msg.value < price * _duration) revert PriceNotMet(price, price * _duration, _msgSender()) */\n      iszero\n      tag_259\n      jumpi\n        /* \"UniversalADs.sol\":1971:1976  price */\n      sload(0x04)\n        /* \"UniversalADs.sol\":1986:1995  _duration */\n      dup5\n        /* \"UniversalADs.sol\":1978:1983  price */\n      sload(0x04)\n        /* \"UniversalADs.sol\":1978:1995  price * _duration */\n      tag_260\n      swap2\n      swap1\n      tag_258\n      jump\t// in\n    tag_260:\n        /* \"UniversalADs.sol\":1997:2009  _msgSender() */\n      tag_261\n        /* \"UniversalADs.sol\":1997:2007  _msgSender */\n      tag_170\n        /* \"UniversalADs.sol\":1997:2009  _msgSender() */\n      jump\t// in\n    tag_261:\n        /* \"UniversalADs.sol\":1959:2010  PriceNotMet(price, price * _duration, _msgSender()) */\n      mload(0x40)\n      0xf665e12900000000000000000000000000000000000000000000000000000000\n      dup2\n      mstore\n      0x04\n      add\n      tag_262\n      swap4\n      swap3\n      swap2\n      swap1\n      tag_263\n      jump\t// in\n    tag_262:\n      mload(0x40)\n      dup1\n      swap2\n      sub\n      swap1\n      revert\n        /* \"UniversalADs.sol\":1917:2010  if (msg.value < price * _duration) revert PriceNotMet(price, price * _duration, _msgSender()) */\n    tag_259:\n        /* \"UniversalADs.sol\":2021:2037  uint256 ownerFee */\n      0x00\n        /* \"UniversalADs.sol\":2040:2070  calcPercentage(msg.value, fee) */\n      tag_264\n        /* \"UniversalADs.sol\":2055:2064  msg.value */\n      callvalue\n        /* \"UniversalADs.sol\":2066:2069  fee */\n      sload(0x03)\n        /* \"UniversalADs.sol\":2040:2054  calcPercentage */\n      tag_134\n        /* \"UniversalADs.sol\":2040:2070  calcPercentage(msg.value, fee) */\n      jump\t// in\n    tag_264:\n        /* \"UniversalADs.sol\":2021:2070  uint256 ownerFee = calcPercentage(msg.value, fee) */\n      swap1\n      pop\n        /* \"UniversalADs.sol\":2081:2093  bool success */\n      0x00\n        /* \"UniversalADs.sol\":2099:2106  owner() */\n      tag_265\n        /* \"UniversalADs.sol\":2099:2104  owner */\n      tag_124\n        /* \"UniversalADs.sol\":2099:2106  owner() */\n      jump\t// in\n    tag_265:\n        /* \"UniversalADs.sol\":2099:2111  owner().call */\n      0xffffffffffffffffffffffffffffffffffffffff\n      and\n        /* \"UniversalADs.sol\":2119:2127  ownerFee */\n      dup3\n        /* \"UniversalADs.sol\":2099:2132  owner().call{value: ownerFee}(\"\") */\n      mload(0x40)\n      tag_266\n      swap1\n      tag_188\n      jump\t// in\n    tag_266:\n      0x00\n      mload(0x40)\n      dup1\n      dup4\n      sub\n      dup2\n      dup6\n      dup8\n      gas\n      call\n      swap3\n      pop\n      pop\n      pop\n      returndatasize\n      dup1\n      0x00\n      dup2\n      eq\n      tag_269\n      jumpi\n      mload(0x40)\n      swap2\n      pop\n      and(add(returndatasize, 0x3f), not(0x1f))\n      dup3\n      add\n      0x40\n      mstore\n      returndatasize\n      dup3\n      mstore\n      returndatasize\n      0x00\n      0x20\n      dup5\n      add\n      returndatacopy\n      jump(tag_268)\n    tag_269:\n      0x60\n      swap2\n      pop\n    tag_268:\n      pop\n        /* \"UniversalADs.sol\":2080:2132  (bool success, ) = owner().call{value: ownerFee}(\"\") */\n      pop\n      swap1\n      pop\n        /* \"UniversalADs.sol\":2150:2157  success */\n      dup1\n        /* \"UniversalADs.sol\":2142:2182  require(success, \"Failed to send Ether\") */\n      tag_270\n      jumpi\n      mload(0x40)\n      0x08c379a000000000000000000000000000000000000000000000000000000000\n      dup2\n      mstore\n      0x04\n      add\n      tag_271\n      swap1\n      tag_229\n      jump\t// in\n    tag_271:\n      mload(0x40)\n      dup1\n      swap2\n      sub\n      swap1\n      revert\n    tag_270:\n        /* \"UniversalADs.sol\":2225:2234  _duration */\n      dup6\n        /* \"UniversalADs.sol\":2218:2222  aDay */\n      dup4\n        /* \"UniversalADs.sol\":2218:2234  aDay * _duration */\n      tag_272\n      swap2\n      swap1\n      tag_258\n      jump\t// in\n    tag_272:\n        /* \"UniversalADs.sol\":2199:2214  block.timestamp */\n      timestamp\n        /* \"UniversalADs.sol\":2199:2235  block.timestamp + (aDay * _duration) */\n      tag_273\n      swap2\n      swap1\n      tag_274\n      jump\t// in\n    tag_273:\n        /* \"UniversalADs.sol\":2193:2196  end */\n      0x06\n        /* \"UniversalADs.sol\":2193:2235  end = block.timestamp + (aDay * _duration) */\n      dup2\n      swap1\n      sstore\n      pop\n        /* \"UniversalADs.sol\":2256:2265  _duration */\n      dup6\n        /* \"UniversalADs.sol\":2245:2253  duration */\n      0x07\n        /* \"UniversalADs.sol\":2245:2265  duration = _duration */\n      dup2\n      swap1\n      sstore\n      pop\n        /* \"UniversalADs.sol\":2285:2297  _msgSender() */\n      tag_275\n        /* \"UniversalADs.sol\":2285:2295  _msgSender */\n      tag_170\n        /* \"UniversalADs.sol\":2285:2297  _msgSender() */\n      jump\t// in\n    tag_275:\n        /* \"UniversalADs.sol\":2275:2282  manager */\n      0x09\n      0x00\n        /* \"UniversalADs.sol\":2275:2297  manager = _msgSender() */\n      0x0100\n      exp\n      dup2\n      sload\n      dup2\n      0xffffffffffffffffffffffffffffffffffffffff\n      mul\n      not\n      and\n      swap1\n      dup4\n      0xffffffffffffffffffffffffffffffffffffffff\n      and\n      mul\n      or\n      swap1\n      sstore\n      pop\n        /* \"UniversalADs.sol\":2318:2327  _metadata */\n      dup7\n        /* \"UniversalADs.sol\":2307:2315  metadata */\n      0x0a\n        /* \"UniversalADs.sol\":2307:2327  metadata = _metadata */\n      swap1\n      dup2\n      tag_276\n      swap2\n      swap1\n      tag_174\n      jump\t// in\n    tag_276:\n      pop\n        /* \"UniversalADs.sol\":2354:2363  _duration */\n      dup6\n        /* \"UniversalADs.sol\":2346:2351  price */\n      sload(0x04)\n        /* \"UniversalADs.sol\":2346:2363  price * _duration */\n      tag_277\n      swap2\n      swap1\n      tag_258\n      jump\t// in\n    tag_277:\n        /* \"UniversalADs.sol\":2337:2343  amount */\n      0x08\n        /* \"UniversalADs.sol\":2337:2363  amount = price * _duration */\n      dup2\n      swap1\n      sstore\n      pop\n        /* \"UniversalADs.sol\":2381:2391  permission */\n      0x0b\n      0x00\n        /* \"UniversalADs.sol\":2374:2391  delete permission */\n      tag_278\n      swap2\n      swap1\n      tag_279\n      jump\t// in\n    tag_278:\n        /* \"UniversalADs.sol\":2410:2414  true */\n      0x01\n        /* \"UniversalADs.sol\":2416:2419  end */\n      sload(0x06)\n        /* \"UniversalADs.sol\":2402:2420  return (true, end) */\n      swap5\n      pop\n      swap5\n      pop\n      pop\n      pop\n      pop\n        /* \"UniversalADs.sol\":1417:2427  function advertiser(string memory _metadata, uint256 _duration) public payable whenNotPaused returns (bool, uint256) {... */\n      swap3\n      pop\n      swap3\n      swap1\n      pop\n      jump\t// out\n        /* \"_ownable.sol\":2314:2415  function renounceOwnership() public virtual onlyOwner {... */\n    tag_105:\n        /* \"_ownable.sol\":1552:1565  _checkOwner() */\n      tag_281\n        /* \"_ownable.sol\":1552:1563  _checkOwner */\n      tag_163\n        /* \"_ownable.sol\":1552:1565  _checkOwner() */\n      jump\t// in\n    tag_281:\n        /* \"_ownable.sol\":2378:2408  _transferOwnership(address(0)) */\n      tag_283\n        /* \"_ownable.sol\":2405:2406  0 */\n      0x00\n        /* \"_ownable.sol\":2378:2396  _transferOwnership */\n      tag_284\n        /* \"_ownable.sol\":2378:2408  _transferOwnership(address(0)) */\n      jump\t// in\n    tag_283:\n        /* \"_ownable.sol\":2314:2415  function renounceOwnership() public virtual onlyOwner {... */\n      jump\t// out\n        /* \"UniversalADs.sol\":734:771  uint256 public requiredFollowers = 20 */\n    tag_108:\n      sload(0x02)\n      dup2\n      jump\t// out\n        /* \"UniversalADs.sol\":865:899  uint256 public claimPercentage = 2 */\n    tag_112:\n      sload(0x05)\n      dup2\n      jump\t// out\n        /* \"UniversalADs.sol\":1056:1083  address[] public permission */\n    tag_117:\n      0x0b\n      dup2\n      dup2\n      sload\n      dup2\n      lt\n      tag_285\n      jumpi\n      0x00\n      dup1\n      revert\n    tag_285:\n      swap1\n      0x00\n      mstore\n      keccak256(0x00, 0x20)\n      add\n      0x00\n      swap2\n      pop\n      sload\n      swap1\n      0x0100\n      exp\n      swap1\n      div\n      0xffffffffffffffffffffffffffffffffffffffff\n      and\n      dup2\n      jump\t// out\n        /* \"UniversalADs.sol\":4667:4726  function pause() public onlyOwner {... */\n    tag_121:\n        /* \"_ownable.sol\":1552:1565  _checkOwner() */\n      tag_288\n        /* \"_ownable.sol\":1552:1563  _checkOwner */\n      tag_163\n        /* \"_ownable.sol\":1552:1565  _checkOwner() */\n      jump\t// in\n    tag_288:\n        /* \"UniversalADs.sol\":4711:4719  _pause() */\n      tag_290\n        /* \"UniversalADs.sol\":4711:4717  _pause */\n      tag_291\n        /* \"UniversalADs.sol\":4711:4719  _pause() */\n      jump\t// in\n    tag_290:\n        /* \"UniversalADs.sol\":4667:4726  function pause() public onlyOwner {... */\n      jump\t// out\n        /* \"_ownable.sol\":1659:1744  function owner() public view virtual returns (address) {... */\n    tag_124:\n        /* \"_ownable.sol\":1705:1712  address */\n      0x00\n        /* \"_ownable.sol\":1731:1737  _owner */\n      0x00\n      0x00\n      swap1\n      sload\n      swap1\n      0x0100\n      exp\n      swap1\n      div\n      0xffffffffffffffffffffffffffffffffffffffff\n      and\n        /* \"_ownable.sol\":1724:1737  return _owner */\n      swap1\n      pop\n        /* \"_ownable.sol\":1659:1744  function owner() public view virtual returns (address) {... */\n      swap1\n      jump\t// out\n        /* \"UniversalADs.sol\":818:848  uint256 public price = 1 ether */\n    tag_128:\n      sload(0x04)\n      dup2\n      jump\t// out\n        /* \"UniversalADs.sol\":3531:3701  function calcPercentage(uint256 _amount, uint256 bps) public pure returns (uint256) {... */\n    tag_134:\n        /* \"UniversalADs.sol\":3606:3613  uint256 */\n      0x00\n        /* \"UniversalADs.sol\":3652:3655  100 */\n      0x64\n        /* \"UniversalADs.sol\":3644:3647  bps */\n      dup3\n        /* \"UniversalADs.sol\":3634:3641  _amount */\n      dup5\n        /* \"UniversalADs.sol\":3634:3647  _amount * bps */\n      tag_294\n      swap2\n      swap1\n      tag_258\n      jump\t// in\n    tag_294:\n        /* \"UniversalADs.sol\":3633:3655  (_amount * bps) >= 100 */\n      lt\n      iszero\n        /* \"UniversalADs.sol\":3625:3656  require((_amount * bps) >= 100) */\n      tag_295\n      jumpi\n      revert(0x00, 0x00)\n    tag_295:\n        /* \"UniversalADs.sol\":3691:3694  100 */\n      0x64\n        /* \"UniversalADs.sol\":3684:3687  bps */\n      dup3\n        /* \"UniversalADs.sol\":3674:3681  _amount */\n      dup5\n        /* \"UniversalADs.sol\":3674:3687  _amount * bps */\n      tag_296\n      swap2\n      swap1\n      tag_258\n      jump\t// in\n    tag_296:\n        /* \"UniversalADs.sol\":3673:3694  (_amount * bps) / 100 */\n      tag_297\n      swap2\n      swap1\n      tag_298\n      jump\t// in\n    tag_297:\n        /* \"UniversalADs.sol\":3666:3694  return (_amount * bps) / 100 */\n      swap1\n      pop\n        /* \"UniversalADs.sol\":3531:3701  function calcPercentage(uint256 _amount, uint256 bps) public pure returns (uint256) {... */\n      swap3\n      swap2\n      pop\n      pop\n      jump\t// out\n        /* \"UniversalADs.sol\":973:994  uint256 public amount */\n    tag_138:\n      sload(0x08)\n      dup2\n      jump\t// out\n        /* \"UniversalADs.sol\":777:799  uint256 public fee = 1 */\n    tag_142:\n      sload(0x03)\n      dup2\n      jump\t// out\n        /* \"UniversalADs.sol\":920:938  uint256 public end */\n    tag_146:\n      sload(0x06)\n      dup2\n      jump\t// out\n        /* \"_ownable.sol\":2564:2779  function transferOwnership(address newOwner) public virtual onlyOwner {... */\n    tag_152:\n        /* \"_ownable.sol\":1552:1565  _checkOwner() */\n      tag_300\n        /* \"_ownable.sol\":1552:1563  _checkOwner */\n      tag_163\n        /* \"_ownable.sol\":1552:1565  _checkOwner() */\n      jump\t// in\n    tag_300:\n        /* \"_ownable.sol\":2668:2669  0 */\n      0x00\n        /* \"_ownable.sol\":2648:2670  newOwner == address(0) */\n      0xffffffffffffffffffffffffffffffffffffffff\n      and\n        /* \"_ownable.sol\":2648:2656  newOwner */\n      dup2\n        /* \"_ownable.sol\":2648:2670  newOwner == address(0) */\n      0xffffffffffffffffffffffffffffffffffffffff\n      and\n      sub\n        /* \"_ownable.sol\":2644:2735  if (newOwner == address(0)) {... */\n      tag_302\n      jumpi\n        /* \"_ownable.sol\":2721:2722  0 */\n      0x00\n        /* \"_ownable.sol\":2693:2724  OwnableInvalidOwner(address(0)) */\n      mload(0x40)\n      0x1e4fbdf700000000000000000000000000000000000000000000000000000000\n      dup2\n      mstore\n      0x04\n      add\n      tag_303\n      swap2\n      swap1\n      tag_78\n      jump\t// in\n    tag_303:\n      mload(0x40)\n      dup1\n      swap2\n      sub\n      swap1\n      revert\n        /* \"_ownable.sol\":2644:2735  if (newOwner == address(0)) {... */\n    tag_302:\n        /* \"_ownable.sol\":2744:2772  _transferOwnership(newOwner) */\n      tag_304\n        /* \"_ownable.sol\":2763:2771  newOwner */\n      dup2\n        /* \"_ownable.sol\":2744:2762  _transferOwnership */\n      tag_284\n        /* \"_ownable.sol\":2744:2772  _transferOwnership(newOwner) */\n      jump\t// in\n    tag_304:\n        /* \"_ownable.sol\":2564:2779  function transferOwnership(address newOwner) public virtual onlyOwner {... */\n      pop\n      jump\t// out\n        /* \"UniversalADs.sol\":691:728  Counters.Counter public _claimCounter */\n    tag_155:\n      0x01\n      dup1\n      0x00\n      add\n      sload\n      swap1\n      pop\n      dup2\n      jump\t// out\n        /* \"UniversalADs.sol\":1089:1129  string public constant VERSION = \"1.0.0\" */\n    tag_159:\n      mload(0x40)\n      dup1\n      0x40\n      add\n      0x40\n      mstore\n      dup1\n      0x05\n      dup2\n      mstore\n      0x20\n      add\n      0x312e302e30000000000000000000000000000000000000000000000000000000\n      dup2\n      mstore\n      pop\n      dup2\n      jump\t// out\n        /* \"_ownable.sol\":1817:1979  function _checkOwner() internal view virtual {... */\n    tag_163:\n        /* \"_ownable.sol\":1887:1899  _msgSender() */\n      tag_306\n        /* \"_ownable.sol\":1887:1897  _msgSender */\n      tag_170\n        /* \"_ownable.sol\":1887:1899  _msgSender() */\n      jump\t// in\n    tag_306:\n        /* \"_ownable.sol\":1876:1899  owner() != _msgSender() */\n      0xffffffffffffffffffffffffffffffffffffffff\n      and\n        /* \"_ownable.sol\":1876:1883  owner() */\n      tag_307\n        /* \"_ownable.sol\":1876:1881  owner */\n      tag_124\n        /* \"_ownable.sol\":1876:1883  owner() */\n      jump\t// in\n    tag_307:\n        /* \"_ownable.sol\":1876:1899  owner() != _msgSender() */\n      0xffffffffffffffffffffffffffffffffffffffff\n      and\n      eq\n        /* \"_ownable.sol\":1872:1973  if (owner() != _msgSender()) {... */\n      tag_308\n      jumpi\n        /* \"_ownable.sol\":1949:1961  _msgSender() */\n      tag_309\n        /* \"_ownable.sol\":1949:1959  _msgSender */\n      tag_170\n        /* \"_ownable.sol\":1949:1961  _msgSender() */\n      jump\t// in\n    tag_309:\n        /* \"_ownable.sol\":1922:1962  OwnableUnauthorizedAccount(_msgSender()) */\n      mload(0x40)\n      0x118cdaa700000000000000000000000000000000000000000000000000000000\n      dup2\n      mstore\n      0x04\n      add\n      tag_310\n      swap2\n      swap1\n      tag_78\n      jump\t// in\n    tag_310:\n      mload(0x40)\n      dup1\n      swap2\n      sub\n      swap1\n      revert\n        /* \"_ownable.sol\":1872:1973  if (owner() != _msgSender()) {... */\n    tag_308:\n        /* \"_ownable.sol\":1817:1979  function _checkOwner() internal view virtual {... */\n      jump\t// out\n        /* \"_pausable.sol\":2023:2151  function _requireNotPaused() internal view virtual {... */\n    tag_167:\n        /* \"_pausable.sol\":2088:2096  paused() */\n      tag_312\n        /* \"_pausable.sol\":2088:2094  paused */\n      tag_95\n        /* \"_pausable.sol\":2088:2096  paused() */\n      jump\t// in\n    tag_312:\n        /* \"_pausable.sol\":2084:2145  if (paused()) {... */\n      iszero\n      tag_313\n      jumpi\n        /* \"_pausable.sol\":2119:2134  EnforcedPause() */\n      mload(0x40)\n      0xd93c066500000000000000000000000000000000000000000000000000000000\n      dup2\n      mstore\n      0x04\n      add\n      mload(0x40)\n      dup1\n      swap2\n      sub\n      swap1\n      revert\n        /* \"_pausable.sol\":2084:2145  if (paused()) {... */\n    tag_313:\n        /* \"_pausable.sol\":2023:2151  function _requireNotPaused() internal view virtual {... */\n      jump\t// out\n        /* \"@openzeppelin/contracts/utils/Context.sol\":655:751  function _msgSender() internal view virtual returns (address) {... */\n    tag_170:\n        /* \"@openzeppelin/contracts/utils/Context.sol\":708:715  address */\n      0x00\n        /* \"@openzeppelin/contracts/utils/Context.sol\":734:744  msg.sender */\n      caller\n        /* \"@openzeppelin/contracts/utils/Context.sol\":727:744  return msg.sender */\n      swap1\n      pop\n        /* \"@openzeppelin/contracts/utils/Context.sol\":655:751  function _msgSender() internal view virtual returns (address) {... */\n      swap1\n      jump\t// out\n        /* \"_pausable.sol\":2731:2848  function _unpause() internal virtual whenPaused {... */\n    tag_199:\n        /* \"_pausable.sol\":1742:1758  _requirePaused() */\n      tag_316\n        /* \"_pausable.sol\":1742:1756  _requirePaused */\n      tag_317\n        /* \"_pausable.sol\":1742:1758  _requirePaused() */\n      jump\t// in\n    tag_316:\n        /* \"_pausable.sol\":2799:2804  false */\n      0x00\n        /* \"_pausable.sol\":2789:2796  _paused */\n      0x00\n      0x14\n        /* \"_pausable.sol\":2789:2804  _paused = false */\n      0x0100\n      exp\n      dup2\n      sload\n      dup2\n      0xff\n      mul\n      not\n      and\n      swap1\n      dup4\n      iszero\n      iszero\n      mul\n      or\n      swap1\n      sstore\n      pop\n        /* \"_pausable.sol\":2819:2841  Unpaused(_msgSender()) */\n      0x5db9ee0a495bf2e6ff9c91a7834c1ba4fdd244a5e8aa4e537bd38aeae4b073aa\n        /* \"_pausable.sol\":2828:2840  _msgSender() */\n      tag_319\n        /* \"_pausable.sol\":2828:2838  _msgSender */\n      tag_170\n        /* \"_pausable.sol\":2828:2840  _msgSender() */\n      jump\t// in\n    tag_319:\n        /* \"_pausable.sol\":2819:2841  Unpaused(_msgSender()) */\n      mload(0x40)\n      tag_320\n      swap2\n      swap1\n      tag_78\n      jump\t// in\n    tag_320:\n      mload(0x40)\n      dup1\n      swap2\n      sub\n      swap1\n      log1\n        /* \"_pausable.sol\":2731:2848  function _unpause() internal virtual whenPaused {... */\n      jump\t// out\n        /* \"@openzeppelin/contracts/utils/Counters.sol\":945:1068  function increment(Counter storage counter) internal {... */\n    tag_218:\n        /* \"@openzeppelin/contracts/utils/Counters.sol\":1050:1051  1 */\n      0x01\n        /* \"@openzeppelin/contracts/utils/Counters.sol\":1032:1039  counter */\n      dup2\n        /* \"@openzeppelin/contracts/utils/Counters.sol\":1032:1046  counter._value */\n      0x00\n      add\n      0x00\n        /* \"@openzeppelin/contracts/utils/Counters.sol\":1032:1051  counter._value += 1 */\n      dup3\n      dup3\n      sload\n      add\n      swap3\n      pop\n      pop\n      dup2\n      swap1\n      sstore\n      pop\n        /* \"@openzeppelin/contracts/utils/Counters.sol\":945:1068  function increment(Counter storage counter) internal {... */\n      pop\n      jump\t// out\n        /* \"_ownable.sol\":2933:3120  function _transferOwnership(address newOwner) internal virtual {... */\n    tag_284:\n        /* \"_ownable.sol\":3006:3022  address oldOwner */\n      0x00\n        /* \"_ownable.sol\":3025:3031  _owner */\n      0x00\n      0x00\n      swap1\n      sload\n      swap1\n      0x0100\n      exp\n      swap1\n      div\n      0xffffffffffffffffffffffffffffffffffffffff\n      and\n        /* \"_ownable.sol\":3006:3031  address oldOwner = _owner */\n      swap1\n      pop\n        /* \"_ownable.sol\":3050:3058  newOwner */\n      dup2\n        /* \"_ownable.sol\":3041:3047  _owner */\n      0x00\n      0x00\n        /* \"_ownable.sol\":3041:3058  _owner = newOwner */\n      0x0100\n      exp\n      dup2\n      sload\n      dup2\n      0xffffffffffffffffffffffffffffffffffffffff\n      mul\n      not\n      and\n      swap1\n      dup4\n      0xffffffffffffffffffffffffffffffffffffffff\n      and\n      mul\n      or\n      swap1\n      sstore\n      pop\n        /* \"_ownable.sol\":3104:3112  newOwner */\n      dup2\n        /* \"_ownable.sol\":3073:3113  OwnershipTransferred(oldOwner, newOwner) */\n      0xffffffffffffffffffffffffffffffffffffffff\n      and\n        /* \"_ownable.sol\":3094:3102  oldOwner */\n      dup2\n        /* \"_ownable.sol\":3073:3113  OwnershipTransferred(oldOwner, newOwner) */\n      0xffffffffffffffffffffffffffffffffffffffff\n      and\n      0x8be0079c531659141344cd1fd0a4f28419497f9722a3daafe3b4186f6b6457e0\n      mload(0x40)\n      mload(0x40)\n      dup1\n      swap2\n      sub\n      swap1\n      log3\n        /* \"_ownable.sol\":2996:3120  {... */\n      pop\n        /* \"_ownable.sol\":2933:3120  function _transferOwnership(address newOwner) internal virtual {... */\n      pop\n      jump\t// out\n        /* \"_pausable.sol\":2484:2599  function _pause() internal virtual whenNotPaused {... */\n    tag_291:\n        /* \"_pausable.sol\":1495:1514  _requireNotPaused() */\n      tag_324\n        /* \"_pausable.sol\":1495:1512  _requireNotPaused */\n      tag_167\n        /* \"_pausable.sol\":1495:1514  _requireNotPaused() */\n      jump\t// in\n    tag_324:\n        /* \"_pausable.sol\":2553:2557  true */\n      0x01\n        /* \"_pausable.sol\":2543:2550  _paused */\n      0x00\n      0x14\n        /* \"_pausable.sol\":2543:2557  _paused = true */\n      0x0100\n      exp\n      dup2\n      sload\n      dup2\n      0xff\n      mul\n      not\n      and\n      swap1\n      dup4\n      iszero\n      iszero\n      mul\n      or\n      swap1\n      sstore\n      pop\n        /* \"_pausable.sol\":2572:2592  Paused(_msgSender()) */\n      0x62e78cea01bee320cd4e420270b5ea74000d11b0c9f74754ebdbfc544b05a258\n        /* \"_pausable.sol\":2579:2591  _msgSender() */\n      tag_326\n        /* \"_pausable.sol\":2579:2589  _msgSender */\n      tag_170\n        /* \"_pausable.sol\":2579:2591  _msgSender() */\n      jump\t// in\n    tag_326:\n        /* \"_pausable.sol\":2572:2592  Paused(_msgSender()) */\n      mload(0x40)\n      tag_327\n      swap2\n      swap1\n      tag_78\n      jump\t// in\n    tag_327:\n      mload(0x40)\n      dup1\n      swap2\n      sub\n      swap1\n      log1\n        /* \"_pausable.sol\":2484:2599  function _pause() internal virtual whenNotPaused {... */\n      jump\t// out\n        /* \"_pausable.sol\":2223:2349  function _requirePaused() internal view virtual {... */\n    tag_317:\n        /* \"_pausable.sol\":2286:2294  paused() */\n      tag_329\n        /* \"_pausable.sol\":2286:2292  paused */\n      tag_95\n        /* \"_pausable.sol\":2286:2294  paused() */\n      jump\t// in\n    tag_329:\n        /* \"_pausable.sol\":2281:2343  if (!paused()) {... */\n      tag_330\n      jumpi\n        /* \"_pausable.sol\":2317:2332  ExpectedPause() */\n      mload(0x40)\n      0x8dfc202b00000000000000000000000000000000000000000000000000000000\n      dup2\n      mstore\n      0x04\n      add\n      mload(0x40)\n      dup1\n      swap2\n      sub\n      swap1\n      revert\n        /* \"_pausable.sol\":2281:2343  if (!paused()) {... */\n    tag_330:\n        /* \"_pausable.sol\":2223:2349  function _requirePaused() internal view virtual {... */\n      jump\t// out\n    tag_279:\n      pop\n      dup1\n      sload\n      0x00\n      dup3\n      sstore\n      swap1\n      0x00\n      mstore\n      keccak256(0x00, 0x20)\n      swap1\n      dup2\n      add\n      swap1\n      tag_332\n      swap2\n      swap1\n      tag_333\n      jump\t// in\n    tag_332:\n      pop\n      jump\t// out\n    tag_333:\n    tag_334:\n      dup1\n      dup3\n      gt\n      iszero\n      tag_335\n      jumpi\n      0x00\n      dup2\n      0x00\n      swap1\n      sstore\n      pop\n      0x01\n      add\n      jump(tag_334)\n    tag_335:\n      pop\n      swap1\n      jump\t// out\n        /* \"#utility.yul\":7:82   */\n    tag_336:\n        /* \"#utility.yul\":40:46   */\n      0x00\n        /* \"#utility.yul\":73:75   */\n      0x40\n        /* \"#utility.yul\":67:76   */\n      mload\n        /* \"#utility.yul\":57:76   */\n      swap1\n      pop\n        /* \"#utility.yul\":7:82   */\n      swap1\n      jump\t// out\n        /* \"#utility.yul\":88:205   */\n    tag_337:\n        /* \"#utility.yul\":197:198   */\n      0x00\n        /* \"#utility.yul\":194:195   */\n      0x00\n        /* \"#utility.yul\":187:199   */\n      revert\n        /* \"#utility.yul\":211:328   */\n    tag_338:\n        /* \"#utility.yul\":320:321   */\n      0x00\n        /* \"#utility.yul\":317:318   */\n      0x00\n        /* \"#utility.yul\":310:322   */\n      revert\n        /* \"#utility.yul\":334:411   */\n    tag_339:\n        /* \"#utility.yul\":371:378   */\n      0x00\n        /* \"#utility.yul\":400:405   */\n      dup2\n        /* \"#utility.yul\":389:405   */\n      swap1\n      pop\n        /* \"#utility.yul\":334:411   */\n      swap2\n      swap1\n      pop\n      jump\t// out\n        /* \"#utility.yul\":417:539   */\n    tag_340:\n        /* \"#utility.yul\":490:514   */\n      tag_402\n        /* \"#utility.yul\":508:513   */\n      dup2\n        /* \"#utility.yul\":490:514   */\n      tag_339\n      jump\t// in\n    tag_402:\n        /* \"#utility.yul\":483:488   */\n      dup2\n        /* \"#utility.yul\":480:515   */\n      eq\n        /* \"#utility.yul\":470:533   */\n      tag_403\n      jumpi\n        /* \"#utility.yul\":529:530   */\n      0x00\n        /* \"#utility.yul\":526:527   */\n      0x00\n        /* \"#utility.yul\":519:531   */\n      revert\n        /* \"#utility.yul\":470:533   */\n    tag_403:\n        /* \"#utility.yul\":417:539   */\n      pop\n      jump\t// out\n        /* \"#utility.yul\":545:684   */\n    tag_341:\n        /* \"#utility.yul\":591:596   */\n      0x00\n        /* \"#utility.yul\":629:635   */\n      dup2\n        /* \"#utility.yul\":616:636   */\n      calldataload\n        /* \"#utility.yul\":607:636   */\n      swap1\n      pop\n        /* \"#utility.yul\":645:678   */\n      tag_405\n        /* \"#utility.yul\":672:677   */\n      dup2\n        /* \"#utility.yul\":645:678   */\n      tag_340\n      jump\t// in\n    tag_405:\n        /* \"#utility.yul\":545:684   */\n      swap3\n      swap2\n      pop\n      pop\n      jump\t// out\n        /* \"#utility.yul\":690:1019   */\n    tag_40:\n        /* \"#utility.yul\":749:755   */\n      0x00\n        /* \"#utility.yul\":798:800   */\n      0x20\n        /* \"#utility.yul\":786:795   */\n      dup3\n        /* \"#utility.yul\":777:784   */\n      dup5\n        /* \"#utility.yul\":773:796   */\n      sub\n        /* \"#utility.yul\":769:801   */\n      slt\n        /* \"#utility.yul\":766:885   */\n      iszero\n      tag_407\n      jumpi\n        /* \"#utility.yul\":804:883   */\n      tag_408\n      tag_337\n      jump\t// in\n    tag_408:\n        /* \"#utility.yul\":766:885   */\n    tag_407:\n        /* \"#utility.yul\":924:925   */\n      0x00\n        /* \"#utility.yul\":949:1002   */\n      tag_409\n        /* \"#utility.yul\":994:1001   */\n      dup5\n        /* \"#utility.yul\":985:991   */\n      dup3\n        /* \"#utility.yul\":974:983   */\n      dup6\n        /* \"#utility.yul\":970:992   */\n      add\n        /* \"#utility.yul\":949:1002   */\n      tag_341\n      jump\t// in\n    tag_409:\n        /* \"#utility.yul\":939:1002   */\n      swap2\n      pop\n        /* \"#utility.yul\":895:1012   */\n      pop\n        /* \"#utility.yul\":690:1019   */\n      swap3\n      swap2\n      pop\n      pop\n      jump\t// out\n        /* \"#utility.yul\":1025:1115   */\n    tag_342:\n        /* \"#utility.yul\":1059:1066   */\n      0x00\n        /* \"#utility.yul\":1102:1107   */\n      dup2\n        /* \"#utility.yul\":1095:1108   */\n      iszero\n        /* \"#utility.yul\":1088:1109   */\n      iszero\n        /* \"#utility.yul\":1077:1109   */\n      swap1\n      pop\n        /* \"#utility.yul\":1025:1115   */\n      swap2\n      swap1\n      pop\n      jump\t// out\n        /* \"#utility.yul\":1121:1230   */\n    tag_343:\n        /* \"#utility.yul\":1202:1223   */\n      tag_412\n        /* \"#utility.yul\":1217:1222   */\n      dup2\n        /* \"#utility.yul\":1202:1223   */\n      tag_342\n      jump\t// in\n    tag_412:\n        /* \"#utility.yul\":1197:1200   */\n      dup3\n        /* \"#utility.yul\":1190:1224   */\n      mstore\n        /* \"#utility.yul\":1121:1230   */\n      pop\n      pop\n      jump\t// out\n        /* \"#utility.yul\":1236:1446   */\n    tag_43:\n        /* \"#utility.yul\":1323:1327   */\n      0x00\n        /* \"#utility.yul\":1361:1363   */\n      0x20\n        /* \"#utility.yul\":1350:1359   */\n      dup3\n        /* \"#utility.yul\":1346:1364   */\n      add\n        /* \"#utility.yul\":1338:1364   */\n      swap1\n      pop\n        /* \"#utility.yul\":1374:1439   */\n      tag_414\n        /* \"#utility.yul\":1436:1437   */\n      0x00\n        /* \"#utility.yul\":1425:1434   */\n      dup4\n        /* \"#utility.yul\":1421:1438   */\n      add\n        /* \"#utility.yul\":1412:1418   */\n      dup5\n        /* \"#utility.yul\":1374:1439   */\n      tag_343\n      jump\t// in\n    tag_414:\n        /* \"#utility.yul\":1236:1446   */\n      swap3\n      swap2\n      pop\n      pop\n      jump\t// out\n        /* \"#utility.yul\":1452:1569   */\n    tag_344:\n        /* \"#utility.yul\":1561:1562   */\n      0x00\n        /* \"#utility.yul\":1558:1559   */\n      0x00\n        /* \"#utility.yul\":1551:1563   */\n      revert\n        /* \"#utility.yul\":1575:1692   */\n    tag_345:\n        /* \"#utility.yul\":1684:1685   */\n      0x00\n        /* \"#utility.yul\":1681:1682   */\n      0x00\n        /* \"#utility.yul\":1674:1686   */\n      revert\n        /* \"#utility.yul\":1698:1800   */\n    tag_346:\n        /* \"#utility.yul\":1739:1745   */\n      0x00\n        /* \"#utility.yul\":1790:1792   */\n      0x1f\n        /* \"#utility.yul\":1786:1793   */\n      not\n        /* \"#utility.yul\":1781:1783   */\n      0x1f\n        /* \"#utility.yul\":1774:1779   */\n      dup4\n        /* \"#utility.yul\":1770:1784   */\n      add\n        /* \"#utility.yul\":1766:1794   */\n      and\n        /* \"#utility.yul\":1756:1794   */\n      swap1\n      pop\n        /* \"#utility.yul\":1698:1800   */\n      swap2\n      swap1\n      pop\n      jump\t// out\n        /* \"#utility.yul\":1806:1986   */\n    tag_347:\n        /* \"#utility.yul\":1854:1931   */\n      0x4e487b7100000000000000000000000000000000000000000000000000000000\n        /* \"#utility.yul\":1851:1852   */\n      0x00\n        /* \"#utility.yul\":1844:1932   */\n      mstore\n        /* \"#utility.yul\":1951:1955   */\n      0x41\n        /* \"#utility.yul\":1948:1949   */\n      0x04\n        /* \"#utility.yul\":1941:1956   */\n      mstore\n        /* \"#utility.yul\":1975:1979   */\n      0x24\n        /* \"#utility.yul\":1972:1973   */\n      0x00\n        /* \"#utility.yul\":1965:1980   */\n      revert\n        /* \"#utility.yul\":1992:2273   */\n    tag_348:\n        /* \"#utility.yul\":2075:2102   */\n      tag_420\n        /* \"#utility.yul\":2097:2101   */\n      dup3\n        /* \"#utility.yul\":2075:2102   */\n      tag_346\n      jump\t// in\n    tag_420:\n        /* \"#utility.yul\":2067:2073   */\n      dup2\n        /* \"#utility.yul\":2063:2103   */\n      add\n        /* \"#utility.yul\":2205:2211   */\n      dup2\n        /* \"#utility.yul\":2193:2203   */\n      dup2\n        /* \"#utility.yul\":2190:2212   */\n      lt\n        /* \"#utility.yul\":2169:2187   */\n      0xffffffffffffffff\n        /* \"#utility.yul\":2157:2167   */\n      dup3\n        /* \"#utility.yul\":2154:2188   */\n      gt\n        /* \"#utility.yul\":2151:2213   */\n      or\n        /* \"#utility.yul\":2148:2236   */\n      iszero\n      tag_421\n      jumpi\n        /* \"#utility.yul\":2216:2234   */\n      tag_422\n      tag_347\n      jump\t// in\n    tag_422:\n        /* \"#utility.yul\":2148:2236   */\n    tag_421:\n        /* \"#utility.yul\":2256:2266   */\n      dup1\n        /* \"#utility.yul\":2252:2254   */\n      0x40\n        /* \"#utility.yul\":2245:2267   */\n      mstore\n        /* \"#utility.yul\":2035:2273   */\n      pop\n        /* \"#utility.yul\":1992:2273   */\n      pop\n      pop\n      jump\t// out\n        /* \"#utility.yul\":2279:2408   */\n    tag_349:\n        /* \"#utility.yul\":2313:2319   */\n      0x00\n        /* \"#utility.yul\":2340:2360   */\n      tag_424\n      tag_336\n      jump\t// in\n    tag_424:\n        /* \"#utility.yul\":2330:2360   */\n      swap1\n      pop\n        /* \"#utility.yul\":2369:2402   */\n      tag_425\n        /* \"#utility.yul\":2397:2401   */\n      dup3\n        /* \"#utility.yul\":2389:2395   */\n      dup3\n        /* \"#utility.yul\":2369:2402   */\n      tag_348\n      jump\t// in\n    tag_425:\n        /* \"#utility.yul\":2279:2408   */\n      swap2\n      swap1\n      pop\n      jump\t// out\n        /* \"#utility.yul\":2414:2722   */\n    tag_350:\n        /* \"#utility.yul\":2476:2480   */\n      0x00\n        /* \"#utility.yul\":2566:2584   */\n      0xffffffffffffffff\n        /* \"#utility.yul\":2558:2564   */\n      dup3\n        /* \"#utility.yul\":2555:2585   */\n      gt\n        /* \"#utility.yul\":2552:2608   */\n      iszero\n      tag_427\n      jumpi\n        /* \"#utility.yul\":2588:2606   */\n      tag_428\n      tag_347\n      jump\t// in\n    tag_428:\n        /* \"#utility.yul\":2552:2608   */\n    tag_427:\n        /* \"#utility.yul\":2626:2655   */\n      tag_429\n        /* \"#utility.yul\":2648:2654   */\n      dup3\n        /* \"#utility.yul\":2626:2655   */\n      tag_346\n      jump\t// in\n    tag_429:\n        /* \"#utility.yul\":2618:2655   */\n      swap1\n      pop\n        /* \"#utility.yul\":2710:2714   */\n      0x20\n        /* \"#utility.yul\":2704:2708   */\n      dup2\n        /* \"#utility.yul\":2700:2715   */\n      add\n        /* \"#utility.yul\":2692:2715   */\n      swap1\n      pop\n        /* \"#utility.yul\":2414:2722   */\n      swap2\n      swap1\n      pop\n      jump\t// out\n        /* \"#utility.yul\":2728:2876   */\n    tag_351:\n        /* \"#utility.yul\":2826:2832   */\n      dup3\n        /* \"#utility.yul\":2821:2824   */\n      dup2\n        /* \"#utility.yul\":2816:2819   */\n      dup4\n        /* \"#utility.yul\":2803:2833   */\n      calldatacopy\n        /* \"#utility.yul\":2867:2868   */\n      0x00\n        /* \"#utility.yul\":2858:2864   */\n      dup4\n        /* \"#utility.yul\":2853:2856   */\n      dup4\n        /* \"#utility.yul\":2849:2865   */\n      add\n        /* \"#utility.yul\":2842:2869   */\n      mstore\n        /* \"#utility.yul\":2728:2876   */\n      pop\n      pop\n      pop\n      jump\t// out\n        /* \"#utility.yul\":2882:3307   */\n    tag_352:\n        /* \"#utility.yul\":2960:2965   */\n      0x00\n        /* \"#utility.yul\":2985:3051   */\n      tag_432\n        /* \"#utility.yul\":3001:3050   */\n      tag_433\n        /* \"#utility.yul\":3043:3049   */\n      dup5\n        /* \"#utility.yul\":3001:3050   */\n      tag_350\n      jump\t// in\n    tag_433:\n        /* \"#utility.yul\":2985:3051   */\n      tag_349\n      jump\t// in\n    tag_432:\n        /* \"#utility.yul\":2976:3051   */\n      swap1\n      pop\n        /* \"#utility.yul\":3074:3080   */\n      dup3\n        /* \"#utility.yul\":3067:3072   */\n      dup2\n        /* \"#utility.yul\":3060:3081   */\n      mstore\n        /* \"#utility.yul\":3112:3116   */\n      0x20\n        /* \"#utility.yul\":3105:3110   */\n      dup2\n        /* \"#utility.yul\":3101:3117   */\n      add\n        /* \"#utility.yul\":3150:3153   */\n      dup5\n        /* \"#utility.yul\":3141:3147   */\n      dup5\n        /* \"#utility.yul\":3136:3139   */\n      dup5\n        /* \"#utility.yul\":3132:3148   */\n      add\n        /* \"#utility.yul\":3129:3154   */\n      gt\n        /* \"#utility.yul\":3126:3238   */\n      iszero\n      tag_434\n      jumpi\n        /* \"#utility.yul\":3157:3236   */\n      tag_435\n      tag_345\n      jump\t// in\n    tag_435:\n        /* \"#utility.yul\":3126:3238   */\n    tag_434:\n        /* \"#utility.yul\":3247:3301   */\n      tag_436\n        /* \"#utility.yul\":3294:3300   */\n      dup5\n        /* \"#utility.yul\":3289:3292   */\n      dup3\n        /* \"#utility.yul\":3284:3287   */\n      dup6\n        /* \"#utility.yul\":3247:3301   */\n      tag_351\n      jump\t// in\n    tag_436:\n        /* \"#utility.yul\":2966:3307   */\n      pop\n        /* \"#utility.yul\":2882:3307   */\n      swap4\n      swap3\n      pop\n      pop\n      pop\n      jump\t// out\n        /* \"#utility.yul\":3327:3667   */\n    tag_353:\n        /* \"#utility.yul\":3383:3388   */\n      0x00\n        /* \"#utility.yul\":3432:3435   */\n      dup3\n        /* \"#utility.yul\":3425:3429   */\n      0x1f\n        /* \"#utility.yul\":3417:3423   */\n      dup4\n        /* \"#utility.yul\":3413:3430   */\n      add\n        /* \"#utility.yul\":3409:3436   */\n      slt\n        /* \"#utility.yul\":3399:3521   */\n      tag_438\n      jumpi\n        /* \"#utility.yul\":3440:3519   */\n      tag_439\n      tag_344\n      jump\t// in\n    tag_439:\n        /* \"#utility.yul\":3399:3521   */\n    tag_438:\n        /* \"#utility.yul\":3557:3563   */\n      dup2\n        /* \"#utility.yul\":3544:3564   */\n      calldataload\n        /* \"#utility.yul\":3582:3661   */\n      tag_440\n        /* \"#utility.yul\":3657:3660   */\n      dup5\n        /* \"#utility.yul\":3649:3655   */\n      dup3\n        /* \"#utility.yul\":3642:3646   */\n      0x20\n        /* \"#utility.yul\":3634:3640   */\n      dup7\n        /* \"#utility.yul\":3630:3647   */\n      add\n        /* \"#utility.yul\":3582:3661   */\n      tag_352\n      jump\t// in\n    tag_440:\n        /* \"#utility.yul\":3573:3661   */\n      swap2\n      pop\n        /* \"#utility.yul\":3389:3667   */\n      pop\n        /* \"#utility.yul\":3327:3667   */\n      swap3\n      swap2\n      pop\n      pop\n      jump\t// out\n        /* \"#utility.yul\":3673:4182   */\n    tag_47:\n        /* \"#utility.yul\":3742:3748   */\n      0x00\n        /* \"#utility.yul\":3791:3793   */\n      0x20\n        /* \"#utility.yul\":3779:3788   */\n      dup3\n        /* \"#utility.yul\":3770:3777   */\n      dup5\n        /* \"#utility.yul\":3766:3789   */\n      sub\n        /* \"#utility.yul\":3762:3794   */\n      slt\n        /* \"#utility.yul\":3759:3878   */\n      iszero\n      tag_442\n      jumpi\n        /* \"#utility.yul\":3797:3876   */\n      tag_443\n      tag_337\n      jump\t// in\n    tag_443:\n        /* \"#utility.yul\":3759:3878   */\n    tag_442:\n        /* \"#utility.yul\":3945:3946   */\n      0x00\n        /* \"#utility.yul\":3934:3943   */\n      dup3\n        /* \"#utility.yul\":3930:3947   */\n      add\n        /* \"#utility.yul\":3917:3948   */\n      calldataload\n        /* \"#utility.yul\":3975:3993   */\n      0xffffffffffffffff\n        /* \"#utility.yul\":3967:3973   */\n      dup2\n        /* \"#utility.yul\":3964:3994   */\n      gt\n        /* \"#utility.yul\":3961:4078   */\n      iszero\n      tag_444\n      jumpi\n        /* \"#utility.yul\":3997:4076   */\n      tag_445\n      tag_338\n      jump\t// in\n    tag_445:\n        /* \"#utility.yul\":3961:4078   */\n    tag_444:\n        /* \"#utility.yul\":4102:4165   */\n      tag_446\n        /* \"#utility.yul\":4157:4164   */\n      dup5\n        /* \"#utility.yul\":4148:4154   */\n      dup3\n        /* \"#utility.yul\":4137:4146   */\n      dup6\n        /* \"#utility.yul\":4133:4155   */\n      add\n        /* \"#utility.yul\":4102:4165   */\n      tag_353\n      jump\t// in\n    tag_446:\n        /* \"#utility.yul\":4092:4165   */\n      swap2\n      pop\n        /* \"#utility.yul\":3888:4175   */\n      pop\n        /* \"#utility.yul\":3673:4182   */\n      swap3\n      swap2\n      pop\n      pop\n      jump\t// out\n        /* \"#utility.yul\":4188:4306   */\n    tag_354:\n        /* \"#utility.yul\":4275:4299   */\n      tag_448\n        /* \"#utility.yul\":4293:4298   */\n      dup2\n        /* \"#utility.yul\":4275:4299   */\n      tag_339\n      jump\t// in\n    tag_448:\n        /* \"#utility.yul\":4270:4273   */\n      dup3\n        /* \"#utility.yul\":4263:4300   */\n      mstore\n        /* \"#utility.yul\":4188:4306   */\n      pop\n      pop\n      jump\t// out\n        /* \"#utility.yul\":4312:4534   */\n    tag_54:\n        /* \"#utility.yul\":4405:4409   */\n      0x00\n        /* \"#utility.yul\":4443:4445   */\n      0x20\n        /* \"#utility.yul\":4432:4441   */\n      dup3\n        /* \"#utility.yul\":4428:4446   */\n      add\n        /* \"#utility.yul\":4420:4446   */\n      swap1\n      pop\n        /* \"#utility.yul\":4456:4527   */\n      tag_450\n        /* \"#utility.yul\":4524:4525   */\n      0x00\n        /* \"#utility.yul\":4513:4522   */\n      dup4\n        /* \"#utility.yul\":4509:4526   */\n      add\n        /* \"#utility.yul\":4500:4506   */\n      dup5\n        /* \"#utility.yul\":4456:4527   */\n      tag_354\n      jump\t// in\n    tag_450:\n        /* \"#utility.yul\":4312:4534   */\n      swap3\n      swap2\n      pop\n      pop\n      jump\t// out\n        /* \"#utility.yul\":4540:4639   */\n    tag_355:\n        /* \"#utility.yul\":4592:4598   */\n      0x00\n        /* \"#utility.yul\":4626:4631   */\n      dup2\n        /* \"#utility.yul\":4620:4632   */\n      mload\n        /* \"#utility.yul\":4610:4632   */\n      swap1\n      pop\n        /* \"#utility.yul\":4540:4639   */\n      swap2\n      swap1\n      pop\n      jump\t// out\n        /* \"#utility.yul\":4645:4814   */\n    tag_356:\n        /* \"#utility.yul\":4729:4740   */\n      0x00\n        /* \"#utility.yul\":4763:4769   */\n      dup3\n        /* \"#utility.yul\":4758:4761   */\n      dup3\n        /* \"#utility.yul\":4751:4770   */\n      mstore\n        /* \"#utility.yul\":4803:4807   */\n      0x20\n        /* \"#utility.yul\":4798:4801   */\n      dup3\n        /* \"#utility.yul\":4794:4808   */\n      add\n        /* \"#utility.yul\":4779:4808   */\n      swap1\n      pop\n        /* \"#utility.yul\":4645:4814   */\n      swap3\n      swap2\n      pop\n      pop\n      jump\t// out\n        /* \"#utility.yul\":4820:4959   */\n    tag_357:\n        /* \"#utility.yul\":4909:4915   */\n      dup3\n        /* \"#utility.yul\":4904:4907   */\n      dup2\n        /* \"#utility.yul\":4899:4902   */\n      dup4\n        /* \"#utility.yul\":4893:4916   */\n      mcopy\n        /* \"#utility.yul\":4950:4951   */\n      0x00\n        /* \"#utility.yul\":4941:4947   */\n      dup4\n        /* \"#utility.yul\":4936:4939   */\n      dup4\n        /* \"#utility.yul\":4932:4948   */\n      add\n        /* \"#utility.yul\":4925:4952   */\n      mstore\n        /* \"#utility.yul\":4820:4959   */\n      pop\n      pop\n      pop\n      jump\t// out\n        /* \"#utility.yul\":4965:5342   */\n    tag_358:\n        /* \"#utility.yul\":5053:5056   */\n      0x00\n        /* \"#utility.yul\":5081:5120   */\n      tag_455\n        /* \"#utility.yul\":5114:5119   */\n      dup3\n        /* \"#utility.yul\":5081:5120   */\n      tag_355\n      jump\t// in\n    tag_455:\n        /* \"#utility.yul\":5136:5207   */\n      tag_456\n        /* \"#utility.yul\":5200:5206   */\n      dup2\n        /* \"#utility.yul\":5195:5198   */\n      dup6\n        /* \"#utility.yul\":5136:5207   */\n      tag_356\n      jump\t// in\n    tag_456:\n        /* \"#utility.yul\":5129:5207   */\n      swap4\n      pop\n        /* \"#utility.yul\":5216:5281   */\n      tag_457\n        /* \"#utility.yul\":5274:5280   */\n      dup2\n        /* \"#utility.yul\":5269:5272   */\n      dup6\n        /* \"#utility.yul\":5262:5266   */\n      0x20\n        /* \"#utility.yul\":5255:5260   */\n      dup7\n        /* \"#utility.yul\":5251:5267   */\n      add\n        /* \"#utility.yul\":5216:5281   */\n      tag_357\n      jump\t// in\n    tag_457:\n        /* \"#utility.yul\":5306:5335   */\n      tag_458\n        /* \"#utility.yul\":5328:5334   */\n      dup2\n        /* \"#utility.yul\":5306:5335   */\n      tag_346\n      jump\t// in\n    tag_458:\n        /* \"#utility.yul\":5301:5304   */\n      dup5\n        /* \"#utility.yul\":5297:5336   */\n      add\n        /* \"#utility.yul\":5290:5336   */\n      swap2\n      pop\n        /* \"#utility.yul\":5057:5342   */\n      pop\n        /* \"#utility.yul\":4965:5342   */\n      swap3\n      swap2\n      pop\n      pop\n      jump\t// out\n        /* \"#utility.yul\":5348:5661   */\n    tag_67:\n        /* \"#utility.yul\":5461:5465   */\n      0x00\n        /* \"#utility.yul\":5499:5501   */\n      0x20\n        /* \"#utility.yul\":5488:5497   */\n      dup3\n        /* \"#utility.yul\":5484:5502   */\n      add\n        /* \"#utility.yul\":5476:5502   */\n      swap1\n      pop\n        /* \"#utility.yul\":5548:5557   */\n      dup2\n        /* \"#utility.yul\":5542:5546   */\n      dup2\n        /* \"#utility.yul\":5538:5558   */\n      sub\n        /* \"#utility.yul\":5534:5535   */\n      0x00\n        /* \"#utility.yul\":5523:5532   */\n      dup4\n        /* \"#utility.yul\":5519:5536   */\n      add\n        /* \"#utility.yul\":5512:5559   */\n      mstore\n        /* \"#utility.yul\":5576:5654   */\n      tag_460\n        /* \"#utility.yul\":5649:5653   */\n      dup2\n        /* \"#utility.yul\":5640:5646   */\n      dup5\n        /* \"#utility.yul\":5576:5654   */\n      tag_358\n      jump\t// in\n    tag_460:\n        /* \"#utility.yul\":5568:5654   */\n      swap1\n      pop\n        /* \"#utility.yul\":5348:5661   */\n      swap3\n      swap2\n      pop\n      pop\n      jump\t// out\n        /* \"#utility.yul\":5667:5793   */\n    tag_359:\n        /* \"#utility.yul\":5704:5711   */\n      0x00\n        /* \"#utility.yul\":5744:5786   */\n      0xffffffffffffffffffffffffffffffffffffffff\n        /* \"#utility.yul\":5737:5742   */\n      dup3\n        /* \"#utility.yul\":5733:5787   */\n      and\n        /* \"#utility.yul\":5722:5787   */\n      swap1\n      pop\n        /* \"#utility.yul\":5667:5793   */\n      swap2\n      swap1\n      pop\n      jump\t// out\n        /* \"#utility.yul\":5799:5895   */\n    tag_360:\n        /* \"#utility.yul\":5836:5843   */\n      0x00\n        /* \"#utility.yul\":5865:5889   */\n      tag_463\n        /* \"#utility.yul\":5883:5888   */\n      dup3\n        /* \"#utility.yul\":5865:5889   */\n      tag_359\n      jump\t// in\n    tag_463:\n        /* \"#utility.yul\":5854:5889   */\n      swap1\n      pop\n        /* \"#utility.yul\":5799:5895   */\n      swap2\n      swap1\n      pop\n      jump\t// out\n        /* \"#utility.yul\":5901:6019   */\n    tag_361:\n        /* \"#utility.yul\":5988:6012   */\n      tag_465\n        /* \"#utility.yul\":6006:6011   */\n      dup2\n        /* \"#utility.yul\":5988:6012   */\n      tag_360\n      jump\t// in\n    tag_465:\n        /* \"#utility.yul\":5983:5986   */\n      dup3\n        /* \"#utility.yul\":5976:6013   */\n      mstore\n        /* \"#utility.yul\":5901:6019   */\n      pop\n      pop\n      jump\t// out\n        /* \"#utility.yul\":6025:6247   */\n    tag_78:\n        /* \"#utility.yul\":6118:6122   */\n      0x00\n        /* \"#utility.yul\":6156:6158   */\n      0x20\n        /* \"#utility.yul\":6145:6154   */\n      dup3\n        /* \"#utility.yul\":6141:6159   */\n      add\n        /* \"#utility.yul\":6133:6159   */\n      swap1\n      pop\n        /* \"#utility.yul\":6169:6240   */\n      tag_467\n        /* \"#utility.yul\":6237:6238   */\n      0x00\n        /* \"#utility.yul\":6226:6235   */\n      dup4\n        /* \"#utility.yul\":6222:6239   */\n      add\n        /* \"#utility.yul\":6213:6219   */\n      dup5\n        /* \"#utility.yul\":6169:6240   */\n      tag_361\n      jump\t// in\n    tag_467:\n        /* \"#utility.yul\":6025:6247   */\n      swap3\n      swap2\n      pop\n      pop\n      jump\t// out\n        /* \"#utility.yul\":6253:6357   */\n    tag_362:\n        /* \"#utility.yul\":6298:6305   */\n      0x00\n        /* \"#utility.yul\":6327:6351   */\n      tag_469\n        /* \"#utility.yul\":6345:6350   */\n      dup3\n        /* \"#utility.yul\":6327:6351   */\n      tag_359\n      jump\t// in\n    tag_469:\n        /* \"#utility.yul\":6316:6351   */\n      swap1\n      pop\n        /* \"#utility.yul\":6253:6357   */\n      swap2\n      swap1\n      pop\n      jump\t// out\n        /* \"#utility.yul\":6363:6501   */\n    tag_363:\n        /* \"#utility.yul\":6444:6476   */\n      tag_471\n        /* \"#utility.yul\":6470:6475   */\n      dup2\n        /* \"#utility.yul\":6444:6476   */\n      tag_362\n      jump\t// in\n    tag_471:\n        /* \"#utility.yul\":6437:6442   */\n      dup2\n        /* \"#utility.yul\":6434:6477   */\n      eq\n        /* \"#utility.yul\":6424:6495   */\n      tag_472\n      jumpi\n        /* \"#utility.yul\":6491:6492   */\n      0x00\n        /* \"#utility.yul\":6488:6489   */\n      0x00\n        /* \"#utility.yul\":6481:6493   */\n      revert\n        /* \"#utility.yul\":6424:6495   */\n    tag_472:\n        /* \"#utility.yul\":6363:6501   */\n      pop\n      jump\t// out\n        /* \"#utility.yul\":6507:6662   */\n    tag_364:\n        /* \"#utility.yul\":6561:6566   */\n      0x00\n        /* \"#utility.yul\":6599:6605   */\n      dup2\n        /* \"#utility.yul\":6586:6606   */\n      calldataload\n        /* \"#utility.yul\":6577:6606   */\n      swap1\n      pop\n        /* \"#utility.yul\":6615:6656   */\n      tag_474\n        /* \"#utility.yul\":6650:6655   */\n      dup2\n        /* \"#utility.yul\":6615:6656   */\n      tag_363\n      jump\t// in\n    tag_474:\n        /* \"#utility.yul\":6507:6662   */\n      swap3\n      swap2\n      pop\n      pop\n      jump\t// out\n        /* \"#utility.yul\":6668:7158   */\n    tag_86:\n        /* \"#utility.yul\":6744:6750   */\n      0x00\n        /* \"#utility.yul\":6752:6758   */\n      0x00\n        /* \"#utility.yul\":6801:6803   */\n      0x40\n        /* \"#utility.yul\":6789:6798   */\n      dup4\n        /* \"#utility.yul\":6780:6787   */\n      dup6\n        /* \"#utility.yul\":6776:6799   */\n      sub\n        /* \"#utility.yul\":6772:6804   */\n      slt\n        /* \"#utility.yul\":6769:6888   */\n      iszero\n      tag_476\n      jumpi\n        /* \"#utility.yul\":6807:6886   */\n      tag_477\n      tag_337\n      jump\t// in\n    tag_477:\n        /* \"#utility.yul\":6769:6888   */\n    tag_476:\n        /* \"#utility.yul\":6927:6928   */\n      0x00\n        /* \"#utility.yul\":6952:7013   */\n      tag_478\n        /* \"#utility.yul\":7005:7012   */\n      dup6\n        /* \"#utility.yul\":6996:7002   */\n      dup3\n        /* \"#utility.yul\":6985:6994   */\n      dup7\n        /* \"#utility.yul\":6981:7003   */\n      add\n        /* \"#utility.yul\":6952:7013   */\n      tag_364\n      jump\t// in\n    tag_478:\n        /* \"#utility.yul\":6942:7013   */\n      swap3\n      pop\n        /* \"#utility.yul\":6898:7023   */\n      pop\n        /* \"#utility.yul\":7062:7064   */\n      0x20\n        /* \"#utility.yul\":7088:7141   */\n      tag_479\n        /* \"#utility.yul\":7133:7140   */\n      dup6\n        /* \"#utility.yul\":7124:7130   */\n      dup3\n        /* \"#utility.yul\":7113:7122   */\n      dup7\n        /* \"#utility.yul\":7109:7131   */\n      add\n        /* \"#utility.yul\":7088:7141   */\n      tag_341\n      jump\t// in\n    tag_479:\n        /* \"#utility.yul\":7078:7141   */\n      swap2\n      pop\n        /* \"#utility.yul\":7033:7151   */\n      pop\n        /* \"#utility.yul\":6668:7158   */\n      swap3\n      pop\n      swap3\n      swap1\n      pop\n      jump\t// out\n        /* \"#utility.yul\":7164:7919   */\n    tag_92:\n        /* \"#utility.yul\":7389:7393   */\n      0x00\n        /* \"#utility.yul\":7427:7430   */\n      0xa0\n        /* \"#utility.yul\":7416:7425   */\n      dup3\n        /* \"#utility.yul\":7412:7431   */\n      add\n        /* \"#utility.yul\":7404:7431   */\n      swap1\n      pop\n        /* \"#utility.yul\":7441:7512   */\n      tag_481\n        /* \"#utility.yul\":7509:7510   */\n      0x00\n        /* \"#utility.yul\":7498:7507   */\n      dup4\n        /* \"#utility.yul\":7494:7511   */\n      add\n        /* \"#utility.yul\":7485:7491   */\n      dup9\n        /* \"#utility.yul\":7441:7512   */\n      tag_354\n      jump\t// in\n    tag_481:\n        /* \"#utility.yul\":7522:7594   */\n      tag_482\n        /* \"#utility.yul\":7590:7592   */\n      0x20\n        /* \"#utility.yul\":7579:7588   */\n      dup4\n        /* \"#utility.yul\":7575:7593   */\n      add\n        /* \"#utility.yul\":7566:7572   */\n      dup8\n        /* \"#utility.yul\":7522:7594   */\n      tag_354\n      jump\t// in\n    tag_482:\n        /* \"#utility.yul\":7604:7676   */\n      tag_483\n        /* \"#utility.yul\":7672:7674   */\n      0x40\n        /* \"#utility.yul\":7661:7670   */\n      dup4\n        /* \"#utility.yul\":7657:7675   */\n      add\n        /* \"#utility.yul\":7648:7654   */\n      dup7\n        /* \"#utility.yul\":7604:7676   */\n      tag_354\n      jump\t// in\n    tag_483:\n        /* \"#utility.yul\":7686:7758   */\n      tag_484\n        /* \"#utility.yul\":7754:7756   */\n      0x60\n        /* \"#utility.yul\":7743:7752   */\n      dup4\n        /* \"#utility.yul\":7739:7757   */\n      add\n        /* \"#utility.yul\":7730:7736   */\n      dup6\n        /* \"#utility.yul\":7686:7758   */\n      tag_361\n      jump\t// in\n    tag_484:\n        /* \"#utility.yul\":7806:7815   */\n      dup2\n        /* \"#utility.yul\":7800:7804   */\n      dup2\n        /* \"#utility.yul\":7796:7816   */\n      sub\n        /* \"#utility.yul\":7790:7793   */\n      0x80\n        /* \"#utility.yul\":7779:7788   */\n      dup4\n        /* \"#utility.yul\":7775:7794   */\n      add\n        /* \"#utility.yul\":7768:7817   */\n      mstore\n        /* \"#utility.yul\":7834:7912   */\n      tag_485\n        /* \"#utility.yul\":7907:7911   */\n      dup2\n        /* \"#utility.yul\":7898:7904   */\n      dup5\n        /* \"#utility.yul\":7834:7912   */\n      tag_358\n      jump\t// in\n    tag_485:\n        /* \"#utility.yul\":7826:7912   */\n      swap1\n      pop\n        /* \"#utility.yul\":7164:7919   */\n      swap7\n      swap6\n      pop\n      pop\n      pop\n      pop\n      pop\n      pop\n      jump\t// out\n        /* \"#utility.yul\":7925:8579   */\n    tag_99:\n        /* \"#utility.yul\":8003:8009   */\n      0x00\n        /* \"#utility.yul\":8011:8017   */\n      0x00\n        /* \"#utility.yul\":8060:8062   */\n      0x40\n        /* \"#utility.yul\":8048:8057   */\n      dup4\n        /* \"#utility.yul\":8039:8046   */\n      dup6\n        /* \"#utility.yul\":8035:8058   */\n      sub\n        /* \"#utility.yul\":8031:8063   */\n      slt\n        /* \"#utility.yul\":8028:8147   */\n      iszero\n      tag_487\n      jumpi\n        /* \"#utility.yul\":8066:8145   */\n      tag_488\n      tag_337\n      jump\t// in\n    tag_488:\n        /* \"#utility.yul\":8028:8147   */\n    tag_487:\n        /* \"#utility.yul\":8214:8215   */\n      0x00\n        /* \"#utility.yul\":8203:8212   */\n      dup4\n        /* \"#utility.yul\":8199:8216   */\n      add\n        /* \"#utility.yul\":8186:8217   */\n      calldataload\n        /* \"#utility.yul\":8244:8262   */\n      0xffffffffffffffff\n        /* \"#utility.yul\":8236:8242   */\n      dup2\n        /* \"#utility.yul\":8233:8263   */\n      gt\n        /* \"#utility.yul\":8230:8347   */\n      iszero\n      tag_489\n      jumpi\n        /* \"#utility.yul\":8266:8345   */\n      tag_490\n      tag_338\n      jump\t// in\n    tag_490:\n        /* \"#utility.yul\":8230:8347   */\n    tag_489:\n        /* \"#utility.yul\":8371:8434   */\n      tag_491\n        /* \"#utility.yul\":8426:8433   */\n      dup6\n        /* \"#utility.yul\":8417:8423   */\n      dup3\n        /* \"#utility.yul\":8406:8415   */\n      dup7\n        /* \"#utility.yul\":8402:8424   */\n      add\n        /* \"#utility.yul\":8371:8434   */\n      tag_353\n      jump\t// in\n    tag_491:\n        /* \"#utility.yul\":8361:8434   */\n      swap3\n      pop\n        /* \"#utility.yul\":8157:8444   */\n      pop\n        /* \"#utility.yul\":8483:8485   */\n      0x20\n        /* \"#utility.yul\":8509:8562   */\n      tag_492\n        /* \"#utility.yul\":8554:8561   */\n      dup6\n        /* \"#utility.yul\":8545:8551   */\n      dup3\n        /* \"#utility.yul\":8534:8543   */\n      dup7\n        /* \"#utility.yul\":8530:8552   */\n      add\n        /* \"#utility.yul\":8509:8562   */\n      tag_341\n      jump\t// in\n    tag_492:\n        /* \"#utility.yul\":8499:8562   */\n      swap2\n      pop\n        /* \"#utility.yul\":8454:8572   */\n      pop\n        /* \"#utility.yul\":7925:8579   */\n      swap3\n      pop\n      swap3\n      swap1\n      pop\n      jump\t// out\n        /* \"#utility.yul\":8585:8905   */\n    tag_102:\n        /* \"#utility.yul\":8700:8704   */\n      0x00\n        /* \"#utility.yul\":8738:8740   */\n      0x40\n        /* \"#utility.yul\":8727:8736   */\n      dup3\n        /* \"#utility.yul\":8723:8741   */\n      add\n        /* \"#utility.yul\":8715:8741   */\n      swap1\n      pop\n        /* \"#utility.yul\":8751:8816   */\n      tag_494\n        /* \"#utility.yul\":8813:8814   */\n      0x00\n        /* \"#utility.yul\":8802:8811   */\n      dup4\n        /* \"#utility.yul\":8798:8815   */\n      add\n        /* \"#utility.yul\":8789:8795   */\n      dup6\n        /* \"#utility.yul\":8751:8816   */\n      tag_343\n      jump\t// in\n    tag_494:\n        /* \"#utility.yul\":8826:8898   */\n      tag_495\n        /* \"#utility.yul\":8894:8896   */\n      0x20\n        /* \"#utility.yul\":8883:8892   */\n      dup4\n        /* \"#utility.yul\":8879:8897   */\n      add\n        /* \"#utility.yul\":8870:8876   */\n      dup5\n        /* \"#utility.yul\":8826:8898   */\n      tag_354\n      jump\t// in\n    tag_495:\n        /* \"#utility.yul\":8585:8905   */\n      swap4\n      swap3\n      pop\n      pop\n      pop\n      jump\t// out\n        /* \"#utility.yul\":8911:9385   */\n    tag_133:\n        /* \"#utility.yul\":8979:8985   */\n      0x00\n        /* \"#utility.yul\":8987:8993   */\n      0x00\n        /* \"#utility.yul\":9036:9038   */\n      0x40\n        /* \"#utility.yul\":9024:9033   */\n      dup4\n        /* \"#utility.yul\":9015:9022   */\n      dup6\n        /* \"#utility.yul\":9011:9034   */\n      sub\n        /* \"#utility.yul\":9007:9039   */\n      slt\n        /* \"#utility.yul\":9004:9123   */\n      iszero\n      tag_497\n      jumpi\n        /* \"#utility.yul\":9042:9121   */\n      tag_498\n      tag_337\n      jump\t// in\n    tag_498:\n        /* \"#utility.yul\":9004:9123   */\n    tag_497:\n        /* \"#utility.yul\":9162:9163   */\n      0x00\n        /* \"#utility.yul\":9187:9240   */\n      tag_499\n        /* \"#utility.yul\":9232:9239   */\n      dup6\n        /* \"#utility.yul\":9223:9229   */\n      dup3\n        /* \"#utility.yul\":9212:9221   */\n      dup7\n        /* \"#utility.yul\":9208:9230   */\n      add\n        /* \"#utility.yul\":9187:9240   */\n      tag_341\n      jump\t// in\n    tag_499:\n        /* \"#utility.yul\":9177:9240   */\n      swap3\n      pop\n        /* \"#utility.yul\":9133:9250   */\n      pop\n        /* \"#utility.yul\":9289:9291   */\n      0x20\n        /* \"#utility.yul\":9315:9368   */\n      tag_500\n        /* \"#utility.yul\":9360:9367   */\n      dup6\n        /* \"#utility.yul\":9351:9357   */\n      dup3\n        /* \"#utility.yul\":9340:9349   */\n      dup7\n        /* \"#utility.yul\":9336:9358   */\n      add\n        /* \"#utility.yul\":9315:9368   */\n      tag_341\n      jump\t// in\n    tag_500:\n        /* \"#utility.yul\":9305:9368   */\n      swap2\n      pop\n        /* \"#utility.yul\":9260:9378   */\n      pop\n        /* \"#utility.yul\":8911:9385   */\n      swap3\n      pop\n      swap3\n      swap1\n      pop\n      jump\t// out\n        /* \"#utility.yul\":9391:9513   */\n    tag_365:\n        /* \"#utility.yul\":9464:9488   */\n      tag_502\n        /* \"#utility.yul\":9482:9487   */\n      dup2\n        /* \"#utility.yul\":9464:9488   */\n      tag_360\n      jump\t// in\n    tag_502:\n        /* \"#utility.yul\":9457:9462   */\n      dup2\n        /* \"#utility.yul\":9454:9489   */\n      eq\n        /* \"#utility.yul\":9444:9507   */\n      tag_503\n      jumpi\n        /* \"#utility.yul\":9503:9504   */\n      0x00\n        /* \"#utility.yul\":9500:9501   */\n      0x00\n        /* \"#utility.yul\":9493:9505   */\n      revert\n        /* \"#utility.yul\":9444:9507   */\n    tag_503:\n        /* \"#utility.yul\":9391:9513   */\n      pop\n      jump\t// out\n        /* \"#utility.yul\":9519:9658   */\n    tag_366:\n        /* \"#utility.yul\":9565:9570   */\n      0x00\n        /* \"#utility.yul\":9603:9609   */\n      dup2\n        /* \"#utility.yul\":9590:9610   */\n      calldataload\n        /* \"#utility.yul\":9581:9610   */\n      swap1\n      pop\n        /* \"#utility.yul\":9619:9652   */\n      tag_505\n        /* \"#utility.yul\":9646:9651   */\n      dup2\n        /* \"#utility.yul\":9619:9652   */\n      tag_365\n      jump\t// in\n    tag_505:\n        /* \"#utility.yul\":9519:9658   */\n      swap3\n      swap2\n      pop\n      pop\n      jump\t// out\n        /* \"#utility.yul\":9664:9993   */\n    tag_151:\n        /* \"#utility.yul\":9723:9729   */\n      0x00\n        /* \"#utility.yul\":9772:9774   */\n      0x20\n        /* \"#utility.yul\":9760:9769   */\n      dup3\n        /* \"#utility.yul\":9751:9758   */\n      dup5\n        /* \"#utility.yul\":9747:9770   */\n      sub\n        /* \"#utility.yul\":9743:9775   */\n      slt\n        /* \"#utility.yul\":9740:9859   */\n      iszero\n      tag_507\n      jumpi\n        /* \"#utility.yul\":9778:9857   */\n      tag_508\n      tag_337\n      jump\t// in\n    tag_508:\n        /* \"#utility.yul\":9740:9859   */\n    tag_507:\n        /* \"#utility.yul\":9898:9899   */\n      0x00\n        /* \"#utility.yul\":9923:9976   */\n      tag_509\n        /* \"#utility.yul\":9968:9975   */\n      dup5\n        /* \"#utility.yul\":9959:9965   */\n      dup3\n        /* \"#utility.yul\":9948:9957   */\n      dup6\n        /* \"#utility.yul\":9944:9966   */\n      add\n        /* \"#utility.yul\":9923:9976   */\n      tag_366\n      jump\t// in\n    tag_509:\n        /* \"#utility.yul\":9913:9976   */\n      swap2\n      pop\n        /* \"#utility.yul\":9869:9986   */\n      pop\n        /* \"#utility.yul\":9664:9993   */\n      swap3\n      swap2\n      pop\n      pop\n      jump\t// out\n        /* \"#utility.yul\":9999:10179   */\n    tag_367:\n        /* \"#utility.yul\":10047:10124   */\n      0x4e487b7100000000000000000000000000000000000000000000000000000000\n        /* \"#utility.yul\":10044:10045   */\n      0x00\n        /* \"#utility.yul\":10037:10125   */\n      mstore\n        /* \"#utility.yul\":10144:10148   */\n      0x22\n        /* \"#utility.yul\":10141:10142   */\n      0x04\n        /* \"#utility.yul\":10134:10149   */\n      mstore\n        /* \"#utility.yul\":10168:10172   */\n      0x24\n        /* \"#utility.yul\":10165:10166   */\n      0x00\n        /* \"#utility.yul\":10158:10173   */\n      revert\n        /* \"#utility.yul\":10185:10505   */\n    tag_178:\n        /* \"#utility.yul\":10229:10235   */\n      0x00\n        /* \"#utility.yul\":10266:10267   */\n      0x02\n        /* \"#utility.yul\":10260:10264   */\n      dup3\n        /* \"#utility.yul\":10256:10268   */\n      div\n        /* \"#utility.yul\":10246:10268   */\n      swap1\n      pop\n        /* \"#utility.yul\":10313:10314   */\n      0x01\n        /* \"#utility.yul\":10307:10311   */\n      dup3\n        /* \"#utility.yul\":10303:10315   */\n      and\n        /* \"#utility.yul\":10334:10352   */\n      dup1\n        /* \"#utility.yul\":10324:10405   */\n      tag_512\n      jumpi\n        /* \"#utility.yul\":10390:10394   */\n      0x7f\n        /* \"#utility.yul\":10382:10388   */\n      dup3\n        /* \"#utility.yul\":10378:10395   */\n      and\n        /* \"#utility.yul\":10368:10395   */\n      swap2\n      pop\n        /* \"#utility.yul\":10324:10405   */\n    tag_512:\n        /* \"#utility.yul\":10452:10454   */\n      0x20\n        /* \"#utility.yul\":10444:10450   */\n      dup3\n        /* \"#utility.yul\":10441:10455   */\n      lt\n        /* \"#utility.yul\":10421:10439   */\n      dup2\n        /* \"#utility.yul\":10418:10456   */\n      sub\n        /* \"#utility.yul\":10415:10499   */\n      tag_513\n      jumpi\n        /* \"#utility.yul\":10471:10489   */\n      tag_514\n      tag_367\n      jump\t// in\n    tag_514:\n        /* \"#utility.yul\":10415:10499   */\n    tag_513:\n        /* \"#utility.yul\":10236:10505   */\n      pop\n        /* \"#utility.yul\":10185:10505   */\n      swap2\n      swap1\n      pop\n      jump\t// out\n        /* \"#utility.yul\":10511:10652   */\n    tag_368:\n        /* \"#utility.yul\":10560:10564   */\n      0x00\n        /* \"#utility.yul\":10583:10586   */\n      dup2\n        /* \"#utility.yul\":10575:10586   */\n      swap1\n      pop\n        /* \"#utility.yul\":10606:10609   */\n      dup2\n        /* \"#utility.yul\":10603:10604   */\n      0x00\n        /* \"#utility.yul\":10596:10610   */\n      mstore\n        /* \"#utility.yul\":10640:10644   */\n      0x20\n        /* \"#utility.yul\":10637:10638   */\n      0x00\n        /* \"#utility.yul\":10627:10645   */\n      keccak256\n        /* \"#utility.yul\":10619:10645   */\n      swap1\n      pop\n        /* \"#utility.yul\":10511:10652   */\n      swap2\n      swap1\n      pop\n      jump\t// out\n        /* \"#utility.yul\":10658:10751   */\n    tag_369:\n        /* \"#utility.yul\":10695:10701   */\n      0x00\n        /* \"#utility.yul\":10742:10744   */\n      0x20\n        /* \"#utility.yul\":10737:10739   */\n      0x1f\n        /* \"#utility.yul\":10730:10735   */\n      dup4\n        /* \"#utility.yul\":10726:10740   */\n      add\n        /* \"#utility.yul\":10722:10745   */\n      div\n        /* \"#utility.yul\":10712:10745   */\n      swap1\n      pop\n        /* \"#utility.yul\":10658:10751   */\n      swap2\n      swap1\n      pop\n      jump\t// out\n        /* \"#utility.yul\":10757:10864   */\n    tag_370:\n        /* \"#utility.yul\":10801:10809   */\n      0x00\n        /* \"#utility.yul\":10851:10856   */\n      dup3\n        /* \"#utility.yul\":10845:10849   */\n      dup3\n        /* \"#utility.yul\":10841:10857   */\n      shl\n        /* \"#utility.yul\":10820:10857   */\n      swap1\n      pop\n        /* \"#utility.yul\":10757:10864   */\n      swap3\n      swap2\n      pop\n      pop\n      jump\t// out\n        /* \"#utility.yul\":10870:11263   */\n    tag_371:\n        /* \"#utility.yul\":10939:10945   */\n      0x00\n        /* \"#utility.yul\":10989:10990   */\n      0x08\n        /* \"#utility.yul\":10977:10987   */\n      dup4\n        /* \"#utility.yul\":10973:10991   */\n      mul\n        /* \"#utility.yul\":11012:11109   */\n      tag_519\n        /* \"#utility.yul\":11042:11108   */\n      0xffffffffffffffffffffffffffffffffffffffffffffffffffffffffffffffff\n        /* \"#utility.yul\":11031:11040   */\n      dup3\n        /* \"#utility.yul\":11012:11109   */\n      tag_370\n      jump\t// in\n    tag_519:\n        /* \"#utility.yul\":11130:11169   */\n      tag_520\n        /* \"#utility.yul\":11160:11168   */\n      dup7\n        /* \"#utility.yul\":11149:11158   */\n      dup4\n        /* \"#utility.yul\":11130:11169   */\n      tag_370\n      jump\t// in\n    tag_520:\n        /* \"#utility.yul\":11118:11169   */\n      swap6\n      pop\n        /* \"#utility.yul\":11202:11206   */\n      dup1\n        /* \"#utility.yul\":11198:11207   */\n      not\n        /* \"#utility.yul\":11191:11196   */\n      dup5\n        /* \"#utility.yul\":11187:11208   */\n      and\n        /* \"#utility.yul\":11178:11208   */\n      swap4\n      pop\n        /* \"#utility.yul\":11251:11255   */\n      dup1\n        /* \"#utility.yul\":11241:11249   */\n      dup7\n        /* \"#utility.yul\":11237:11256   */\n      and\n        /* \"#utility.yul\":11230:11235   */\n      dup5\n        /* \"#utility.yul\":11227:11257   */\n      or\n        /* \"#utility.yul\":11217:11257   */\n      swap3\n      pop\n        /* \"#utility.yul\":10946:11263   */\n      pop\n      pop\n        /* \"#utility.yul\":10870:11263   */\n      swap4\n      swap3\n      pop\n      pop\n      pop\n      jump\t// out\n        /* \"#utility.yul\":11269:11329   */\n    tag_372:\n        /* \"#utility.yul\":11297:11300   */\n      0x00\n        /* \"#utility.yul\":11318:11323   */\n      dup2\n        /* \"#utility.yul\":11311:11323   */\n      swap1\n      pop\n        /* \"#utility.yul\":11269:11329   */\n      swap2\n      swap1\n      pop\n      jump\t// out\n        /* \"#utility.yul\":11335:11477   */\n    tag_373:\n        /* \"#utility.yul\":11385:11394   */\n      0x00\n        /* \"#utility.yul\":11418:11471   */\n      tag_523\n        /* \"#utility.yul\":11436:11470   */\n      tag_524\n        /* \"#utility.yul\":11445:11469   */\n      tag_525\n        /* \"#utility.yul\":11463:11468   */\n      dup5\n        /* \"#utility.yul\":11445:11469   */\n      tag_339\n      jump\t// in\n    tag_525:\n        /* \"#utility.yul\":11436:11470   */\n      tag_372\n      jump\t// in\n    tag_524:\n        /* \"#utility.yul\":11418:11471   */\n      tag_339\n      jump\t// in\n    tag_523:\n        /* \"#utility.yul\":11405:11471   */\n      swap1\n      pop\n        /* \"#utility.yul\":11335:11477   */\n      swap2\n      swap1\n      pop\n      jump\t// out\n        /* \"#utility.yul\":11483:11558   */\n    tag_374:\n        /* \"#utility.yul\":11526:11529   */\n      0x00\n        /* \"#utility.yul\":11547:11552   */\n      dup2\n        /* \"#utility.yul\":11540:11552   */\n      swap1\n      pop\n        /* \"#utility.yul\":11483:11558   */\n      swap2\n      swap1\n      pop\n      jump\t// out\n        /* \"#utility.yul\":11564:11833   */\n    tag_375:\n        /* \"#utility.yul\":11674:11713   */\n      tag_528\n        /* \"#utility.yul\":11705:11712   */\n      dup4\n        /* \"#utility.yul\":11674:11713   */\n      tag_373\n      jump\t// in\n    tag_528:\n        /* \"#utility.yul\":11735:11826   */\n      tag_529\n        /* \"#utility.yul\":11784:11825   */\n      tag_530\n        /* \"#utility.yul\":11808:11824   */\n      dup3\n        /* \"#utility.yul\":11784:11825   */\n      tag_374\n      jump\t// in\n    tag_530:\n        /* \"#utility.yul\":11776:11782   */\n      dup5\n        /* \"#utility.yul\":11769:11773   */\n      dup5\n        /* \"#utility.yul\":11763:11774   */\n      sload\n        /* \"#utility.yul\":11735:11826   */\n      tag_371\n      jump\t// in\n    tag_529:\n        /* \"#utility.yul\":11729:11733   */\n      dup3\n        /* \"#utility.yul\":11722:11827   */\n      sstore\n        /* \"#utility.yul\":11640:11833   */\n      pop\n        /* \"#utility.yul\":11564:11833   */\n      pop\n      pop\n      pop\n      jump\t// out\n        /* \"#utility.yul\":11839:11912   */\n    tag_376:\n        /* \"#utility.yul\":11884:11887   */\n      0x00\n        /* \"#utility.yul\":11905:11906   */\n      0x00\n        /* \"#utility.yul\":11898:11906   */\n      swap1\n      pop\n        /* \"#utility.yul\":11839:11912   */\n      swap1\n      jump\t// out\n        /* \"#utility.yul\":11918:12107   */\n    tag_377:\n        /* \"#utility.yul\":11995:12027   */\n      tag_533\n      tag_376\n      jump\t// in\n    tag_533:\n        /* \"#utility.yul\":12036:12101   */\n      tag_534\n        /* \"#utility.yul\":12094:12100   */\n      dup2\n        /* \"#utility.yul\":12086:12092   */\n      dup5\n        /* \"#utility.yul\":12080:12084   */\n      dup5\n        /* \"#utility.yul\":12036:12101   */\n      tag_375\n      jump\t// in\n    tag_534:\n        /* \"#utility.yul\":11971:12107   */\n      pop\n        /* \"#utility.yul\":11918:12107   */\n      pop\n      pop\n      jump\t// out\n        /* \"#utility.yul\":12113:12299   */\n    tag_378:\n        /* \"#utility.yul\":12173:12293   */\n    tag_536:\n        /* \"#utility.yul\":12190:12193   */\n      dup2\n        /* \"#utility.yul\":12183:12188   */\n      dup2\n        /* \"#utility.yul\":12180:12194   */\n      lt\n        /* \"#utility.yul\":12173:12293   */\n      iszero\n      tag_538\n      jumpi\n        /* \"#utility.yul\":12244:12283   */\n      tag_539\n        /* \"#utility.yul\":12281:12282   */\n      0x00\n        /* \"#utility.yul\":12274:12279   */\n      dup3\n        /* \"#utility.yul\":12244:12283   */\n      tag_377\n      jump\t// in\n    tag_539:\n        /* \"#utility.yul\":12217:12218   */\n      0x01\n        /* \"#utility.yul\":12210:12215   */\n      dup2\n        /* \"#utility.yul\":12206:12219   */\n      add\n        /* \"#utility.yul\":12197:12219   */\n      swap1\n      pop\n        /* \"#utility.yul\":12173:12293   */\n      jump(tag_536)\n    tag_538:\n        /* \"#utility.yul\":12113:12299   */\n      pop\n      pop\n      jump\t// out\n        /* \"#utility.yul\":12305:12848   */\n    tag_379:\n        /* \"#utility.yul\":12406:12408   */\n      0x1f\n        /* \"#utility.yul\":12401:12404   */\n      dup3\n        /* \"#utility.yul\":12398:12409   */\n      gt\n        /* \"#utility.yul\":12395:12841   */\n      iszero\n      tag_541\n      jumpi\n        /* \"#utility.yul\":12440:12478   */\n      tag_542\n        /* \"#utility.yul\":12472:12477   */\n      dup2\n        /* \"#utility.yul\":12440:12478   */\n      tag_368\n      jump\t// in\n    tag_542:\n        /* \"#utility.yul\":12524:12553   */\n      tag_543\n        /* \"#utility.yul\":12542:12552   */\n      dup5\n        /* \"#utility.yul\":12524:12553   */\n      tag_369\n      jump\t// in\n    tag_543:\n        /* \"#utility.yul\":12514:12522   */\n      dup2\n        /* \"#utility.yul\":12510:12554   */\n      add\n        /* \"#utility.yul\":12707:12709   */\n      0x20\n        /* \"#utility.yul\":12695:12705   */\n      dup6\n        /* \"#utility.yul\":12692:12710   */\n      lt\n        /* \"#utility.yul\":12689:12738   */\n      iszero\n      tag_544\n      jumpi\n        /* \"#utility.yul\":12728:12736   */\n      dup2\n        /* \"#utility.yul\":12713:12736   */\n      swap1\n      pop\n        /* \"#utility.yul\":12689:12738   */\n    tag_544:\n        /* \"#utility.yul\":12751:12831   */\n      tag_545\n        /* \"#utility.yul\":12807:12829   */\n      tag_546\n        /* \"#utility.yul\":12825:12828   */\n      dup6\n        /* \"#utility.yul\":12807:12829   */\n      tag_369\n      jump\t// in\n    tag_546:\n        /* \"#utility.yul\":12797:12805   */\n      dup4\n        /* \"#utility.yul\":12793:12830   */\n      add\n        /* \"#utility.yul\":12780:12791   */\n      dup3\n        /* \"#utility.yul\":12751:12831   */\n      tag_378\n      jump\t// in\n    tag_545:\n        /* \"#utility.yul\":12410:12841   */\n      pop\n      pop\n        /* \"#utility.yul\":12395:12841   */\n    tag_541:\n        /* \"#utility.yul\":12305:12848   */\n      pop\n      pop\n      pop\n      jump\t// out\n        /* \"#utility.yul\":12854:12971   */\n    tag_380:\n        /* \"#utility.yul\":12908:12916   */\n      0x00\n        /* \"#utility.yul\":12958:12963   */\n      dup3\n        /* \"#utility.yul\":12952:12956   */\n      dup3\n        /* \"#utility.yul\":12948:12964   */\n      shr\n        /* \"#utility.yul\":12927:12964   */\n      swap1\n      pop\n        /* \"#utility.yul\":12854:12971   */\n      swap3\n      swap2\n      pop\n      pop\n      jump\t// out\n        /* \"#utility.yul\":12977:13146   */\n    tag_381:\n        /* \"#utility.yul\":13021:13027   */\n      0x00\n        /* \"#utility.yul\":13054:13105   */\n      tag_549\n        /* \"#utility.yul\":13102:13103   */\n      0x00\n        /* \"#utility.yul\":13098:13104   */\n      not\n        /* \"#utility.yul\":13090:13095   */\n      dup5\n        /* \"#utility.yul\":13087:13088   */\n      0x08\n        /* \"#utility.yul\":13083:13096   */\n      mul\n        /* \"#utility.yul\":13054:13105   */\n      tag_380\n      jump\t// in\n    tag_549:\n        /* \"#utility.yul\":13050:13106   */\n      not\n        /* \"#utility.yul\":13135:13139   */\n      dup1\n        /* \"#utility.yul\":13129:13133   */\n      dup4\n        /* \"#utility.yul\":13125:13140   */\n      and\n        /* \"#utility.yul\":13115:13140   */\n      swap2\n      pop\n        /* \"#utility.yul\":13028:13146   */\n      pop\n        /* \"#utility.yul\":12977:13146   */\n      swap3\n      swap2\n      pop\n      pop\n      jump\t// out\n        /* \"#utility.yul\":13151:13446   */\n    tag_382:\n        /* \"#utility.yul\":13227:13231   */\n      0x00\n        /* \"#utility.yul\":13373:13402   */\n      tag_551\n        /* \"#utility.yul\":13398:13401   */\n      dup4\n        /* \"#utility.yul\":13392:13396   */\n      dup4\n        /* \"#utility.yul\":13373:13402   */\n      tag_381\n      jump\t// in\n    tag_551:\n        /* \"#utility.yul\":13365:13402   */\n      swap2\n      pop\n        /* \"#utility.yul\":13435:13438   */\n      dup3\n        /* \"#utility.yul\":13432:13433   */\n      0x02\n        /* \"#utility.yul\":13428:13439   */\n      mul\n        /* \"#utility.yul\":13422:13426   */\n      dup3\n        /* \"#utility.yul\":13419:13440   */\n      or\n        /* \"#utility.yul\":13411:13440   */\n      swap1\n      pop\n        /* \"#utility.yul\":13151:13446   */\n      swap3\n      swap2\n      pop\n      pop\n      jump\t// out\n        /* \"#utility.yul\":13451:14846   */\n    tag_174:\n        /* \"#utility.yul\":13568:13605   */\n      tag_553\n        /* \"#utility.yul\":13601:13604   */\n      dup3\n        /* \"#utility.yul\":13568:13605   */\n      tag_355\n      jump\t// in\n    tag_553:\n        /* \"#utility.yul\":13670:13688   */\n      0xffffffffffffffff\n        /* \"#utility.yul\":13662:13668   */\n      dup2\n        /* \"#utility.yul\":13659:13689   */\n      gt\n        /* \"#utility.yul\":13656:13712   */\n      iszero\n      tag_554\n      jumpi\n        /* \"#utility.yul\":13692:13710   */\n      tag_555\n      tag_347\n      jump\t// in\n    tag_555:\n        /* \"#utility.yul\":13656:13712   */\n    tag_554:\n        /* \"#utility.yul\":13736:13774   */\n      tag_556\n        /* \"#utility.yul\":13768:13772   */\n      dup3\n        /* \"#utility.yul\":13762:13773   */\n      sload\n        /* \"#utility.yul\":13736:13774   */\n      tag_178\n      jump\t// in\n    tag_556:\n        /* \"#utility.yul\":13821:13888   */\n      tag_557\n        /* \"#utility.yul\":13881:13887   */\n      dup3\n        /* \"#utility.yul\":13873:13879   */\n      dup3\n        /* \"#utility.yul\":13867:13871   */\n      dup6\n        /* \"#utility.yul\":13821:13888   */\n      tag_379\n      jump\t// in\n    tag_557:\n        /* \"#utility.yul\":13915:13916   */\n      0x00\n        /* \"#utility.yul\":13939:13943   */\n      0x20\n        /* \"#utility.yul\":13926:13943   */\n      swap1\n      pop\n        /* \"#utility.yul\":13971:13973   */\n      0x1f\n        /* \"#utility.yul\":13963:13969   */\n      dup4\n        /* \"#utility.yul\":13960:13974   */\n      gt\n        /* \"#utility.yul\":13988:13989   */\n      0x01\n        /* \"#utility.yul\":13983:14601   */\n      dup2\n      eq\n      tag_559\n      jumpi\n        /* \"#utility.yul\":14645:14646   */\n      0x00\n        /* \"#utility.yul\":14662:14668   */\n      dup5\n        /* \"#utility.yul\":14659:14736   */\n      iszero\n      tag_560\n      jumpi\n        /* \"#utility.yul\":14711:14720   */\n      dup3\n        /* \"#utility.yul\":14706:14709   */\n      dup8\n        /* \"#utility.yul\":14702:14721   */\n      add\n        /* \"#utility.yul\":14696:14722   */\n      mload\n        /* \"#utility.yul\":14687:14722   */\n      swap1\n      pop\n        /* \"#utility.yul\":14659:14736   */\n    tag_560:\n        /* \"#utility.yul\":14762:14829   */\n      tag_561\n        /* \"#utility.yul\":14822:14828   */\n      dup6\n        /* \"#utility.yul\":14815:14820   */\n      dup3\n        /* \"#utility.yul\":14762:14829   */\n      tag_382\n      jump\t// in\n    tag_561:\n        /* \"#utility.yul\":14756:14760   */\n      dup7\n        /* \"#utility.yul\":14749:14830   */\n      sstore\n        /* \"#utility.yul\":14618:14840   */\n      pop\n        /* \"#utility.yul\":13953:14840   */\n      jump(tag_558)\n        /* \"#utility.yul\":13983:14601   */\n    tag_559:\n        /* \"#utility.yul\":14035:14039   */\n      0x1f\n        /* \"#utility.yul\":14031:14040   */\n      not\n        /* \"#utility.yul\":14023:14029   */\n      dup5\n        /* \"#utility.yul\":14019:14041   */\n      and\n        /* \"#utility.yul\":14069:14106   */\n      tag_562\n        /* \"#utility.yul\":14101:14105   */\n      dup7\n        /* \"#utility.yul\":14069:14106   */\n      tag_368\n      jump\t// in\n    tag_562:\n        /* \"#utility.yul\":14128:14129   */\n      0x00\n        /* \"#utility.yul\":14142:14350   */\n    tag_563:\n        /* \"#utility.yul\":14156:14163   */\n      dup3\n        /* \"#utility.yul\":14153:14154   */\n      dup2\n        /* \"#utility.yul\":14150:14164   */\n      lt\n        /* \"#utility.yul\":14142:14350   */\n      iszero\n      tag_565\n      jumpi\n        /* \"#utility.yul\":14235:14244   */\n      dup5\n        /* \"#utility.yul\":14230:14233   */\n      dup10\n        /* \"#utility.yul\":14226:14245   */\n      add\n        /* \"#utility.yul\":14220:14246   */\n      mload\n        /* \"#utility.yul\":14212:14218   */\n      dup3\n        /* \"#utility.yul\":14205:14247   */\n      sstore\n        /* \"#utility.yul\":14286:14287   */\n      0x01\n        /* \"#utility.yul\":14278:14284   */\n      dup3\n        /* \"#utility.yul\":14274:14288   */\n      add\n        /* \"#utility.yul\":14264:14288   */\n      swap2\n      pop\n        /* \"#utility.yul\":14333:14335   */\n      0x20\n        /* \"#utility.yul\":14322:14331   */\n      dup6\n        /* \"#utility.yul\":14318:14336   */\n      add\n        /* \"#utility.yul\":14305:14336   */\n      swap5\n      pop\n        /* \"#utility.yul\":14179:14183   */\n      0x20\n        /* \"#utility.yul\":14176:14177   */\n      dup2\n        /* \"#utility.yul\":14172:14184   */\n      add\n        /* \"#utility.yul\":14167:14184   */\n      swap1\n      pop\n        /* \"#utility.yul\":14142:14350   */\n      jump(tag_563)\n    tag_565:\n        /* \"#utility.yul\":14378:14384   */\n      dup7\n        /* \"#utility.yul\":14369:14376   */\n      dup4\n        /* \"#utility.yul\":14366:14385   */\n      lt\n        /* \"#utility.yul\":14363:14542   */\n      iszero\n      tag_566\n      jumpi\n        /* \"#utility.yul\":14436:14445   */\n      dup5\n        /* \"#utility.yul\":14431:14434   */\n      dup10\n        /* \"#utility.yul\":14427:14446   */\n      add\n        /* \"#utility.yul\":14421:14447   */\n      mload\n        /* \"#utility.yul\":14479:14527   */\n      tag_567\n        /* \"#utility.yul\":14521:14525   */\n      0x1f\n        /* \"#utility.yul\":14513:14519   */\n      dup10\n        /* \"#utility.yul\":14509:14526   */\n      and\n        /* \"#utility.yul\":14498:14507   */\n      dup3\n        /* \"#utility.yul\":14479:14527   */\n      tag_381\n      jump\t// in\n    tag_567:\n        /* \"#utility.yul\":14471:14477   */\n      dup4\n        /* \"#utility.yul\":14464:14528   */\n      sstore\n        /* \"#utility.yul\":14386:14542   */\n      pop\n        /* \"#utility.yul\":14363:14542   */\n    tag_566:\n        /* \"#utility.yul\":14588:14589   */\n      0x01\n        /* \"#utility.yul\":14584:14585   */\n      0x02\n        /* \"#utility.yul\":14576:14582   */\n      dup9\n        /* \"#utility.yul\":14572:14586   */\n      mul\n        /* \"#utility.yul\":14568:14590   */\n      add\n        /* \"#utility.yul\":14562:14566   */\n      dup9\n        /* \"#utility.yul\":14555:14591   */\n      sstore\n        /* \"#utility.yul\":13990:14601   */\n      pop\n      pop\n      pop\n        /* \"#utility.yul\":13953:14840   */\n    tag_558:\n      pop\n        /* \"#utility.yul\":13543:14846   */\n      pop\n      pop\n      pop\n        /* \"#utility.yul\":13451:14846   */\n      pop\n      pop\n      jump\t// out\n        /* \"#utility.yul\":14852:14999   */\n    tag_383:\n        /* \"#utility.yul\":14953:14964   */\n      0x00\n        /* \"#utility.yul\":14990:14993   */\n      dup2\n        /* \"#utility.yul\":14975:14993   */\n      swap1\n      pop\n        /* \"#utility.yul\":14852:14999   */\n      swap3\n      swap2\n      pop\n      pop\n      jump\t// out\n        /* \"#utility.yul\":15005:15119   */\n    tag_384:\n      pop\n      jump\t// out\n        /* \"#utility.yul\":15125:15523   */\n    tag_385:\n        /* \"#utility.yul\":15284:15287   */\n      0x00\n        /* \"#utility.yul\":15305:15388   */\n      tag_571\n        /* \"#utility.yul\":15386:15387   */\n      0x00\n        /* \"#utility.yul\":15381:15384   */\n      dup4\n        /* \"#utility.yul\":15305:15388   */\n      tag_383\n      jump\t// in\n    tag_571:\n        /* \"#utility.yul\":15298:15388   */\n      swap2\n      pop\n        /* \"#utility.yul\":15397:15490   */\n      tag_572\n        /* \"#utility.yul\":15486:15489   */\n      dup3\n        /* \"#utility.yul\":15397:15490   */\n      tag_384\n      jump\t// in\n    tag_572:\n        /* \"#utility.yul\":15515:15516   */\n      0x00\n        /* \"#utility.yul\":15510:15513   */\n      dup3\n        /* \"#utility.yul\":15506:15517   */\n      add\n        /* \"#utility.yul\":15499:15517   */\n      swap1\n      pop\n        /* \"#utility.yul\":15125:15523   */\n      swap2\n      swap1\n      pop\n      jump\t// out\n        /* \"#utility.yul\":15529:15908   */\n    tag_188:\n        /* \"#utility.yul\":15713:15716   */\n      0x00\n        /* \"#utility.yul\":15735:15882   */\n      tag_574\n        /* \"#utility.yul\":15878:15881   */\n      dup3\n        /* \"#utility.yul\":15735:15882   */\n      tag_385\n      jump\t// in\n    tag_574:\n        /* \"#utility.yul\":15728:15882   */\n      swap2\n      pop\n        /* \"#utility.yul\":15899:15902   */\n      dup2\n        /* \"#utility.yul\":15892:15902   */\n      swap1\n      pop\n        /* \"#utility.yul\":15529:15908   */\n      swap2\n      swap1\n      pop\n      jump\t// out\n        /* \"#utility.yul\":15914:16070   */\n    tag_386:\n        /* \"#utility.yul\":16054:16062   */\n      0x4661696c65640000000000000000000000000000000000000000000000000000\n        /* \"#utility.yul\":16050:16051   */\n      0x00\n        /* \"#utility.yul\":16042:16048   */\n      dup3\n        /* \"#utility.yul\":16038:16052   */\n      add\n        /* \"#utility.yul\":16031:16063   */\n      mstore\n        /* \"#utility.yul\":15914:16070   */\n      pop\n      jump\t// out\n        /* \"#utility.yul\":16076:16441   */\n    tag_387:\n        /* \"#utility.yul\":16218:16221   */\n      0x00\n        /* \"#utility.yul\":16239:16305   */\n      tag_577\n        /* \"#utility.yul\":16303:16304   */\n      0x06\n        /* \"#utility.yul\":16298:16301   */\n      dup4\n        /* \"#utility.yul\":16239:16305   */\n      tag_356\n      jump\t// in\n    tag_577:\n        /* \"#utility.yul\":16232:16305   */\n      swap2\n      pop\n        /* \"#utility.yul\":16314:16407   */\n      tag_578\n        /* \"#utility.yul\":16403:16406   */\n      dup3\n        /* \"#utility.yul\":16314:16407   */\n      tag_386\n      jump\t// in\n    tag_578:\n        /* \"#utility.yul\":16432:16434   */\n      0x20\n        /* \"#utility.yul\":16427:16430   */\n      dup3\n        /* \"#utility.yul\":16423:16435   */\n      add\n        /* \"#utility.yul\":16416:16435   */\n      swap1\n      pop\n        /* \"#utility.yul\":16076:16441   */\n      swap2\n      swap1\n      pop\n      jump\t// out\n        /* \"#utility.yul\":16447:16866   */\n    tag_194:\n        /* \"#utility.yul\":16613:16617   */\n      0x00\n        /* \"#utility.yul\":16651:16653   */\n      0x20\n        /* \"#utility.yul\":16640:16649   */\n      dup3\n        /* \"#utility.yul\":16636:16654   */\n      add\n        /* \"#utility.yul\":16628:16654   */\n      swap1\n      pop\n        /* \"#utility.yul\":16700:16709   */\n      dup2\n        /* \"#utility.yul\":16694:16698   */\n      dup2\n        /* \"#utility.yul\":16690:16710   */\n      sub\n        /* \"#utility.yul\":16686:16687   */\n      0x00\n        /* \"#utility.yul\":16675:16684   */\n      dup4\n        /* \"#utility.yul\":16671:16688   */\n      add\n        /* \"#utility.yul\":16664:16711   */\n      mstore\n        /* \"#utility.yul\":16728:16859   */\n      tag_580\n        /* \"#utility.yul\":16854:16858   */\n      dup2\n        /* \"#utility.yul\":16728:16859   */\n      tag_387\n      jump\t// in\n    tag_580:\n        /* \"#utility.yul\":16720:16859   */\n      swap1\n      pop\n        /* \"#utility.yul\":16447:16866   */\n      swap2\n      swap1\n      pop\n      jump\t// out\n        /* \"#utility.yul\":16872:17043   */\n    tag_388:\n        /* \"#utility.yul\":17012:17035   */\n      0x5468657265206973206e6f206163746976652061640000000000000000000000\n        /* \"#utility.yul\":17008:17009   */\n      0x00\n        /* \"#utility.yul\":17000:17006   */\n      dup3\n        /* \"#utility.yul\":16996:17010   */\n      add\n        /* \"#utility.yul\":16989:17036   */\n      mstore\n        /* \"#utility.yul\":16872:17043   */\n      pop\n      jump\t// out\n        /* \"#utility.yul\":17049:17415   */\n    tag_389:\n        /* \"#utility.yul\":17191:17194   */\n      0x00\n        /* \"#utility.yul\":17212:17279   */\n      tag_583\n        /* \"#utility.yul\":17276:17278   */\n      0x15\n        /* \"#utility.yul\":17271:17274   */\n      dup4\n        /* \"#utility.yul\":17212:17279   */\n      tag_356\n      jump\t// in\n    tag_583:\n        /* \"#utility.yul\":17205:17279   */\n      swap2\n      pop\n        /* \"#utility.yul\":17288:17381   */\n      tag_584\n        /* \"#utility.yul\":17377:17380   */\n      dup3\n        /* \"#utility.yul\":17288:17381   */\n      tag_388\n      jump\t// in\n    tag_584:\n        /* \"#utility.yul\":17406:17408   */\n      0x20\n        /* \"#utility.yul\":17401:17404   */\n      dup3\n        /* \"#utility.yul\":17397:17409   */\n      add\n        /* \"#utility.yul\":17390:17409   */\n      swap1\n      pop\n        /* \"#utility.yul\":17049:17415   */\n      swap2\n      swap1\n      pop\n      jump\t// out\n        /* \"#utility.yul\":17421:17840   */\n    tag_205:\n        /* \"#utility.yul\":17587:17591   */\n      0x00\n        /* \"#utility.yul\":17625:17627   */\n      0x20\n        /* \"#utility.yul\":17614:17623   */\n      dup3\n        /* \"#utility.yul\":17610:17628   */\n      add\n        /* \"#utility.yul\":17602:17628   */\n      swap1\n      pop\n        /* \"#utility.yul\":17674:17683   */\n      dup2\n        /* \"#utility.yul\":17668:17672   */\n      dup2\n        /* \"#utility.yul\":17664:17684   */\n      sub\n        /* \"#utility.yul\":17660:17661   */\n      0x00\n        /* \"#utility.yul\":17649:17658   */\n      dup4\n        /* \"#utility.yul\":17645:17662   */\n      add\n        /* \"#utility.yul\":17638:17685   */\n      mstore\n        /* \"#utility.yul\":17702:17833   */\n      tag_586\n        /* \"#utility.yul\":17828:17832   */\n      dup2\n        /* \"#utility.yul\":17702:17833   */\n      tag_389\n      jump\t// in\n    tag_586:\n        /* \"#utility.yul\":17694:17833   */\n      swap1\n      pop\n        /* \"#utility.yul\":17421:17840   */\n      swap2\n      swap1\n      pop\n      jump\t// out\n        /* \"#utility.yul\":17846:18026   */\n    tag_212:\n        /* \"#utility.yul\":17894:17971   */\n      0x4e487b7100000000000000000000000000000000000000000000000000000000\n        /* \"#utility.yul\":17891:17892   */\n      0x00\n        /* \"#utility.yul\":17884:17972   */\n      mstore\n        /* \"#utility.yul\":17991:17995   */\n      0x32\n        /* \"#utility.yul\":17988:17989   */\n      0x04\n        /* \"#utility.yul\":17981:17996   */\n      mstore\n        /* \"#utility.yul\":18015:18019   */\n      0x24\n        /* \"#utility.yul\":18012:18013   */\n      0x00\n        /* \"#utility.yul\":18005:18020   */\n      revert\n        /* \"#utility.yul\":18032:18202   */\n    tag_390:\n        /* \"#utility.yul\":18172:18194   */\n      0x4661696c656420746f2073656e64204574686572000000000000000000000000\n        /* \"#utility.yul\":18168:18169   */\n      0x00\n        /* \"#utility.yul\":18160:18166   */\n      dup3\n        /* \"#utility.yul\":18156:18170   */\n      add\n        /* \"#utility.yul\":18149:18195   */\n      mstore\n        /* \"#utility.yul\":18032:18202   */\n      pop\n      jump\t// out\n        /* \"#utility.yul\":18208:18574   */\n    tag_391:\n        /* \"#utility.yul\":18350:18353   */\n      0x00\n        /* \"#utility.yul\":18371:18438   */\n      tag_590\n        /* \"#utility.yul\":18435:18437   */\n      0x14\n        /* \"#utility.yul\":18430:18433   */\n      dup4\n        /* \"#utility.yul\":18371:18438   */\n      tag_356\n      jump\t// in\n    tag_590:\n        /* \"#utility.yul\":18364:18438   */\n      swap2\n      pop\n        /* \"#utility.yul\":18447:18540   */\n      tag_591\n        /* \"#utility.yul\":18536:18539   */\n      dup3\n        /* \"#utility.yul\":18447:18540   */\n      tag_390\n      jump\t// in\n    tag_591:\n        /* \"#utility.yul\":18565:18567   */\n      0x20\n        /* \"#utility.yul\":18560:18563   */\n      dup3\n        /* \"#utility.yul\":18556:18568   */\n      add\n        /* \"#utility.yul\":18549:18568   */\n      swap1\n      pop\n        /* \"#utility.yul\":18208:18574   */\n      swap2\n      swap1\n      pop\n      jump\t// out\n        /* \"#utility.yul\":18580:18999   */\n    tag_229:\n        /* \"#utility.yul\":18746:18750   */\n      0x00\n        /* \"#utility.yul\":18784:18786   */\n      0x20\n        /* \"#utility.yul\":18773:18782   */\n      dup3\n        /* \"#utility.yul\":18769:18787   */\n      add\n        /* \"#utility.yul\":18761:18787   */\n      swap1\n      pop\n        /* \"#utility.yul\":18833:18842   */\n      dup2\n        /* \"#utility.yul\":18827:18831   */\n      dup2\n        /* \"#utility.yul\":18823:18843   */\n      sub\n        /* \"#utility.yul\":18819:18820   */\n      0x00\n        /* \"#utility.yul\":18808:18817   */\n      dup4\n        /* \"#utility.yul\":18804:18821   */\n      add\n        /* \"#utility.yul\":18797:18844   */\n      mstore\n        /* \"#utility.yul\":18861:18992   */\n      tag_593\n        /* \"#utility.yul\":18987:18991   */\n      dup2\n        /* \"#utility.yul\":18861:18992   */\n      tag_391\n      jump\t// in\n    tag_593:\n        /* \"#utility.yul\":18853:18992   */\n      swap1\n      pop\n        /* \"#utility.yul\":18580:18999   */\n      swap2\n      swap1\n      pop\n      jump\t// out\n        /* \"#utility.yul\":19005:19337   */\n    tag_232:\n        /* \"#utility.yul\":19126:19130   */\n      0x00\n        /* \"#utility.yul\":19164:19166   */\n      0x40\n        /* \"#utility.yul\":19153:19162   */\n      dup3\n        /* \"#utility.yul\":19149:19167   */\n      add\n        /* \"#utility.yul\":19141:19167   */\n      swap1\n      pop\n        /* \"#utility.yul\":19177:19248   */\n      tag_595\n        /* \"#utility.yul\":19245:19246   */\n      0x00\n        /* \"#utility.yul\":19234:19243   */\n      dup4\n        /* \"#utility.yul\":19230:19247   */\n      add\n        /* \"#utility.yul\":19221:19227   */\n      dup6\n        /* \"#utility.yul\":19177:19248   */\n      tag_361\n      jump\t// in\n    tag_595:\n        /* \"#utility.yul\":19258:19330   */\n      tag_596\n        /* \"#utility.yul\":19326:19328   */\n      0x20\n        /* \"#utility.yul\":19315:19324   */\n      dup4\n        /* \"#utility.yul\":19311:19329   */\n      add\n        /* \"#utility.yul\":19302:19308   */\n      dup5\n        /* \"#utility.yul\":19258:19330   */\n      tag_354\n      jump\t// in\n    tag_596:\n        /* \"#utility.yul\":19005:19337   */\n      swap4\n      swap3\n      pop\n      pop\n      pop\n      jump\t// out\n        /* \"#utility.yul\":19343:19524   */\n    tag_392:\n        /* \"#utility.yul\":19483:19516   */\n      0x4475726174696f6e206d7573742062652067726174686572207468616e203000\n        /* \"#utility.yul\":19479:19480   */\n      0x00\n        /* \"#utility.yul\":19471:19477   */\n      dup3\n        /* \"#utility.yul\":19467:19481   */\n      add\n        /* \"#utility.yul\":19460:19517   */\n      mstore\n        /* \"#utility.yul\":19343:19524   */\n      pop\n      jump\t// out\n        /* \"#utility.yul\":19530:19896   */\n    tag_393:\n        /* \"#utility.yul\":19672:19675   */\n      0x00\n        /* \"#utility.yul\":19693:19760   */\n      tag_599\n        /* \"#utility.yul\":19757:19759   */\n      0x1f\n        /* \"#utility.yul\":19752:19755   */\n      dup4\n        /* \"#utility.yul\":19693:19760   */\n      tag_356\n      jump\t// in\n    tag_599:\n        /* \"#utility.yul\":19686:19760   */\n      swap2\n      pop\n        /* \"#utility.yul\":19769:19862   */\n      tag_600\n        /* \"#utility.yul\":19858:19861   */\n      dup3\n        /* \"#utility.yul\":19769:19862   */\n      tag_392\n      jump\t// in\n    tag_600:\n        /* \"#utility.yul\":19887:19889   */\n      0x20\n        /* \"#utility.yul\":19882:19885   */\n      dup3\n        /* \"#utility.yul\":19878:19890   */\n      add\n        /* \"#utility.yul\":19871:19890   */\n      swap1\n      pop\n        /* \"#utility.yul\":19530:19896   */\n      swap2\n      swap1\n      pop\n      jump\t// out\n        /* \"#utility.yul\":19902:20321   */\n    tag_254:\n        /* \"#utility.yul\":20068:20072   */\n      0x00\n        /* \"#utility.yul\":20106:20108   */\n      0x20\n        /* \"#utility.yul\":20095:20104   */\n      dup3\n        /* \"#utility.yul\":20091:20109   */\n      add\n        /* \"#utility.yul\":20083:20109   */\n      swap1\n      pop\n        /* \"#utility.yul\":20155:20164   */\n      dup2\n        /* \"#utility.yul\":20149:20153   */\n      dup2\n        /* \"#utility.yul\":20145:20165   */\n      sub\n        /* \"#utility.yul\":20141:20142   */\n      0x00\n        /* \"#utility.yul\":20130:20139   */\n      dup4\n        /* \"#utility.yul\":20126:20143   */\n      add\n        /* \"#utility.yul\":20119:20166   */\n      mstore\n        /* \"#utility.yul\":20183:20314   */\n      tag_602\n        /* \"#utility.yul\":20309:20313   */\n      dup2\n        /* \"#utility.yul\":20183:20314   */\n      tag_393\n      jump\t// in\n    tag_602:\n        /* \"#utility.yul\":20175:20314   */\n      swap1\n      pop\n        /* \"#utility.yul\":19902:20321   */\n      swap2\n      swap1\n      pop\n      jump\t// out\n        /* \"#utility.yul\":20327:20507   */\n    tag_394:\n        /* \"#utility.yul\":20375:20452   */\n      0x4e487b7100000000000000000000000000000000000000000000000000000000\n        /* \"#utility.yul\":20372:20373   */\n      0x00\n        /* \"#utility.yul\":20365:20453   */\n      mstore\n        /* \"#utility.yul\":20472:20476   */\n      0x11\n        /* \"#utility.yul\":20469:20470   */\n      0x04\n        /* \"#utility.yul\":20462:20477   */\n      mstore\n        /* \"#utility.yul\":20496:20500   */\n      0x24\n        /* \"#utility.yul\":20493:20494   */\n      0x00\n        /* \"#utility.yul\":20486:20501   */\n      revert\n        /* \"#utility.yul\":20513:20923   */\n    tag_258:\n        /* \"#utility.yul\":20553:20560   */\n      0x00\n        /* \"#utility.yul\":20576:20596   */\n      tag_605\n        /* \"#utility.yul\":20594:20595   */\n      dup3\n        /* \"#utility.yul\":20576:20596   */\n      tag_339\n      jump\t// in\n    tag_605:\n        /* \"#utility.yul\":20571:20596   */\n      swap2\n      pop\n        /* \"#utility.yul\":20610:20630   */\n      tag_606\n        /* \"#utility.yul\":20628:20629   */\n      dup4\n        /* \"#utility.yul\":20610:20630   */\n      tag_339\n      jump\t// in\n    tag_606:\n        /* \"#utility.yul\":20605:20630   */\n      swap3\n      pop\n        /* \"#utility.yul\":20665:20666   */\n      dup3\n        /* \"#utility.yul\":20662:20663   */\n      dup3\n        /* \"#utility.yul\":20658:20667   */\n      mul\n        /* \"#utility.yul\":20687:20717   */\n      tag_607\n        /* \"#utility.yul\":20705:20716   */\n      dup2\n        /* \"#utility.yul\":20687:20717   */\n      tag_339\n      jump\t// in\n    tag_607:\n        /* \"#utility.yul\":20676:20717   */\n      swap2\n      pop\n        /* \"#utility.yul\":20866:20867   */\n      dup3\n        /* \"#utility.yul\":20857:20864   */\n      dup3\n        /* \"#utility.yul\":20853:20868   */\n      div\n        /* \"#utility.yul\":20850:20851   */\n      dup5\n        /* \"#utility.yul\":20847:20869   */\n      eq\n        /* \"#utility.yul\":20827:20828   */\n      dup4\n        /* \"#utility.yul\":20820:20829   */\n      iszero\n        /* \"#utility.yul\":20800:20883   */\n      or\n        /* \"#utility.yul\":20777:20916   */\n      tag_608\n      jumpi\n        /* \"#utility.yul\":20896:20914   */\n      tag_609\n      tag_394\n      jump\t// in\n    tag_609:\n        /* \"#utility.yul\":20777:20916   */\n    tag_608:\n        /* \"#utility.yul\":20561:20923   */\n      pop\n        /* \"#utility.yul\":20513:20923   */\n      swap3\n      swap2\n      pop\n      pop\n      jump\t// out\n        /* \"#utility.yul\":20929:21371   */\n    tag_263:\n        /* \"#utility.yul\":21078:21082   */\n      0x00\n        /* \"#utility.yul\":21116:21118   */\n      0x60\n        /* \"#utility.yul\":21105:21114   */\n      dup3\n        /* \"#utility.yul\":21101:21119   */\n      add\n        /* \"#utility.yul\":21093:21119   */\n      swap1\n      pop\n        /* \"#utility.yul\":21129:21200   */\n      tag_611\n        /* \"#utility.yul\":21197:21198   */\n      0x00\n        /* \"#utility.yul\":21186:21195   */\n      dup4\n        /* \"#utility.yul\":21182:21199   */\n      add\n        /* \"#utility.yul\":21173:21179   */\n      dup7\n        /* \"#utility.yul\":21129:21200   */\n      tag_354\n      jump\t// in\n    tag_611:\n        /* \"#utility.yul\":21210:21282   */\n      tag_612\n        /* \"#utility.yul\":21278:21280   */\n      0x20\n        /* \"#utility.yul\":21267:21276   */\n      dup4\n        /* \"#utility.yul\":21263:21281   */\n      add\n        /* \"#utility.yul\":21254:21260   */\n      dup6\n        /* \"#utility.yul\":21210:21282   */\n      tag_354\n      jump\t// in\n    tag_612:\n        /* \"#utility.yul\":21292:21364   */\n      tag_613\n        /* \"#utility.yul\":21360:21362   */\n      0x40\n        /* \"#utility.yul\":21349:21358   */\n      dup4\n        /* \"#utility.yul\":21345:21363   */\n      add\n        /* \"#utility.yul\":21336:21342   */\n      dup5\n        /* \"#utility.yul\":21292:21364   */\n      tag_361\n      jump\t// in\n    tag_613:\n        /* \"#utility.yul\":20929:21371   */\n      swap5\n      swap4\n      pop\n      pop\n      pop\n      pop\n      jump\t// out\n        /* \"#utility.yul\":21377:21568   */\n    tag_274:\n        /* \"#utility.yul\":21417:21420   */\n      0x00\n        /* \"#utility.yul\":21436:21456   */\n      tag_615\n        /* \"#utility.yul\":21454:21455   */\n      dup3\n        /* \"#utility.yul\":21436:21456   */\n      tag_339\n      jump\t// in\n    tag_615:\n        /* \"#utility.yul\":21431:21456   */\n      swap2\n      pop\n        /* \"#utility.yul\":21470:21490   */\n      tag_616\n        /* \"#utility.yul\":21488:21489   */\n      dup4\n        /* \"#utility.yul\":21470:21490   */\n      tag_339\n      jump\t// in\n    tag_616:\n        /* \"#utility.yul\":21465:21490   */\n      swap3\n      pop\n        /* \"#utility.yul\":21513:21514   */\n      dup3\n        /* \"#utility.yul\":21510:21511   */\n      dup3\n        /* \"#utility.yul\":21506:21515   */\n      add\n        /* \"#utility.yul\":21499:21515   */\n      swap1\n      pop\n        /* \"#utility.yul\":21534:21537   */\n      dup1\n        /* \"#utility.yul\":21531:21532   */\n      dup3\n        /* \"#utility.yul\":21528:21538   */\n      gt\n        /* \"#utility.yul\":21525:21561   */\n      iszero\n      tag_617\n      jumpi\n        /* \"#utility.yul\":21541:21559   */\n      tag_618\n      tag_394\n      jump\t// in\n    tag_618:\n        /* \"#utility.yul\":21525:21561   */\n    tag_617:\n        /* \"#utility.yul\":21377:21568   */\n      swap3\n      swap2\n      pop\n      pop\n      jump\t// out\n        /* \"#utility.yul\":21574:21754   */\n    tag_395:\n        /* \"#utility.yul\":21622:21699   */\n      0x4e487b7100000000000000000000000000000000000000000000000000000000\n        /* \"#utility.yul\":21619:21620   */\n      0x00\n        /* \"#utility.yul\":21612:21700   */\n      mstore\n        /* \"#utility.yul\":21719:21723   */\n      0x12\n        /* \"#utility.yul\":21716:21717   */\n      0x04\n        /* \"#utility.yul\":21709:21724   */\n      mstore\n        /* \"#utility.yul\":21743:21747   */\n      0x24\n        /* \"#utility.yul\":21740:21741   */\n      0x00\n        /* \"#utility.yul\":21733:21748   */\n      revert\n        /* \"#utility.yul\":21760:21945   */\n    tag_298:\n        /* \"#utility.yul\":21800:21801   */\n      0x00\n        /* \"#utility.yul\":21817:21837   */\n      tag_621\n        /* \"#utility.yul\":21835:21836   */\n      dup3\n        /* \"#utility.yul\":21817:21837   */\n      tag_339\n      jump\t// in\n    tag_621:\n        /* \"#utility.yul\":21812:21837   */\n      swap2\n      pop\n        /* \"#utility.yul\":21851:21871   */\n      tag_622\n        /* \"#utility.yul\":21869:21870   */\n      dup4\n        /* \"#utility.yul\":21851:21871   */\n      tag_339\n      jump\t// in\n    tag_622:\n        /* \"#utility.yul\":21846:21871   */\n      swap3\n      pop\n        /* \"#utility.yul\":21890:21891   */\n      dup3\n        /* \"#utility.yul\":21880:21915   */\n      tag_623\n      jumpi\n        /* \"#utility.yul\":21895:21913   */\n      tag_624\n      tag_395\n      jump\t// in\n    tag_624:\n        /* \"#utility.yul\":21880:21915   */\n    tag_623:\n        /* \"#utility.yul\":21937:21938   */\n      dup3\n        /* \"#utility.yul\":21934:21935   */\n      dup3\n        /* \"#utility.yul\":21930:21939   */\n      div\n        /* \"#utility.yul\":21925:21939   */\n      swap1\n      pop\n        /* \"#utility.yul\":21760:21945   */\n      swap3\n      swap2\n      pop\n      pop\n      jump\t// out\n\n    auxdata: 0xa2646970667358221220bdf5ad49ec95e39edda0c7868a596c494a100457bf6519e45cef193254ad8f0564736f6c634300081c0033\n}\n",
				"bytecode": {
					"linkReferences": {},
					"object": "608060405260146002556001600355670de0b6b3a7640000600455600260055534801561002a575f5ffd5b50335f73ffffffffffffffffffffffffffffffffffffffff168173ffffffffffffffffffffffffffffffffffffffff160361009c575f6040517f1e4fbdf700000000000000000000000000000000000000000000000000000000815260040161009391906101ca565b60405180910390fd5b6100ab816100ca60201b60201c565b505f5f60146101000a81548160ff0219169083151502179055506101e3565b5f5f5f9054906101000a900473ffffffffffffffffffffffffffffffffffffffff169050815f5f6101000a81548173ffffffffffffffffffffffffffffffffffffffff021916908373ffffffffffffffffffffffffffffffffffffffff1602179055508173ffffffffffffffffffffffffffffffffffffffff168173ffffffffffffffffffffffffffffffffffffffff167f8be0079c531659141344cd1fd0a4f28419497f9722a3daafe3b4186f6b6457e060405160405180910390a35050565b5f73ffffffffffffffffffffffffffffffffffffffff82169050919050565b5f6101b48261018b565b9050919050565b6101c4816101aa565b82525050565b5f6020820190506101dd5f8301846101bb565b92915050565b611f6b806101f05f395ff3fe6080604052600436106101b6575f3560e01c8063715018a6116100eb578063a37b06d411610089578063efbe1c1c11610063578063efbe1c1c146105ab578063f2fde38b146105d5578063fb2228fe146105fd578063ffa1ad7414610627576101b6565b8063a37b06d41461051b578063aa8c217c14610557578063ddca3f4314610581576101b6565b80637d38c997116100c55780637d38c997146104755780638456cb59146104b15780638da5cb5b146104c7578063a035b1fe146104f1576101b6565b8063715018a61461040b57806372b121c9146104215780637a895f5d1461044b576101b6565b80633f4ba83a1161015857806356a6d9ef1161013257806356a6d9ef1461035a5780635a05ec90146103825780635c975abb146103b05780636098178f146103da576101b6565b80633f4ba83a146102f0578063481c6a75146103065780634e71d92d14610330576101b6565b806312065fe01161019457806312065fe01461025c57806316ada54714610286578063392f37e9146102b05780633ccfd60b146102da576101b6565b8063074819c8146101ba5780630cbb0cc7146101f65780630fb5a6b414610232575b5f5ffd5b3480156101c5575f5ffd5b506101e060048036038101906101db919061143b565b610651565b6040516101ed9190611480565b60405180910390f35b348015610201575f5ffd5b5061021c600480360381019061021791906115d5565b61066a565b6040516102299190611480565b60405180910390f35b34801561023d575f5ffd5b50610246610728565b604051610253919061162b565b60405180910390f35b348015610267575f5ffd5b5061027061072e565b60405161027d919061162b565b60405180910390f35b348015610291575f5ffd5b5061029a610735565b6040516102a7919061162b565b60405180910390f35b3480156102bb575f5ffd5b506102c461073c565b6040516102d191906116a4565b60405180910390f35b3480156102e5575f5ffd5b506102ee6107c8565b005b3480156102fb575f5ffd5b50610304610887565b005b348015610311575f5ffd5b5061031a610899565b6040516103279190611703565b60405180910390f35b34801561033b575f5ffd5b506103446108be565b6040516103519190611480565b60405180910390f35b348015610365575f5ffd5b50610380600480360381019061037b9190611757565b610b5e565b005b34801561038d575f5ffd5b50610396610c13565b6040516103a7959493929190611795565b60405180910390f35b3480156103bb575f5ffd5b506103c4610ce1565b6040516103d19190611480565b60405180910390f35b6103f460048036038101906103ef91906117ed565b610cf6565b604051610402929190611847565b60405180910390f35b348015610416575f5ffd5b5061041f610f6b565b005b34801561042c575f5ffd5b50610435610f7e565b604051610442919061162b565b60405180910390f35b348015610456575f5ffd5b5061045f610f84565b60405161046c919061162b565b60405180910390f35b348015610480575f5ffd5b5061049b6004803603810190610496919061143b565b610f8a565b6040516104a89190611703565b60405180910390f35b3480156104bc575f5ffd5b506104c5610fc5565b005b3480156104d2575f5ffd5b506104db610fd7565b6040516104e89190611703565b60405180910390f35b3480156104fc575f5ffd5b50610505610ffe565b604051610512919061162b565b60405180910390f35b348015610526575f5ffd5b50610541600480360381019061053c919061186e565b611004565b60405161054e919061162b565b60405180910390f35b348015610562575f5ffd5b5061056b61103d565b604051610578919061162b565b60405180910390f35b34801561058c575f5ffd5b50610595611043565b6040516105a2919061162b565b60405180910390f35b3480156105b6575f5ffd5b506105bf611049565b6040516105cc919061162b565b60405180910390f35b3480156105e0575f5ffd5b506105fb60048036038101906105f691906118d6565b61104f565b005b348015610608575f5ffd5b506106116110d3565b60405161061e919061162b565b60405180910390f35b348015610632575f5ffd5b5061063b6110de565b60405161064891906116a4565b60405180910390f35b5f61065a611117565b8160058190555060019050919050565b5f61067361119e565b60095f9054906101000a900473ffffffffffffffffffffffffffffffffffffffff1673ffffffffffffffffffffffffffffffffffffffff166106b36111df565b73ffffffffffffffffffffffffffffffffffffffff16141580156106d8575042600654105b1561070f576040517f82b4290000000000000000000000000000000000000000000000000000000000815260040160405180910390fd5b81600a908161071e9190611afe565b5060019050919050565b60075481565b5f47905090565b5f42905090565b600a80546107499061192e565b80601f01602080910402602001604051908101604052809291908181526020018280546107759061192e565b80156107c05780601f10610797576101008083540402835291602001916107c0565b820191905f5260205f20905b8154815290600101906020018083116107a357829003601f168201915b505050505081565b6107d0611117565b5f4790505f6107dd610fd7565b73ffffffffffffffffffffffffffffffffffffffff168260405161080090611bfa565b5f6040518083038185875af1925050503d805f811461083a576040519150601f19603f3d011682016040523d82523d5f602084013e61083f565b606091505b5050905080610883576040517f08c379a000000000000000000000000000000000000000000000000000000000815260040161087a90611c58565b60405180910390fd5b5050565b61088f611117565b6108976111e6565b565b60095f9054906101000a900473ffffffffffffffffffffffffffffffffffffffff1681565b5f6108c761119e565b600654421061090b576040517f08c379a000000000000000000000000000000000000000000000000000000000815260040161090290611cc0565b60405180910390fd5b5f5f90505b600b805490508110156109e3576109256111df565b73ffffffffffffffffffffffffffffffffffffffff16600b828154811061094f5761094e611cde565b5b905f5260205f20015f9054906101000a900473ffffffffffffffffffffffffffffffffffffffff1673ffffffffffffffffffffffffffffffffffffffff16036109d65761099a6111df565b6040517f33de2ce30000000000000000000000000000000000000000000000000000000081526004016109cd9190611703565b60405180910390fd5b8080600101915050610910565b506109ee6001611247565b600b6109f86111df565b908060018154018082558091505060019003905f5260205f20015f9091909190916101000a81548173ffffffffffffffffffffffffffffffffffffffff021916908373ffffffffffffffffffffffffffffffffffffffff1602179055505f610a64600854600554611004565b90505f610a6f6111df565b73ffffffffffffffffffffffffffffffffffffffff1682604051610a9290611bfa565b5f6040518083038185875af1925050503d805f8114610acc576040519150601f19603f3d011682016040523d82523d5f602084013e610ad1565b606091505b5050905080610b15576040517f08c379a0000000000000000000000000000000000000000000000000000000008152600401610b0c90611d55565b60405180910390fd5b7fd8138f8a3f377c5259ca548e70e4c2de94f129f5a11036a15b69513cba2b426a610b3e6111df565b83604051610b4d929190611d73565b60405180910390a160019250505090565b610b66611117565b5f8273ffffffffffffffffffffffffffffffffffffffff1682604051610b8b90611bfa565b5f6040518083038185875af1925050503d805f8114610bc5576040519150601f19603f3d011682016040523d82523d5f602084013e610bca565b606091505b5050905080610c0e576040517f08c379a0000000000000000000000000000000000000000000000000000000008152600401610c0590611c58565b60405180910390fd5b505050565b5f5f5f5f606060065460075460085460095f9054906101000a900473ffffffffffffffffffffffffffffffffffffffff16600a808054610c529061192e565b80601f0160208091040260200160405190810160405280929190818152602001828054610c7e9061192e565b8015610cc95780601f10610ca057610100808354040283529160200191610cc9565b820191905f5260205f20905b815481529060010190602001808311610cac57829003601f168201915b50505050509050945094509450945094509091929394565b5f5f60149054906101000a900460ff16905090565b5f5f610d0061119e565b5f6201518090505f8411610d49576040517f08c379a0000000000000000000000000000000000000000000000000000000008152600401610d4090611de4565b60405180910390fd5b600654421015610d92576006546040517f010408dd000000000000000000000000000000000000000000000000000000008152600401610d89919061162b565b60405180910390fd5b83600454610da09190611e2f565b341015610dfe5760045484600454610db89190611e2f565b610dc06111df565b6040517ff665e129000000000000000000000000000000000000000000000000000000008152600401610df593929190611e70565b60405180910390fd5b5f610e0b34600354611004565b90505f610e16610fd7565b73ffffffffffffffffffffffffffffffffffffffff1682604051610e3990611bfa565b5f6040518083038185875af1925050503d805f8114610e73576040519150601f19603f3d011682016040523d82523d5f602084013e610e78565b606091505b5050905080610ebc576040517f08c379a0000000000000000000000000000000000000000000000000000000008152600401610eb390611d55565b60405180910390fd5b8583610ec89190611e2f565b42610ed39190611ea5565b60068190555085600781905550610ee86111df565b60095f6101000a81548173ffffffffffffffffffffffffffffffffffffffff021916908373ffffffffffffffffffffffffffffffffffffffff16021790555086600a9081610f369190611afe565b5085600454610f459190611e2f565b600881905550600b5f610f5891906113be565b6001600654945094505050509250929050565b610f73611117565b610f7c5f61125b565b565b60025481565b60055481565b600b8181548110610f99575f80fd5b905f5260205f20015f915054906101000a900473ffffffffffffffffffffffffffffffffffffffff1681565b610fcd611117565b610fd561131c565b565b5f5f5f9054906101000a900473ffffffffffffffffffffffffffffffffffffffff16905090565b60045481565b5f606482846110139190611e2f565b101561101d575f5ffd5b6064828461102b9190611e2f565b6110359190611f05565b905092915050565b60085481565b60035481565b60065481565b611057611117565b5f73ffffffffffffffffffffffffffffffffffffffff168173ffffffffffffffffffffffffffffffffffffffff16036110c7575f6040517f1e4fbdf70000000000000000000000000000000000000000000000000000000081526004016110be9190611703565b60405180910390fd5b6110d08161125b565b50565b6001805f0154905081565b6040518060400160405280600581526020017f312e302e3000000000000000000000000000000000000000000000000000000081525081565b61111f6111df565b73ffffffffffffffffffffffffffffffffffffffff1661113d610fd7565b73ffffffffffffffffffffffffffffffffffffffff161461119c576111606111df565b6040517f118cdaa70000000000000000000000000000000000000000000000000000000081526004016111939190611703565b60405180910390fd5b565b6111a6610ce1565b156111dd576040517fd93c066500000000000000000000000000000000000000000000000000000000815260040160405180910390fd5b565b5f33905090565b6111ee61137e565b5f5f60146101000a81548160ff0219169083151502179055507f5db9ee0a495bf2e6ff9c91a7834c1ba4fdd244a5e8aa4e537bd38aeae4b073aa6112306111df565b60405161123d9190611703565b60405180910390a1565b6001815f015f828254019250508190555050565b5f5f5f9054906101000a900473ffffffffffffffffffffffffffffffffffffffff169050815f5f6101000a81548173ffffffffffffffffffffffffffffffffffffffff021916908373ffffffffffffffffffffffffffffffffffffffff1602179055508173ffffffffffffffffffffffffffffffffffffffff168173ffffffffffffffffffffffffffffffffffffffff167f8be0079c531659141344cd1fd0a4f28419497f9722a3daafe3b4186f6b6457e060405160405180910390a35050565b61132461119e565b60015f60146101000a81548160ff0219169083151502179055507f62e78cea01bee320cd4e420270b5ea74000d11b0c9f74754ebdbfc544b05a2586113676111df565b6040516113749190611703565b60405180910390a1565b611386610ce1565b6113bc576040517f8dfc202b00000000000000000000000000000000000000000000000000000000815260040160405180910390fd5b565b5080545f8255905f5260205f20908101906113d991906113dc565b50565b5b808211156113f3575f815f9055506001016113dd565b5090565b5f604051905090565b5f5ffd5b5f5ffd5b5f819050919050565b61141a81611408565b8114611424575f5ffd5b50565b5f8135905061143581611411565b92915050565b5f602082840312156114505761144f611400565b5b5f61145d84828501611427565b91505092915050565b5f8115159050919050565b61147a81611466565b82525050565b5f6020820190506114935f830184611471565b92915050565b5f5ffd5b5f5ffd5b5f601f19601f8301169050919050565b7f4e487b71000000000000000000000000000000000000000000000000000000005f52604160045260245ffd5b6114e7826114a1565b810181811067ffffffffffffffff82111715611506576115056114b1565b5b80604052505050565b5f6115186113f7565b905061152482826114de565b919050565b5f67ffffffffffffffff821115611543576115426114b1565b5b61154c826114a1565b9050602081019050919050565b828183375f83830152505050565b5f61157961157484611529565b61150f565b9050828152602081018484840111156115955761159461149d565b5b6115a0848285611559565b509392505050565b5f82601f8301126115bc576115bb611499565b5b81356115cc848260208601611567565b91505092915050565b5f602082840312156115ea576115e9611400565b5b5f82013567ffffffffffffffff81111561160757611606611404565b5b611613848285016115a8565b91505092915050565b61162581611408565b82525050565b5f60208201905061163e5f83018461161c565b92915050565b5f81519050919050565b5f82825260208201905092915050565b8281835e5f83830152505050565b5f61167682611644565b611680818561164e565b935061169081856020860161165e565b611699816114a1565b840191505092915050565b5f6020820190508181035f8301526116bc818461166c565b905092915050565b5f73ffffffffffffffffffffffffffffffffffffffff82169050919050565b5f6116ed826116c4565b9050919050565b6116fd816116e3565b82525050565b5f6020820190506117165f8301846116f4565b92915050565b5f611726826116c4565b9050919050565b6117368161171c565b8114611740575f5ffd5b50565b5f813590506117518161172d565b92915050565b5f5f6040838503121561176d5761176c611400565b5b5f61177a85828601611743565b925050602061178b85828601611427565b9150509250929050565b5f60a0820190506117a85f83018861161c565b6117b5602083018761161c565b6117c2604083018661161c565b6117cf60608301856116f4565b81810360808301526117e1818461166c565b90509695505050505050565b5f5f6040838503121561180357611802611400565b5b5f83013567ffffffffffffffff8111156118205761181f611404565b5b61182c858286016115a8565b925050602061183d85828601611427565b9150509250929050565b5f60408201905061185a5f830185611471565b611867602083018461161c565b9392505050565b5f5f6040838503121561188457611883611400565b5b5f61189185828601611427565b92505060206118a285828601611427565b9150509250929050565b6118b5816116e3565b81146118bf575f5ffd5b50565b5f813590506118d0816118ac565b92915050565b5f602082840312156118eb576118ea611400565b5b5f6118f8848285016118c2565b91505092915050565b7f4e487b71000000000000000000000000000000000000000000000000000000005f52602260045260245ffd5b5f600282049050600182168061194557607f821691505b60208210810361195857611957611901565b5b50919050565b5f819050815f5260205f209050919050565b5f6020601f8301049050919050565b5f82821b905092915050565b5f600883026119ba7fffffffffffffffffffffffffffffffffffffffffffffffffffffffffffffffff8261197f565b6119c4868361197f565b95508019841693508086168417925050509392505050565b5f819050919050565b5f6119ff6119fa6119f584611408565b6119dc565b611408565b9050919050565b5f819050919050565b611a18836119e5565b611a2c611a2482611a06565b84845461198b565b825550505050565b5f5f905090565b611a43611a34565b611a4e818484611a0f565b505050565b5b81811015611a7157611a665f82611a3b565b600181019050611a54565b5050565b601f821115611ab657611a878161195e565b611a9084611970565b81016020851015611a9f578190505b611ab3611aab85611970565b830182611a53565b50505b505050565b5f82821c905092915050565b5f611ad65f1984600802611abb565b1980831691505092915050565b5f611aee8383611ac7565b9150826002028217905092915050565b611b0782611644565b67ffffffffffffffff811115611b2057611b1f6114b1565b5b611b2a825461192e565b611b35828285611a75565b5f60209050601f831160018114611b66575f8415611b54578287015190505b611b5e8582611ae3565b865550611bc5565b601f198416611b748661195e565b5f5b82811015611b9b57848901518255600182019150602085019450602081019050611b76565b86831015611bb85784890151611bb4601f891682611ac7565b8355505b6001600288020188555050505b505050505050565b5f81905092915050565b50565b5f611be55f83611bcd565b9150611bf082611bd7565b5f82019050919050565b5f611c0482611bda565b9150819050919050565b7f4661696c656400000000000000000000000000000000000000000000000000005f82015250565b5f611c4260068361164e565b9150611c4d82611c0e565b602082019050919050565b5f6020820190508181035f830152611c6f81611c36565b9050919050565b7f5468657265206973206e6f2061637469766520616400000000000000000000005f82015250565b5f611caa60158361164e565b9150611cb582611c76565b602082019050919050565b5f6020820190508181035f830152611cd781611c9e565b9050919050565b7f4e487b71000000000000000000000000000000000000000000000000000000005f52603260045260245ffd5b7f4661696c656420746f2073656e642045746865720000000000000000000000005f82015250565b5f611d3f60148361164e565b9150611d4a82611d0b565b602082019050919050565b5f6020820190508181035f830152611d6c81611d33565b9050919050565b5f604082019050611d865f8301856116f4565b611d93602083018461161c565b9392505050565b7f4475726174696f6e206d7573742062652067726174686572207468616e2030005f82015250565b5f611dce601f8361164e565b9150611dd982611d9a565b602082019050919050565b5f6020820190508181035f830152611dfb81611dc2565b9050919050565b7f4e487b71000000000000000000000000000000000000000000000000000000005f52601160045260245ffd5b5f611e3982611408565b9150611e4483611408565b9250828202611e5281611408565b91508282048414831517611e6957611e68611e02565b5b5092915050565b5f606082019050611e835f83018661161c565b611e90602083018561161c565b611e9d60408301846116f4565b949350505050565b5f611eaf82611408565b9150611eba83611408565b9250828201905080821115611ed257611ed1611e02565b5b92915050565b7f4e487b71000000000000000000000000000000000000000000000000000000005f52601260045260245ffd5b5f611f0f82611408565b9150611f1a83611408565b925082611f2a57611f29611ed8565b5b82820490509291505056fea2646970667358221220bdf5ad49ec95e39edda0c7868a596c494a100457bf6519e45cef193254ad8f0564736f6c634300081c0033",
					"opcodes": "PUSH1 0x80 PUSH1 0x40 MSTORE PUSH1 0x14 PUSH1 0x2 SSTORE PUSH1 0x1 PUSH1 0x3 SSTORE PUSH8 0xDE0B6B3A7640000 PUSH1 0x4 SSTORE PUSH1 0x2 PUSH1 0x5 SSTORE CALLVALUE DUP1 ISZERO PUSH2 0x2A JUMPI PUSH0 PUSH0 REVERT JUMPDEST POP CALLER PUSH0 PUSH20 0xFFFFFFFFFFFFFFFFFFFFFFFFFFFFFFFFFFFFFFFF AND DUP2 PUSH20 0xFFFFFFFFFFFFFFFFFFFFFFFFFFFFFFFFFFFFFFFF AND SUB PUSH2 0x9C JUMPI PUSH0 PUSH1 0x40 MLOAD PUSH32 0x1E4FBDF700000000000000000000000000000000000000000000000000000000 DUP2 MSTORE PUSH1 0x4 ADD PUSH2 0x93 SWAP2 SWAP1 PUSH2 0x1CA JUMP JUMPDEST PUSH1 0x40 MLOAD DUP1 SWAP2 SUB SWAP1 REVERT JUMPDEST PUSH2 0xAB DUP2 PUSH2 0xCA PUSH1 0x20 SHL PUSH1 0x20 SHR JUMP JUMPDEST POP PUSH0 PUSH0 PUSH1 0x14 PUSH2 0x100 EXP DUP2 SLOAD DUP2 PUSH1 0xFF MUL NOT AND SWAP1 DUP4 ISZERO ISZERO MUL OR SWAP1 SSTORE POP PUSH2 0x1E3 JUMP JUMPDEST PUSH0 PUSH0 PUSH0 SWAP1 SLOAD SWAP1 PUSH2 0x100 EXP SWAP1 DIV PUSH20 0xFFFFFFFFFFFFFFFFFFFFFFFFFFFFFFFFFFFFFFFF AND SWAP1 POP DUP2 PUSH0 PUSH0 PUSH2 0x100 EXP DUP2 SLOAD DUP2 PUSH20 0xFFFFFFFFFFFFFFFFFFFFFFFFFFFFFFFFFFFFFFFF MUL NOT AND SWAP1 DUP4 PUSH20 0xFFFFFFFFFFFFFFFFFFFFFFFFFFFFFFFFFFFFFFFF AND MUL OR SWAP1 SSTORE POP DUP2 PUSH20 0xFFFFFFFFFFFFFFFFFFFFFFFFFFFFFFFFFFFFFFFF AND DUP2 PUSH20 0xFFFFFFFFFFFFFFFFFFFFFFFFFFFFFFFFFFFFFFFF AND PUSH32 0x8BE0079C531659141344CD1FD0A4F28419497F9722A3DAAFE3B4186F6B6457E0 PUSH1 0x40 MLOAD PUSH1 0x40 MLOAD DUP1 SWAP2 SUB SWAP1 LOG3 POP POP JUMP JUMPDEST PUSH0 PUSH20 0xFFFFFFFFFFFFFFFFFFFFFFFFFFFFFFFFFFFFFFFF DUP3 AND SWAP1 POP SWAP2 SWAP1 POP JUMP JUMPDEST PUSH0 PUSH2 0x1B4 DUP3 PUSH2 0x18B JUMP JUMPDEST SWAP1 POP SWAP2 SWAP1 POP JUMP JUMPDEST PUSH2 0x1C4 DUP2 PUSH2 0x1AA JUMP JUMPDEST DUP3 MSTORE POP POP JUMP JUMPDEST PUSH0 PUSH1 0x20 DUP3 ADD SWAP1 POP PUSH2 0x1DD PUSH0 DUP4 ADD DUP5 PUSH2 0x1BB JUMP JUMPDEST SWAP3 SWAP2 POP POP JUMP JUMPDEST PUSH2 0x1F6B DUP1 PUSH2 0x1F0 PUSH0 CODECOPY PUSH0 RETURN INVALID PUSH1 0x80 PUSH1 0x40 MSTORE PUSH1 0x4 CALLDATASIZE LT PUSH2 0x1B6 JUMPI PUSH0 CALLDATALOAD PUSH1 0xE0 SHR DUP1 PUSH4 0x715018A6 GT PUSH2 0xEB JUMPI DUP1 PUSH4 0xA37B06D4 GT PUSH2 0x89 JUMPI DUP1 PUSH4 0xEFBE1C1C GT PUSH2 0x63 JUMPI DUP1 PUSH4 0xEFBE1C1C EQ PUSH2 0x5AB JUMPI DUP1 PUSH4 0xF2FDE38B EQ PUSH2 0x5D5 JUMPI DUP1 PUSH4 0xFB2228FE EQ PUSH2 0x5FD JUMPI DUP1 PUSH4 0xFFA1AD74 EQ PUSH2 0x627 JUMPI PUSH2 0x1B6 JUMP JUMPDEST DUP1 PUSH4 0xA37B06D4 EQ PUSH2 0x51B JUMPI DUP1 PUSH4 0xAA8C217C EQ PUSH2 0x557 JUMPI DUP1 PUSH4 0xDDCA3F43 EQ PUSH2 0x581 JUMPI PUSH2 0x1B6 JUMP JUMPDEST DUP1 PUSH4 0x7D38C997 GT PUSH2 0xC5 JUMPI DUP1 PUSH4 0x7D38C997 EQ PUSH2 0x475 JUMPI DUP1 PUSH4 0x8456CB59 EQ PUSH2 0x4B1 JUMPI DUP1 PUSH4 0x8DA5CB5B EQ PUSH2 0x4C7 JUMPI DUP1 PUSH4 0xA035B1FE EQ PUSH2 0x4F1 JUMPI PUSH2 0x1B6 JUMP JUMPDEST DUP1 PUSH4 0x715018A6 EQ PUSH2 0x40B JUMPI DUP1 PUSH4 0x72B121C9 EQ PUSH2 0x421 JUMPI DUP1 PUSH4 0x7A895F5D EQ PUSH2 0x44B JUMPI PUSH2 0x1B6 JUMP JUMPDEST DUP1 PUSH4 0x3F4BA83A GT PUSH2 0x158 JUMPI DUP1 PUSH4 0x56A6D9EF GT PUSH2 0x132 JUMPI DUP1 PUSH4 0x56A6D9EF EQ PUSH2 0x35A JUMPI DUP1 PUSH4 0x5A05EC90 EQ PUSH2 0x382 JUMPI DUP1 PUSH4 0x5C975ABB EQ PUSH2 0x3B0 JUMPI DUP1 PUSH4 0x6098178F EQ PUSH2 0x3DA JUMPI PUSH2 0x1B6 JUMP JUMPDEST DUP1 PUSH4 0x3F4BA83A EQ PUSH2 0x2F0 JUMPI DUP1 PUSH4 0x481C6A75 EQ PUSH2 0x306 JUMPI DUP1 PUSH4 0x4E71D92D EQ PUSH2 0x330 JUMPI PUSH2 0x1B6 JUMP JUMPDEST DUP1 PUSH4 0x12065FE0 GT PUSH2 0x194 JUMPI DUP1 PUSH4 0x12065FE0 EQ PUSH2 0x25C JUMPI DUP1 PUSH4 0x16ADA547 EQ PUSH2 0x286 JUMPI DUP1 PUSH4 0x392F37E9 EQ PUSH2 0x2B0 JUMPI DUP1 PUSH4 0x3CCFD60B EQ PUSH2 0x2DA JUMPI PUSH2 0x1B6 JUMP JUMPDEST DUP1 PUSH4 0x74819C8 EQ PUSH2 0x1BA JUMPI DUP1 PUSH4 0xCBB0CC7 EQ PUSH2 0x1F6 JUMPI DUP1 PUSH4 0xFB5A6B4 EQ PUSH2 0x232 JUMPI JUMPDEST PUSH0 PUSH0 REVERT JUMPDEST CALLVALUE DUP1 ISZERO PUSH2 0x1C5 JUMPI PUSH0 PUSH0 REVERT JUMPDEST POP PUSH2 0x1E0 PUSH1 0x4 DUP1 CALLDATASIZE SUB DUP2 ADD SWAP1 PUSH2 0x1DB SWAP2 SWAP1 PUSH2 0x143B JUMP JUMPDEST PUSH2 0x651 JUMP JUMPDEST PUSH1 0x40 MLOAD PUSH2 0x1ED SWAP2 SWAP1 PUSH2 0x1480 JUMP JUMPDEST PUSH1 0x40 MLOAD DUP1 SWAP2 SUB SWAP1 RETURN JUMPDEST CALLVALUE DUP1 ISZERO PUSH2 0x201 JUMPI PUSH0 PUSH0 REVERT JUMPDEST POP PUSH2 0x21C PUSH1 0x4 DUP1 CALLDATASIZE SUB DUP2 ADD SWAP1 PUSH2 0x217 SWAP2 SWAP1 PUSH2 0x15D5 JUMP JUMPDEST PUSH2 0x66A JUMP JUMPDEST PUSH1 0x40 MLOAD PUSH2 0x229 SWAP2 SWAP1 PUSH2 0x1480 JUMP JUMPDEST PUSH1 0x40 MLOAD DUP1 SWAP2 SUB SWAP1 RETURN JUMPDEST CALLVALUE DUP1 ISZERO PUSH2 0x23D JUMPI PUSH0 PUSH0 REVERT JUMPDEST POP PUSH2 0x246 PUSH2 0x728 JUMP JUMPDEST PUSH1 0x40 MLOAD PUSH2 0x253 SWAP2 SWAP1 PUSH2 0x162B JUMP JUMPDEST PUSH1 0x40 MLOAD DUP1 SWAP2 SUB SWAP1 RETURN JUMPDEST CALLVALUE DUP1 ISZERO PUSH2 0x267 JUMPI PUSH0 PUSH0 REVERT JUMPDEST POP PUSH2 0x270 PUSH2 0x72E JUMP JUMPDEST PUSH1 0x40 MLOAD PUSH2 0x27D SWAP2 SWAP1 PUSH2 0x162B JUMP JUMPDEST PUSH1 0x40 MLOAD DUP1 SWAP2 SUB SWAP1 RETURN JUMPDEST CALLVALUE DUP1 ISZERO PUSH2 0x291 JUMPI PUSH0 PUSH0 REVERT JUMPDEST POP PUSH2 0x29A PUSH2 0x735 JUMP JUMPDEST PUSH1 0x40 MLOAD PUSH2 0x2A7 SWAP2 SWAP1 PUSH2 0x162B JUMP JUMPDEST PUSH1 0x40 MLOAD DUP1 SWAP2 SUB SWAP1 RETURN JUMPDEST CALLVALUE DUP1 ISZERO PUSH2 0x2BB JUMPI PUSH0 PUSH0 REVERT JUMPDEST POP PUSH2 0x2C4 PUSH2 0x73C JUMP JUMPDEST PUSH1 0x40 MLOAD PUSH2 0x2D1 SWAP2 SWAP1 PUSH2 0x16A4 JUMP JUMPDEST PUSH1 0x40 MLOAD DUP1 SWAP2 SUB SWAP1 RETURN JUMPDEST CALLVALUE DUP1 ISZERO PUSH2 0x2E5 JUMPI PUSH0 PUSH0 REVERT JUMPDEST POP PUSH2 0x2EE PUSH2 0x7C8 JUMP JUMPDEST STOP JUMPDEST CALLVALUE DUP1 ISZERO PUSH2 0x2FB JUMPI PUSH0 PUSH0 REVERT JUMPDEST POP PUSH2 0x304 PUSH2 0x887 JUMP JUMPDEST STOP JUMPDEST CALLVALUE DUP1 ISZERO PUSH2 0x311 JUMPI PUSH0 PUSH0 REVERT JUMPDEST POP PUSH2 0x31A PUSH2 0x899 JUMP JUMPDEST PUSH1 0x40 MLOAD PUSH2 0x327 SWAP2 SWAP1 PUSH2 0x1703 JUMP JUMPDEST PUSH1 0x40 MLOAD DUP1 SWAP2 SUB SWAP1 RETURN JUMPDEST CALLVALUE DUP1 ISZERO PUSH2 0x33B JUMPI PUSH0 PUSH0 REVERT JUMPDEST POP PUSH2 0x344 PUSH2 0x8BE JUMP JUMPDEST PUSH1 0x40 MLOAD PUSH2 0x351 SWAP2 SWAP1 PUSH2 0x1480 JUMP JUMPDEST PUSH1 0x40 MLOAD DUP1 SWAP2 SUB SWAP1 RETURN JUMPDEST CALLVALUE DUP1 ISZERO PUSH2 0x365 JUMPI PUSH0 PUSH0 REVERT JUMPDEST POP PUSH2 0x380 PUSH1 0x4 DUP1 CALLDATASIZE SUB DUP2 ADD SWAP1 PUSH2 0x37B SWAP2 SWAP1 PUSH2 0x1757 JUMP JUMPDEST PUSH2 0xB5E JUMP JUMPDEST STOP JUMPDEST CALLVALUE DUP1 ISZERO PUSH2 0x38D JUMPI PUSH0 PUSH0 REVERT JUMPDEST POP PUSH2 0x396 PUSH2 0xC13 JUMP JUMPDEST PUSH1 0x40 MLOAD PUSH2 0x3A7 SWAP6 SWAP5 SWAP4 SWAP3 SWAP2 SWAP1 PUSH2 0x1795 JUMP JUMPDEST PUSH1 0x40 MLOAD DUP1 SWAP2 SUB SWAP1 RETURN JUMPDEST CALLVALUE DUP1 ISZERO PUSH2 0x3BB JUMPI PUSH0 PUSH0 REVERT JUMPDEST POP PUSH2 0x3C4 PUSH2 0xCE1 JUMP JUMPDEST PUSH1 0x40 MLOAD PUSH2 0x3D1 SWAP2 SWAP1 PUSH2 0x1480 JUMP JUMPDEST PUSH1 0x40 MLOAD DUP1 SWAP2 SUB SWAP1 RETURN JUMPDEST PUSH2 0x3F4 PUSH1 0x4 DUP1 CALLDATASIZE SUB DUP2 ADD SWAP1 PUSH2 0x3EF SWAP2 SWAP1 PUSH2 0x17ED JUMP JUMPDEST PUSH2 0xCF6 JUMP JUMPDEST PUSH1 0x40 MLOAD PUSH2 0x402 SWAP3 SWAP2 SWAP1 PUSH2 0x1847 JUMP JUMPDEST PUSH1 0x40 MLOAD DUP1 SWAP2 SUB SWAP1 RETURN JUMPDEST CALLVALUE DUP1 ISZERO PUSH2 0x416 JUMPI PUSH0 PUSH0 REVERT JUMPDEST POP PUSH2 0x41F PUSH2 0xF6B JUMP JUMPDEST STOP JUMPDEST CALLVALUE DUP1 ISZERO PUSH2 0x42C JUMPI PUSH0 PUSH0 REVERT JUMPDEST POP PUSH2 0x435 PUSH2 0xF7E JUMP JUMPDEST PUSH1 0x40 MLOAD PUSH2 0x442 SWAP2 SWAP1 PUSH2 0x162B JUMP JUMPDEST PUSH1 0x40 MLOAD DUP1 SWAP2 SUB SWAP1 RETURN JUMPDEST CALLVALUE DUP1 ISZERO PUSH2 0x456 JUMPI PUSH0 PUSH0 REVERT JUMPDEST POP PUSH2 0x45F PUSH2 0xF84 JUMP JUMPDEST PUSH1 0x40 MLOAD PUSH2 0x46C SWAP2 SWAP1 PUSH2 0x162B JUMP JUMPDEST PUSH1 0x40 MLOAD DUP1 SWAP2 SUB SWAP1 RETURN JUMPDEST CALLVALUE DUP1 ISZERO PUSH2 0x480 JUMPI PUSH0 PUSH0 REVERT JUMPDEST POP PUSH2 0x49B PUSH1 0x4 DUP1 CALLDATASIZE SUB DUP2 ADD SWAP1 PUSH2 0x496 SWAP2 SWAP1 PUSH2 0x143B JUMP JUMPDEST PUSH2 0xF8A JUMP JUMPDEST PUSH1 0x40 MLOAD PUSH2 0x4A8 SWAP2 SWAP1 PUSH2 0x1703 JUMP JUMPDEST PUSH1 0x40 MLOAD DUP1 SWAP2 SUB SWAP1 RETURN JUMPDEST CALLVALUE DUP1 ISZERO PUSH2 0x4BC JUMPI PUSH0 PUSH0 REVERT JUMPDEST POP PUSH2 0x4C5 PUSH2 0xFC5 JUMP JUMPDEST STOP JUMPDEST CALLVALUE DUP1 ISZERO PUSH2 0x4D2 JUMPI PUSH0 PUSH0 REVERT JUMPDEST POP PUSH2 0x4DB PUSH2 0xFD7 JUMP JUMPDEST PUSH1 0x40 MLOAD PUSH2 0x4E8 SWAP2 SWAP1 PUSH2 0x1703 JUMP JUMPDEST PUSH1 0x40 MLOAD DUP1 SWAP2 SUB SWAP1 RETURN JUMPDEST CALLVALUE DUP1 ISZERO PUSH2 0x4FC JUMPI PUSH0 PUSH0 REVERT JUMPDEST POP PUSH2 0x505 PUSH2 0xFFE JUMP JUMPDEST PUSH1 0x40 MLOAD PUSH2 0x512 SWAP2 SWAP1 PUSH2 0x162B JUMP JUMPDEST PUSH1 0x40 MLOAD DUP1 SWAP2 SUB SWAP1 RETURN JUMPDEST CALLVALUE DUP1 ISZERO PUSH2 0x526 JUMPI PUSH0 PUSH0 REVERT JUMPDEST POP PUSH2 0x541 PUSH1 0x4 DUP1 CALLDATASIZE SUB DUP2 ADD SWAP1 PUSH2 0x53C SWAP2 SWAP1 PUSH2 0x186E JUMP JUMPDEST PUSH2 0x1004 JUMP JUMPDEST PUSH1 0x40 MLOAD PUSH2 0x54E SWAP2 SWAP1 PUSH2 0x162B JUMP JUMPDEST PUSH1 0x40 MLOAD DUP1 SWAP2 SUB SWAP1 RETURN JUMPDEST CALLVALUE DUP1 ISZERO PUSH2 0x562 JUMPI PUSH0 PUSH0 REVERT JUMPDEST POP PUSH2 0x56B PUSH2 0x103D JUMP JUMPDEST PUSH1 0x40 MLOAD PUSH2 0x578 SWAP2 SWAP1 PUSH2 0x162B JUMP JUMPDEST PUSH1 0x40 MLOAD DUP1 SWAP2 SUB SWAP1 RETURN JUMPDEST CALLVALUE DUP1 ISZERO PUSH2 0x58C JUMPI PUSH0 PUSH0 REVERT JUMPDEST POP PUSH2 0x595 PUSH2 0x1043 JUMP JUMPDEST PUSH1 0x40 MLOAD PUSH2 0x5A2 SWAP2 SWAP1 PUSH2 0x162B JUMP JUMPDEST PUSH1 0x40 MLOAD DUP1 SWAP2 SUB SWAP1 RETURN JUMPDEST CALLVALUE DUP1 ISZERO PUSH2 0x5B6 JUMPI PUSH0 PUSH0 REVERT JUMPDEST POP PUSH2 0x5BF PUSH2 0x1049 JUMP JUMPDEST PUSH1 0x40 MLOAD PUSH2 0x5CC SWAP2 SWAP1 PUSH2 0x162B JUMP JUMPDEST PUSH1 0x40 MLOAD DUP1 SWAP2 SUB SWAP1 RETURN JUMPDEST CALLVALUE DUP1 ISZERO PUSH2 0x5E0 JUMPI PUSH0 PUSH0 REVERT JUMPDEST POP PUSH2 0x5FB PUSH1 0x4 DUP1 CALLDATASIZE SUB DUP2 ADD SWAP1 PUSH2 0x5F6 SWAP2 SWAP1 PUSH2 0x18D6 JUMP JUMPDEST PUSH2 0x104F JUMP JUMPDEST STOP JUMPDEST CALLVALUE DUP1 ISZERO PUSH2 0x608 JUMPI PUSH0 PUSH0 REVERT JUMPDEST POP PUSH2 0x611 PUSH2 0x10D3 JUMP JUMPDEST PUSH1 0x40 MLOAD PUSH2 0x61E SWAP2 SWAP1 PUSH2 0x162B JUMP JUMPDEST PUSH1 0x40 MLOAD DUP1 SWAP2 SUB SWAP1 RETURN JUMPDEST CALLVALUE DUP1 ISZERO PUSH2 0x632 JUMPI PUSH0 PUSH0 REVERT JUMPDEST POP PUSH2 0x63B PUSH2 0x10DE JUMP JUMPDEST PUSH1 0x40 MLOAD PUSH2 0x648 SWAP2 SWAP1 PUSH2 0x16A4 JUMP JUMPDEST PUSH1 0x40 MLOAD DUP1 SWAP2 SUB SWAP1 RETURN JUMPDEST PUSH0 PUSH2 0x65A PUSH2 0x1117 JUMP JUMPDEST DUP2 PUSH1 0x5 DUP2 SWAP1 SSTORE POP PUSH1 0x1 SWAP1 POP SWAP2 SWAP1 POP JUMP JUMPDEST PUSH0 PUSH2 0x673 PUSH2 0x119E JUMP JUMPDEST PUSH1 0x9 PUSH0 SWAP1 SLOAD SWAP1 PUSH2 0x100 EXP SWAP1 DIV PUSH20 0xFFFFFFFFFFFFFFFFFFFFFFFFFFFFFFFFFFFFFFFF AND PUSH20 0xFFFFFFFFFFFFFFFFFFFFFFFFFFFFFFFFFFFFFFFF AND PUSH2 0x6B3 PUSH2 0x11DF JUMP JUMPDEST PUSH20 0xFFFFFFFFFFFFFFFFFFFFFFFFFFFFFFFFFFFFFFFF AND EQ ISZERO DUP1 ISZERO PUSH2 0x6D8 JUMPI POP TIMESTAMP PUSH1 0x6 SLOAD LT JUMPDEST ISZERO PUSH2 0x70F JUMPI PUSH1 0x40 MLOAD PUSH32 0x82B4290000000000000000000000000000000000000000000000000000000000 DUP2 MSTORE PUSH1 0x4 ADD PUSH1 0x40 MLOAD DUP1 SWAP2 SUB SWAP1 REVERT JUMPDEST DUP2 PUSH1 0xA SWAP1 DUP2 PUSH2 0x71E SWAP2 SWAP1 PUSH2 0x1AFE JUMP JUMPDEST POP PUSH1 0x1 SWAP1 POP SWAP2 SWAP1 POP JUMP JUMPDEST PUSH1 0x7 SLOAD DUP2 JUMP JUMPDEST PUSH0 SELFBALANCE SWAP1 POP SWAP1 JUMP JUMPDEST PUSH0 TIMESTAMP SWAP1 POP SWAP1 JUMP JUMPDEST PUSH1 0xA DUP1 SLOAD PUSH2 0x749 SWAP1 PUSH2 0x192E JUMP JUMPDEST DUP1 PUSH1 0x1F ADD PUSH1 0x20 DUP1 SWAP2 DIV MUL PUSH1 0x20 ADD PUSH1 0x40 MLOAD SWAP1 DUP2 ADD PUSH1 0x40 MSTORE DUP1 SWAP3 SWAP2 SWAP1 DUP2 DUP2 MSTORE PUSH1 0x20 ADD DUP3 DUP1 SLOAD PUSH2 0x775 SWAP1 PUSH2 0x192E JUMP JUMPDEST DUP1 ISZERO PUSH2 0x7C0 JUMPI DUP1 PUSH1 0x1F LT PUSH2 0x797 JUMPI PUSH2 0x100 DUP1 DUP4 SLOAD DIV MUL DUP4 MSTORE SWAP2 PUSH1 0x20 ADD SWAP2 PUSH2 0x7C0 JUMP JUMPDEST DUP3 ADD SWAP2 SWAP1 PUSH0 MSTORE PUSH1 0x20 PUSH0 KECCAK256 SWAP1 JUMPDEST DUP2 SLOAD DUP2 MSTORE SWAP1 PUSH1 0x1 ADD SWAP1 PUSH1 0x20 ADD DUP1 DUP4 GT PUSH2 0x7A3 JUMPI DUP3 SWAP1 SUB PUSH1 0x1F AND DUP3 ADD SWAP2 JUMPDEST POP POP POP POP POP DUP2 JUMP JUMPDEST PUSH2 0x7D0 PUSH2 0x1117 JUMP JUMPDEST PUSH0 SELFBALANCE SWAP1 POP PUSH0 PUSH2 0x7DD PUSH2 0xFD7 JUMP JUMPDEST PUSH20 0xFFFFFFFFFFFFFFFFFFFFFFFFFFFFFFFFFFFFFFFF AND DUP3 PUSH1 0x40 MLOAD PUSH2 0x800 SWAP1 PUSH2 0x1BFA JUMP JUMPDEST PUSH0 PUSH1 0x40 MLOAD DUP1 DUP4 SUB DUP2 DUP6 DUP8 GAS CALL SWAP3 POP POP POP RETURNDATASIZE DUP1 PUSH0 DUP2 EQ PUSH2 0x83A JUMPI PUSH1 0x40 MLOAD SWAP2 POP PUSH1 0x1F NOT PUSH1 0x3F RETURNDATASIZE ADD AND DUP3 ADD PUSH1 0x40 MSTORE RETURNDATASIZE DUP3 MSTORE RETURNDATASIZE PUSH0 PUSH1 0x20 DUP5 ADD RETURNDATACOPY PUSH2 0x83F JUMP JUMPDEST PUSH1 0x60 SWAP2 POP JUMPDEST POP POP SWAP1 POP DUP1 PUSH2 0x883 JUMPI PUSH1 0x40 MLOAD PUSH32 0x8C379A000000000000000000000000000000000000000000000000000000000 DUP2 MSTORE PUSH1 0x4 ADD PUSH2 0x87A SWAP1 PUSH2 0x1C58 JUMP JUMPDEST PUSH1 0x40 MLOAD DUP1 SWAP2 SUB SWAP1 REVERT JUMPDEST POP POP JUMP JUMPDEST PUSH2 0x88F PUSH2 0x1117 JUMP JUMPDEST PUSH2 0x897 PUSH2 0x11E6 JUMP JUMPDEST JUMP JUMPDEST PUSH1 0x9 PUSH0 SWAP1 SLOAD SWAP1 PUSH2 0x100 EXP SWAP1 DIV PUSH20 0xFFFFFFFFFFFFFFFFFFFFFFFFFFFFFFFFFFFFFFFF AND DUP2 JUMP JUMPDEST PUSH0 PUSH2 0x8C7 PUSH2 0x119E JUMP JUMPDEST PUSH1 0x6 SLOAD TIMESTAMP LT PUSH2 0x90B JUMPI PUSH1 0x40 MLOAD PUSH32 0x8C379A000000000000000000000000000000000000000000000000000000000 DUP2 MSTORE PUSH1 0x4 ADD PUSH2 0x902 SWAP1 PUSH2 0x1CC0 JUMP JUMPDEST PUSH1 0x40 MLOAD DUP1 SWAP2 SUB SWAP1 REVERT JUMPDEST PUSH0 PUSH0 SWAP1 POP JUMPDEST PUSH1 0xB DUP1 SLOAD SWAP1 POP DUP2 LT ISZERO PUSH2 0x9E3 JUMPI PUSH2 0x925 PUSH2 0x11DF JUMP JUMPDEST PUSH20 0xFFFFFFFFFFFFFFFFFFFFFFFFFFFFFFFFFFFFFFFF AND PUSH1 0xB DUP3 DUP2 SLOAD DUP2 LT PUSH2 0x94F JUMPI PUSH2 0x94E PUSH2 0x1CDE JUMP JUMPDEST JUMPDEST SWAP1 PUSH0 MSTORE PUSH1 0x20 PUSH0 KECCAK256 ADD PUSH0 SWAP1 SLOAD SWAP1 PUSH2 0x100 EXP SWAP1 DIV PUSH20 0xFFFFFFFFFFFFFFFFFFFFFFFFFFFFFFFFFFFFFFFF AND PUSH20 0xFFFFFFFFFFFFFFFFFFFFFFFFFFFFFFFFFFFFFFFF AND SUB PUSH2 0x9D6 JUMPI PUSH2 0x99A PUSH2 0x11DF JUMP JUMPDEST PUSH1 0x40 MLOAD PUSH32 0x33DE2CE300000000000000000000000000000000000000000000000000000000 DUP2 MSTORE PUSH1 0x4 ADD PUSH2 0x9CD SWAP2 SWAP1 PUSH2 0x1703 JUMP JUMPDEST PUSH1 0x40 MLOAD DUP1 SWAP2 SUB SWAP1 REVERT JUMPDEST DUP1 DUP1 PUSH1 0x1 ADD SWAP2 POP POP PUSH2 0x910 JUMP JUMPDEST POP PUSH2 0x9EE PUSH1 0x1 PUSH2 0x1247 JUMP JUMPDEST PUSH1 0xB PUSH2 0x9F8 PUSH2 0x11DF JUMP JUMPDEST SWAP1 DUP1 PUSH1 0x1 DUP2 SLOAD ADD DUP1 DUP3 SSTORE DUP1 SWAP2 POP POP PUSH1 0x1 SWAP1 SUB SWAP1 PUSH0 MSTORE PUSH1 0x20 PUSH0 KECCAK256 ADD PUSH0 SWAP1 SWAP2 SWAP1 SWAP2 SWAP1 SWAP2 PUSH2 0x100 EXP DUP2 SLOAD DUP2 PUSH20 0xFFFFFFFFFFFFFFFFFFFFFFFFFFFFFFFFFFFFFFFF MUL NOT AND SWAP1 DUP4 PUSH20 0xFFFFFFFFFFFFFFFFFFFFFFFFFFFFFFFFFFFFFFFF AND MUL OR SWAP1 SSTORE POP PUSH0 PUSH2 0xA64 PUSH1 0x8 SLOAD PUSH1 0x5 SLOAD PUSH2 0x1004 JUMP JUMPDEST SWAP1 POP PUSH0 PUSH2 0xA6F PUSH2 0x11DF JUMP JUMPDEST PUSH20 0xFFFFFFFFFFFFFFFFFFFFFFFFFFFFFFFFFFFFFFFF AND DUP3 PUSH1 0x40 MLOAD PUSH2 0xA92 SWAP1 PUSH2 0x1BFA JUMP JUMPDEST PUSH0 PUSH1 0x40 MLOAD DUP1 DUP4 SUB DUP2 DUP6 DUP8 GAS CALL SWAP3 POP POP POP RETURNDATASIZE DUP1 PUSH0 DUP2 EQ PUSH2 0xACC JUMPI PUSH1 0x40 MLOAD SWAP2 POP PUSH1 0x1F NOT PUSH1 0x3F RETURNDATASIZE ADD AND DUP3 ADD PUSH1 0x40 MSTORE RETURNDATASIZE DUP3 MSTORE RETURNDATASIZE PUSH0 PUSH1 0x20 DUP5 ADD RETURNDATACOPY PUSH2 0xAD1 JUMP JUMPDEST PUSH1 0x60 SWAP2 POP JUMPDEST POP POP SWAP1 POP DUP1 PUSH2 0xB15 JUMPI PUSH1 0x40 MLOAD PUSH32 0x8C379A000000000000000000000000000000000000000000000000000000000 DUP2 MSTORE PUSH1 0x4 ADD PUSH2 0xB0C SWAP1 PUSH2 0x1D55 JUMP JUMPDEST PUSH1 0x40 MLOAD DUP1 SWAP2 SUB SWAP1 REVERT JUMPDEST PUSH32 0xD8138F8A3F377C5259CA548E70E4C2DE94F129F5A11036A15B69513CBA2B426A PUSH2 0xB3E PUSH2 0x11DF JUMP JUMPDEST DUP4 PUSH1 0x40 MLOAD PUSH2 0xB4D SWAP3 SWAP2 SWAP1 PUSH2 0x1D73 JUMP JUMPDEST PUSH1 0x40 MLOAD DUP1 SWAP2 SUB SWAP1 LOG1 PUSH1 0x1 SWAP3 POP POP POP SWAP1 JUMP JUMPDEST PUSH2 0xB66 PUSH2 0x1117 JUMP JUMPDEST PUSH0 DUP3 PUSH20 0xFFFFFFFFFFFFFFFFFFFFFFFFFFFFFFFFFFFFFFFF AND DUP3 PUSH1 0x40 MLOAD PUSH2 0xB8B SWAP1 PUSH2 0x1BFA JUMP JUMPDEST PUSH0 PUSH1 0x40 MLOAD DUP1 DUP4 SUB DUP2 DUP6 DUP8 GAS CALL SWAP3 POP POP POP RETURNDATASIZE DUP1 PUSH0 DUP2 EQ PUSH2 0xBC5 JUMPI PUSH1 0x40 MLOAD SWAP2 POP PUSH1 0x1F NOT PUSH1 0x3F RETURNDATASIZE ADD AND DUP3 ADD PUSH1 0x40 MSTORE RETURNDATASIZE DUP3 MSTORE RETURNDATASIZE PUSH0 PUSH1 0x20 DUP5 ADD RETURNDATACOPY PUSH2 0xBCA JUMP JUMPDEST PUSH1 0x60 SWAP2 POP JUMPDEST POP POP SWAP1 POP DUP1 PUSH2 0xC0E JUMPI PUSH1 0x40 MLOAD PUSH32 0x8C379A000000000000000000000000000000000000000000000000000000000 DUP2 MSTORE PUSH1 0x4 ADD PUSH2 0xC05 SWAP1 PUSH2 0x1C58 JUMP JUMPDEST PUSH1 0x40 MLOAD DUP1 SWAP2 SUB SWAP1 REVERT JUMPDEST POP POP POP JUMP JUMPDEST PUSH0 PUSH0 PUSH0 PUSH0 PUSH1 0x60 PUSH1 0x6 SLOAD PUSH1 0x7 SLOAD PUSH1 0x8 SLOAD PUSH1 0x9 PUSH0 SWAP1 SLOAD SWAP1 PUSH2 0x100 EXP SWAP1 DIV PUSH20 0xFFFFFFFFFFFFFFFFFFFFFFFFFFFFFFFFFFFFFFFF AND PUSH1 0xA DUP1 DUP1 SLOAD PUSH2 0xC52 SWAP1 PUSH2 0x192E JUMP JUMPDEST DUP1 PUSH1 0x1F ADD PUSH1 0x20 DUP1 SWAP2 DIV MUL PUSH1 0x20 ADD PUSH1 0x40 MLOAD SWAP1 DUP2 ADD PUSH1 0x40 MSTORE DUP1 SWAP3 SWAP2 SWAP1 DUP2 DUP2 MSTORE PUSH1 0x20 ADD DUP3 DUP1 SLOAD PUSH2 0xC7E SWAP1 PUSH2 0x192E JUMP JUMPDEST DUP1 ISZERO PUSH2 0xCC9 JUMPI DUP1 PUSH1 0x1F LT PUSH2 0xCA0 JUMPI PUSH2 0x100 DUP1 DUP4 SLOAD DIV MUL DUP4 MSTORE SWAP2 PUSH1 0x20 ADD SWAP2 PUSH2 0xCC9 JUMP JUMPDEST DUP3 ADD SWAP2 SWAP1 PUSH0 MSTORE PUSH1 0x20 PUSH0 KECCAK256 SWAP1 JUMPDEST DUP2 SLOAD DUP2 MSTORE SWAP1 PUSH1 0x1 ADD SWAP1 PUSH1 0x20 ADD DUP1 DUP4 GT PUSH2 0xCAC JUMPI DUP3 SWAP1 SUB PUSH1 0x1F AND DUP3 ADD SWAP2 JUMPDEST POP POP POP POP POP SWAP1 POP SWAP5 POP SWAP5 POP SWAP5 POP SWAP5 POP SWAP5 POP SWAP1 SWAP2 SWAP3 SWAP4 SWAP5 JUMP JUMPDEST PUSH0 PUSH0 PUSH1 0x14 SWAP1 SLOAD SWAP1 PUSH2 0x100 EXP SWAP1 DIV PUSH1 0xFF AND SWAP1 POP SWAP1 JUMP JUMPDEST PUSH0 PUSH0 PUSH2 0xD00 PUSH2 0x119E JUMP JUMPDEST PUSH0 PUSH3 0x15180 SWAP1 POP PUSH0 DUP5 GT PUSH2 0xD49 JUMPI PUSH1 0x40 MLOAD PUSH32 0x8C379A000000000000000000000000000000000000000000000000000000000 DUP2 MSTORE PUSH1 0x4 ADD PUSH2 0xD40 SWAP1 PUSH2 0x1DE4 JUMP JUMPDEST PUSH1 0x40 MLOAD DUP1 SWAP2 SUB SWAP1 REVERT JUMPDEST PUSH1 0x6 SLOAD TIMESTAMP LT ISZERO PUSH2 0xD92 JUMPI PUSH1 0x6 SLOAD PUSH1 0x40 MLOAD PUSH32 0x10408DD00000000000000000000000000000000000000000000000000000000 DUP2 MSTORE PUSH1 0x4 ADD PUSH2 0xD89 SWAP2 SWAP1 PUSH2 0x162B JUMP JUMPDEST PUSH1 0x40 MLOAD DUP1 SWAP2 SUB SWAP1 REVERT JUMPDEST DUP4 PUSH1 0x4 SLOAD PUSH2 0xDA0 SWAP2 SWAP1 PUSH2 0x1E2F JUMP JUMPDEST CALLVALUE LT ISZERO PUSH2 0xDFE JUMPI PUSH1 0x4 SLOAD DUP5 PUSH1 0x4 SLOAD PUSH2 0xDB8 SWAP2 SWAP1 PUSH2 0x1E2F JUMP JUMPDEST PUSH2 0xDC0 PUSH2 0x11DF JUMP JUMPDEST PUSH1 0x40 MLOAD PUSH32 0xF665E12900000000000000000000000000000000000000000000000000000000 DUP2 MSTORE PUSH1 0x4 ADD PUSH2 0xDF5 SWAP4 SWAP3 SWAP2 SWAP1 PUSH2 0x1E70 JUMP JUMPDEST PUSH1 0x40 MLOAD DUP1 SWAP2 SUB SWAP1 REVERT JUMPDEST PUSH0 PUSH2 0xE0B CALLVALUE PUSH1 0x3 SLOAD PUSH2 0x1004 JUMP JUMPDEST SWAP1 POP PUSH0 PUSH2 0xE16 PUSH2 0xFD7 JUMP JUMPDEST PUSH20 0xFFFFFFFFFFFFFFFFFFFFFFFFFFFFFFFFFFFFFFFF AND DUP3 PUSH1 0x40 MLOAD PUSH2 0xE39 SWAP1 PUSH2 0x1BFA JUMP JUMPDEST PUSH0 PUSH1 0x40 MLOAD DUP1 DUP4 SUB DUP2 DUP6 DUP8 GAS CALL SWAP3 POP POP POP RETURNDATASIZE DUP1 PUSH0 DUP2 EQ PUSH2 0xE73 JUMPI PUSH1 0x40 MLOAD SWAP2 POP PUSH1 0x1F NOT PUSH1 0x3F RETURNDATASIZE ADD AND DUP3 ADD PUSH1 0x40 MSTORE RETURNDATASIZE DUP3 MSTORE RETURNDATASIZE PUSH0 PUSH1 0x20 DUP5 ADD RETURNDATACOPY PUSH2 0xE78 JUMP JUMPDEST PUSH1 0x60 SWAP2 POP JUMPDEST POP POP SWAP1 POP DUP1 PUSH2 0xEBC JUMPI PUSH1 0x40 MLOAD PUSH32 0x8C379A000000000000000000000000000000000000000000000000000000000 DUP2 MSTORE PUSH1 0x4 ADD PUSH2 0xEB3 SWAP1 PUSH2 0x1D55 JUMP JUMPDEST PUSH1 0x40 MLOAD DUP1 SWAP2 SUB SWAP1 REVERT JUMPDEST DUP6 DUP4 PUSH2 0xEC8 SWAP2 SWAP1 PUSH2 0x1E2F JUMP JUMPDEST TIMESTAMP PUSH2 0xED3 SWAP2 SWAP1 PUSH2 0x1EA5 JUMP JUMPDEST PUSH1 0x6 DUP2 SWAP1 SSTORE POP DUP6 PUSH1 0x7 DUP2 SWAP1 SSTORE POP PUSH2 0xEE8 PUSH2 0x11DF JUMP JUMPDEST PUSH1 0x9 PUSH0 PUSH2 0x100 EXP DUP2 SLOAD DUP2 PUSH20 0xFFFFFFFFFFFFFFFFFFFFFFFFFFFFFFFFFFFFFFFF MUL NOT AND SWAP1 DUP4 PUSH20 0xFFFFFFFFFFFFFFFFFFFFFFFFFFFFFFFFFFFFFFFF AND MUL OR SWAP1 SSTORE POP DUP7 PUSH1 0xA SWAP1 DUP2 PUSH2 0xF36 SWAP2 SWAP1 PUSH2 0x1AFE JUMP JUMPDEST POP DUP6 PUSH1 0x4 SLOAD PUSH2 0xF45 SWAP2 SWAP1 PUSH2 0x1E2F JUMP JUMPDEST PUSH1 0x8 DUP2 SWAP1 SSTORE POP PUSH1 0xB PUSH0 PUSH2 0xF58 SWAP2 SWAP1 PUSH2 0x13BE JUMP JUMPDEST PUSH1 0x1 PUSH1 0x6 SLOAD SWAP5 POP SWAP5 POP POP POP POP SWAP3 POP SWAP3 SWAP1 POP JUMP JUMPDEST PUSH2 0xF73 PUSH2 0x1117 JUMP JUMPDEST PUSH2 0xF7C PUSH0 PUSH2 0x125B JUMP JUMPDEST JUMP JUMPDEST PUSH1 0x2 SLOAD DUP2 JUMP JUMPDEST PUSH1 0x5 SLOAD DUP2 JUMP JUMPDEST PUSH1 0xB DUP2 DUP2 SLOAD DUP2 LT PUSH2 0xF99 JUMPI PUSH0 DUP1 REVERT JUMPDEST SWAP1 PUSH0 MSTORE PUSH1 0x20 PUSH0 KECCAK256 ADD PUSH0 SWAP2 POP SLOAD SWAP1 PUSH2 0x100 EXP SWAP1 DIV PUSH20 0xFFFFFFFFFFFFFFFFFFFFFFFFFFFFFFFFFFFFFFFF AND DUP2 JUMP JUMPDEST PUSH2 0xFCD PUSH2 0x1117 JUMP JUMPDEST PUSH2 0xFD5 PUSH2 0x131C JUMP JUMPDEST JUMP JUMPDEST PUSH0 PUSH0 PUSH0 SWAP1 SLOAD SWAP1 PUSH2 0x100 EXP SWAP1 DIV PUSH20 0xFFFFFFFFFFFFFFFFFFFFFFFFFFFFFFFFFFFFFFFF AND SWAP1 POP SWAP1 JUMP JUMPDEST PUSH1 0x4 SLOAD DUP2 JUMP JUMPDEST PUSH0 PUSH1 0x64 DUP3 DUP5 PUSH2 0x1013 SWAP2 SWAP1 PUSH2 0x1E2F JUMP JUMPDEST LT ISZERO PUSH2 0x101D JUMPI PUSH0 PUSH0 REVERT JUMPDEST PUSH1 0x64 DUP3 DUP5 PUSH2 0x102B SWAP2 SWAP1 PUSH2 0x1E2F JUMP JUMPDEST PUSH2 0x1035 SWAP2 SWAP1 PUSH2 0x1F05 JUMP JUMPDEST SWAP1 POP SWAP3 SWAP2 POP POP JUMP JUMPDEST PUSH1 0x8 SLOAD DUP2 JUMP JUMPDEST PUSH1 0x3 SLOAD DUP2 JUMP JUMPDEST PUSH1 0x6 SLOAD DUP2 JUMP JUMPDEST PUSH2 0x1057 PUSH2 0x1117 JUMP JUMPDEST PUSH0 PUSH20 0xFFFFFFFFFFFFFFFFFFFFFFFFFFFFFFFFFFFFFFFF AND DUP2 PUSH20 0xFFFFFFFFFFFFFFFFFFFFFFFFFFFFFFFFFFFFFFFF AND SUB PUSH2 0x10C7 JUMPI PUSH0 PUSH1 0x40 MLOAD PUSH32 0x1E4FBDF700000000000000000000000000000000000000000000000000000000 DUP2 MSTORE PUSH1 0x4 ADD PUSH2 0x10BE SWAP2 SWAP1 PUSH2 0x1703 JUMP JUMPDEST PUSH1 0x40 MLOAD DUP1 SWAP2 SUB SWAP1 REVERT JUMPDEST PUSH2 0x10D0 DUP2 PUSH2 0x125B JUMP JUMPDEST POP JUMP JUMPDEST PUSH1 0x1 DUP1 PUSH0 ADD SLOAD SWAP1 POP DUP2 JUMP JUMPDEST PUSH1 0x40 MLOAD DUP1 PUSH1 0x40 ADD PUSH1 0x40 MSTORE DUP1 PUSH1 0x5 DUP2 MSTORE PUSH1 0x20 ADD PUSH32 0x312E302E30000000000000000000000000000000000000000000000000000000 DUP2 MSTORE POP DUP2 JUMP JUMPDEST PUSH2 0x111F PUSH2 0x11DF JUMP JUMPDEST PUSH20 0xFFFFFFFFFFFFFFFFFFFFFFFFFFFFFFFFFFFFFFFF AND PUSH2 0x113D PUSH2 0xFD7 JUMP JUMPDEST PUSH20 0xFFFFFFFFFFFFFFFFFFFFFFFFFFFFFFFFFFFFFFFF AND EQ PUSH2 0x119C JUMPI PUSH2 0x1160 PUSH2 0x11DF JUMP JUMPDEST PUSH1 0x40 MLOAD PUSH32 0x118CDAA700000000000000000000000000000000000000000000000000000000 DUP2 MSTORE PUSH1 0x4 ADD PUSH2 0x1193 SWAP2 SWAP1 PUSH2 0x1703 JUMP JUMPDEST PUSH1 0x40 MLOAD DUP1 SWAP2 SUB SWAP1 REVERT JUMPDEST JUMP JUMPDEST PUSH2 0x11A6 PUSH2 0xCE1 JUMP JUMPDEST ISZERO PUSH2 0x11DD JUMPI PUSH1 0x40 MLOAD PUSH32 0xD93C066500000000000000000000000000000000000000000000000000000000 DUP2 MSTORE PUSH1 0x4 ADD PUSH1 0x40 MLOAD DUP1 SWAP2 SUB SWAP1 REVERT JUMPDEST JUMP JUMPDEST PUSH0 CALLER SWAP1 POP SWAP1 JUMP JUMPDEST PUSH2 0x11EE PUSH2 0x137E JUMP JUMPDEST PUSH0 PUSH0 PUSH1 0x14 PUSH2 0x100 EXP DUP2 SLOAD DUP2 PUSH1 0xFF MUL NOT AND SWAP1 DUP4 ISZERO ISZERO MUL OR SWAP1 SSTORE POP PUSH32 0x5DB9EE0A495BF2E6FF9C91A7834C1BA4FDD244A5E8AA4E537BD38AEAE4B073AA PUSH2 0x1230 PUSH2 0x11DF JUMP JUMPDEST PUSH1 0x40 MLOAD PUSH2 0x123D SWAP2 SWAP1 PUSH2 0x1703 JUMP JUMPDEST PUSH1 0x40 MLOAD DUP1 SWAP2 SUB SWAP1 LOG1 JUMP JUMPDEST PUSH1 0x1 DUP2 PUSH0 ADD PUSH0 DUP3 DUP3 SLOAD ADD SWAP3 POP POP DUP2 SWAP1 SSTORE POP POP JUMP JUMPDEST PUSH0 PUSH0 PUSH0 SWAP1 SLOAD SWAP1 PUSH2 0x100 EXP SWAP1 DIV PUSH20 0xFFFFFFFFFFFFFFFFFFFFFFFFFFFFFFFFFFFFFFFF AND SWAP1 POP DUP2 PUSH0 PUSH0 PUSH2 0x100 EXP DUP2 SLOAD DUP2 PUSH20 0xFFFFFFFFFFFFFFFFFFFFFFFFFFFFFFFFFFFFFFFF MUL NOT AND SWAP1 DUP4 PUSH20 0xFFFFFFFFFFFFFFFFFFFFFFFFFFFFFFFFFFFFFFFF AND MUL OR SWAP1 SSTORE POP DUP2 PUSH20 0xFFFFFFFFFFFFFFFFFFFFFFFFFFFFFFFFFFFFFFFF AND DUP2 PUSH20 0xFFFFFFFFFFFFFFFFFFFFFFFFFFFFFFFFFFFFFFFF AND PUSH32 0x8BE0079C531659141344CD1FD0A4F28419497F9722A3DAAFE3B4186F6B6457E0 PUSH1 0x40 MLOAD PUSH1 0x40 MLOAD DUP1 SWAP2 SUB SWAP1 LOG3 POP POP JUMP JUMPDEST PUSH2 0x1324 PUSH2 0x119E JUMP JUMPDEST PUSH1 0x1 PUSH0 PUSH1 0x14 PUSH2 0x100 EXP DUP2 SLOAD DUP2 PUSH1 0xFF MUL NOT AND SWAP1 DUP4 ISZERO ISZERO MUL OR SWAP1 SSTORE POP PUSH32 0x62E78CEA01BEE320CD4E420270B5EA74000D11B0C9F74754EBDBFC544B05A258 PUSH2 0x1367 PUSH2 0x11DF JUMP JUMPDEST PUSH1 0x40 MLOAD PUSH2 0x1374 SWAP2 SWAP1 PUSH2 0x1703 JUMP JUMPDEST PUSH1 0x40 MLOAD DUP1 SWAP2 SUB SWAP1 LOG1 JUMP JUMPDEST PUSH2 0x1386 PUSH2 0xCE1 JUMP JUMPDEST PUSH2 0x13BC JUMPI PUSH1 0x40 MLOAD PUSH32 0x8DFC202B00000000000000000000000000000000000000000000000000000000 DUP2 MSTORE PUSH1 0x4 ADD PUSH1 0x40 MLOAD DUP1 SWAP2 SUB SWAP1 REVERT JUMPDEST JUMP JUMPDEST POP DUP1 SLOAD PUSH0 DUP3 SSTORE SWAP1 PUSH0 MSTORE PUSH1 0x20 PUSH0 KECCAK256 SWAP1 DUP2 ADD SWAP1 PUSH2 0x13D9 SWAP2 SWAP1 PUSH2 0x13DC JUMP JUMPDEST POP JUMP JUMPDEST JUMPDEST DUP1 DUP3 GT ISZERO PUSH2 0x13F3 JUMPI PUSH0 DUP2 PUSH0 SWAP1 SSTORE POP PUSH1 0x1 ADD PUSH2 0x13DD JUMP JUMPDEST POP SWAP1 JUMP JUMPDEST PUSH0 PUSH1 0x40 MLOAD SWAP1 POP SWAP1 JUMP JUMPDEST PUSH0 PUSH0 REVERT JUMPDEST PUSH0 PUSH0 REVERT JUMPDEST PUSH0 DUP2 SWAP1 POP SWAP2 SWAP1 POP JUMP JUMPDEST PUSH2 0x141A DUP2 PUSH2 0x1408 JUMP JUMPDEST DUP2 EQ PUSH2 0x1424 JUMPI PUSH0 PUSH0 REVERT JUMPDEST POP JUMP JUMPDEST PUSH0 DUP2 CALLDATALOAD SWAP1 POP PUSH2 0x1435 DUP2 PUSH2 0x1411 JUMP JUMPDEST SWAP3 SWAP2 POP POP JUMP JUMPDEST PUSH0 PUSH1 0x20 DUP3 DUP5 SUB SLT ISZERO PUSH2 0x1450 JUMPI PUSH2 0x144F PUSH2 0x1400 JUMP JUMPDEST JUMPDEST PUSH0 PUSH2 0x145D DUP5 DUP3 DUP6 ADD PUSH2 0x1427 JUMP JUMPDEST SWAP2 POP POP SWAP3 SWAP2 POP POP JUMP JUMPDEST PUSH0 DUP2 ISZERO ISZERO SWAP1 POP SWAP2 SWAP1 POP JUMP JUMPDEST PUSH2 0x147A DUP2 PUSH2 0x1466 JUMP JUMPDEST DUP3 MSTORE POP POP JUMP JUMPDEST PUSH0 PUSH1 0x20 DUP3 ADD SWAP1 POP PUSH2 0x1493 PUSH0 DUP4 ADD DUP5 PUSH2 0x1471 JUMP JUMPDEST SWAP3 SWAP2 POP POP JUMP JUMPDEST PUSH0 PUSH0 REVERT JUMPDEST PUSH0 PUSH0 REVERT JUMPDEST PUSH0 PUSH1 0x1F NOT PUSH1 0x1F DUP4 ADD AND SWAP1 POP SWAP2 SWAP1 POP JUMP JUMPDEST PUSH32 0x4E487B7100000000000000000000000000000000000000000000000000000000 PUSH0 MSTORE PUSH1 0x41 PUSH1 0x4 MSTORE PUSH1 0x24 PUSH0 REVERT JUMPDEST PUSH2 0x14E7 DUP3 PUSH2 0x14A1 JUMP JUMPDEST DUP2 ADD DUP2 DUP2 LT PUSH8 0xFFFFFFFFFFFFFFFF DUP3 GT OR ISZERO PUSH2 0x1506 JUMPI PUSH2 0x1505 PUSH2 0x14B1 JUMP JUMPDEST JUMPDEST DUP1 PUSH1 0x40 MSTORE POP POP POP JUMP JUMPDEST PUSH0 PUSH2 0x1518 PUSH2 0x13F7 JUMP JUMPDEST SWAP1 POP PUSH2 0x1524 DUP3 DUP3 PUSH2 0x14DE JUMP JUMPDEST SWAP2 SWAP1 POP JUMP JUMPDEST PUSH0 PUSH8 0xFFFFFFFFFFFFFFFF DUP3 GT ISZERO PUSH2 0x1543 JUMPI PUSH2 0x1542 PUSH2 0x14B1 JUMP JUMPDEST JUMPDEST PUSH2 0x154C DUP3 PUSH2 0x14A1 JUMP JUMPDEST SWAP1 POP PUSH1 0x20 DUP2 ADD SWAP1 POP SWAP2 SWAP1 POP JUMP JUMPDEST DUP3 DUP2 DUP4 CALLDATACOPY PUSH0 DUP4 DUP4 ADD MSTORE POP POP POP JUMP JUMPDEST PUSH0 PUSH2 0x1579 PUSH2 0x1574 DUP5 PUSH2 0x1529 JUMP JUMPDEST PUSH2 0x150F JUMP JUMPDEST SWAP1 POP DUP3 DUP2 MSTORE PUSH1 0x20 DUP2 ADD DUP5 DUP5 DUP5 ADD GT ISZERO PUSH2 0x1595 JUMPI PUSH2 0x1594 PUSH2 0x149D JUMP JUMPDEST JUMPDEST PUSH2 0x15A0 DUP5 DUP3 DUP6 PUSH2 0x1559 JUMP JUMPDEST POP SWAP4 SWAP3 POP POP POP JUMP JUMPDEST PUSH0 DUP3 PUSH1 0x1F DUP4 ADD SLT PUSH2 0x15BC JUMPI PUSH2 0x15BB PUSH2 0x1499 JUMP JUMPDEST JUMPDEST DUP2 CALLDATALOAD PUSH2 0x15CC DUP5 DUP3 PUSH1 0x20 DUP7 ADD PUSH2 0x1567 JUMP JUMPDEST SWAP2 POP POP SWAP3 SWAP2 POP POP JUMP JUMPDEST PUSH0 PUSH1 0x20 DUP3 DUP5 SUB SLT ISZERO PUSH2 0x15EA JUMPI PUSH2 0x15E9 PUSH2 0x1400 JUMP JUMPDEST JUMPDEST PUSH0 DUP3 ADD CALLDATALOAD PUSH8 0xFFFFFFFFFFFFFFFF DUP2 GT ISZERO PUSH2 0x1607 JUMPI PUSH2 0x1606 PUSH2 0x1404 JUMP JUMPDEST JUMPDEST PUSH2 0x1613 DUP5 DUP3 DUP6 ADD PUSH2 0x15A8 JUMP JUMPDEST SWAP2 POP POP SWAP3 SWAP2 POP POP JUMP JUMPDEST PUSH2 0x1625 DUP2 PUSH2 0x1408 JUMP JUMPDEST DUP3 MSTORE POP POP JUMP JUMPDEST PUSH0 PUSH1 0x20 DUP3 ADD SWAP1 POP PUSH2 0x163E PUSH0 DUP4 ADD DUP5 PUSH2 0x161C JUMP JUMPDEST SWAP3 SWAP2 POP POP JUMP JUMPDEST PUSH0 DUP2 MLOAD SWAP1 POP SWAP2 SWAP1 POP JUMP JUMPDEST PUSH0 DUP3 DUP3 MSTORE PUSH1 0x20 DUP3 ADD SWAP1 POP SWAP3 SWAP2 POP POP JUMP JUMPDEST DUP3 DUP2 DUP4 MCOPY PUSH0 DUP4 DUP4 ADD MSTORE POP POP POP JUMP JUMPDEST PUSH0 PUSH2 0x1676 DUP3 PUSH2 0x1644 JUMP JUMPDEST PUSH2 0x1680 DUP2 DUP6 PUSH2 0x164E JUMP JUMPDEST SWAP4 POP PUSH2 0x1690 DUP2 DUP6 PUSH1 0x20 DUP7 ADD PUSH2 0x165E JUMP JUMPDEST PUSH2 0x1699 DUP2 PUSH2 0x14A1 JUMP JUMPDEST DUP5 ADD SWAP2 POP POP SWAP3 SWAP2 POP POP JUMP JUMPDEST PUSH0 PUSH1 0x20 DUP3 ADD SWAP1 POP DUP2 DUP2 SUB PUSH0 DUP4 ADD MSTORE PUSH2 0x16BC DUP2 DUP5 PUSH2 0x166C JUMP JUMPDEST SWAP1 POP SWAP3 SWAP2 POP POP JUMP JUMPDEST PUSH0 PUSH20 0xFFFFFFFFFFFFFFFFFFFFFFFFFFFFFFFFFFFFFFFF DUP3 AND SWAP1 POP SWAP2 SWAP1 POP JUMP JUMPDEST PUSH0 PUSH2 0x16ED DUP3 PUSH2 0x16C4 JUMP JUMPDEST SWAP1 POP SWAP2 SWAP1 POP JUMP JUMPDEST PUSH2 0x16FD DUP2 PUSH2 0x16E3 JUMP JUMPDEST DUP3 MSTORE POP POP JUMP JUMPDEST PUSH0 PUSH1 0x20 DUP3 ADD SWAP1 POP PUSH2 0x1716 PUSH0 DUP4 ADD DUP5 PUSH2 0x16F4 JUMP JUMPDEST SWAP3 SWAP2 POP POP JUMP JUMPDEST PUSH0 PUSH2 0x1726 DUP3 PUSH2 0x16C4 JUMP JUMPDEST SWAP1 POP SWAP2 SWAP1 POP JUMP JUMPDEST PUSH2 0x1736 DUP2 PUSH2 0x171C JUMP JUMPDEST DUP2 EQ PUSH2 0x1740 JUMPI PUSH0 PUSH0 REVERT JUMPDEST POP JUMP JUMPDEST PUSH0 DUP2 CALLDATALOAD SWAP1 POP PUSH2 0x1751 DUP2 PUSH2 0x172D JUMP JUMPDEST SWAP3 SWAP2 POP POP JUMP JUMPDEST PUSH0 PUSH0 PUSH1 0x40 DUP4 DUP6 SUB SLT ISZERO PUSH2 0x176D JUMPI PUSH2 0x176C PUSH2 0x1400 JUMP JUMPDEST JUMPDEST PUSH0 PUSH2 0x177A DUP6 DUP3 DUP7 ADD PUSH2 0x1743 JUMP JUMPDEST SWAP3 POP POP PUSH1 0x20 PUSH2 0x178B DUP6 DUP3 DUP7 ADD PUSH2 0x1427 JUMP JUMPDEST SWAP2 POP POP SWAP3 POP SWAP3 SWAP1 POP JUMP JUMPDEST PUSH0 PUSH1 0xA0 DUP3 ADD SWAP1 POP PUSH2 0x17A8 PUSH0 DUP4 ADD DUP9 PUSH2 0x161C JUMP JUMPDEST PUSH2 0x17B5 PUSH1 0x20 DUP4 ADD DUP8 PUSH2 0x161C JUMP JUMPDEST PUSH2 0x17C2 PUSH1 0x40 DUP4 ADD DUP7 PUSH2 0x161C JUMP JUMPDEST PUSH2 0x17CF PUSH1 0x60 DUP4 ADD DUP6 PUSH2 0x16F4 JUMP JUMPDEST DUP2 DUP2 SUB PUSH1 0x80 DUP4 ADD MSTORE PUSH2 0x17E1 DUP2 DUP5 PUSH2 0x166C JUMP JUMPDEST SWAP1 POP SWAP7 SWAP6 POP POP POP POP POP POP JUMP JUMPDEST PUSH0 PUSH0 PUSH1 0x40 DUP4 DUP6 SUB SLT ISZERO PUSH2 0x1803 JUMPI PUSH2 0x1802 PUSH2 0x1400 JUMP JUMPDEST JUMPDEST PUSH0 DUP4 ADD CALLDATALOAD PUSH8 0xFFFFFFFFFFFFFFFF DUP2 GT ISZERO PUSH2 0x1820 JUMPI PUSH2 0x181F PUSH2 0x1404 JUMP JUMPDEST JUMPDEST PUSH2 0x182C DUP6 DUP3 DUP7 ADD PUSH2 0x15A8 JUMP JUMPDEST SWAP3 POP POP PUSH1 0x20 PUSH2 0x183D DUP6 DUP3 DUP7 ADD PUSH2 0x1427 JUMP JUMPDEST SWAP2 POP POP SWAP3 POP SWAP3 SWAP1 POP JUMP JUMPDEST PUSH0 PUSH1 0x40 DUP3 ADD SWAP1 POP PUSH2 0x185A PUSH0 DUP4 ADD DUP6 PUSH2 0x1471 JUMP JUMPDEST PUSH2 0x1867 PUSH1 0x20 DUP4 ADD DUP5 PUSH2 0x161C JUMP JUMPDEST SWAP4 SWAP3 POP POP POP JUMP JUMPDEST PUSH0 PUSH0 PUSH1 0x40 DUP4 DUP6 SUB SLT ISZERO PUSH2 0x1884 JUMPI PUSH2 0x1883 PUSH2 0x1400 JUMP JUMPDEST JUMPDEST PUSH0 PUSH2 0x1891 DUP6 DUP3 DUP7 ADD PUSH2 0x1427 JUMP JUMPDEST SWAP3 POP POP PUSH1 0x20 PUSH2 0x18A2 DUP6 DUP3 DUP7 ADD PUSH2 0x1427 JUMP JUMPDEST SWAP2 POP POP SWAP3 POP SWAP3 SWAP1 POP JUMP JUMPDEST PUSH2 0x18B5 DUP2 PUSH2 0x16E3 JUMP JUMPDEST DUP2 EQ PUSH2 0x18BF JUMPI PUSH0 PUSH0 REVERT JUMPDEST POP JUMP JUMPDEST PUSH0 DUP2 CALLDATALOAD SWAP1 POP PUSH2 0x18D0 DUP2 PUSH2 0x18AC JUMP JUMPDEST SWAP3 SWAP2 POP POP JUMP JUMPDEST PUSH0 PUSH1 0x20 DUP3 DUP5 SUB SLT ISZERO PUSH2 0x18EB JUMPI PUSH2 0x18EA PUSH2 0x1400 JUMP JUMPDEST JUMPDEST PUSH0 PUSH2 0x18F8 DUP5 DUP3 DUP6 ADD PUSH2 0x18C2 JUMP JUMPDEST SWAP2 POP POP SWAP3 SWAP2 POP POP JUMP JUMPDEST PUSH32 0x4E487B7100000000000000000000000000000000000000000000000000000000 PUSH0 MSTORE PUSH1 0x22 PUSH1 0x4 MSTORE PUSH1 0x24 PUSH0 REVERT JUMPDEST PUSH0 PUSH1 0x2 DUP3 DIV SWAP1 POP PUSH1 0x1 DUP3 AND DUP1 PUSH2 0x1945 JUMPI PUSH1 0x7F DUP3 AND SWAP2 POP JUMPDEST PUSH1 0x20 DUP3 LT DUP2 SUB PUSH2 0x1958 JUMPI PUSH2 0x1957 PUSH2 0x1901 JUMP JUMPDEST JUMPDEST POP SWAP2 SWAP1 POP JUMP JUMPDEST PUSH0 DUP2 SWAP1 POP DUP2 PUSH0 MSTORE PUSH1 0x20 PUSH0 KECCAK256 SWAP1 POP SWAP2 SWAP1 POP JUMP JUMPDEST PUSH0 PUSH1 0x20 PUSH1 0x1F DUP4 ADD DIV SWAP1 POP SWAP2 SWAP1 POP JUMP JUMPDEST PUSH0 DUP3 DUP3 SHL SWAP1 POP SWAP3 SWAP2 POP POP JUMP JUMPDEST PUSH0 PUSH1 0x8 DUP4 MUL PUSH2 0x19BA PUSH32 0xFFFFFFFFFFFFFFFFFFFFFFFFFFFFFFFFFFFFFFFFFFFFFFFFFFFFFFFFFFFFFFFF DUP3 PUSH2 0x197F JUMP JUMPDEST PUSH2 0x19C4 DUP7 DUP4 PUSH2 0x197F JUMP JUMPDEST SWAP6 POP DUP1 NOT DUP5 AND SWAP4 POP DUP1 DUP7 AND DUP5 OR SWAP3 POP POP POP SWAP4 SWAP3 POP POP POP JUMP JUMPDEST PUSH0 DUP2 SWAP1 POP SWAP2 SWAP1 POP JUMP JUMPDEST PUSH0 PUSH2 0x19FF PUSH2 0x19FA PUSH2 0x19F5 DUP5 PUSH2 0x1408 JUMP JUMPDEST PUSH2 0x19DC JUMP JUMPDEST PUSH2 0x1408 JUMP JUMPDEST SWAP1 POP SWAP2 SWAP1 POP JUMP JUMPDEST PUSH0 DUP2 SWAP1 POP SWAP2 SWAP1 POP JUMP JUMPDEST PUSH2 0x1A18 DUP4 PUSH2 0x19E5 JUMP JUMPDEST PUSH2 0x1A2C PUSH2 0x1A24 DUP3 PUSH2 0x1A06 JUMP JUMPDEST DUP5 DUP5 SLOAD PUSH2 0x198B JUMP JUMPDEST DUP3 SSTORE POP POP POP POP JUMP JUMPDEST PUSH0 PUSH0 SWAP1 POP SWAP1 JUMP JUMPDEST PUSH2 0x1A43 PUSH2 0x1A34 JUMP JUMPDEST PUSH2 0x1A4E DUP2 DUP5 DUP5 PUSH2 0x1A0F JUMP JUMPDEST POP POP POP JUMP JUMPDEST JUMPDEST DUP2 DUP2 LT ISZERO PUSH2 0x1A71 JUMPI PUSH2 0x1A66 PUSH0 DUP3 PUSH2 0x1A3B JUMP JUMPDEST PUSH1 0x1 DUP2 ADD SWAP1 POP PUSH2 0x1A54 JUMP JUMPDEST POP POP JUMP JUMPDEST PUSH1 0x1F DUP3 GT ISZERO PUSH2 0x1AB6 JUMPI PUSH2 0x1A87 DUP2 PUSH2 0x195E JUMP JUMPDEST PUSH2 0x1A90 DUP5 PUSH2 0x1970 JUMP JUMPDEST DUP2 ADD PUSH1 0x20 DUP6 LT ISZERO PUSH2 0x1A9F JUMPI DUP2 SWAP1 POP JUMPDEST PUSH2 0x1AB3 PUSH2 0x1AAB DUP6 PUSH2 0x1970 JUMP JUMPDEST DUP4 ADD DUP3 PUSH2 0x1A53 JUMP JUMPDEST POP POP JUMPDEST POP POP POP JUMP JUMPDEST PUSH0 DUP3 DUP3 SHR SWAP1 POP SWAP3 SWAP2 POP POP JUMP JUMPDEST PUSH0 PUSH2 0x1AD6 PUSH0 NOT DUP5 PUSH1 0x8 MUL PUSH2 0x1ABB JUMP JUMPDEST NOT DUP1 DUP4 AND SWAP2 POP POP SWAP3 SWAP2 POP POP JUMP JUMPDEST PUSH0 PUSH2 0x1AEE DUP4 DUP4 PUSH2 0x1AC7 JUMP JUMPDEST SWAP2 POP DUP3 PUSH1 0x2 MUL DUP3 OR SWAP1 POP SWAP3 SWAP2 POP POP JUMP JUMPDEST PUSH2 0x1B07 DUP3 PUSH2 0x1644 JUMP JUMPDEST PUSH8 0xFFFFFFFFFFFFFFFF DUP2 GT ISZERO PUSH2 0x1B20 JUMPI PUSH2 0x1B1F PUSH2 0x14B1 JUMP JUMPDEST JUMPDEST PUSH2 0x1B2A DUP3 SLOAD PUSH2 0x192E JUMP JUMPDEST PUSH2 0x1B35 DUP3 DUP3 DUP6 PUSH2 0x1A75 JUMP JUMPDEST PUSH0 PUSH1 0x20 SWAP1 POP PUSH1 0x1F DUP4 GT PUSH1 0x1 DUP2 EQ PUSH2 0x1B66 JUMPI PUSH0 DUP5 ISZERO PUSH2 0x1B54 JUMPI DUP3 DUP8 ADD MLOAD SWAP1 POP JUMPDEST PUSH2 0x1B5E DUP6 DUP3 PUSH2 0x1AE3 JUMP JUMPDEST DUP7 SSTORE POP PUSH2 0x1BC5 JUMP JUMPDEST PUSH1 0x1F NOT DUP5 AND PUSH2 0x1B74 DUP7 PUSH2 0x195E JUMP JUMPDEST PUSH0 JUMPDEST DUP3 DUP2 LT ISZERO PUSH2 0x1B9B JUMPI DUP5 DUP10 ADD MLOAD DUP3 SSTORE PUSH1 0x1 DUP3 ADD SWAP2 POP PUSH1 0x20 DUP6 ADD SWAP5 POP PUSH1 0x20 DUP2 ADD SWAP1 POP PUSH2 0x1B76 JUMP JUMPDEST DUP7 DUP4 LT ISZERO PUSH2 0x1BB8 JUMPI DUP5 DUP10 ADD MLOAD PUSH2 0x1BB4 PUSH1 0x1F DUP10 AND DUP3 PUSH2 0x1AC7 JUMP JUMPDEST DUP4 SSTORE POP JUMPDEST PUSH1 0x1 PUSH1 0x2 DUP9 MUL ADD DUP9 SSTORE POP POP POP JUMPDEST POP POP POP POP POP POP JUMP JUMPDEST PUSH0 DUP2 SWAP1 POP SWAP3 SWAP2 POP POP JUMP JUMPDEST POP JUMP JUMPDEST PUSH0 PUSH2 0x1BE5 PUSH0 DUP4 PUSH2 0x1BCD JUMP JUMPDEST SWAP2 POP PUSH2 0x1BF0 DUP3 PUSH2 0x1BD7 JUMP JUMPDEST PUSH0 DUP3 ADD SWAP1 POP SWAP2 SWAP1 POP JUMP JUMPDEST PUSH0 PUSH2 0x1C04 DUP3 PUSH2 0x1BDA JUMP JUMPDEST SWAP2 POP DUP2 SWAP1 POP SWAP2 SWAP1 POP JUMP JUMPDEST PUSH32 0x4661696C65640000000000000000000000000000000000000000000000000000 PUSH0 DUP3 ADD MSTORE POP JUMP JUMPDEST PUSH0 PUSH2 0x1C42 PUSH1 0x6 DUP4 PUSH2 0x164E JUMP JUMPDEST SWAP2 POP PUSH2 0x1C4D DUP3 PUSH2 0x1C0E JUMP JUMPDEST PUSH1 0x20 DUP3 ADD SWAP1 POP SWAP2 SWAP1 POP JUMP JUMPDEST PUSH0 PUSH1 0x20 DUP3 ADD SWAP1 POP DUP2 DUP2 SUB PUSH0 DUP4 ADD MSTORE PUSH2 0x1C6F DUP2 PUSH2 0x1C36 JUMP JUMPDEST SWAP1 POP SWAP2 SWAP1 POP JUMP JUMPDEST PUSH32 0x5468657265206973206E6F206163746976652061640000000000000000000000 PUSH0 DUP3 ADD MSTORE POP JUMP JUMPDEST PUSH0 PUSH2 0x1CAA PUSH1 0x15 DUP4 PUSH2 0x164E JUMP JUMPDEST SWAP2 POP PUSH2 0x1CB5 DUP3 PUSH2 0x1C76 JUMP JUMPDEST PUSH1 0x20 DUP3 ADD SWAP1 POP SWAP2 SWAP1 POP JUMP JUMPDEST PUSH0 PUSH1 0x20 DUP3 ADD SWAP1 POP DUP2 DUP2 SUB PUSH0 DUP4 ADD MSTORE PUSH2 0x1CD7 DUP2 PUSH2 0x1C9E JUMP JUMPDEST SWAP1 POP SWAP2 SWAP1 POP JUMP JUMPDEST PUSH32 0x4E487B7100000000000000000000000000000000000000000000000000000000 PUSH0 MSTORE PUSH1 0x32 PUSH1 0x4 MSTORE PUSH1 0x24 PUSH0 REVERT JUMPDEST PUSH32 0x4661696C656420746F2073656E64204574686572000000000000000000000000 PUSH0 DUP3 ADD MSTORE POP JUMP JUMPDEST PUSH0 PUSH2 0x1D3F PUSH1 0x14 DUP4 PUSH2 0x164E JUMP JUMPDEST SWAP2 POP PUSH2 0x1D4A DUP3 PUSH2 0x1D0B JUMP JUMPDEST PUSH1 0x20 DUP3 ADD SWAP1 POP SWAP2 SWAP1 POP JUMP JUMPDEST PUSH0 PUSH1 0x20 DUP3 ADD SWAP1 POP DUP2 DUP2 SUB PUSH0 DUP4 ADD MSTORE PUSH2 0x1D6C DUP2 PUSH2 0x1D33 JUMP JUMPDEST SWAP1 POP SWAP2 SWAP1 POP JUMP JUMPDEST PUSH0 PUSH1 0x40 DUP3 ADD SWAP1 POP PUSH2 0x1D86 PUSH0 DUP4 ADD DUP6 PUSH2 0x16F4 JUMP JUMPDEST PUSH2 0x1D93 PUSH1 0x20 DUP4 ADD DUP5 PUSH2 0x161C JUMP JUMPDEST SWAP4 SWAP3 POP POP POP JUMP JUMPDEST PUSH32 0x4475726174696F6E206D7573742062652067726174686572207468616E203000 PUSH0 DUP3 ADD MSTORE POP JUMP JUMPDEST PUSH0 PUSH2 0x1DCE PUSH1 0x1F DUP4 PUSH2 0x164E JUMP JUMPDEST SWAP2 POP PUSH2 0x1DD9 DUP3 PUSH2 0x1D9A JUMP JUMPDEST PUSH1 0x20 DUP3 ADD SWAP1 POP SWAP2 SWAP1 POP JUMP JUMPDEST PUSH0 PUSH1 0x20 DUP3 ADD SWAP1 POP DUP2 DUP2 SUB PUSH0 DUP4 ADD MSTORE PUSH2 0x1DFB DUP2 PUSH2 0x1DC2 JUMP JUMPDEST SWAP1 POP SWAP2 SWAP1 POP JUMP JUMPDEST PUSH32 0x4E487B7100000000000000000000000000000000000000000000000000000000 PUSH0 MSTORE PUSH1 0x11 PUSH1 0x4 MSTORE PUSH1 0x24 PUSH0 REVERT JUMPDEST PUSH0 PUSH2 0x1E39 DUP3 PUSH2 0x1408 JUMP JUMPDEST SWAP2 POP PUSH2 0x1E44 DUP4 PUSH2 0x1408 JUMP JUMPDEST SWAP3 POP DUP3 DUP3 MUL PUSH2 0x1E52 DUP2 PUSH2 0x1408 JUMP JUMPDEST SWAP2 POP DUP3 DUP3 DIV DUP5 EQ DUP4 ISZERO OR PUSH2 0x1E69 JUMPI PUSH2 0x1E68 PUSH2 0x1E02 JUMP JUMPDEST JUMPDEST POP SWAP3 SWAP2 POP POP JUMP JUMPDEST PUSH0 PUSH1 0x60 DUP3 ADD SWAP1 POP PUSH2 0x1E83 PUSH0 DUP4 ADD DUP7 PUSH2 0x161C JUMP JUMPDEST PUSH2 0x1E90 PUSH1 0x20 DUP4 ADD DUP6 PUSH2 0x161C JUMP JUMPDEST PUSH2 0x1E9D PUSH1 0x40 DUP4 ADD DUP5 PUSH2 0x16F4 JUMP JUMPDEST SWAP5 SWAP4 POP POP POP POP JUMP JUMPDEST PUSH0 PUSH2 0x1EAF DUP3 PUSH2 0x1408 JUMP JUMPDEST SWAP2 POP PUSH2 0x1EBA DUP4 PUSH2 0x1408 JUMP JUMPDEST SWAP3 POP DUP3 DUP3 ADD SWAP1 POP DUP1 DUP3 GT ISZERO PUSH2 0x1ED2 JUMPI PUSH2 0x1ED1 PUSH2 0x1E02 JUMP JUMPDEST JUMPDEST SWAP3 SWAP2 POP POP JUMP JUMPDEST PUSH32 0x4E487B7100000000000000000000000000000000000000000000000000000000 PUSH0 MSTORE PUSH1 0x12 PUSH1 0x4 MSTORE PUSH1 0x24 PUSH0 REVERT JUMPDEST PUSH0 PUSH2 0x1F0F DUP3 PUSH2 0x1408 JUMP JUMPDEST SWAP2 POP PUSH2 0x1F1A DUP4 PUSH2 0x1408 JUMP JUMPDEST SWAP3 POP DUP3 PUSH2 0x1F2A JUMPI PUSH2 0x1F29 PUSH2 0x1ED8 JUMP JUMPDEST JUMPDEST DUP3 DUP3 DIV SWAP1 POP SWAP3 SWAP2 POP POP JUMP INVALID LOG2 PUSH5 0x6970667358 0x22 SLT KECCAK256 0xBD CREATE2 0xAD BLOBHASH 0xEC SWAP6 0xE3 SWAP15 0xDD LOG0 0xC7 DUP7 DUP11 MSIZE PUSH13 0x494A100457BF6519E45CEF1932 SLOAD 0xAD DUP16 SDIV PUSH5 0x736F6C6343 STOP ADDMOD SHR STOP CALLER "
				},
				"gasEstimates": {
					"creation": {
						"codeDepositCost": "1608600",
						"executionCost": "infinite",
						"totalCost": "infinite"
					},
					"external": {
						"VERSION()": "infinite",
						"_claimCounter()": "2526",
						"advertiser(string,uint256)": "infinite",
						"amount()": "2492",
						"calcPercentage(uint256,uint256)": "infinite",
						"claim()": "infinite",
						"claimPercentage()": "2515",
						"duration()": "2516",
						"end()": "2469",
						"fee()": "2514",
						"getAD()": "infinite",
						"getBalance()": "380",
						"manager()": "2576",
						"metadata()": "infinite",
						"owner()": "2603",
						"pause()": "infinite",
						"paused()": "2612",
						"permission(uint256)": "4989",
						"price()": "2536",
						"renounceOwnership()": "infinite",
						"requiredFollowers()": "2493",
						"time()": "399",
						"transferBalance(address,uint256)": "infinite",
						"transferOwnership(address)": "infinite",
						"unpause()": "infinite",
						"updateAds(string)": "infinite",
						"updateClaimPercentage(uint256)": "infinite",
						"withdraw()": "infinite"
					}
				},
				"methodIdentifiers": {
					"VERSION()": "ffa1ad74",
					"_claimCounter()": "fb2228fe",
					"advertiser(string,uint256)": "6098178f",
					"amount()": "aa8c217c",
					"calcPercentage(uint256,uint256)": "a37b06d4",
					"claim()": "4e71d92d",
					"claimPercentage()": "7a895f5d",
					"duration()": "0fb5a6b4",
					"end()": "efbe1c1c",
					"fee()": "ddca3f43",
					"getAD()": "5a05ec90",
					"getBalance()": "12065fe0",
					"manager()": "481c6a75",
					"metadata()": "392f37e9",
					"owner()": "8da5cb5b",
					"pause()": "8456cb59",
					"paused()": "5c975abb",
					"permission(uint256)": "7d38c997",
					"price()": "a035b1fe",
					"renounceOwnership()": "715018a6",
					"requiredFollowers()": "72b121c9",
					"time()": "16ada547",
					"transferBalance(address,uint256)": "56a6d9ef",
					"transferOwnership(address)": "f2fde38b",
					"unpause()": "3f4ba83a",
					"updateAds(string)": "0cbb0cc7",
					"updateClaimPercentage(uint256)": "074819c8",
					"withdraw()": "3ccfd60b"
				}
			},
			"storageLayout": {
				"storage": [
					{
						"astId": 1812,
						"contract": "UniversalADs.sol:UniversalADs",
						"label": "_owner",
						"offset": 0,
						"slot": "0",
						"type": "t_address"
					},
					{
						"astId": 1960,
						"contract": "UniversalADs.sol:UniversalADs",
						"label": "_paused",
						"offset": 20,
						"slot": "0",
						"type": "t_bool"
					},
					{
						"astId": 1325,
						"contract": "UniversalADs.sol:UniversalADs",
						"label": "_claimCounter",
						"offset": 0,
						"slot": "1",
						"type": "t_struct(Counter)35_storage"
					},
					{
						"astId": 1328,
						"contract": "UniversalADs.sol:UniversalADs",
						"label": "requiredFollowers",
						"offset": 0,
						"slot": "2",
						"type": "t_uint256"
					},
					{
						"astId": 1331,
						"contract": "UniversalADs.sol:UniversalADs",
						"label": "fee",
						"offset": 0,
						"slot": "3",
						"type": "t_uint256"
					},
					{
						"astId": 1334,
						"contract": "UniversalADs.sol:UniversalADs",
						"label": "price",
						"offset": 0,
						"slot": "4",
						"type": "t_uint256"
					},
					{
						"astId": 1337,
						"contract": "UniversalADs.sol:UniversalADs",
						"label": "claimPercentage",
						"offset": 0,
						"slot": "5",
						"type": "t_uint256"
					},
					{
						"astId": 1339,
						"contract": "UniversalADs.sol:UniversalADs",
						"label": "end",
						"offset": 0,
						"slot": "6",
						"type": "t_uint256"
					},
					{
						"astId": 1341,
						"contract": "UniversalADs.sol:UniversalADs",
						"label": "duration",
						"offset": 0,
						"slot": "7",
						"type": "t_uint256"
					},
					{
						"astId": 1343,
						"contract": "UniversalADs.sol:UniversalADs",
						"label": "amount",
						"offset": 0,
						"slot": "8",
						"type": "t_uint256"
					},
					{
						"astId": 1345,
						"contract": "UniversalADs.sol:UniversalADs",
						"label": "manager",
						"offset": 0,
						"slot": "9",
						"type": "t_address"
					},
					{
						"astId": 1347,
						"contract": "UniversalADs.sol:UniversalADs",
						"label": "metadata",
						"offset": 0,
						"slot": "10",
						"type": "t_string_storage"
					},
					{
						"astId": 1350,
						"contract": "UniversalADs.sol:UniversalADs",
						"label": "permission",
						"offset": 0,
						"slot": "11",
						"type": "t_array(t_address)dyn_storage"
					}
				],
				"types": {
					"t_address": {
						"encoding": "inplace",
						"label": "address",
						"numberOfBytes": "20"
					},
					"t_array(t_address)dyn_storage": {
						"base": "t_address",
						"encoding": "dynamic_array",
						"label": "address[]",
						"numberOfBytes": "32"
					},
					"t_bool": {
						"encoding": "inplace",
						"label": "bool",
						"numberOfBytes": "1"
					},
					"t_string_storage": {
						"encoding": "bytes",
						"label": "string",
						"numberOfBytes": "32"
					},
					"t_struct(Counter)35_storage": {
						"encoding": "inplace",
						"label": "struct Counters.Counter",
						"members": [
							{
								"astId": 34,
								"contract": "UniversalADs.sol:UniversalADs",
								"label": "_value",
								"offset": 0,
								"slot": "0",
								"type": "t_uint256"
							}
						],
						"numberOfBytes": "32"
					},
					"t_uint256": {
						"encoding": "inplace",
						"label": "uint256",
						"numberOfBytes": "32"
					}
				}
			},
			"userdoc": {
				"kind": "user",
				"methods": {
					"calcPercentage(uint256,uint256)": {
						"notice": "calcPercentage percentage"
					},
					"claim()": {
						"notice": "Claim"
					},
					"getBalance()": {
						"notice": "Return the balance of this contract"
					},
					"pause()": {
						"notice": "Pause"
					},
					"transferBalance(address,uint256)": {
						"notice": "Transfer balance from this contract to input address"
					},
					"unpause()": {
						"notice": "Unpause"
					},
					"updateClaimPercentage(uint256)": {
						"notice": "Update token claim count"
					},
					"withdraw()": {
						"notice": "Withdraw the balance from this contract and transfer it to the owner's address"
					}
				},
				"notice": "UniversalADs",
				"version": 1
			}
		}
	}
}