{
	"UniversalADs.sol": {
		"UniversalADs": {
			"abi": [
				{
					"inputs": [],
					"stateMutability": "nonpayable",
					"type": "constructor"
				},
				{
					"inputs": [],
					"name": "EnforcedPause",
					"type": "error"
				},
				{
					"inputs": [],
					"name": "ExpectedPause",
					"type": "error"
				},
				{
					"inputs": [
						{
							"internalType": "address",
							"name": "owner",
							"type": "address"
						}
					],
					"name": "OwnableInvalidOwner",
					"type": "error"
				},
				{
					"inputs": [
						{
							"internalType": "address",
							"name": "account",
							"type": "address"
						}
					],
					"name": "OwnableUnauthorizedAccount",
					"type": "error"
				},
				{
					"inputs": [
						{
							"internalType": "uint256",
							"name": "",
							"type": "uint256"
						},
						{
							"internalType": "address",
							"name": "",
							"type": "address"
						}
					],
					"name": "PriceNotMet",
					"type": "error"
				},
				{
					"inputs": [
						{
							"internalType": "uint256",
							"name": "claimedTime",
							"type": "uint256"
						}
					],
					"name": "UserClaimedAlready",
					"type": "error"
				},
				{
					"anonymous": false,
					"inputs": [
						{
							"indexed": false,
							"internalType": "address",
							"name": "sender",
							"type": "address"
						},
						{
							"indexed": false,
							"internalType": "uint256",
							"name": "amount",
							"type": "uint256"
						}
					],
					"name": "Claimed",
					"type": "event"
				},
				{
					"anonymous": false,
					"inputs": [
						{
							"indexed": true,
							"internalType": "address",
							"name": "previousOwner",
							"type": "address"
						},
						{
							"indexed": true,
							"internalType": "address",
							"name": "newOwner",
							"type": "address"
						}
					],
					"name": "OwnershipTransferred",
					"type": "event"
				},
				{
					"anonymous": false,
					"inputs": [
						{
							"indexed": false,
							"internalType": "address",
							"name": "account",
							"type": "address"
						}
					],
					"name": "Paused",
					"type": "event"
				},
				{
					"anonymous": false,
					"inputs": [
						{
							"indexed": false,
							"internalType": "address",
							"name": "account",
							"type": "address"
						}
					],
					"name": "Unpaused",
					"type": "event"
				},
				{
					"inputs": [],
					"name": "_claimCounter",
					"outputs": [
						{
							"internalType": "uint256",
							"name": "_value",
							"type": "uint256"
						}
					],
					"stateMutability": "view",
					"type": "function"
				},
				{
					"inputs": [
						{
							"internalType": "uint256",
							"name": "_start",
							"type": "uint256"
						},
						{
							"internalType": "uint256",
							"name": "_end",
							"type": "uint256"
						},
						{
							"internalType": "string",
							"name": "_metadata",
							"type": "string"
						},
						{
							"internalType": "uint256",
							"name": "_duration",
							"type": "uint256"
						}
					],
					"name": "advertiser",
					"outputs": [
						{
							"internalType": "bool",
							"name": "",
							"type": "bool"
						},
						{
							"internalType": "uint256",
							"name": "",
							"type": "uint256"
						},
						{
							"internalType": "uint256",
							"name": "",
							"type": "uint256"
						}
					],
					"stateMutability": "payable",
					"type": "function"
				},
				{
					"inputs": [
						{
							"internalType": "uint256",
							"name": "_amount",
							"type": "uint256"
						},
						{
							"internalType": "uint256",
							"name": "bps",
							"type": "uint256"
						}
					],
					"name": "calcPercentage",
					"outputs": [
						{
							"internalType": "uint256",
							"name": "",
							"type": "uint256"
						}
					],
					"stateMutability": "pure",
					"type": "function"
				},
				{
					"inputs": [],
					"name": "claim",
					"outputs": [
						{
							"internalType": "bool",
							"name": "",
							"type": "bool"
						}
					],
					"stateMutability": "nonpayable",
					"type": "function"
				},
				{
					"inputs": [],
					"name": "claimPercentage",
					"outputs": [
						{
							"internalType": "uint256",
							"name": "",
							"type": "uint256"
						}
					],
					"stateMutability": "view",
					"type": "function"
				},
				{
					"inputs": [],
					"name": "duration",
					"outputs": [
						{
							"internalType": "uint256",
							"name": "",
							"type": "uint256"
						}
					],
					"stateMutability": "view",
					"type": "function"
				},
				{
					"inputs": [],
					"name": "end",
					"outputs": [
						{
							"internalType": "uint256",
							"name": "",
							"type": "uint256"
						}
					],
					"stateMutability": "view",
					"type": "function"
				},
				{
					"inputs": [],
					"name": "fee",
					"outputs": [
						{
							"internalType": "uint256",
							"name": "",
							"type": "uint256"
						}
					],
					"stateMutability": "view",
					"type": "function"
				},
				{
					"inputs": [],
					"name": "getAD",
					"outputs": [
						{
							"internalType": "uint256",
							"name": "",
							"type": "uint256"
						},
						{
							"internalType": "uint256",
							"name": "",
							"type": "uint256"
						},
						{
							"internalType": "uint256",
							"name": "",
							"type": "uint256"
						},
						{
							"internalType": "address",
							"name": "",
							"type": "address"
						},
						{
							"internalType": "string",
							"name": "",
							"type": "string"
						}
					],
					"stateMutability": "view",
					"type": "function"
				},
				{
					"inputs": [],
					"name": "getBalance",
					"outputs": [
						{
							"internalType": "uint256",
							"name": "",
							"type": "uint256"
						}
					],
					"stateMutability": "view",
					"type": "function"
				},
				{
					"inputs": [],
					"name": "manager",
					"outputs": [
						{
							"internalType": "address",
							"name": "",
							"type": "address"
						}
					],
					"stateMutability": "view",
					"type": "function"
				},
				{
					"inputs": [],
					"name": "metadata",
					"outputs": [
						{
							"internalType": "string",
							"name": "",
							"type": "string"
						}
					],
					"stateMutability": "view",
					"type": "function"
				},
				{
					"inputs": [],
					"name": "owner",
					"outputs": [
						{
							"internalType": "address",
							"name": "",
							"type": "address"
						}
					],
					"stateMutability": "view",
					"type": "function"
				},
				{
					"inputs": [],
					"name": "pause",
					"outputs": [],
					"stateMutability": "nonpayable",
					"type": "function"
				},
				{
					"inputs": [],
					"name": "paused",
					"outputs": [
						{
							"internalType": "bool",
							"name": "",
							"type": "bool"
						}
					],
					"stateMutability": "view",
					"type": "function"
				},
				{
					"inputs": [
						{
							"internalType": "address",
							"name": "",
							"type": "address"
						}
					],
					"name": "permission",
					"outputs": [
						{
							"internalType": "uint256",
							"name": "",
							"type": "uint256"
						}
					],
					"stateMutability": "view",
					"type": "function"
				},
				{
					"inputs": [],
					"name": "price",
					"outputs": [
						{
							"internalType": "uint256",
							"name": "",
							"type": "uint256"
						}
					],
					"stateMutability": "view",
					"type": "function"
				},
				{
					"inputs": [],
					"name": "renounceOwnership",
					"outputs": [],
					"stateMutability": "nonpayable",
					"type": "function"
				},
				{
					"inputs": [],
					"name": "requiredFollowers",
					"outputs": [
						{
							"internalType": "uint256",
							"name": "",
							"type": "uint256"
						}
					],
					"stateMutability": "view",
					"type": "function"
				},
				{
					"inputs": [],
					"name": "start",
					"outputs": [
						{
							"internalType": "uint256",
							"name": "",
							"type": "uint256"
						}
					],
					"stateMutability": "view",
					"type": "function"
				},
				{
					"inputs": [],
					"name": "time",
					"outputs": [
						{
							"internalType": "uint256",
							"name": "",
							"type": "uint256"
						}
					],
					"stateMutability": "view",
					"type": "function"
				},
				{
					"inputs": [
						{
							"internalType": "address payable",
							"name": "_to",
							"type": "address"
						},
						{
							"internalType": "uint256",
							"name": "_amount",
							"type": "uint256"
						}
					],
					"name": "transferBalance",
					"outputs": [],
					"stateMutability": "nonpayable",
					"type": "function"
				},
				{
					"inputs": [
						{
							"internalType": "address",
							"name": "newOwner",
							"type": "address"
						}
					],
					"name": "transferOwnership",
					"outputs": [],
					"stateMutability": "nonpayable",
					"type": "function"
				},
				{
					"inputs": [],
					"name": "unpause",
					"outputs": [],
					"stateMutability": "nonpayable",
					"type": "function"
				},
				{
					"inputs": [
						{
							"internalType": "uint256",
							"name": "_start",
							"type": "uint256"
						},
						{
							"internalType": "uint256",
							"name": "_end",
							"type": "uint256"
						},
						{
							"internalType": "string",
							"name": "_metadata",
							"type": "string"
						}
					],
					"name": "updateAD",
					"outputs": [
						{
							"internalType": "bool",
							"name": "",
							"type": "bool"
						}
					],
					"stateMutability": "nonpayable",
					"type": "function"
				},
				{
					"inputs": [
						{
							"internalType": "uint256",
							"name": "_newVal",
							"type": "uint256"
						}
					],
					"name": "updateClaimPercentage",
					"outputs": [
						{
							"internalType": "bool",
							"name": "",
							"type": "bool"
						}
					],
					"stateMutability": "nonpayable",
					"type": "function"
				},
				{
					"inputs": [],
					"name": "withdraw",
					"outputs": [],
					"stateMutability": "nonpayable",
					"type": "function"
				}
			],
			"devdoc": {
				"author": "Aratta Labs",
				"custom:emoji": "📢",
				"custom:security-contact": "atenyun@gmail.com",
				"details": "You will find the deployed contract addresses in the repo",
				"errors": {
					"EnforcedPause()": [
						{
							"details": "The operation failed because the contract is paused."
						}
					],
					"ExpectedPause()": [
						{
							"details": "The operation failed because the contract is not paused."
						}
					],
					"OwnableInvalidOwner(address)": [
						{
							"details": "The owner is not a valid owner account. (eg. `address(0)`)"
						}
					],
					"OwnableUnauthorizedAccount(address)": [
						{
							"details": "The caller account is not authorized to perform an operation."
						}
					]
				},
				"events": {
					"Paused(address)": {
						"details": "Emitted when the pause is triggered by `account`."
					},
					"Unpaused(address)": {
						"details": "Emitted when the pause is lifted by `account`."
					}
				},
				"kind": "dev",
				"methods": {
					"calcPercentage(uint256,uint256)": {
						"params": {
							"_amount": "The total amount",
							"bps": "The precentage"
						},
						"returns": {
							"_0": "percentage"
						}
					},
					"owner()": {
						"details": "Returns the address of the current owner."
					},
					"paused()": {
						"details": "Returns true if the contract is paused, and false otherwise."
					},
					"renounceOwnership()": {
						"details": "Leaves the contract without owner. It will not be possible to call `onlyOwner` functions. Can only be called by the current owner. NOTE: Renouncing ownership will leave the contract without an owner, thereby disabling any functionality that is only available to the owner."
					},
					"transferOwnership(address)": {
						"details": "Transfers ownership of the contract to a new account (`newOwner`). Can only be called by the current owner."
					}
				},
				"title": "UniversalADs",
				"version": 1
			},
			"evm": {
				"assembly": "    /* \"UniversalADs.sol\":589:5152  contract UniversalADs is Ownable(msg.sender), Pausable {... */\n  mstore(0x40, 0x80)\n    /* \"UniversalADs.sol\":769:771  20 */\n  0x14\n    /* \"UniversalADs.sol\":734:771  uint256 public requiredFollowers = 20 */\n  0x02\n  sstore\n    /* \"UniversalADs.sol\":798:799  4 */\n  0x04\n    /* \"UniversalADs.sol\":777:799  uint256 public fee = 4 */\n  0x03\n  sstore\n    /* \"UniversalADs.sol\":841:848  1 ether */\n  0x0de0b6b3a7640000\n    /* \"UniversalADs.sol\":818:848  uint256 public price = 1 ether */\n  0x04\n  sstore\n    /* \"UniversalADs.sol\":898:899  2 */\n  0x02\n    /* \"UniversalADs.sol\":865:899  uint256 public claimPercentage = 2 */\n  0x05\n  sstore\n    /* \"UniversalADs.sol\":1107:1123  constructor() {} */\n  callvalue\n  dup1\n  iszero\n  tag_1\n  jumpi\n  revert(0x00, 0x00)\ntag_1:\n  pop\n    /* \"UniversalADs.sol\":622:632  msg.sender */\n  caller\n    /* \"_ownable.sol\":1318:1319  0 */\n  0x00\n    /* \"_ownable.sol\":1294:1320  initialOwner == address(0) */\n  0xffffffffffffffffffffffffffffffffffffffff\n  and\n    /* \"_ownable.sol\":1294:1306  initialOwner */\n  dup2\n    /* \"_ownable.sol\":1294:1320  initialOwner == address(0) */\n  0xffffffffffffffffffffffffffffffffffffffff\n  and\n  sub\n    /* \"_ownable.sol\":1290:1385  if (initialOwner == address(0)) {... */\n  tag_6\n  jumpi\n    /* \"_ownable.sol\":1371:1372  0 */\n  0x00\n    /* \"_ownable.sol\":1343:1374  OwnableInvalidOwner(address(0)) */\n  mload(0x40)\n  0x1e4fbdf700000000000000000000000000000000000000000000000000000000\n  dup2\n  mstore\n  0x04\n  add\n  tag_7\n  swap2\n  swap1\n  tag_8\n  jump\t// in\ntag_7:\n  mload(0x40)\n  dup1\n  swap2\n  sub\n  swap1\n  revert\n    /* \"_ownable.sol\":1290:1385  if (initialOwner == address(0)) {... */\ntag_6:\n    /* \"_ownable.sol\":1394:1426  _transferOwnership(initialOwner) */\n  tag_9\n    /* \"_ownable.sol\":1413:1425  initialOwner */\n  dup2\n    /* \"_ownable.sol\":1394:1412  _transferOwnership */\n  shl(0x20, tag_10)\n    /* \"_ownable.sol\":1394:1426  _transferOwnership(initialOwner) */\n  0x20\n  shr\n  jump\t// in\ntag_9:\n    /* \"_ownable.sol\":1246:1433  constructor(address initialOwner) {... */\n  pop\n    /* \"_pausable.sol\":1262:1267  false */\n  0x00\n    /* \"_pausable.sol\":1252:1259  _paused */\n  0x00\n  0x14\n    /* \"_pausable.sol\":1252:1267  _paused = false */\n  0x0100\n  exp\n  dup2\n  sload\n  dup2\n  0xff\n  mul\n  not\n  and\n  swap1\n  dup4\n  iszero\n  iszero\n  mul\n  or\n  swap1\n  sstore\n  pop\n    /* \"UniversalADs.sol\":589:5152  contract UniversalADs is Ownable(msg.sender), Pausable {... */\n  jump(tag_13)\n    /* \"_ownable.sol\":2933:3120  function _transferOwnership(address newOwner) internal virtual {... */\ntag_10:\n    /* \"_ownable.sol\":3006:3022  address oldOwner */\n  0x00\n    /* \"_ownable.sol\":3025:3031  _owner */\n  0x00\n  0x00\n  swap1\n  sload\n  swap1\n  0x0100\n  exp\n  swap1\n  div\n  0xffffffffffffffffffffffffffffffffffffffff\n  and\n    /* \"_ownable.sol\":3006:3031  address oldOwner = _owner */\n  swap1\n  pop\n    /* \"_ownable.sol\":3050:3058  newOwner */\n  dup2\n    /* \"_ownable.sol\":3041:3047  _owner */\n  0x00\n  0x00\n    /* \"_ownable.sol\":3041:3058  _owner = newOwner */\n  0x0100\n  exp\n  dup2\n  sload\n  dup2\n  0xffffffffffffffffffffffffffffffffffffffff\n  mul\n  not\n  and\n  swap1\n  dup4\n  0xffffffffffffffffffffffffffffffffffffffff\n  and\n  mul\n  or\n  swap1\n  sstore\n  pop\n    /* \"_ownable.sol\":3104:3112  newOwner */\n  dup2\n    /* \"_ownable.sol\":3073:3113  OwnershipTransferred(oldOwner, newOwner) */\n  0xffffffffffffffffffffffffffffffffffffffff\n  and\n    /* \"_ownable.sol\":3094:3102  oldOwner */\n  dup2\n    /* \"_ownable.sol\":3073:3113  OwnershipTransferred(oldOwner, newOwner) */\n  0xffffffffffffffffffffffffffffffffffffffff\n  and\n  0x8be0079c531659141344cd1fd0a4f28419497f9722a3daafe3b4186f6b6457e0\n  mload(0x40)\n  mload(0x40)\n  dup1\n  swap2\n  sub\n  swap1\n  log3\n    /* \"_ownable.sol\":2996:3120  {... */\n  pop\n    /* \"_ownable.sol\":2933:3120  function _transferOwnership(address newOwner) internal virtual {... */\n  pop\n  jump\t// out\n    /* \"#utility.yul\":7:133   */\ntag_15:\n    /* \"#utility.yul\":44:51   */\n  0x00\n    /* \"#utility.yul\":84:126   */\n  0xffffffffffffffffffffffffffffffffffffffff\n    /* \"#utility.yul\":77:82   */\n  dup3\n    /* \"#utility.yul\":73:127   */\n  and\n    /* \"#utility.yul\":62:127   */\n  swap1\n  pop\n    /* \"#utility.yul\":7:133   */\n  swap2\n  swap1\n  pop\n  jump\t// out\n    /* \"#utility.yul\":139:235   */\ntag_16:\n    /* \"#utility.yul\":176:183   */\n  0x00\n    /* \"#utility.yul\":205:229   */\n  tag_21\n    /* \"#utility.yul\":223:228   */\n  dup3\n    /* \"#utility.yul\":205:229   */\n  tag_15\n  jump\t// in\ntag_21:\n    /* \"#utility.yul\":194:229   */\n  swap1\n  pop\n    /* \"#utility.yul\":139:235   */\n  swap2\n  swap1\n  pop\n  jump\t// out\n    /* \"#utility.yul\":241:359   */\ntag_17:\n    /* \"#utility.yul\":328:352   */\n  tag_23\n    /* \"#utility.yul\":346:351   */\n  dup2\n    /* \"#utility.yul\":328:352   */\n  tag_16\n  jump\t// in\ntag_23:\n    /* \"#utility.yul\":323:326   */\n  dup3\n    /* \"#utility.yul\":316:353   */\n  mstore\n    /* \"#utility.yul\":241:359   */\n  pop\n  pop\n  jump\t// out\n    /* \"#utility.yul\":365:587   */\ntag_8:\n    /* \"#utility.yul\":458:462   */\n  0x00\n    /* \"#utility.yul\":496:498   */\n  0x20\n    /* \"#utility.yul\":485:494   */\n  dup3\n    /* \"#utility.yul\":481:499   */\n  add\n    /* \"#utility.yul\":473:499   */\n  swap1\n  pop\n    /* \"#utility.yul\":509:580   */\n  tag_25\n    /* \"#utility.yul\":577:578   */\n  0x00\n    /* \"#utility.yul\":566:575   */\n  dup4\n    /* \"#utility.yul\":562:579   */\n  add\n    /* \"#utility.yul\":553:559   */\n  dup5\n    /* \"#utility.yul\":509:580   */\n  tag_17\n  jump\t// in\ntag_25:\n    /* \"#utility.yul\":365:587   */\n  swap3\n  swap2\n  pop\n  pop\n  jump\t// out\n    /* \"UniversalADs.sol\":589:5152  contract UniversalADs is Ownable(msg.sender), Pausable {... */\ntag_13:\n  dataSize(sub_0)\n  dup1\n  dataOffset(sub_0)\n  0x00\n  codecopy\n  0x00\n  return\nstop\n\nsub_0: assembly {\n        /* \"UniversalADs.sol\":589:5152  contract UniversalADs is Ownable(msg.sender), Pausable {... */\n      mstore(0x40, 0x80)\n      jumpi(tag_1, lt(calldatasize, 0x04))\n      shr(0xe0, calldataload(0x00))\n      dup1\n      0x68226a78\n      gt\n      tag_29\n      jumpi\n      dup1\n      0xa035b1fe\n      gt\n      tag_30\n      jumpi\n      dup1\n      0xddca3f43\n      gt\n      tag_31\n      jumpi\n      dup1\n      0xddca3f43\n      eq\n      tag_25\n      jumpi\n      dup1\n      0xefbe1c1c\n      eq\n      tag_26\n      jumpi\n      dup1\n      0xf2fde38b\n      eq\n      tag_27\n      jumpi\n      dup1\n      0xfb2228fe\n      eq\n      tag_28\n      jumpi\n      jump(tag_1)\n    tag_31:\n      dup1\n      0xa035b1fe\n      eq\n      tag_22\n      jumpi\n      dup1\n      0xa37b06d4\n      eq\n      tag_23\n      jumpi\n      dup1\n      0xbe9a6555\n      eq\n      tag_24\n      jumpi\n      jump(tag_1)\n    tag_30:\n      dup1\n      0x7a895f5d\n      gt\n      tag_32\n      jumpi\n      dup1\n      0x7a895f5d\n      eq\n      tag_18\n      jumpi\n      dup1\n      0x8456cb59\n      eq\n      tag_19\n      jumpi\n      dup1\n      0x8da5cb5b\n      eq\n      tag_20\n      jumpi\n      dup1\n      0x9aeccdc4\n      eq\n      tag_21\n      jumpi\n      jump(tag_1)\n    tag_32:\n      dup1\n      0x68226a78\n      eq\n      tag_15\n      jumpi\n      dup1\n      0x715018a6\n      eq\n      tag_16\n      jumpi\n      dup1\n      0x72b121c9\n      eq\n      tag_17\n      jumpi\n      jump(tag_1)\n    tag_29:\n      dup1\n      0x3ccfd60b\n      gt\n      tag_33\n      jumpi\n      dup1\n      0x4e71d92d\n      gt\n      tag_34\n      jumpi\n      dup1\n      0x4e71d92d\n      eq\n      tag_11\n      jumpi\n      dup1\n      0x56a6d9ef\n      eq\n      tag_12\n      jumpi\n      dup1\n      0x5a05ec90\n      eq\n      tag_13\n      jumpi\n      dup1\n      0x5c975abb\n      eq\n      tag_14\n      jumpi\n      jump(tag_1)\n    tag_34:\n      dup1\n      0x3ccfd60b\n      eq\n      tag_8\n      jumpi\n      dup1\n      0x3f4ba83a\n      eq\n      tag_9\n      jumpi\n      dup1\n      0x481c6a75\n      eq\n      tag_10\n      jumpi\n      jump(tag_1)\n    tag_33:\n      dup1\n      0x074819c8\n      eq\n      tag_2\n      jumpi\n      dup1\n      0x0fb5a6b4\n      eq\n      tag_3\n      jumpi\n      dup1\n      0x12065fe0\n      eq\n      tag_4\n      jumpi\n      dup1\n      0x13a55c91\n      eq\n      tag_5\n      jumpi\n      dup1\n      0x16ada547\n      eq\n      tag_6\n      jumpi\n      dup1\n      0x392f37e9\n      eq\n      tag_7\n      jumpi\n    tag_1:\n      revert(0x00, 0x00)\n        /* \"UniversalADs.sol\":3988:4131  function updateClaimPercentage(uint256 _newVal) public onlyOwner returns (bool) {... */\n    tag_2:\n      callvalue\n      dup1\n      iszero\n      tag_35\n      jumpi\n      revert(0x00, 0x00)\n    tag_35:\n      pop\n      tag_36\n      0x04\n      dup1\n      calldatasize\n      sub\n      dup2\n      add\n      swap1\n      tag_37\n      swap2\n      swap1\n      tag_38\n      jump\t// in\n    tag_37:\n      tag_39\n      jump\t// in\n    tag_36:\n      mload(0x40)\n      tag_40\n      swap2\n      swap1\n      tag_41\n      jump\t// in\n    tag_40:\n      mload(0x40)\n      dup1\n      swap2\n      sub\n      swap1\n      return\n        /* \"UniversalADs.sol\":970:993  uint256 public duration */\n    tag_3:\n      callvalue\n      dup1\n      iszero\n      tag_42\n      jumpi\n      revert(0x00, 0x00)\n    tag_42:\n      pop\n      tag_43\n      tag_44\n      jump\t// in\n    tag_43:\n      mload(0x40)\n      tag_45\n      swap2\n      swap1\n      tag_46\n      jump\t// in\n    tag_45:\n      mload(0x40)\n      dup1\n      swap2\n      sub\n      swap1\n      return\n        /* \"UniversalADs.sol\":4782:4879  function getBalance() public view returns (uint256) {... */\n    tag_4:\n      callvalue\n      dup1\n      iszero\n      tag_47\n      jumpi\n      revert(0x00, 0x00)\n    tag_47:\n      pop\n      tag_48\n      tag_49\n      jump\t// in\n    tag_48:\n      mload(0x40)\n      tag_50\n      swap2\n      swap1\n      tag_46\n      jump\t// in\n    tag_50:\n      mload(0x40)\n      dup1\n      swap2\n      sub\n      swap1\n      return\n        /* \"UniversalADs.sol\":1387:2422  function advertiser(... */\n    tag_5:\n      tag_51\n      0x04\n      dup1\n      calldatasize\n      sub\n      dup2\n      add\n      swap1\n      tag_52\n      swap2\n      swap1\n      tag_53\n      jump\t// in\n    tag_52:\n      tag_54\n      jump\t// in\n    tag_51:\n      mload(0x40)\n      tag_55\n      swap4\n      swap3\n      swap2\n      swap1\n      tag_56\n      jump\t// in\n    tag_55:\n      mload(0x40)\n      dup1\n      swap2\n      sub\n      swap1\n      return\n        /* \"UniversalADs.sol\":5065:5150  function time() public view returns (uint256) {... */\n    tag_6:\n      callvalue\n      dup1\n      iszero\n      tag_57\n      jumpi\n      revert(0x00, 0x00)\n    tag_57:\n      pop\n      tag_58\n      tag_59\n      jump\t// in\n    tag_58:\n      mload(0x40)\n      tag_60\n      swap2\n      swap1\n      tag_46\n      jump\t// in\n    tag_60:\n      mload(0x40)\n      dup1\n      swap2\n      sub\n      swap1\n      return\n        /* \"UniversalADs.sol\":1027:1049  string public metadata */\n    tag_7:\n      callvalue\n      dup1\n      iszero\n      tag_61\n      jumpi\n      revert(0x00, 0x00)\n    tag_61:\n      pop\n      tag_62\n      tag_63\n      jump\t// in\n    tag_62:\n      mload(0x40)\n      tag_64\n      swap2\n      swap1\n      tag_65\n      jump\t// in\n    tag_64:\n      mload(0x40)\n      dup1\n      swap2\n      sub\n      swap1\n      return\n        /* \"UniversalADs.sol\":4231:4421  function withdraw() public onlyOwner {... */\n    tag_8:\n      callvalue\n      dup1\n      iszero\n      tag_66\n      jumpi\n      revert(0x00, 0x00)\n    tag_66:\n      pop\n      tag_67\n      tag_68\n      jump\t// in\n    tag_67:\n      stop\n        /* \"UniversalADs.sol\":4996:5059  function unpause() public onlyOwner {... */\n    tag_9:\n      callvalue\n      dup1\n      iszero\n      tag_69\n      jumpi\n      revert(0x00, 0x00)\n    tag_69:\n      pop\n      tag_70\n      tag_71\n      jump\t// in\n    tag_70:\n      stop\n        /* \"UniversalADs.sol\":999:1021  address public manager */\n    tag_10:\n      callvalue\n      dup1\n      iszero\n      tag_72\n      jumpi\n      revert(0x00, 0x00)\n    tag_72:\n      pop\n      tag_73\n      tag_74\n      jump\t// in\n    tag_73:\n      mload(0x40)\n      tag_75\n      swap2\n      swap1\n      tag_76\n      jump\t// in\n    tag_75:\n      mload(0x40)\n      dup1\n      swap2\n      sub\n      swap1\n      return\n        /* \"UniversalADs.sol\":2449:3267  function claim() public whenNotPaused returns (bool) {... */\n    tag_11:\n      callvalue\n      dup1\n      iszero\n      tag_77\n      jumpi\n      revert(0x00, 0x00)\n    tag_77:\n      pop\n      tag_78\n      tag_79\n      jump\t// in\n    tag_78:\n      mload(0x40)\n      tag_80\n      swap2\n      swap1\n      tag_41\n      jump\t// in\n    tag_80:\n      mload(0x40)\n      dup1\n      swap2\n      sub\n      swap1\n      return\n        /* \"UniversalADs.sol\":4495:4724  function transferBalance(address payable _to, uint256 _amount) public onlyOwner {... */\n    tag_12:\n      callvalue\n      dup1\n      iszero\n      tag_81\n      jumpi\n      revert(0x00, 0x00)\n    tag_81:\n      pop\n      tag_82\n      0x04\n      dup1\n      calldatasize\n      sub\n      dup2\n      add\n      swap1\n      tag_83\n      swap2\n      swap1\n      tag_84\n      jump\t// in\n    tag_83:\n      tag_85\n      jump\t// in\n    tag_82:\n      stop\n        /* \"UniversalADs.sol\":1129:1381  function getAD()... */\n    tag_13:\n      callvalue\n      dup1\n      iszero\n      tag_86\n      jumpi\n      revert(0x00, 0x00)\n    tag_86:\n      pop\n      tag_87\n      tag_88\n      jump\t// in\n    tag_87:\n      mload(0x40)\n      tag_89\n      swap6\n      swap5\n      swap4\n      swap3\n      swap2\n      swap1\n      tag_90\n      jump\t// in\n    tag_89:\n      mload(0x40)\n      dup1\n      swap2\n      sub\n      swap1\n      return\n        /* \"_pausable.sol\":1871:1955  function paused() public view virtual returns (bool) {... */\n    tag_14:\n      callvalue\n      dup1\n      iszero\n      tag_91\n      jumpi\n      revert(0x00, 0x00)\n    tag_91:\n      pop\n      tag_92\n      tag_93\n      jump\t// in\n    tag_92:\n      mload(0x40)\n      tag_94\n      swap2\n      swap1\n      tag_41\n      jump\t// in\n    tag_94:\n      mload(0x40)\n      dup1\n      swap2\n      sub\n      swap1\n      return\n        /* \"UniversalADs.sol\":1055:1100  mapping(address => uint256) public permission */\n    tag_15:\n      callvalue\n      dup1\n      iszero\n      tag_95\n      jumpi\n      revert(0x00, 0x00)\n    tag_95:\n      pop\n      tag_96\n      0x04\n      dup1\n      calldatasize\n      sub\n      dup2\n      add\n      swap1\n      tag_97\n      swap2\n      swap1\n      tag_98\n      jump\t// in\n    tag_97:\n      tag_99\n      jump\t// in\n    tag_96:\n      mload(0x40)\n      tag_100\n      swap2\n      swap1\n      tag_46\n      jump\t// in\n    tag_100:\n      mload(0x40)\n      dup1\n      swap2\n      sub\n      swap1\n      return\n        /* \"_ownable.sol\":2314:2415  function renounceOwnership() public virtual onlyOwner {... */\n    tag_16:\n      callvalue\n      dup1\n      iszero\n      tag_101\n      jumpi\n      revert(0x00, 0x00)\n    tag_101:\n      pop\n      tag_102\n      tag_103\n      jump\t// in\n    tag_102:\n      stop\n        /* \"UniversalADs.sol\":734:771  uint256 public requiredFollowers = 20 */\n    tag_17:\n      callvalue\n      dup1\n      iszero\n      tag_104\n      jumpi\n      revert(0x00, 0x00)\n    tag_104:\n      pop\n      tag_105\n      tag_106\n      jump\t// in\n    tag_105:\n      mload(0x40)\n      tag_107\n      swap2\n      swap1\n      tag_46\n      jump\t// in\n    tag_107:\n      mload(0x40)\n      dup1\n      swap2\n      sub\n      swap1\n      return\n        /* \"UniversalADs.sol\":865:899  uint256 public claimPercentage = 2 */\n    tag_18:\n      callvalue\n      dup1\n      iszero\n      tag_108\n      jumpi\n      revert(0x00, 0x00)\n    tag_108:\n      pop\n      tag_109\n      tag_110\n      jump\t// in\n    tag_109:\n      mload(0x40)\n      tag_111\n      swap2\n      swap1\n      tag_46\n      jump\t// in\n    tag_111:\n      mload(0x40)\n      dup1\n      swap2\n      sub\n      swap1\n      return\n        /* \"UniversalADs.sol\":4907:4966  function pause() public onlyOwner {... */\n    tag_19:\n      callvalue\n      dup1\n      iszero\n      tag_112\n      jumpi\n      revert(0x00, 0x00)\n    tag_112:\n      pop\n      tag_113\n      tag_114\n      jump\t// in\n    tag_113:\n      stop\n        /* \"_ownable.sol\":1659:1744  function owner() public view virtual returns (address) {... */\n    tag_20:\n      callvalue\n      dup1\n      iszero\n      tag_115\n      jumpi\n      revert(0x00, 0x00)\n    tag_115:\n      pop\n      tag_116\n      tag_117\n      jump\t// in\n    tag_116:\n      mload(0x40)\n      tag_118\n      swap2\n      swap1\n      tag_76\n      jump\t// in\n    tag_118:\n      mload(0x40)\n      dup1\n      swap2\n      sub\n      swap1\n      return\n        /* \"UniversalADs.sol\":3626:3941  function updateAD(... */\n    tag_21:\n      callvalue\n      dup1\n      iszero\n      tag_119\n      jumpi\n      revert(0x00, 0x00)\n    tag_119:\n      pop\n      tag_120\n      0x04\n      dup1\n      calldatasize\n      sub\n      dup2\n      add\n      swap1\n      tag_121\n      swap2\n      swap1\n      tag_122\n      jump\t// in\n    tag_121:\n      tag_123\n      jump\t// in\n    tag_120:\n      mload(0x40)\n      tag_124\n      swap2\n      swap1\n      tag_41\n      jump\t// in\n    tag_124:\n      mload(0x40)\n      dup1\n      swap2\n      sub\n      swap1\n      return\n        /* \"UniversalADs.sol\":818:848  uint256 public price = 1 ether */\n    tag_22:\n      callvalue\n      dup1\n      iszero\n      tag_125\n      jumpi\n      revert(0x00, 0x00)\n    tag_125:\n      pop\n      tag_126\n      tag_127\n      jump\t// in\n    tag_126:\n      mload(0x40)\n      tag_128\n      swap2\n      swap1\n      tag_46\n      jump\t// in\n    tag_128:\n      mload(0x40)\n      dup1\n      swap2\n      sub\n      swap1\n      return\n        /* \"UniversalADs.sol\":3412:3582  function calcPercentage(uint256 _amount, uint256 bps) public pure returns (uint256) {... */\n    tag_23:\n      callvalue\n      dup1\n      iszero\n      tag_129\n      jumpi\n      revert(0x00, 0x00)\n    tag_129:\n      pop\n      tag_130\n      0x04\n      dup1\n      calldatasize\n      sub\n      dup2\n      add\n      swap1\n      tag_131\n      swap2\n      swap1\n      tag_132\n      jump\t// in\n    tag_131:\n      tag_133\n      jump\t// in\n    tag_130:\n      mload(0x40)\n      tag_134\n      swap2\n      swap1\n      tag_46\n      jump\t// in\n    tag_134:\n      mload(0x40)\n      dup1\n      swap2\n      sub\n      swap1\n      return\n        /* \"UniversalADs.sol\":920:940  uint256 public start */\n    tag_24:\n      callvalue\n      dup1\n      iszero\n      tag_135\n      jumpi\n      revert(0x00, 0x00)\n    tag_135:\n      pop\n      tag_136\n      tag_137\n      jump\t// in\n    tag_136:\n      mload(0x40)\n      tag_138\n      swap2\n      swap1\n      tag_46\n      jump\t// in\n    tag_138:\n      mload(0x40)\n      dup1\n      swap2\n      sub\n      swap1\n      return\n        /* \"UniversalADs.sol\":777:799  uint256 public fee = 4 */\n    tag_25:\n      callvalue\n      dup1\n      iszero\n      tag_139\n      jumpi\n      revert(0x00, 0x00)\n    tag_139:\n      pop\n      tag_140\n      tag_141\n      jump\t// in\n    tag_140:\n      mload(0x40)\n      tag_142\n      swap2\n      swap1\n      tag_46\n      jump\t// in\n    tag_142:\n      mload(0x40)\n      dup1\n      swap2\n      sub\n      swap1\n      return\n        /* \"UniversalADs.sol\":946:964  uint256 public end */\n    tag_26:\n      callvalue\n      dup1\n      iszero\n      tag_143\n      jumpi\n      revert(0x00, 0x00)\n    tag_143:\n      pop\n      tag_144\n      tag_145\n      jump\t// in\n    tag_144:\n      mload(0x40)\n      tag_146\n      swap2\n      swap1\n      tag_46\n      jump\t// in\n    tag_146:\n      mload(0x40)\n      dup1\n      swap2\n      sub\n      swap1\n      return\n        /* \"_ownable.sol\":2564:2779  function transferOwnership(address newOwner) public virtual onlyOwner {... */\n    tag_27:\n      callvalue\n      dup1\n      iszero\n      tag_147\n      jumpi\n      revert(0x00, 0x00)\n    tag_147:\n      pop\n      tag_148\n      0x04\n      dup1\n      calldatasize\n      sub\n      dup2\n      add\n      swap1\n      tag_149\n      swap2\n      swap1\n      tag_98\n      jump\t// in\n    tag_149:\n      tag_150\n      jump\t// in\n    tag_148:\n      stop\n        /* \"UniversalADs.sol\":691:728  Counters.Counter public _claimCounter */\n    tag_28:\n      callvalue\n      dup1\n      iszero\n      tag_151\n      jumpi\n      revert(0x00, 0x00)\n    tag_151:\n      pop\n      tag_152\n      tag_153\n      jump\t// in\n    tag_152:\n      mload(0x40)\n      tag_154\n      swap2\n      swap1\n      tag_46\n      jump\t// in\n    tag_154:\n      mload(0x40)\n      dup1\n      swap2\n      sub\n      swap1\n      return\n        /* \"UniversalADs.sol\":3988:4131  function updateClaimPercentage(uint256 _newVal) public onlyOwner returns (bool) {... */\n    tag_39:\n        /* \"UniversalADs.sol\":4062:4066  bool */\n      0x00\n        /* \"_ownable.sol\":1552:1565  _checkOwner() */\n      tag_156\n        /* \"_ownable.sol\":1552:1563  _checkOwner */\n      tag_157\n        /* \"_ownable.sol\":1552:1565  _checkOwner() */\n      jump\t// in\n    tag_156:\n        /* \"UniversalADs.sol\":4096:4103  _newVal */\n      dup2\n        /* \"UniversalADs.sol\":4078:4093  claimPercentage */\n      0x05\n        /* \"UniversalADs.sol\":4078:4103  claimPercentage = _newVal */\n      dup2\n      swap1\n      sstore\n      pop\n        /* \"UniversalADs.sol\":4120:4124  true */\n      0x01\n        /* \"UniversalADs.sol\":4113:4124  return true */\n      swap1\n      pop\n        /* \"UniversalADs.sol\":3988:4131  function updateClaimPercentage(uint256 _newVal) public onlyOwner returns (bool) {... */\n      swap2\n      swap1\n      pop\n      jump\t// out\n        /* \"UniversalADs.sol\":970:993  uint256 public duration */\n    tag_44:\n      sload(0x08)\n      dup2\n      jump\t// out\n        /* \"UniversalADs.sol\":4782:4879  function getBalance() public view returns (uint256) {... */\n    tag_49:\n        /* \"UniversalADs.sol\":4825:4832  uint256 */\n      0x00\n        /* \"UniversalADs.sol\":4851:4872  address(this).balance */\n      selfbalance\n        /* \"UniversalADs.sol\":4844:4872  return address(this).balance */\n      swap1\n      pop\n        /* \"UniversalADs.sol\":4782:4879  function getBalance() public view returns (uint256) {... */\n      swap1\n      jump\t// out\n        /* \"UniversalADs.sol\":1387:2422  function advertiser(... */\n    tag_54:\n        /* \"UniversalADs.sol\":1602:1606  bool */\n      0x00\n        /* \"UniversalADs.sol\":1620:1627  uint256 */\n      0x00\n        /* \"UniversalADs.sol\":1641:1648  uint256 */\n      0x00\n        /* \"_pausable.sol\":1495:1514  _requireNotPaused() */\n      tag_161\n        /* \"_pausable.sol\":1495:1512  _requireNotPaused */\n      tag_162\n        /* \"_pausable.sol\":1495:1514  _requireNotPaused() */\n      jump\t// in\n    tag_161:\n        /* \"UniversalADs.sol\":1699:1702  end */\n      sload(0x07)\n        /* \"UniversalADs.sol\":1681:1696  block.timestamp */\n      timestamp\n        /* \"UniversalADs.sol\":1681:1702  block.timestamp > end */\n      gt\n        /* \"UniversalADs.sol\":1673:1744  require(block.timestamp > end, \"There is an active ads. pls try later\") */\n      tag_164\n      jumpi\n      mload(0x40)\n      0x08c379a000000000000000000000000000000000000000000000000000000000\n      dup2\n      mstore\n      0x04\n      add\n      tag_165\n      swap1\n      tag_166\n      jump\t// in\n    tag_165:\n      mload(0x40)\n      dup1\n      swap2\n      sub\n      swap1\n      revert\n    tag_164:\n        /* \"UniversalADs.sol\":1775:1776  0 */\n      0x00\n        /* \"UniversalADs.sol\":1763:1772  _duration */\n      dup5\n        /* \"UniversalADs.sol\":1763:1776  _duration > 0 */\n      gt\n        /* \"UniversalADs.sol\":1755:1812  require(_duration > 0, \"Duration must be grather than 0\") */\n      tag_167\n      jumpi\n      mload(0x40)\n      0x08c379a000000000000000000000000000000000000000000000000000000000\n      dup2\n      mstore\n      0x04\n      add\n      tag_168\n      swap1\n      tag_169\n      jump\t// in\n    tag_168:\n      mload(0x40)\n      dup1\n      swap2\n      sub\n      swap1\n      revert\n    tag_167:\n        /* \"UniversalADs.sol\":1859:1874  block.timestamp */\n      timestamp\n        /* \"UniversalADs.sol\":1850:1856  _start */\n      dup8\n        /* \"UniversalADs.sol\":1850:1874  _start < block.timestamp */\n      lt\n        /* \"UniversalADs.sol\":1846:1904  if (_start < block.timestamp) return (false, _start, _end) */\n      iszero\n      tag_170\n      jumpi\n        /* \"UniversalADs.sol\":1884:1889  false */\n      0x00\n        /* \"UniversalADs.sol\":1891:1897  _start */\n      dup8\n        /* \"UniversalADs.sol\":1899:1903  _end */\n      dup8\n        /* \"UniversalADs.sol\":1876:1904  return (false, _start, _end) */\n      swap3\n      pop\n      swap3\n      pop\n      swap3\n      pop\n      jump(tag_163)\n        /* \"UniversalADs.sol\":1846:1904  if (_start < block.timestamp) return (false, _start, _end) */\n    tag_170:\n        /* \"UniversalADs.sol\":1947:1953  _start */\n      dup7\n        /* \"UniversalADs.sol\":1940:1944  _end */\n      dup7\n        /* \"UniversalADs.sol\":1940:1953  _end < _start */\n      lt\n        /* \"UniversalADs.sol\":1936:1983  if (_end < _start) return (false, _start, _end) */\n      iszero\n      tag_171\n      jumpi\n        /* \"UniversalADs.sol\":1963:1968  false */\n      0x00\n        /* \"UniversalADs.sol\":1970:1976  _start */\n      dup8\n        /* \"UniversalADs.sol\":1978:1982  _end */\n      dup8\n        /* \"UniversalADs.sol\":1955:1983  return (false, _start, _end) */\n      swap3\n      pop\n      swap3\n      pop\n      swap3\n      pop\n      jump(tag_163)\n        /* \"UniversalADs.sol\":1936:1983  if (_end < _start) return (false, _start, _end) */\n    tag_171:\n        /* \"UniversalADs.sol\":2018:2027  _duration */\n      dup4\n        /* \"UniversalADs.sol\":2010:2015  price */\n      sload(0x04)\n        /* \"UniversalADs.sol\":2010:2027  price * _duration */\n      tag_172\n      swap2\n      swap1\n      tag_173\n      jump\t// in\n    tag_172:\n        /* \"UniversalADs.sol\":1998:2007  msg.value */\n      callvalue\n        /* \"UniversalADs.sol\":1998:2027  msg.value < price * _duration */\n      lt\n        /* \"UniversalADs.sol\":1994:2068  if (msg.value < price * _duration) revert PriceNotMet(price, _msgSender()) */\n      iszero\n      tag_174\n      jumpi\n        /* \"UniversalADs.sol\":2048:2053  price */\n      sload(0x04)\n        /* \"UniversalADs.sol\":2055:2067  _msgSender() */\n      tag_175\n        /* \"UniversalADs.sol\":2055:2065  _msgSender */\n      tag_176\n        /* \"UniversalADs.sol\":2055:2067  _msgSender() */\n      jump\t// in\n    tag_175:\n        /* \"UniversalADs.sol\":2036:2068  PriceNotMet(price, _msgSender()) */\n      mload(0x40)\n      0xd42da64100000000000000000000000000000000000000000000000000000000\n      dup2\n      mstore\n      0x04\n      add\n      tag_177\n      swap3\n      swap2\n      swap1\n      tag_178\n      jump\t// in\n    tag_177:\n      mload(0x40)\n      dup1\n      swap2\n      sub\n      swap1\n      revert\n        /* \"UniversalADs.sol\":1994:2068  if (msg.value < price * _duration) revert PriceNotMet(price, _msgSender()) */\n    tag_174:\n        /* \"UniversalADs.sol\":2079:2095  uint256 ownerFee */\n      0x00\n        /* \"UniversalADs.sol\":2098:2128  calcPercentage(msg.value, fee) */\n      tag_179\n        /* \"UniversalADs.sol\":2113:2122  msg.value */\n      callvalue\n        /* \"UniversalADs.sol\":2124:2127  fee */\n      sload(0x03)\n        /* \"UniversalADs.sol\":2098:2112  calcPercentage */\n      tag_133\n        /* \"UniversalADs.sol\":2098:2128  calcPercentage(msg.value, fee) */\n      jump\t// in\n    tag_179:\n        /* \"UniversalADs.sol\":2079:2128  uint256 ownerFee = calcPercentage(msg.value, fee) */\n      swap1\n      pop\n        /* \"UniversalADs.sol\":2139:2151  bool success */\n      0x00\n        /* \"UniversalADs.sol\":2157:2164  owner() */\n      tag_180\n        /* \"UniversalADs.sol\":2157:2162  owner */\n      tag_117\n        /* \"UniversalADs.sol\":2157:2164  owner() */\n      jump\t// in\n    tag_180:\n        /* \"UniversalADs.sol\":2157:2169  owner().call */\n      0xffffffffffffffffffffffffffffffffffffffff\n      and\n        /* \"UniversalADs.sol\":2177:2185  ownerFee */\n      dup3\n        /* \"UniversalADs.sol\":2157:2190  owner().call{value: ownerFee}(\"\") */\n      mload(0x40)\n      tag_181\n      swap1\n      tag_182\n      jump\t// in\n    tag_181:\n      0x00\n      mload(0x40)\n      dup1\n      dup4\n      sub\n      dup2\n      dup6\n      dup8\n      gas\n      call\n      swap3\n      pop\n      pop\n      pop\n      returndatasize\n      dup1\n      0x00\n      dup2\n      eq\n      tag_185\n      jumpi\n      mload(0x40)\n      swap2\n      pop\n      and(add(returndatasize, 0x3f), not(0x1f))\n      dup3\n      add\n      0x40\n      mstore\n      returndatasize\n      dup3\n      mstore\n      returndatasize\n      0x00\n      0x20\n      dup5\n      add\n      returndatacopy\n      jump(tag_184)\n    tag_185:\n      0x60\n      swap2\n      pop\n    tag_184:\n      pop\n        /* \"UniversalADs.sol\":2138:2190  (bool success, ) = owner().call{value: ownerFee}(\"\") */\n      pop\n      swap1\n      pop\n        /* \"UniversalADs.sol\":2208:2215  success */\n      dup1\n        /* \"UniversalADs.sol\":2200:2240  require(success, \"Failed to send Ether\") */\n      tag_186\n      jumpi\n      mload(0x40)\n      0x08c379a000000000000000000000000000000000000000000000000000000000\n      dup2\n      mstore\n      0x04\n      add\n      tag_187\n      swap1\n      tag_188\n      jump\t// in\n    tag_187:\n      mload(0x40)\n      dup1\n      swap2\n      sub\n      swap1\n      revert\n    tag_186:\n        /* \"UniversalADs.sol\":2259:2265  _start */\n      dup9\n        /* \"UniversalADs.sol\":2251:2256  start */\n      0x06\n        /* \"UniversalADs.sol\":2251:2265  start = _start */\n      dup2\n      swap1\n      sstore\n      pop\n        /* \"UniversalADs.sol\":2281:2285  _end */\n      dup8\n        /* \"UniversalADs.sol\":2275:2278  end */\n      0x07\n        /* \"UniversalADs.sol\":2275:2285  end = _end */\n      dup2\n      swap1\n      sstore\n      pop\n        /* \"UniversalADs.sol\":2306:2315  _duration */\n      dup6\n        /* \"UniversalADs.sol\":2295:2303  duration */\n      0x08\n        /* \"UniversalADs.sol\":2295:2315  duration = _duration */\n      dup2\n      swap1\n      sstore\n      pop\n        /* \"UniversalADs.sol\":2335:2347  _msgSender() */\n      tag_189\n        /* \"UniversalADs.sol\":2335:2345  _msgSender */\n      tag_176\n        /* \"UniversalADs.sol\":2335:2347  _msgSender() */\n      jump\t// in\n    tag_189:\n        /* \"UniversalADs.sol\":2325:2332  manager */\n      0x09\n      0x00\n        /* \"UniversalADs.sol\":2325:2347  manager = _msgSender() */\n      0x0100\n      exp\n      dup2\n      sload\n      dup2\n      0xffffffffffffffffffffffffffffffffffffffff\n      mul\n      not\n      and\n      swap1\n      dup4\n      0xffffffffffffffffffffffffffffffffffffffff\n      and\n      mul\n      or\n      swap1\n      sstore\n      pop\n        /* \"UniversalADs.sol\":2368:2377  _metadata */\n      dup7\n        /* \"UniversalADs.sol\":2357:2365  metadata */\n      0x0a\n        /* \"UniversalADs.sol\":2357:2377  metadata = _metadata */\n      swap1\n      dup2\n      tag_190\n      swap2\n      swap1\n      tag_191\n      jump\t// in\n    tag_190:\n      pop\n        /* \"UniversalADs.sol\":2396:2400  true */\n      0x01\n        /* \"UniversalADs.sol\":2402:2408  _start */\n      dup10\n        /* \"UniversalADs.sol\":2410:2414  _end */\n      dup10\n        /* \"UniversalADs.sol\":2388:2415  return (true, _start, _end) */\n      swap5\n      pop\n      swap5\n      pop\n      swap5\n      pop\n      pop\n      pop\n        /* \"_pausable.sol\":1524:1525  _ */\n    tag_163:\n        /* \"UniversalADs.sol\":1387:2422  function advertiser(... */\n      swap5\n      pop\n      swap5\n      pop\n      swap5\n      swap2\n      pop\n      pop\n      jump\t// out\n        /* \"UniversalADs.sol\":5065:5150  function time() public view returns (uint256) {... */\n    tag_59:\n        /* \"UniversalADs.sol\":5102:5109  uint256 */\n      0x00\n        /* \"UniversalADs.sol\":5128:5143  block.timestamp */\n      timestamp\n        /* \"UniversalADs.sol\":5121:5143  return block.timestamp */\n      swap1\n      pop\n        /* \"UniversalADs.sol\":5065:5150  function time() public view returns (uint256) {... */\n      swap1\n      jump\t// out\n        /* \"UniversalADs.sol\":1027:1049  string public metadata */\n    tag_63:\n      0x0a\n      dup1\n      sload\n      tag_193\n      swap1\n      tag_194\n      jump\t// in\n    tag_193:\n      dup1\n      0x1f\n      add\n      0x20\n      dup1\n      swap2\n      div\n      mul\n      0x20\n      add\n      mload(0x40)\n      swap1\n      dup2\n      add\n      0x40\n      mstore\n      dup1\n      swap3\n      swap2\n      swap1\n      dup2\n      dup2\n      mstore\n      0x20\n      add\n      dup3\n      dup1\n      sload\n      tag_195\n      swap1\n      tag_194\n      jump\t// in\n    tag_195:\n      dup1\n      iszero\n      tag_196\n      jumpi\n      dup1\n      0x1f\n      lt\n      tag_197\n      jumpi\n      0x0100\n      dup1\n      dup4\n      sload\n      div\n      mul\n      dup4\n      mstore\n      swap2\n      0x20\n      add\n      swap2\n      jump(tag_196)\n    tag_197:\n      dup3\n      add\n      swap2\n      swap1\n      0x00\n      mstore\n      keccak256(0x00, 0x20)\n      swap1\n    tag_198:\n      dup2\n      sload\n      dup2\n      mstore\n      swap1\n      0x01\n      add\n      swap1\n      0x20\n      add\n      dup1\n      dup4\n      gt\n      tag_198\n      jumpi\n      dup3\n      swap1\n      sub\n      0x1f\n      and\n      dup3\n      add\n      swap2\n    tag_196:\n      pop\n      pop\n      pop\n      pop\n      pop\n      dup2\n      jump\t// out\n        /* \"UniversalADs.sol\":4231:4421  function withdraw() public onlyOwner {... */\n    tag_68:\n        /* \"_ownable.sol\":1552:1565  _checkOwner() */\n      tag_200\n        /* \"_ownable.sol\":1552:1563  _checkOwner */\n      tag_157\n        /* \"_ownable.sol\":1552:1565  _checkOwner() */\n      jump\t// in\n    tag_200:\n        /* \"UniversalADs.sol\":4278:4293  uint256 _amount */\n      0x00\n        /* \"UniversalADs.sol\":4296:4317  address(this).balance */\n      selfbalance\n        /* \"UniversalADs.sol\":4278:4317  uint256 _amount = address(this).balance */\n      swap1\n      pop\n        /* \"UniversalADs.sol\":4328:4340  bool success */\n      0x00\n        /* \"UniversalADs.sol\":4346:4353  owner() */\n      tag_202\n        /* \"UniversalADs.sol\":4346:4351  owner */\n      tag_117\n        /* \"UniversalADs.sol\":4346:4353  owner() */\n      jump\t// in\n    tag_202:\n        /* \"UniversalADs.sol\":4346:4358  owner().call */\n      0xffffffffffffffffffffffffffffffffffffffff\n      and\n        /* \"UniversalADs.sol\":4366:4373  _amount */\n      dup3\n        /* \"UniversalADs.sol\":4346:4378  owner().call{value: _amount}(\"\") */\n      mload(0x40)\n      tag_203\n      swap1\n      tag_182\n      jump\t// in\n    tag_203:\n      0x00\n      mload(0x40)\n      dup1\n      dup4\n      sub\n      dup2\n      dup6\n      dup8\n      gas\n      call\n      swap3\n      pop\n      pop\n      pop\n      returndatasize\n      dup1\n      0x00\n      dup2\n      eq\n      tag_206\n      jumpi\n      mload(0x40)\n      swap2\n      pop\n      and(add(returndatasize, 0x3f), not(0x1f))\n      dup3\n      add\n      0x40\n      mstore\n      returndatasize\n      dup3\n      mstore\n      returndatasize\n      0x00\n      0x20\n      dup5\n      add\n      returndatacopy\n      jump(tag_205)\n    tag_206:\n      0x60\n      swap2\n      pop\n    tag_205:\n      pop\n        /* \"UniversalADs.sol\":4327:4378  (bool success, ) = owner().call{value: _amount}(\"\") */\n      pop\n      swap1\n      pop\n        /* \"UniversalADs.sol\":4396:4403  success */\n      dup1\n        /* \"UniversalADs.sol\":4388:4414  require(success, \"Failed\") */\n      tag_207\n      jumpi\n      mload(0x40)\n      0x08c379a000000000000000000000000000000000000000000000000000000000\n      dup2\n      mstore\n      0x04\n      add\n      tag_208\n      swap1\n      tag_209\n      jump\t// in\n    tag_208:\n      mload(0x40)\n      dup1\n      swap2\n      sub\n      swap1\n      revert\n    tag_207:\n        /* \"UniversalADs.sol\":4268:4421  {... */\n      pop\n      pop\n        /* \"UniversalADs.sol\":4231:4421  function withdraw() public onlyOwner {... */\n      jump\t// out\n        /* \"UniversalADs.sol\":4996:5059  function unpause() public onlyOwner {... */\n    tag_71:\n        /* \"_ownable.sol\":1552:1565  _checkOwner() */\n      tag_211\n        /* \"_ownable.sol\":1552:1563  _checkOwner */\n      tag_157\n        /* \"_ownable.sol\":1552:1565  _checkOwner() */\n      jump\t// in\n    tag_211:\n        /* \"UniversalADs.sol\":5042:5052  _unpause() */\n      tag_213\n        /* \"UniversalADs.sol\":5042:5050  _unpause */\n      tag_214\n        /* \"UniversalADs.sol\":5042:5052  _unpause() */\n      jump\t// in\n    tag_213:\n        /* \"UniversalADs.sol\":4996:5059  function unpause() public onlyOwner {... */\n      jump\t// out\n        /* \"UniversalADs.sol\":999:1021  address public manager */\n    tag_74:\n      0x09\n      0x00\n      swap1\n      sload\n      swap1\n      0x0100\n      exp\n      swap1\n      div\n      0xffffffffffffffffffffffffffffffffffffffff\n      and\n      dup2\n      jump\t// out\n        /* \"UniversalADs.sol\":2449:3267  function claim() public whenNotPaused returns (bool) {... */\n    tag_79:\n        /* \"UniversalADs.sol\":2496:2500  bool */\n      0x00\n        /* \"_pausable.sol\":1495:1514  _requireNotPaused() */\n      tag_216\n        /* \"_pausable.sol\":1495:1512  _requireNotPaused */\n      tag_162\n        /* \"_pausable.sol\":1495:1514  _requireNotPaused() */\n      jump\t// in\n    tag_216:\n        /* \"UniversalADs.sol\":2689:2704  block.timestamp */\n      timestamp\n        /* \"UniversalADs.sol\":2681:2686  start */\n      sload(0x06)\n        /* \"UniversalADs.sol\":2681:2704  start > block.timestamp */\n      gt\n        /* \"UniversalADs.sol\":2672:2718  require (start > block.timestamp, \"Too early\") */\n      tag_218\n      jumpi\n      mload(0x40)\n      0x08c379a000000000000000000000000000000000000000000000000000000000\n      dup2\n      mstore\n      0x04\n      add\n      tag_219\n      swap1\n      tag_220\n      jump\t// in\n    tag_219:\n      mload(0x40)\n      dup1\n      swap2\n      sub\n      swap1\n      revert\n    tag_218:\n        /* \"UniversalADs.sol\":2759:2760  0 */\n      0x00\n        /* \"UniversalADs.sol\":2732:2742  permission */\n      0x0b\n        /* \"UniversalADs.sol\":2732:2756  permission[_msgSender()] */\n      0x00\n        /* \"UniversalADs.sol\":2743:2755  _msgSender() */\n      tag_221\n        /* \"UniversalADs.sol\":2743:2753  _msgSender */\n      tag_176\n        /* \"UniversalADs.sol\":2743:2755  _msgSender() */\n      jump\t// in\n    tag_221:\n        /* \"UniversalADs.sol\":2732:2756  permission[_msgSender()] */\n      0xffffffffffffffffffffffffffffffffffffffff\n      and\n      0xffffffffffffffffffffffffffffffffffffffff\n      and\n      dup2\n      mstore\n      0x20\n      add\n      swap1\n      dup2\n      mstore\n      0x20\n      add\n      0x00\n      keccak256\n      sload\n        /* \"UniversalADs.sol\":2732:2760  permission[_msgSender()] > 0 */\n      gt\n        /* \"UniversalADs.sol\":2732:2796  permission[_msgSender()] > 0 && permission[_msgSender()] > start */\n      dup1\n      iszero\n      tag_222\n      jumpi\n      pop\n        /* \"UniversalADs.sol\":2791:2796  start */\n      sload(0x06)\n        /* \"UniversalADs.sol\":2764:2774  permission */\n      0x0b\n        /* \"UniversalADs.sol\":2764:2788  permission[_msgSender()] */\n      0x00\n        /* \"UniversalADs.sol\":2775:2787  _msgSender() */\n      tag_223\n        /* \"UniversalADs.sol\":2775:2785  _msgSender */\n      tag_176\n        /* \"UniversalADs.sol\":2775:2787  _msgSender() */\n      jump\t// in\n    tag_223:\n        /* \"UniversalADs.sol\":2764:2788  permission[_msgSender()] */\n      0xffffffffffffffffffffffffffffffffffffffff\n      and\n      0xffffffffffffffffffffffffffffffffffffffff\n      and\n      dup2\n      mstore\n      0x20\n      add\n      swap1\n      dup2\n      mstore\n      0x20\n      add\n      0x00\n      keccak256\n      sload\n        /* \"UniversalADs.sol\":2764:2796  permission[_msgSender()] > start */\n      gt\n        /* \"UniversalADs.sol\":2732:2796  permission[_msgSender()] > 0 && permission[_msgSender()] > start */\n    tag_222:\n        /* \"UniversalADs.sol\":2728:2849  if (permission[_msgSender()] > 0 && permission[_msgSender()] > start) revert UserClaimedAlready(permission[_msgSender()]) */\n      iszero\n      tag_224\n      jumpi\n        /* \"UniversalADs.sol\":2824:2834  permission */\n      0x0b\n        /* \"UniversalADs.sol\":2824:2848  permission[_msgSender()] */\n      0x00\n        /* \"UniversalADs.sol\":2835:2847  _msgSender() */\n      tag_225\n        /* \"UniversalADs.sol\":2835:2845  _msgSender */\n      tag_176\n        /* \"UniversalADs.sol\":2835:2847  _msgSender() */\n      jump\t// in\n    tag_225:\n        /* \"UniversalADs.sol\":2824:2848  permission[_msgSender()] */\n      0xffffffffffffffffffffffffffffffffffffffff\n      and\n      0xffffffffffffffffffffffffffffffffffffffff\n      and\n      dup2\n      mstore\n      0x20\n      add\n      swap1\n      dup2\n      mstore\n      0x20\n      add\n      0x00\n      keccak256\n      sload\n        /* \"UniversalADs.sol\":2805:2849  UserClaimedAlready(permission[_msgSender()]) */\n      mload(0x40)\n      0x8bd6eb1a00000000000000000000000000000000000000000000000000000000\n      dup2\n      mstore\n      0x04\n      add\n      tag_226\n      swap2\n      swap1\n      tag_46\n      jump\t// in\n    tag_226:\n      mload(0x40)\n      dup1\n      swap2\n      sub\n      swap1\n      revert\n        /* \"UniversalADs.sol\":2728:2849  if (permission[_msgSender()] > 0 && permission[_msgSender()] > start) revert UserClaimedAlready(permission[_msgSender()]) */\n    tag_224:\n        /* \"UniversalADs.sol\":2860:2885  _claimCounter.increment() */\n      tag_227\n        /* \"UniversalADs.sol\":2860:2873  _claimCounter */\n      0x01\n        /* \"UniversalADs.sol\":2860:2883  _claimCounter.increment */\n      tag_228\n        /* \"UniversalADs.sol\":2860:2885  _claimCounter.increment() */\n      jump\t// in\n    tag_227:\n        /* \"UniversalADs.sol\":2922:2937  block.timestamp */\n      timestamp\n        /* \"UniversalADs.sol\":2895:2905  permission */\n      0x0b\n        /* \"UniversalADs.sol\":2895:2919  permission[_msgSender()] */\n      0x00\n        /* \"UniversalADs.sol\":2906:2918  _msgSender() */\n      tag_229\n        /* \"UniversalADs.sol\":2906:2916  _msgSender */\n      tag_176\n        /* \"UniversalADs.sol\":2906:2918  _msgSender() */\n      jump\t// in\n    tag_229:\n        /* \"UniversalADs.sol\":2895:2919  permission[_msgSender()] */\n      0xffffffffffffffffffffffffffffffffffffffff\n      and\n      0xffffffffffffffffffffffffffffffffffffffff\n      and\n      dup2\n      mstore\n      0x20\n      add\n      swap1\n      dup2\n      mstore\n      0x20\n      add\n      0x00\n      keccak256\n        /* \"UniversalADs.sol\":2895:2937  permission[_msgSender()] = block.timestamp */\n      dup2\n      swap1\n      sstore\n      pop\n        /* \"UniversalADs.sol\":2983:3002  uint256 claimAmount */\n      0x00\n        /* \"UniversalADs.sol\":3005:3059  calcPercentage(address(this).balance, claimPercentage) */\n      tag_230\n        /* \"UniversalADs.sol\":3020:3041  address(this).balance */\n      selfbalance\n        /* \"UniversalADs.sol\":3043:3058  claimPercentage */\n      sload(0x05)\n        /* \"UniversalADs.sol\":3005:3019  calcPercentage */\n      tag_133\n        /* \"UniversalADs.sol\":3005:3059  calcPercentage(address(this).balance, claimPercentage) */\n      jump\t// in\n    tag_230:\n        /* \"UniversalADs.sol\":2983:3059  uint256 claimAmount = calcPercentage(address(this).balance, claimPercentage) */\n      swap1\n      pop\n        /* \"UniversalADs.sol\":3070:3082  bool success */\n      0x00\n        /* \"UniversalADs.sol\":3088:3095  manager */\n      0x09\n      0x00\n      swap1\n      sload\n      swap1\n      0x0100\n      exp\n      swap1\n      div\n      0xffffffffffffffffffffffffffffffffffffffff\n      and\n        /* \"UniversalADs.sol\":3088:3100  manager.call */\n      0xffffffffffffffffffffffffffffffffffffffff\n      and\n        /* \"UniversalADs.sol\":3108:3119  claimAmount */\n      dup3\n        /* \"UniversalADs.sol\":3088:3124  manager.call{value: claimAmount}(\"\") */\n      mload(0x40)\n      tag_231\n      swap1\n      tag_182\n      jump\t// in\n    tag_231:\n      0x00\n      mload(0x40)\n      dup1\n      dup4\n      sub\n      dup2\n      dup6\n      dup8\n      gas\n      call\n      swap3\n      pop\n      pop\n      pop\n      returndatasize\n      dup1\n      0x00\n      dup2\n      eq\n      tag_234\n      jumpi\n      mload(0x40)\n      swap2\n      pop\n      and(add(returndatasize, 0x3f), not(0x1f))\n      dup3\n      add\n      0x40\n      mstore\n      returndatasize\n      dup3\n      mstore\n      returndatasize\n      0x00\n      0x20\n      dup5\n      add\n      returndatacopy\n      jump(tag_233)\n    tag_234:\n      0x60\n      swap2\n      pop\n    tag_233:\n      pop\n        /* \"UniversalADs.sol\":3069:3124  (bool success, ) = manager.call{value: claimAmount}(\"\") */\n      pop\n      swap1\n      pop\n        /* \"UniversalADs.sol\":3142:3149  success */\n      dup1\n        /* \"UniversalADs.sol\":3134:3174  require(success, \"Failed to send Ether\") */\n      tag_235\n      jumpi\n      mload(0x40)\n      0x08c379a000000000000000000000000000000000000000000000000000000000\n      dup2\n      mstore\n      0x04\n      add\n      tag_236\n      swap1\n      tag_188\n      jump\t// in\n    tag_236:\n      mload(0x40)\n      dup1\n      swap2\n      sub\n      swap1\n      revert\n    tag_235:\n        /* \"UniversalADs.sol\":3204:3238  Claimed(_msgSender(), claimAmount) */\n      0xd8138f8a3f377c5259ca548e70e4c2de94f129f5a11036a15b69513cba2b426a\n        /* \"UniversalADs.sol\":3212:3224  _msgSender() */\n      tag_237\n        /* \"UniversalADs.sol\":3212:3222  _msgSender */\n      tag_176\n        /* \"UniversalADs.sol\":3212:3224  _msgSender() */\n      jump\t// in\n    tag_237:\n        /* \"UniversalADs.sol\":3226:3237  claimAmount */\n      dup4\n        /* \"UniversalADs.sol\":3204:3238  Claimed(_msgSender(), claimAmount) */\n      mload(0x40)\n      tag_238\n      swap3\n      swap2\n      swap1\n      tag_239\n      jump\t// in\n    tag_238:\n      mload(0x40)\n      dup1\n      swap2\n      sub\n      swap1\n      log1\n        /* \"UniversalADs.sol\":3256:3260  true */\n      0x01\n        /* \"UniversalADs.sol\":3249:3260  return true */\n      swap3\n      pop\n      pop\n      pop\n        /* \"UniversalADs.sol\":2449:3267  function claim() public whenNotPaused returns (bool) {... */\n      swap1\n      jump\t// out\n        /* \"UniversalADs.sol\":4495:4724  function transferBalance(address payable _to, uint256 _amount) public onlyOwner {... */\n    tag_85:\n        /* \"_ownable.sol\":1552:1565  _checkOwner() */\n      tag_241\n        /* \"_ownable.sol\":1552:1563  _checkOwner */\n      tag_157\n        /* \"_ownable.sol\":1552:1565  _checkOwner() */\n      jump\t// in\n    tag_241:\n        /* \"UniversalADs.sol\":4635:4647  bool success */\n      0x00\n        /* \"UniversalADs.sol\":4653:4656  _to */\n      dup3\n        /* \"UniversalADs.sol\":4653:4661  _to.call */\n      0xffffffffffffffffffffffffffffffffffffffff\n      and\n        /* \"UniversalADs.sol\":4669:4676  _amount */\n      dup3\n        /* \"UniversalADs.sol\":4653:4681  _to.call{value: _amount}(\"\") */\n      mload(0x40)\n      tag_243\n      swap1\n      tag_182\n      jump\t// in\n    tag_243:\n      0x00\n      mload(0x40)\n      dup1\n      dup4\n      sub\n      dup2\n      dup6\n      dup8\n      gas\n      call\n      swap3\n      pop\n      pop\n      pop\n      returndatasize\n      dup1\n      0x00\n      dup2\n      eq\n      tag_246\n      jumpi\n      mload(0x40)\n      swap2\n      pop\n      and(add(returndatasize, 0x3f), not(0x1f))\n      dup3\n      add\n      0x40\n      mstore\n      returndatasize\n      dup3\n      mstore\n      returndatasize\n      0x00\n      0x20\n      dup5\n      add\n      returndatacopy\n      jump(tag_245)\n    tag_246:\n      0x60\n      swap2\n      pop\n    tag_245:\n      pop\n        /* \"UniversalADs.sol\":4634:4681  (bool success, ) = _to.call{value: _amount}(\"\") */\n      pop\n      swap1\n      pop\n        /* \"UniversalADs.sol\":4699:4706  success */\n      dup1\n        /* \"UniversalADs.sol\":4691:4717  require(success, \"Failed\") */\n      tag_247\n      jumpi\n      mload(0x40)\n      0x08c379a000000000000000000000000000000000000000000000000000000000\n      dup2\n      mstore\n      0x04\n      add\n      tag_248\n      swap1\n      tag_209\n      jump\t// in\n    tag_248:\n      mload(0x40)\n      dup1\n      swap2\n      sub\n      swap1\n      revert\n    tag_247:\n        /* \"UniversalADs.sol\":4575:4724  {... */\n      pop\n        /* \"UniversalADs.sol\":4495:4724  function transferBalance(address payable _to, uint256 _amount) public onlyOwner {... */\n      pop\n      pop\n      jump\t// out\n        /* \"UniversalADs.sol\":1129:1381  function getAD()... */\n    tag_88:\n        /* \"UniversalADs.sol\":1204:1211  uint256 */\n      0x00\n        /* \"UniversalADs.sol\":1225:1232  uint256 */\n      0x00\n        /* \"UniversalADs.sol\":1246:1253  uint256 */\n      0x00\n        /* \"UniversalADs.sol\":1267:1274  address */\n      0x00\n        /* \"UniversalADs.sol\":1288:1301  string memory */\n      0x60\n        /* \"UniversalADs.sol\":1334:1339  start */\n      sload(0x06)\n        /* \"UniversalADs.sol\":1341:1344  end */\n      sload(0x07)\n        /* \"UniversalADs.sol\":1346:1354  duration */\n      sload(0x08)\n        /* \"UniversalADs.sol\":1356:1363  manager */\n      0x09\n      0x00\n      swap1\n      sload\n      swap1\n      0x0100\n      exp\n      swap1\n      div\n      0xffffffffffffffffffffffffffffffffffffffff\n      and\n        /* \"UniversalADs.sol\":1365:1373  metadata */\n      0x0a\n        /* \"UniversalADs.sol\":1326:1374  return (start, end, duration, manager, metadata) */\n      dup1\n      dup1\n      sload\n      tag_250\n      swap1\n      tag_194\n      jump\t// in\n    tag_250:\n      dup1\n      0x1f\n      add\n      0x20\n      dup1\n      swap2\n      div\n      mul\n      0x20\n      add\n      mload(0x40)\n      swap1\n      dup2\n      add\n      0x40\n      mstore\n      dup1\n      swap3\n      swap2\n      swap1\n      dup2\n      dup2\n      mstore\n      0x20\n      add\n      dup3\n      dup1\n      sload\n      tag_251\n      swap1\n      tag_194\n      jump\t// in\n    tag_251:\n      dup1\n      iszero\n      tag_252\n      jumpi\n      dup1\n      0x1f\n      lt\n      tag_253\n      jumpi\n      0x0100\n      dup1\n      dup4\n      sload\n      div\n      mul\n      dup4\n      mstore\n      swap2\n      0x20\n      add\n      swap2\n      jump(tag_252)\n    tag_253:\n      dup3\n      add\n      swap2\n      swap1\n      0x00\n      mstore\n      keccak256(0x00, 0x20)\n      swap1\n    tag_254:\n      dup2\n      sload\n      dup2\n      mstore\n      swap1\n      0x01\n      add\n      swap1\n      0x20\n      add\n      dup1\n      dup4\n      gt\n      tag_254\n      jumpi\n      dup3\n      swap1\n      sub\n      0x1f\n      and\n      dup3\n      add\n      swap2\n    tag_252:\n      pop\n      pop\n      pop\n      pop\n      pop\n      swap1\n      pop\n      swap5\n      pop\n      swap5\n      pop\n      swap5\n      pop\n      swap5\n      pop\n      swap5\n      pop\n        /* \"UniversalADs.sol\":1129:1381  function getAD()... */\n      swap1\n      swap2\n      swap3\n      swap4\n      swap5\n      jump\t// out\n        /* \"_pausable.sol\":1871:1955  function paused() public view virtual returns (bool) {... */\n    tag_93:\n        /* \"_pausable.sol\":1918:1922  bool */\n      0x00\n        /* \"_pausable.sol\":1941:1948  _paused */\n      0x00\n      0x14\n      swap1\n      sload\n      swap1\n      0x0100\n      exp\n      swap1\n      div\n      0xff\n      and\n        /* \"_pausable.sol\":1934:1948  return _paused */\n      swap1\n      pop\n        /* \"_pausable.sol\":1871:1955  function paused() public view virtual returns (bool) {... */\n      swap1\n      jump\t// out\n        /* \"UniversalADs.sol\":1055:1100  mapping(address => uint256) public permission */\n    tag_99:\n      mstore(0x20, 0x0b)\n      dup1\n      0x00\n      mstore\n      keccak256(0x00, 0x40)\n      0x00\n      swap2\n      pop\n      swap1\n      pop\n      sload\n      dup2\n      jump\t// out\n        /* \"_ownable.sol\":2314:2415  function renounceOwnership() public virtual onlyOwner {... */\n    tag_103:\n        /* \"_ownable.sol\":1552:1565  _checkOwner() */\n      tag_257\n        /* \"_ownable.sol\":1552:1563  _checkOwner */\n      tag_157\n        /* \"_ownable.sol\":1552:1565  _checkOwner() */\n      jump\t// in\n    tag_257:\n        /* \"_ownable.sol\":2378:2408  _transferOwnership(address(0)) */\n      tag_259\n        /* \"_ownable.sol\":2405:2406  0 */\n      0x00\n        /* \"_ownable.sol\":2378:2396  _transferOwnership */\n      tag_260\n        /* \"_ownable.sol\":2378:2408  _transferOwnership(address(0)) */\n      jump\t// in\n    tag_259:\n        /* \"_ownable.sol\":2314:2415  function renounceOwnership() public virtual onlyOwner {... */\n      jump\t// out\n        /* \"UniversalADs.sol\":734:771  uint256 public requiredFollowers = 20 */\n    tag_106:\n      sload(0x02)\n      dup2\n      jump\t// out\n        /* \"UniversalADs.sol\":865:899  uint256 public claimPercentage = 2 */\n    tag_110:\n      sload(0x05)\n      dup2\n      jump\t// out\n        /* \"UniversalADs.sol\":4907:4966  function pause() public onlyOwner {... */\n    tag_114:\n        /* \"_ownable.sol\":1552:1565  _checkOwner() */\n      tag_262\n        /* \"_ownable.sol\":1552:1563  _checkOwner */\n      tag_157\n        /* \"_ownable.sol\":1552:1565  _checkOwner() */\n      jump\t// in\n    tag_262:\n        /* \"UniversalADs.sol\":4951:4959  _pause() */\n      tag_264\n        /* \"UniversalADs.sol\":4951:4957  _pause */\n      tag_265\n        /* \"UniversalADs.sol\":4951:4959  _pause() */\n      jump\t// in\n    tag_264:\n        /* \"UniversalADs.sol\":4907:4966  function pause() public onlyOwner {... */\n      jump\t// out\n        /* \"_ownable.sol\":1659:1744  function owner() public view virtual returns (address) {... */\n    tag_117:\n        /* \"_ownable.sol\":1705:1712  address */\n      0x00\n        /* \"_ownable.sol\":1731:1737  _owner */\n      0x00\n      0x00\n      swap1\n      sload\n      swap1\n      0x0100\n      exp\n      swap1\n      div\n      0xffffffffffffffffffffffffffffffffffffffff\n      and\n        /* \"_ownable.sol\":1724:1737  return _owner */\n      swap1\n      pop\n        /* \"_ownable.sol\":1659:1744  function owner() public view virtual returns (address) {... */\n      swap1\n      jump\t// out\n        /* \"UniversalADs.sol\":3626:3941  function updateAD(... */\n    tag_123:\n        /* \"UniversalADs.sol\":3755:3759  bool */\n      0x00\n        /* \"_ownable.sol\":1552:1565  _checkOwner() */\n      tag_268\n        /* \"_ownable.sol\":1552:1563  _checkOwner */\n      tag_157\n        /* \"_ownable.sol\":1552:1565  _checkOwner() */\n      jump\t// in\n    tag_268:\n        /* \"UniversalADs.sol\":3831:3837  _start */\n      dup4\n        /* \"UniversalADs.sol\":3823:3828  start */\n      0x06\n        /* \"UniversalADs.sol\":3823:3837  start = _start */\n      dup2\n      swap1\n      sstore\n      pop\n        /* \"UniversalADs.sol\":3853:3857  _end */\n      dup3\n        /* \"UniversalADs.sol\":3847:3850  end */\n      0x07\n        /* \"UniversalADs.sol\":3847:3857  end = _end */\n      dup2\n      swap1\n      sstore\n      pop\n        /* \"UniversalADs.sol\":3878:3887  _metadata */\n      dup2\n        /* \"UniversalADs.sol\":3867:3875  metadata */\n      0x0a\n        /* \"UniversalADs.sol\":3867:3887  metadata = _metadata */\n      swap1\n      dup2\n      tag_270\n      swap2\n      swap1\n      tag_191\n      jump\t// in\n    tag_270:\n      pop\n        /* \"UniversalADs.sol\":3930:3934  true */\n      0x01\n        /* \"UniversalADs.sol\":3923:3934  return true */\n      swap1\n      pop\n        /* \"UniversalADs.sol\":3626:3941  function updateAD(... */\n      swap4\n      swap3\n      pop\n      pop\n      pop\n      jump\t// out\n        /* \"UniversalADs.sol\":818:848  uint256 public price = 1 ether */\n    tag_127:\n      sload(0x04)\n      dup2\n      jump\t// out\n        /* \"UniversalADs.sol\":3412:3582  function calcPercentage(uint256 _amount, uint256 bps) public pure returns (uint256) {... */\n    tag_133:\n        /* \"UniversalADs.sol\":3487:3494  uint256 */\n      0x00\n        /* \"UniversalADs.sol\":3533:3536  100 */\n      0x64\n        /* \"UniversalADs.sol\":3525:3528  bps */\n      dup3\n        /* \"UniversalADs.sol\":3515:3522  _amount */\n      dup5\n        /* \"UniversalADs.sol\":3515:3528  _amount * bps */\n      tag_272\n      swap2\n      swap1\n      tag_173\n      jump\t// in\n    tag_272:\n        /* \"UniversalADs.sol\":3514:3536  (_amount * bps) >= 100 */\n      lt\n      iszero\n        /* \"UniversalADs.sol\":3506:3537  require((_amount * bps) >= 100) */\n      tag_273\n      jumpi\n      revert(0x00, 0x00)\n    tag_273:\n        /* \"UniversalADs.sol\":3572:3575  100 */\n      0x64\n        /* \"UniversalADs.sol\":3565:3568  bps */\n      dup3\n        /* \"UniversalADs.sol\":3555:3562  _amount */\n      dup5\n        /* \"UniversalADs.sol\":3555:3568  _amount * bps */\n      tag_274\n      swap2\n      swap1\n      tag_173\n      jump\t// in\n    tag_274:\n        /* \"UniversalADs.sol\":3554:3575  (_amount * bps) / 100 */\n      tag_275\n      swap2\n      swap1\n      tag_276\n      jump\t// in\n    tag_275:\n        /* \"UniversalADs.sol\":3547:3575  return (_amount * bps) / 100 */\n      swap1\n      pop\n        /* \"UniversalADs.sol\":3412:3582  function calcPercentage(uint256 _amount, uint256 bps) public pure returns (uint256) {... */\n      swap3\n      swap2\n      pop\n      pop\n      jump\t// out\n        /* \"UniversalADs.sol\":920:940  uint256 public start */\n    tag_137:\n      sload(0x06)\n      dup2\n      jump\t// out\n        /* \"UniversalADs.sol\":777:799  uint256 public fee = 4 */\n    tag_141:\n      sload(0x03)\n      dup2\n      jump\t// out\n        /* \"UniversalADs.sol\":946:964  uint256 public end */\n    tag_145:\n      sload(0x07)\n      dup2\n      jump\t// out\n        /* \"_ownable.sol\":2564:2779  function transferOwnership(address newOwner) public virtual onlyOwner {... */\n    tag_150:\n        /* \"_ownable.sol\":1552:1565  _checkOwner() */\n      tag_278\n        /* \"_ownable.sol\":1552:1563  _checkOwner */\n      tag_157\n        /* \"_ownable.sol\":1552:1565  _checkOwner() */\n      jump\t// in\n    tag_278:\n        /* \"_ownable.sol\":2668:2669  0 */\n      0x00\n        /* \"_ownable.sol\":2648:2670  newOwner == address(0) */\n      0xffffffffffffffffffffffffffffffffffffffff\n      and\n        /* \"_ownable.sol\":2648:2656  newOwner */\n      dup2\n        /* \"_ownable.sol\":2648:2670  newOwner == address(0) */\n      0xffffffffffffffffffffffffffffffffffffffff\n      and\n      sub\n        /* \"_ownable.sol\":2644:2735  if (newOwner == address(0)) {... */\n      tag_280\n      jumpi\n        /* \"_ownable.sol\":2721:2722  0 */\n      0x00\n        /* \"_ownable.sol\":2693:2724  OwnableInvalidOwner(address(0)) */\n      mload(0x40)\n      0x1e4fbdf700000000000000000000000000000000000000000000000000000000\n      dup2\n      mstore\n      0x04\n      add\n      tag_281\n      swap2\n      swap1\n      tag_76\n      jump\t// in\n    tag_281:\n      mload(0x40)\n      dup1\n      swap2\n      sub\n      swap1\n      revert\n        /* \"_ownable.sol\":2644:2735  if (newOwner == address(0)) {... */\n    tag_280:\n        /* \"_ownable.sol\":2744:2772  _transferOwnership(newOwner) */\n      tag_282\n        /* \"_ownable.sol\":2763:2771  newOwner */\n      dup2\n        /* \"_ownable.sol\":2744:2762  _transferOwnership */\n      tag_260\n        /* \"_ownable.sol\":2744:2772  _transferOwnership(newOwner) */\n      jump\t// in\n    tag_282:\n        /* \"_ownable.sol\":2564:2779  function transferOwnership(address newOwner) public virtual onlyOwner {... */\n      pop\n      jump\t// out\n        /* \"UniversalADs.sol\":691:728  Counters.Counter public _claimCounter */\n    tag_153:\n      0x01\n      dup1\n      0x00\n      add\n      sload\n      swap1\n      pop\n      dup2\n      jump\t// out\n        /* \"_ownable.sol\":1817:1979  function _checkOwner() internal view virtual {... */\n    tag_157:\n        /* \"_ownable.sol\":1887:1899  _msgSender() */\n      tag_284\n        /* \"_ownable.sol\":1887:1897  _msgSender */\n      tag_176\n        /* \"_ownable.sol\":1887:1899  _msgSender() */\n      jump\t// in\n    tag_284:\n        /* \"_ownable.sol\":1876:1899  owner() != _msgSender() */\n      0xffffffffffffffffffffffffffffffffffffffff\n      and\n        /* \"_ownable.sol\":1876:1883  owner() */\n      tag_285\n        /* \"_ownable.sol\":1876:1881  owner */\n      tag_117\n        /* \"_ownable.sol\":1876:1883  owner() */\n      jump\t// in\n    tag_285:\n        /* \"_ownable.sol\":1876:1899  owner() != _msgSender() */\n      0xffffffffffffffffffffffffffffffffffffffff\n      and\n      eq\n        /* \"_ownable.sol\":1872:1973  if (owner() != _msgSender()) {... */\n      tag_286\n      jumpi\n        /* \"_ownable.sol\":1949:1961  _msgSender() */\n      tag_287\n        /* \"_ownable.sol\":1949:1959  _msgSender */\n      tag_176\n        /* \"_ownable.sol\":1949:1961  _msgSender() */\n      jump\t// in\n    tag_287:\n        /* \"_ownable.sol\":1922:1962  OwnableUnauthorizedAccount(_msgSender()) */\n      mload(0x40)\n      0x118cdaa700000000000000000000000000000000000000000000000000000000\n      dup2\n      mstore\n      0x04\n      add\n      tag_288\n      swap2\n      swap1\n      tag_76\n      jump\t// in\n    tag_288:\n      mload(0x40)\n      dup1\n      swap2\n      sub\n      swap1\n      revert\n        /* \"_ownable.sol\":1872:1973  if (owner() != _msgSender()) {... */\n    tag_286:\n        /* \"_ownable.sol\":1817:1979  function _checkOwner() internal view virtual {... */\n      jump\t// out\n        /* \"_pausable.sol\":2023:2151  function _requireNotPaused() internal view virtual {... */\n    tag_162:\n        /* \"_pausable.sol\":2088:2096  paused() */\n      tag_290\n        /* \"_pausable.sol\":2088:2094  paused */\n      tag_93\n        /* \"_pausable.sol\":2088:2096  paused() */\n      jump\t// in\n    tag_290:\n        /* \"_pausable.sol\":2084:2145  if (paused()) {... */\n      iszero\n      tag_291\n      jumpi\n        /* \"_pausable.sol\":2119:2134  EnforcedPause() */\n      mload(0x40)\n      0xd93c066500000000000000000000000000000000000000000000000000000000\n      dup2\n      mstore\n      0x04\n      add\n      mload(0x40)\n      dup1\n      swap2\n      sub\n      swap1\n      revert\n        /* \"_pausable.sol\":2084:2145  if (paused()) {... */\n    tag_291:\n        /* \"_pausable.sol\":2023:2151  function _requireNotPaused() internal view virtual {... */\n      jump\t// out\n        /* \"@openzeppelin/contracts/utils/Context.sol\":655:751  function _msgSender() internal view virtual returns (address) {... */\n    tag_176:\n        /* \"@openzeppelin/contracts/utils/Context.sol\":708:715  address */\n      0x00\n        /* \"@openzeppelin/contracts/utils/Context.sol\":734:744  msg.sender */\n      caller\n        /* \"@openzeppelin/contracts/utils/Context.sol\":727:744  return msg.sender */\n      swap1\n      pop\n        /* \"@openzeppelin/contracts/utils/Context.sol\":655:751  function _msgSender() internal view virtual returns (address) {... */\n      swap1\n      jump\t// out\n        /* \"_pausable.sol\":2731:2848  function _unpause() internal virtual whenPaused {... */\n    tag_214:\n        /* \"_pausable.sol\":1742:1758  _requirePaused() */\n      tag_294\n        /* \"_pausable.sol\":1742:1756  _requirePaused */\n      tag_295\n        /* \"_pausable.sol\":1742:1758  _requirePaused() */\n      jump\t// in\n    tag_294:\n        /* \"_pausable.sol\":2799:2804  false */\n      0x00\n        /* \"_pausable.sol\":2789:2796  _paused */\n      0x00\n      0x14\n        /* \"_pausable.sol\":2789:2804  _paused = false */\n      0x0100\n      exp\n      dup2\n      sload\n      dup2\n      0xff\n      mul\n      not\n      and\n      swap1\n      dup4\n      iszero\n      iszero\n      mul\n      or\n      swap1\n      sstore\n      pop\n        /* \"_pausable.sol\":2819:2841  Unpaused(_msgSender()) */\n      0x5db9ee0a495bf2e6ff9c91a7834c1ba4fdd244a5e8aa4e537bd38aeae4b073aa\n        /* \"_pausable.sol\":2828:2840  _msgSender() */\n      tag_297\n        /* \"_pausable.sol\":2828:2838  _msgSender */\n      tag_176\n        /* \"_pausable.sol\":2828:2840  _msgSender() */\n      jump\t// in\n    tag_297:\n        /* \"_pausable.sol\":2819:2841  Unpaused(_msgSender()) */\n      mload(0x40)\n      tag_298\n      swap2\n      swap1\n      tag_76\n      jump\t// in\n    tag_298:\n      mload(0x40)\n      dup1\n      swap2\n      sub\n      swap1\n      log1\n        /* \"_pausable.sol\":2731:2848  function _unpause() internal virtual whenPaused {... */\n      jump\t// out\n        /* \"@openzeppelin/contracts/utils/Counters.sol\":945:1068  function increment(Counter storage counter) internal {... */\n    tag_228:\n        /* \"@openzeppelin/contracts/utils/Counters.sol\":1050:1051  1 */\n      0x01\n        /* \"@openzeppelin/contracts/utils/Counters.sol\":1032:1039  counter */\n      dup2\n        /* \"@openzeppelin/contracts/utils/Counters.sol\":1032:1046  counter._value */\n      0x00\n      add\n      0x00\n        /* \"@openzeppelin/contracts/utils/Counters.sol\":1032:1051  counter._value += 1 */\n      dup3\n      dup3\n      sload\n      add\n      swap3\n      pop\n      pop\n      dup2\n      swap1\n      sstore\n      pop\n        /* \"@openzeppelin/contracts/utils/Counters.sol\":945:1068  function increment(Counter storage counter) internal {... */\n      pop\n      jump\t// out\n        /* \"_ownable.sol\":2933:3120  function _transferOwnership(address newOwner) internal virtual {... */\n    tag_260:\n        /* \"_ownable.sol\":3006:3022  address oldOwner */\n      0x00\n        /* \"_ownable.sol\":3025:3031  _owner */\n      0x00\n      0x00\n      swap1\n      sload\n      swap1\n      0x0100\n      exp\n      swap1\n      div\n      0xffffffffffffffffffffffffffffffffffffffff\n      and\n        /* \"_ownable.sol\":3006:3031  address oldOwner = _owner */\n      swap1\n      pop\n        /* \"_ownable.sol\":3050:3058  newOwner */\n      dup2\n        /* \"_ownable.sol\":3041:3047  _owner */\n      0x00\n      0x00\n        /* \"_ownable.sol\":3041:3058  _owner = newOwner */\n      0x0100\n      exp\n      dup2\n      sload\n      dup2\n      0xffffffffffffffffffffffffffffffffffffffff\n      mul\n      not\n      and\n      swap1\n      dup4\n      0xffffffffffffffffffffffffffffffffffffffff\n      and\n      mul\n      or\n      swap1\n      sstore\n      pop\n        /* \"_ownable.sol\":3104:3112  newOwner */\n      dup2\n        /* \"_ownable.sol\":3073:3113  OwnershipTransferred(oldOwner, newOwner) */\n      0xffffffffffffffffffffffffffffffffffffffff\n      and\n        /* \"_ownable.sol\":3094:3102  oldOwner */\n      dup2\n        /* \"_ownable.sol\":3073:3113  OwnershipTransferred(oldOwner, newOwner) */\n      0xffffffffffffffffffffffffffffffffffffffff\n      and\n      0x8be0079c531659141344cd1fd0a4f28419497f9722a3daafe3b4186f6b6457e0\n      mload(0x40)\n      mload(0x40)\n      dup1\n      swap2\n      sub\n      swap1\n      log3\n        /* \"_ownable.sol\":2996:3120  {... */\n      pop\n        /* \"_ownable.sol\":2933:3120  function _transferOwnership(address newOwner) internal virtual {... */\n      pop\n      jump\t// out\n        /* \"_pausable.sol\":2484:2599  function _pause() internal virtual whenNotPaused {... */\n    tag_265:\n        /* \"_pausable.sol\":1495:1514  _requireNotPaused() */\n      tag_302\n        /* \"_pausable.sol\":1495:1512  _requireNotPaused */\n      tag_162\n        /* \"_pausable.sol\":1495:1514  _requireNotPaused() */\n      jump\t// in\n    tag_302:\n        /* \"_pausable.sol\":2553:2557  true */\n      0x01\n        /* \"_pausable.sol\":2543:2550  _paused */\n      0x00\n      0x14\n        /* \"_pausable.sol\":2543:2557  _paused = true */\n      0x0100\n      exp\n      dup2\n      sload\n      dup2\n      0xff\n      mul\n      not\n      and\n      swap1\n      dup4\n      iszero\n      iszero\n      mul\n      or\n      swap1\n      sstore\n      pop\n        /* \"_pausable.sol\":2572:2592  Paused(_msgSender()) */\n      0x62e78cea01bee320cd4e420270b5ea74000d11b0c9f74754ebdbfc544b05a258\n        /* \"_pausable.sol\":2579:2591  _msgSender() */\n      tag_304\n        /* \"_pausable.sol\":2579:2589  _msgSender */\n      tag_176\n        /* \"_pausable.sol\":2579:2591  _msgSender() */\n      jump\t// in\n    tag_304:\n        /* \"_pausable.sol\":2572:2592  Paused(_msgSender()) */\n      mload(0x40)\n      tag_305\n      swap2\n      swap1\n      tag_76\n      jump\t// in\n    tag_305:\n      mload(0x40)\n      dup1\n      swap2\n      sub\n      swap1\n      log1\n        /* \"_pausable.sol\":2484:2599  function _pause() internal virtual whenNotPaused {... */\n      jump\t// out\n        /* \"_pausable.sol\":2223:2349  function _requirePaused() internal view virtual {... */\n    tag_295:\n        /* \"_pausable.sol\":2286:2294  paused() */\n      tag_307\n        /* \"_pausable.sol\":2286:2292  paused */\n      tag_93\n        /* \"_pausable.sol\":2286:2294  paused() */\n      jump\t// in\n    tag_307:\n        /* \"_pausable.sol\":2281:2343  if (!paused()) {... */\n      tag_308\n      jumpi\n        /* \"_pausable.sol\":2317:2332  ExpectedPause() */\n      mload(0x40)\n      0x8dfc202b00000000000000000000000000000000000000000000000000000000\n      dup2\n      mstore\n      0x04\n      add\n      mload(0x40)\n      dup1\n      swap2\n      sub\n      swap1\n      revert\n        /* \"_pausable.sol\":2281:2343  if (!paused()) {... */\n    tag_308:\n        /* \"_pausable.sol\":2223:2349  function _requirePaused() internal view virtual {... */\n      jump\t// out\n        /* \"#utility.yul\":7:82   */\n    tag_309:\n        /* \"#utility.yul\":40:46   */\n      0x00\n        /* \"#utility.yul\":73:75   */\n      0x40\n        /* \"#utility.yul\":67:76   */\n      mload\n        /* \"#utility.yul\":57:76   */\n      swap1\n      pop\n        /* \"#utility.yul\":7:82   */\n      swap1\n      jump\t// out\n        /* \"#utility.yul\":88:205   */\n    tag_310:\n        /* \"#utility.yul\":197:198   */\n      0x00\n        /* \"#utility.yul\":194:195   */\n      0x00\n        /* \"#utility.yul\":187:199   */\n      revert\n        /* \"#utility.yul\":211:328   */\n    tag_311:\n        /* \"#utility.yul\":320:321   */\n      0x00\n        /* \"#utility.yul\":317:318   */\n      0x00\n        /* \"#utility.yul\":310:322   */\n      revert\n        /* \"#utility.yul\":334:411   */\n    tag_312:\n        /* \"#utility.yul\":371:378   */\n      0x00\n        /* \"#utility.yul\":400:405   */\n      dup2\n        /* \"#utility.yul\":389:405   */\n      swap1\n      pop\n        /* \"#utility.yul\":334:411   */\n      swap2\n      swap1\n      pop\n      jump\t// out\n        /* \"#utility.yul\":417:539   */\n    tag_313:\n        /* \"#utility.yul\":490:514   */\n      tag_377\n        /* \"#utility.yul\":508:513   */\n      dup2\n        /* \"#utility.yul\":490:514   */\n      tag_312\n      jump\t// in\n    tag_377:\n        /* \"#utility.yul\":483:488   */\n      dup2\n        /* \"#utility.yul\":480:515   */\n      eq\n        /* \"#utility.yul\":470:533   */\n      tag_378\n      jumpi\n        /* \"#utility.yul\":529:530   */\n      0x00\n        /* \"#utility.yul\":526:527   */\n      0x00\n        /* \"#utility.yul\":519:531   */\n      revert\n        /* \"#utility.yul\":470:533   */\n    tag_378:\n        /* \"#utility.yul\":417:539   */\n      pop\n      jump\t// out\n        /* \"#utility.yul\":545:684   */\n    tag_314:\n        /* \"#utility.yul\":591:596   */\n      0x00\n        /* \"#utility.yul\":629:635   */\n      dup2\n        /* \"#utility.yul\":616:636   */\n      calldataload\n        /* \"#utility.yul\":607:636   */\n      swap1\n      pop\n        /* \"#utility.yul\":645:678   */\n      tag_380\n        /* \"#utility.yul\":672:677   */\n      dup2\n        /* \"#utility.yul\":645:678   */\n      tag_313\n      jump\t// in\n    tag_380:\n        /* \"#utility.yul\":545:684   */\n      swap3\n      swap2\n      pop\n      pop\n      jump\t// out\n        /* \"#utility.yul\":690:1019   */\n    tag_38:\n        /* \"#utility.yul\":749:755   */\n      0x00\n        /* \"#utility.yul\":798:800   */\n      0x20\n        /* \"#utility.yul\":786:795   */\n      dup3\n        /* \"#utility.yul\":777:784   */\n      dup5\n        /* \"#utility.yul\":773:796   */\n      sub\n        /* \"#utility.yul\":769:801   */\n      slt\n        /* \"#utility.yul\":766:885   */\n      iszero\n      tag_382\n      jumpi\n        /* \"#utility.yul\":804:883   */\n      tag_383\n      tag_310\n      jump\t// in\n    tag_383:\n        /* \"#utility.yul\":766:885   */\n    tag_382:\n        /* \"#utility.yul\":924:925   */\n      0x00\n        /* \"#utility.yul\":949:1002   */\n      tag_384\n        /* \"#utility.yul\":994:1001   */\n      dup5\n        /* \"#utility.yul\":985:991   */\n      dup3\n        /* \"#utility.yul\":974:983   */\n      dup6\n        /* \"#utility.yul\":970:992   */\n      add\n        /* \"#utility.yul\":949:1002   */\n      tag_314\n      jump\t// in\n    tag_384:\n        /* \"#utility.yul\":939:1002   */\n      swap2\n      pop\n        /* \"#utility.yul\":895:1012   */\n      pop\n        /* \"#utility.yul\":690:1019   */\n      swap3\n      swap2\n      pop\n      pop\n      jump\t// out\n        /* \"#utility.yul\":1025:1115   */\n    tag_315:\n        /* \"#utility.yul\":1059:1066   */\n      0x00\n        /* \"#utility.yul\":1102:1107   */\n      dup2\n        /* \"#utility.yul\":1095:1108   */\n      iszero\n        /* \"#utility.yul\":1088:1109   */\n      iszero\n        /* \"#utility.yul\":1077:1109   */\n      swap1\n      pop\n        /* \"#utility.yul\":1025:1115   */\n      swap2\n      swap1\n      pop\n      jump\t// out\n        /* \"#utility.yul\":1121:1230   */\n    tag_316:\n        /* \"#utility.yul\":1202:1223   */\n      tag_387\n        /* \"#utility.yul\":1217:1222   */\n      dup2\n        /* \"#utility.yul\":1202:1223   */\n      tag_315\n      jump\t// in\n    tag_387:\n        /* \"#utility.yul\":1197:1200   */\n      dup3\n        /* \"#utility.yul\":1190:1224   */\n      mstore\n        /* \"#utility.yul\":1121:1230   */\n      pop\n      pop\n      jump\t// out\n        /* \"#utility.yul\":1236:1446   */\n    tag_41:\n        /* \"#utility.yul\":1323:1327   */\n      0x00\n        /* \"#utility.yul\":1361:1363   */\n      0x20\n        /* \"#utility.yul\":1350:1359   */\n      dup3\n        /* \"#utility.yul\":1346:1364   */\n      add\n        /* \"#utility.yul\":1338:1364   */\n      swap1\n      pop\n        /* \"#utility.yul\":1374:1439   */\n      tag_389\n        /* \"#utility.yul\":1436:1437   */\n      0x00\n        /* \"#utility.yul\":1425:1434   */\n      dup4\n        /* \"#utility.yul\":1421:1438   */\n      add\n        /* \"#utility.yul\":1412:1418   */\n      dup5\n        /* \"#utility.yul\":1374:1439   */\n      tag_316\n      jump\t// in\n    tag_389:\n        /* \"#utility.yul\":1236:1446   */\n      swap3\n      swap2\n      pop\n      pop\n      jump\t// out\n        /* \"#utility.yul\":1452:1570   */\n    tag_317:\n        /* \"#utility.yul\":1539:1563   */\n      tag_391\n        /* \"#utility.yul\":1557:1562   */\n      dup2\n        /* \"#utility.yul\":1539:1563   */\n      tag_312\n      jump\t// in\n    tag_391:\n        /* \"#utility.yul\":1534:1537   */\n      dup3\n        /* \"#utility.yul\":1527:1564   */\n      mstore\n        /* \"#utility.yul\":1452:1570   */\n      pop\n      pop\n      jump\t// out\n        /* \"#utility.yul\":1576:1798   */\n    tag_46:\n        /* \"#utility.yul\":1669:1673   */\n      0x00\n        /* \"#utility.yul\":1707:1709   */\n      0x20\n        /* \"#utility.yul\":1696:1705   */\n      dup3\n        /* \"#utility.yul\":1692:1710   */\n      add\n        /* \"#utility.yul\":1684:1710   */\n      swap1\n      pop\n        /* \"#utility.yul\":1720:1791   */\n      tag_393\n        /* \"#utility.yul\":1788:1789   */\n      0x00\n        /* \"#utility.yul\":1777:1786   */\n      dup4\n        /* \"#utility.yul\":1773:1790   */\n      add\n        /* \"#utility.yul\":1764:1770   */\n      dup5\n        /* \"#utility.yul\":1720:1791   */\n      tag_317\n      jump\t// in\n    tag_393:\n        /* \"#utility.yul\":1576:1798   */\n      swap3\n      swap2\n      pop\n      pop\n      jump\t// out\n        /* \"#utility.yul\":1804:1921   */\n    tag_318:\n        /* \"#utility.yul\":1913:1914   */\n      0x00\n        /* \"#utility.yul\":1910:1911   */\n      0x00\n        /* \"#utility.yul\":1903:1915   */\n      revert\n        /* \"#utility.yul\":1927:2044   */\n    tag_319:\n        /* \"#utility.yul\":2036:2037   */\n      0x00\n        /* \"#utility.yul\":2033:2034   */\n      0x00\n        /* \"#utility.yul\":2026:2038   */\n      revert\n        /* \"#utility.yul\":2050:2152   */\n    tag_320:\n        /* \"#utility.yul\":2091:2097   */\n      0x00\n        /* \"#utility.yul\":2142:2144   */\n      0x1f\n        /* \"#utility.yul\":2138:2145   */\n      not\n        /* \"#utility.yul\":2133:2135   */\n      0x1f\n        /* \"#utility.yul\":2126:2131   */\n      dup4\n        /* \"#utility.yul\":2122:2136   */\n      add\n        /* \"#utility.yul\":2118:2146   */\n      and\n        /* \"#utility.yul\":2108:2146   */\n      swap1\n      pop\n        /* \"#utility.yul\":2050:2152   */\n      swap2\n      swap1\n      pop\n      jump\t// out\n        /* \"#utility.yul\":2158:2338   */\n    tag_321:\n        /* \"#utility.yul\":2206:2283   */\n      0x4e487b7100000000000000000000000000000000000000000000000000000000\n        /* \"#utility.yul\":2203:2204   */\n      0x00\n        /* \"#utility.yul\":2196:2284   */\n      mstore\n        /* \"#utility.yul\":2303:2307   */\n      0x41\n        /* \"#utility.yul\":2300:2301   */\n      0x04\n        /* \"#utility.yul\":2293:2308   */\n      mstore\n        /* \"#utility.yul\":2327:2331   */\n      0x24\n        /* \"#utility.yul\":2324:2325   */\n      0x00\n        /* \"#utility.yul\":2317:2332   */\n      revert\n        /* \"#utility.yul\":2344:2625   */\n    tag_322:\n        /* \"#utility.yul\":2427:2454   */\n      tag_399\n        /* \"#utility.yul\":2449:2453   */\n      dup3\n        /* \"#utility.yul\":2427:2454   */\n      tag_320\n      jump\t// in\n    tag_399:\n        /* \"#utility.yul\":2419:2425   */\n      dup2\n        /* \"#utility.yul\":2415:2455   */\n      add\n        /* \"#utility.yul\":2557:2563   */\n      dup2\n        /* \"#utility.yul\":2545:2555   */\n      dup2\n        /* \"#utility.yul\":2542:2564   */\n      lt\n        /* \"#utility.yul\":2521:2539   */\n      0xffffffffffffffff\n        /* \"#utility.yul\":2509:2519   */\n      dup3\n        /* \"#utility.yul\":2506:2540   */\n      gt\n        /* \"#utility.yul\":2503:2565   */\n      or\n        /* \"#utility.yul\":2500:2588   */\n      iszero\n      tag_400\n      jumpi\n        /* \"#utility.yul\":2568:2586   */\n      tag_401\n      tag_321\n      jump\t// in\n    tag_401:\n        /* \"#utility.yul\":2500:2588   */\n    tag_400:\n        /* \"#utility.yul\":2608:2618   */\n      dup1\n        /* \"#utility.yul\":2604:2606   */\n      0x40\n        /* \"#utility.yul\":2597:2619   */\n      mstore\n        /* \"#utility.yul\":2387:2625   */\n      pop\n        /* \"#utility.yul\":2344:2625   */\n      pop\n      pop\n      jump\t// out\n        /* \"#utility.yul\":2631:2760   */\n    tag_323:\n        /* \"#utility.yul\":2665:2671   */\n      0x00\n        /* \"#utility.yul\":2692:2712   */\n      tag_403\n      tag_309\n      jump\t// in\n    tag_403:\n        /* \"#utility.yul\":2682:2712   */\n      swap1\n      pop\n        /* \"#utility.yul\":2721:2754   */\n      tag_404\n        /* \"#utility.yul\":2749:2753   */\n      dup3\n        /* \"#utility.yul\":2741:2747   */\n      dup3\n        /* \"#utility.yul\":2721:2754   */\n      tag_322\n      jump\t// in\n    tag_404:\n        /* \"#utility.yul\":2631:2760   */\n      swap2\n      swap1\n      pop\n      jump\t// out\n        /* \"#utility.yul\":2766:3074   */\n    tag_324:\n        /* \"#utility.yul\":2828:2832   */\n      0x00\n        /* \"#utility.yul\":2918:2936   */\n      0xffffffffffffffff\n        /* \"#utility.yul\":2910:2916   */\n      dup3\n        /* \"#utility.yul\":2907:2937   */\n      gt\n        /* \"#utility.yul\":2904:2960   */\n      iszero\n      tag_406\n      jumpi\n        /* \"#utility.yul\":2940:2958   */\n      tag_407\n      tag_321\n      jump\t// in\n    tag_407:\n        /* \"#utility.yul\":2904:2960   */\n    tag_406:\n        /* \"#utility.yul\":2978:3007   */\n      tag_408\n        /* \"#utility.yul\":3000:3006   */\n      dup3\n        /* \"#utility.yul\":2978:3007   */\n      tag_320\n      jump\t// in\n    tag_408:\n        /* \"#utility.yul\":2970:3007   */\n      swap1\n      pop\n        /* \"#utility.yul\":3062:3066   */\n      0x20\n        /* \"#utility.yul\":3056:3060   */\n      dup2\n        /* \"#utility.yul\":3052:3067   */\n      add\n        /* \"#utility.yul\":3044:3067   */\n      swap1\n      pop\n        /* \"#utility.yul\":2766:3074   */\n      swap2\n      swap1\n      pop\n      jump\t// out\n        /* \"#utility.yul\":3080:3228   */\n    tag_325:\n        /* \"#utility.yul\":3178:3184   */\n      dup3\n        /* \"#utility.yul\":3173:3176   */\n      dup2\n        /* \"#utility.yul\":3168:3171   */\n      dup4\n        /* \"#utility.yul\":3155:3185   */\n      calldatacopy\n        /* \"#utility.yul\":3219:3220   */\n      0x00\n        /* \"#utility.yul\":3210:3216   */\n      dup4\n        /* \"#utility.yul\":3205:3208   */\n      dup4\n        /* \"#utility.yul\":3201:3217   */\n      add\n        /* \"#utility.yul\":3194:3221   */\n      mstore\n        /* \"#utility.yul\":3080:3228   */\n      pop\n      pop\n      pop\n      jump\t// out\n        /* \"#utility.yul\":3234:3659   */\n    tag_326:\n        /* \"#utility.yul\":3312:3317   */\n      0x00\n        /* \"#utility.yul\":3337:3403   */\n      tag_411\n        /* \"#utility.yul\":3353:3402   */\n      tag_412\n        /* \"#utility.yul\":3395:3401   */\n      dup5\n        /* \"#utility.yul\":3353:3402   */\n      tag_324\n      jump\t// in\n    tag_412:\n        /* \"#utility.yul\":3337:3403   */\n      tag_323\n      jump\t// in\n    tag_411:\n        /* \"#utility.yul\":3328:3403   */\n      swap1\n      pop\n        /* \"#utility.yul\":3426:3432   */\n      dup3\n        /* \"#utility.yul\":3419:3424   */\n      dup2\n        /* \"#utility.yul\":3412:3433   */\n      mstore\n        /* \"#utility.yul\":3464:3468   */\n      0x20\n        /* \"#utility.yul\":3457:3462   */\n      dup2\n        /* \"#utility.yul\":3453:3469   */\n      add\n        /* \"#utility.yul\":3502:3505   */\n      dup5\n        /* \"#utility.yul\":3493:3499   */\n      dup5\n        /* \"#utility.yul\":3488:3491   */\n      dup5\n        /* \"#utility.yul\":3484:3500   */\n      add\n        /* \"#utility.yul\":3481:3506   */\n      gt\n        /* \"#utility.yul\":3478:3590   */\n      iszero\n      tag_413\n      jumpi\n        /* \"#utility.yul\":3509:3588   */\n      tag_414\n      tag_319\n      jump\t// in\n    tag_414:\n        /* \"#utility.yul\":3478:3590   */\n    tag_413:\n        /* \"#utility.yul\":3599:3653   */\n      tag_415\n        /* \"#utility.yul\":3646:3652   */\n      dup5\n        /* \"#utility.yul\":3641:3644   */\n      dup3\n        /* \"#utility.yul\":3636:3639   */\n      dup6\n        /* \"#utility.yul\":3599:3653   */\n      tag_325\n      jump\t// in\n    tag_415:\n        /* \"#utility.yul\":3318:3659   */\n      pop\n        /* \"#utility.yul\":3234:3659   */\n      swap4\n      swap3\n      pop\n      pop\n      pop\n      jump\t// out\n        /* \"#utility.yul\":3679:4019   */\n    tag_327:\n        /* \"#utility.yul\":3735:3740   */\n      0x00\n        /* \"#utility.yul\":3784:3787   */\n      dup3\n        /* \"#utility.yul\":3777:3781   */\n      0x1f\n        /* \"#utility.yul\":3769:3775   */\n      dup4\n        /* \"#utility.yul\":3765:3782   */\n      add\n        /* \"#utility.yul\":3761:3788   */\n      slt\n        /* \"#utility.yul\":3751:3873   */\n      tag_417\n      jumpi\n        /* \"#utility.yul\":3792:3871   */\n      tag_418\n      tag_318\n      jump\t// in\n    tag_418:\n        /* \"#utility.yul\":3751:3873   */\n    tag_417:\n        /* \"#utility.yul\":3909:3915   */\n      dup2\n        /* \"#utility.yul\":3896:3916   */\n      calldataload\n        /* \"#utility.yul\":3934:4013   */\n      tag_419\n        /* \"#utility.yul\":4009:4012   */\n      dup5\n        /* \"#utility.yul\":4001:4007   */\n      dup3\n        /* \"#utility.yul\":3994:3998   */\n      0x20\n        /* \"#utility.yul\":3986:3992   */\n      dup7\n        /* \"#utility.yul\":3982:3999   */\n      add\n        /* \"#utility.yul\":3934:4013   */\n      tag_326\n      jump\t// in\n    tag_419:\n        /* \"#utility.yul\":3925:4013   */\n      swap2\n      pop\n        /* \"#utility.yul\":3741:4019   */\n      pop\n        /* \"#utility.yul\":3679:4019   */\n      swap3\n      swap2\n      pop\n      pop\n      jump\t// out\n        /* \"#utility.yul\":4025:4970   */\n    tag_53:\n        /* \"#utility.yul\":4121:4127   */\n      0x00\n        /* \"#utility.yul\":4129:4135   */\n      0x00\n        /* \"#utility.yul\":4137:4143   */\n      0x00\n        /* \"#utility.yul\":4145:4151   */\n      0x00\n        /* \"#utility.yul\":4194:4197   */\n      0x80\n        /* \"#utility.yul\":4182:4191   */\n      dup6\n        /* \"#utility.yul\":4173:4180   */\n      dup8\n        /* \"#utility.yul\":4169:4192   */\n      sub\n        /* \"#utility.yul\":4165:4198   */\n      slt\n        /* \"#utility.yul\":4162:4282   */\n      iszero\n      tag_421\n      jumpi\n        /* \"#utility.yul\":4201:4280   */\n      tag_422\n      tag_310\n      jump\t// in\n    tag_422:\n        /* \"#utility.yul\":4162:4282   */\n    tag_421:\n        /* \"#utility.yul\":4321:4322   */\n      0x00\n        /* \"#utility.yul\":4346:4399   */\n      tag_423\n        /* \"#utility.yul\":4391:4398   */\n      dup8\n        /* \"#utility.yul\":4382:4388   */\n      dup3\n        /* \"#utility.yul\":4371:4380   */\n      dup9\n        /* \"#utility.yul\":4367:4389   */\n      add\n        /* \"#utility.yul\":4346:4399   */\n      tag_314\n      jump\t// in\n    tag_423:\n        /* \"#utility.yul\":4336:4399   */\n      swap5\n      pop\n        /* \"#utility.yul\":4292:4409   */\n      pop\n        /* \"#utility.yul\":4448:4450   */\n      0x20\n        /* \"#utility.yul\":4474:4527   */\n      tag_424\n        /* \"#utility.yul\":4519:4526   */\n      dup8\n        /* \"#utility.yul\":4510:4516   */\n      dup3\n        /* \"#utility.yul\":4499:4508   */\n      dup9\n        /* \"#utility.yul\":4495:4517   */\n      add\n        /* \"#utility.yul\":4474:4527   */\n      tag_314\n      jump\t// in\n    tag_424:\n        /* \"#utility.yul\":4464:4527   */\n      swap4\n      pop\n        /* \"#utility.yul\":4419:4537   */\n      pop\n        /* \"#utility.yul\":4604:4606   */\n      0x40\n        /* \"#utility.yul\":4593:4602   */\n      dup6\n        /* \"#utility.yul\":4589:4607   */\n      add\n        /* \"#utility.yul\":4576:4608   */\n      calldataload\n        /* \"#utility.yul\":4635:4653   */\n      0xffffffffffffffff\n        /* \"#utility.yul\":4627:4633   */\n      dup2\n        /* \"#utility.yul\":4624:4654   */\n      gt\n        /* \"#utility.yul\":4621:4738   */\n      iszero\n      tag_425\n      jumpi\n        /* \"#utility.yul\":4657:4736   */\n      tag_426\n      tag_311\n      jump\t// in\n    tag_426:\n        /* \"#utility.yul\":4621:4738   */\n    tag_425:\n        /* \"#utility.yul\":4762:4825   */\n      tag_427\n        /* \"#utility.yul\":4817:4824   */\n      dup8\n        /* \"#utility.yul\":4808:4814   */\n      dup3\n        /* \"#utility.yul\":4797:4806   */\n      dup9\n        /* \"#utility.yul\":4793:4815   */\n      add\n        /* \"#utility.yul\":4762:4825   */\n      tag_327\n      jump\t// in\n    tag_427:\n        /* \"#utility.yul\":4752:4825   */\n      swap3\n      pop\n        /* \"#utility.yul\":4547:4835   */\n      pop\n        /* \"#utility.yul\":4874:4876   */\n      0x60\n        /* \"#utility.yul\":4900:4953   */\n      tag_428\n        /* \"#utility.yul\":4945:4952   */\n      dup8\n        /* \"#utility.yul\":4936:4942   */\n      dup3\n        /* \"#utility.yul\":4925:4934   */\n      dup9\n        /* \"#utility.yul\":4921:4943   */\n      add\n        /* \"#utility.yul\":4900:4953   */\n      tag_314\n      jump\t// in\n    tag_428:\n        /* \"#utility.yul\":4890:4953   */\n      swap2\n      pop\n        /* \"#utility.yul\":4845:4963   */\n      pop\n        /* \"#utility.yul\":4025:4970   */\n      swap3\n      swap6\n      swap2\n      swap5\n      pop\n      swap3\n      pop\n      jump\t// out\n        /* \"#utility.yul\":4976:5406   */\n    tag_56:\n        /* \"#utility.yul\":5119:5123   */\n      0x00\n        /* \"#utility.yul\":5157:5159   */\n      0x60\n        /* \"#utility.yul\":5146:5155   */\n      dup3\n        /* \"#utility.yul\":5142:5160   */\n      add\n        /* \"#utility.yul\":5134:5160   */\n      swap1\n      pop\n        /* \"#utility.yul\":5170:5235   */\n      tag_430\n        /* \"#utility.yul\":5232:5233   */\n      0x00\n        /* \"#utility.yul\":5221:5230   */\n      dup4\n        /* \"#utility.yul\":5217:5234   */\n      add\n        /* \"#utility.yul\":5208:5214   */\n      dup7\n        /* \"#utility.yul\":5170:5235   */\n      tag_316\n      jump\t// in\n    tag_430:\n        /* \"#utility.yul\":5245:5317   */\n      tag_431\n        /* \"#utility.yul\":5313:5315   */\n      0x20\n        /* \"#utility.yul\":5302:5311   */\n      dup4\n        /* \"#utility.yul\":5298:5316   */\n      add\n        /* \"#utility.yul\":5289:5295   */\n      dup6\n        /* \"#utility.yul\":5245:5317   */\n      tag_317\n      jump\t// in\n    tag_431:\n        /* \"#utility.yul\":5327:5399   */\n      tag_432\n        /* \"#utility.yul\":5395:5397   */\n      0x40\n        /* \"#utility.yul\":5384:5393   */\n      dup4\n        /* \"#utility.yul\":5380:5398   */\n      add\n        /* \"#utility.yul\":5371:5377   */\n      dup5\n        /* \"#utility.yul\":5327:5399   */\n      tag_317\n      jump\t// in\n    tag_432:\n        /* \"#utility.yul\":4976:5406   */\n      swap5\n      swap4\n      pop\n      pop\n      pop\n      pop\n      jump\t// out\n        /* \"#utility.yul\":5412:5511   */\n    tag_328:\n        /* \"#utility.yul\":5464:5470   */\n      0x00\n        /* \"#utility.yul\":5498:5503   */\n      dup2\n        /* \"#utility.yul\":5492:5504   */\n      mload\n        /* \"#utility.yul\":5482:5504   */\n      swap1\n      pop\n        /* \"#utility.yul\":5412:5511   */\n      swap2\n      swap1\n      pop\n      jump\t// out\n        /* \"#utility.yul\":5517:5686   */\n    tag_329:\n        /* \"#utility.yul\":5601:5612   */\n      0x00\n        /* \"#utility.yul\":5635:5641   */\n      dup3\n        /* \"#utility.yul\":5630:5633   */\n      dup3\n        /* \"#utility.yul\":5623:5642   */\n      mstore\n        /* \"#utility.yul\":5675:5679   */\n      0x20\n        /* \"#utility.yul\":5670:5673   */\n      dup3\n        /* \"#utility.yul\":5666:5680   */\n      add\n        /* \"#utility.yul\":5651:5680   */\n      swap1\n      pop\n        /* \"#utility.yul\":5517:5686   */\n      swap3\n      swap2\n      pop\n      pop\n      jump\t// out\n        /* \"#utility.yul\":5692:5831   */\n    tag_330:\n        /* \"#utility.yul\":5781:5787   */\n      dup3\n        /* \"#utility.yul\":5776:5779   */\n      dup2\n        /* \"#utility.yul\":5771:5774   */\n      dup4\n        /* \"#utility.yul\":5765:5788   */\n      mcopy\n        /* \"#utility.yul\":5822:5823   */\n      0x00\n        /* \"#utility.yul\":5813:5819   */\n      dup4\n        /* \"#utility.yul\":5808:5811   */\n      dup4\n        /* \"#utility.yul\":5804:5820   */\n      add\n        /* \"#utility.yul\":5797:5824   */\n      mstore\n        /* \"#utility.yul\":5692:5831   */\n      pop\n      pop\n      pop\n      jump\t// out\n        /* \"#utility.yul\":5837:6214   */\n    tag_331:\n        /* \"#utility.yul\":5925:5928   */\n      0x00\n        /* \"#utility.yul\":5953:5992   */\n      tag_437\n        /* \"#utility.yul\":5986:5991   */\n      dup3\n        /* \"#utility.yul\":5953:5992   */\n      tag_328\n      jump\t// in\n    tag_437:\n        /* \"#utility.yul\":6008:6079   */\n      tag_438\n        /* \"#utility.yul\":6072:6078   */\n      dup2\n        /* \"#utility.yul\":6067:6070   */\n      dup6\n        /* \"#utility.yul\":6008:6079   */\n      tag_329\n      jump\t// in\n    tag_438:\n        /* \"#utility.yul\":6001:6079   */\n      swap4\n      pop\n        /* \"#utility.yul\":6088:6153   */\n      tag_439\n        /* \"#utility.yul\":6146:6152   */\n      dup2\n        /* \"#utility.yul\":6141:6144   */\n      dup6\n        /* \"#utility.yul\":6134:6138   */\n      0x20\n        /* \"#utility.yul\":6127:6132   */\n      dup7\n        /* \"#utility.yul\":6123:6139   */\n      add\n        /* \"#utility.yul\":6088:6153   */\n      tag_330\n      jump\t// in\n    tag_439:\n        /* \"#utility.yul\":6178:6207   */\n      tag_440\n        /* \"#utility.yul\":6200:6206   */\n      dup2\n        /* \"#utility.yul\":6178:6207   */\n      tag_320\n      jump\t// in\n    tag_440:\n        /* \"#utility.yul\":6173:6176   */\n      dup5\n        /* \"#utility.yul\":6169:6208   */\n      add\n        /* \"#utility.yul\":6162:6208   */\n      swap2\n      pop\n        /* \"#utility.yul\":5929:6214   */\n      pop\n        /* \"#utility.yul\":5837:6214   */\n      swap3\n      swap2\n      pop\n      pop\n      jump\t// out\n        /* \"#utility.yul\":6220:6533   */\n    tag_65:\n        /* \"#utility.yul\":6333:6337   */\n      0x00\n        /* \"#utility.yul\":6371:6373   */\n      0x20\n        /* \"#utility.yul\":6360:6369   */\n      dup3\n        /* \"#utility.yul\":6356:6374   */\n      add\n        /* \"#utility.yul\":6348:6374   */\n      swap1\n      pop\n        /* \"#utility.yul\":6420:6429   */\n      dup2\n        /* \"#utility.yul\":6414:6418   */\n      dup2\n        /* \"#utility.yul\":6410:6430   */\n      sub\n        /* \"#utility.yul\":6406:6407   */\n      0x00\n        /* \"#utility.yul\":6395:6404   */\n      dup4\n        /* \"#utility.yul\":6391:6408   */\n      add\n        /* \"#utility.yul\":6384:6431   */\n      mstore\n        /* \"#utility.yul\":6448:6526   */\n      tag_442\n        /* \"#utility.yul\":6521:6525   */\n      dup2\n        /* \"#utility.yul\":6512:6518   */\n      dup5\n        /* \"#utility.yul\":6448:6526   */\n      tag_331\n      jump\t// in\n    tag_442:\n        /* \"#utility.yul\":6440:6526   */\n      swap1\n      pop\n        /* \"#utility.yul\":6220:6533   */\n      swap3\n      swap2\n      pop\n      pop\n      jump\t// out\n        /* \"#utility.yul\":6539:6665   */\n    tag_332:\n        /* \"#utility.yul\":6576:6583   */\n      0x00\n        /* \"#utility.yul\":6616:6658   */\n      0xffffffffffffffffffffffffffffffffffffffff\n        /* \"#utility.yul\":6609:6614   */\n      dup3\n        /* \"#utility.yul\":6605:6659   */\n      and\n        /* \"#utility.yul\":6594:6659   */\n      swap1\n      pop\n        /* \"#utility.yul\":6539:6665   */\n      swap2\n      swap1\n      pop\n      jump\t// out\n        /* \"#utility.yul\":6671:6767   */\n    tag_333:\n        /* \"#utility.yul\":6708:6715   */\n      0x00\n        /* \"#utility.yul\":6737:6761   */\n      tag_445\n        /* \"#utility.yul\":6755:6760   */\n      dup3\n        /* \"#utility.yul\":6737:6761   */\n      tag_332\n      jump\t// in\n    tag_445:\n        /* \"#utility.yul\":6726:6761   */\n      swap1\n      pop\n        /* \"#utility.yul\":6671:6767   */\n      swap2\n      swap1\n      pop\n      jump\t// out\n        /* \"#utility.yul\":6773:6891   */\n    tag_334:\n        /* \"#utility.yul\":6860:6884   */\n      tag_447\n        /* \"#utility.yul\":6878:6883   */\n      dup2\n        /* \"#utility.yul\":6860:6884   */\n      tag_333\n      jump\t// in\n    tag_447:\n        /* \"#utility.yul\":6855:6858   */\n      dup3\n        /* \"#utility.yul\":6848:6885   */\n      mstore\n        /* \"#utility.yul\":6773:6891   */\n      pop\n      pop\n      jump\t// out\n        /* \"#utility.yul\":6897:7119   */\n    tag_76:\n        /* \"#utility.yul\":6990:6994   */\n      0x00\n        /* \"#utility.yul\":7028:7030   */\n      0x20\n        /* \"#utility.yul\":7017:7026   */\n      dup3\n        /* \"#utility.yul\":7013:7031   */\n      add\n        /* \"#utility.yul\":7005:7031   */\n      swap1\n      pop\n        /* \"#utility.yul\":7041:7112   */\n      tag_449\n        /* \"#utility.yul\":7109:7110   */\n      0x00\n        /* \"#utility.yul\":7098:7107   */\n      dup4\n        /* \"#utility.yul\":7094:7111   */\n      add\n        /* \"#utility.yul\":7085:7091   */\n      dup5\n        /* \"#utility.yul\":7041:7112   */\n      tag_334\n      jump\t// in\n    tag_449:\n        /* \"#utility.yul\":6897:7119   */\n      swap3\n      swap2\n      pop\n      pop\n      jump\t// out\n        /* \"#utility.yul\":7125:7229   */\n    tag_335:\n        /* \"#utility.yul\":7170:7177   */\n      0x00\n        /* \"#utility.yul\":7199:7223   */\n      tag_451\n        /* \"#utility.yul\":7217:7222   */\n      dup3\n        /* \"#utility.yul\":7199:7223   */\n      tag_332\n      jump\t// in\n    tag_451:\n        /* \"#utility.yul\":7188:7223   */\n      swap1\n      pop\n        /* \"#utility.yul\":7125:7229   */\n      swap2\n      swap1\n      pop\n      jump\t// out\n        /* \"#utility.yul\":7235:7373   */\n    tag_336:\n        /* \"#utility.yul\":7316:7348   */\n      tag_453\n        /* \"#utility.yul\":7342:7347   */\n      dup2\n        /* \"#utility.yul\":7316:7348   */\n      tag_335\n      jump\t// in\n    tag_453:\n        /* \"#utility.yul\":7309:7314   */\n      dup2\n        /* \"#utility.yul\":7306:7349   */\n      eq\n        /* \"#utility.yul\":7296:7367   */\n      tag_454\n      jumpi\n        /* \"#utility.yul\":7363:7364   */\n      0x00\n        /* \"#utility.yul\":7360:7361   */\n      0x00\n        /* \"#utility.yul\":7353:7365   */\n      revert\n        /* \"#utility.yul\":7296:7367   */\n    tag_454:\n        /* \"#utility.yul\":7235:7373   */\n      pop\n      jump\t// out\n        /* \"#utility.yul\":7379:7534   */\n    tag_337:\n        /* \"#utility.yul\":7433:7438   */\n      0x00\n        /* \"#utility.yul\":7471:7477   */\n      dup2\n        /* \"#utility.yul\":7458:7478   */\n      calldataload\n        /* \"#utility.yul\":7449:7478   */\n      swap1\n      pop\n        /* \"#utility.yul\":7487:7528   */\n      tag_456\n        /* \"#utility.yul\":7522:7527   */\n      dup2\n        /* \"#utility.yul\":7487:7528   */\n      tag_336\n      jump\t// in\n    tag_456:\n        /* \"#utility.yul\":7379:7534   */\n      swap3\n      swap2\n      pop\n      pop\n      jump\t// out\n        /* \"#utility.yul\":7540:8030   */\n    tag_84:\n        /* \"#utility.yul\":7616:7622   */\n      0x00\n        /* \"#utility.yul\":7624:7630   */\n      0x00\n        /* \"#utility.yul\":7673:7675   */\n      0x40\n        /* \"#utility.yul\":7661:7670   */\n      dup4\n        /* \"#utility.yul\":7652:7659   */\n      dup6\n        /* \"#utility.yul\":7648:7671   */\n      sub\n        /* \"#utility.yul\":7644:7676   */\n      slt\n        /* \"#utility.yul\":7641:7760   */\n      iszero\n      tag_458\n      jumpi\n        /* \"#utility.yul\":7679:7758   */\n      tag_459\n      tag_310\n      jump\t// in\n    tag_459:\n        /* \"#utility.yul\":7641:7760   */\n    tag_458:\n        /* \"#utility.yul\":7799:7800   */\n      0x00\n        /* \"#utility.yul\":7824:7885   */\n      tag_460\n        /* \"#utility.yul\":7877:7884   */\n      dup6\n        /* \"#utility.yul\":7868:7874   */\n      dup3\n        /* \"#utility.yul\":7857:7866   */\n      dup7\n        /* \"#utility.yul\":7853:7875   */\n      add\n        /* \"#utility.yul\":7824:7885   */\n      tag_337\n      jump\t// in\n    tag_460:\n        /* \"#utility.yul\":7814:7885   */\n      swap3\n      pop\n        /* \"#utility.yul\":7770:7895   */\n      pop\n        /* \"#utility.yul\":7934:7936   */\n      0x20\n        /* \"#utility.yul\":7960:8013   */\n      tag_461\n        /* \"#utility.yul\":8005:8012   */\n      dup6\n        /* \"#utility.yul\":7996:8002   */\n      dup3\n        /* \"#utility.yul\":7985:7994   */\n      dup7\n        /* \"#utility.yul\":7981:8003   */\n      add\n        /* \"#utility.yul\":7960:8013   */\n      tag_314\n      jump\t// in\n    tag_461:\n        /* \"#utility.yul\":7950:8013   */\n      swap2\n      pop\n        /* \"#utility.yul\":7905:8023   */\n      pop\n        /* \"#utility.yul\":7540:8030   */\n      swap3\n      pop\n      swap3\n      swap1\n      pop\n      jump\t// out\n        /* \"#utility.yul\":8036:8791   */\n    tag_90:\n        /* \"#utility.yul\":8261:8265   */\n      0x00\n        /* \"#utility.yul\":8299:8302   */\n      0xa0\n        /* \"#utility.yul\":8288:8297   */\n      dup3\n        /* \"#utility.yul\":8284:8303   */\n      add\n        /* \"#utility.yul\":8276:8303   */\n      swap1\n      pop\n        /* \"#utility.yul\":8313:8384   */\n      tag_463\n        /* \"#utility.yul\":8381:8382   */\n      0x00\n        /* \"#utility.yul\":8370:8379   */\n      dup4\n        /* \"#utility.yul\":8366:8383   */\n      add\n        /* \"#utility.yul\":8357:8363   */\n      dup9\n        /* \"#utility.yul\":8313:8384   */\n      tag_317\n      jump\t// in\n    tag_463:\n        /* \"#utility.yul\":8394:8466   */\n      tag_464\n        /* \"#utility.yul\":8462:8464   */\n      0x20\n        /* \"#utility.yul\":8451:8460   */\n      dup4\n        /* \"#utility.yul\":8447:8465   */\n      add\n        /* \"#utility.yul\":8438:8444   */\n      dup8\n        /* \"#utility.yul\":8394:8466   */\n      tag_317\n      jump\t// in\n    tag_464:\n        /* \"#utility.yul\":8476:8548   */\n      tag_465\n        /* \"#utility.yul\":8544:8546   */\n      0x40\n        /* \"#utility.yul\":8533:8542   */\n      dup4\n        /* \"#utility.yul\":8529:8547   */\n      add\n        /* \"#utility.yul\":8520:8526   */\n      dup7\n        /* \"#utility.yul\":8476:8548   */\n      tag_317\n      jump\t// in\n    tag_465:\n        /* \"#utility.yul\":8558:8630   */\n      tag_466\n        /* \"#utility.yul\":8626:8628   */\n      0x60\n        /* \"#utility.yul\":8615:8624   */\n      dup4\n        /* \"#utility.yul\":8611:8629   */\n      add\n        /* \"#utility.yul\":8602:8608   */\n      dup6\n        /* \"#utility.yul\":8558:8630   */\n      tag_334\n      jump\t// in\n    tag_466:\n        /* \"#utility.yul\":8678:8687   */\n      dup2\n        /* \"#utility.yul\":8672:8676   */\n      dup2\n        /* \"#utility.yul\":8668:8688   */\n      sub\n        /* \"#utility.yul\":8662:8665   */\n      0x80\n        /* \"#utility.yul\":8651:8660   */\n      dup4\n        /* \"#utility.yul\":8647:8666   */\n      add\n        /* \"#utility.yul\":8640:8689   */\n      mstore\n        /* \"#utility.yul\":8706:8784   */\n      tag_467\n        /* \"#utility.yul\":8779:8783   */\n      dup2\n        /* \"#utility.yul\":8770:8776   */\n      dup5\n        /* \"#utility.yul\":8706:8784   */\n      tag_331\n      jump\t// in\n    tag_467:\n        /* \"#utility.yul\":8698:8784   */\n      swap1\n      pop\n        /* \"#utility.yul\":8036:8791   */\n      swap7\n      swap6\n      pop\n      pop\n      pop\n      pop\n      pop\n      pop\n      jump\t// out\n        /* \"#utility.yul\":8797:8919   */\n    tag_338:\n        /* \"#utility.yul\":8870:8894   */\n      tag_469\n        /* \"#utility.yul\":8888:8893   */\n      dup2\n        /* \"#utility.yul\":8870:8894   */\n      tag_333\n      jump\t// in\n    tag_469:\n        /* \"#utility.yul\":8863:8868   */\n      dup2\n        /* \"#utility.yul\":8860:8895   */\n      eq\n        /* \"#utility.yul\":8850:8913   */\n      tag_470\n      jumpi\n        /* \"#utility.yul\":8909:8910   */\n      0x00\n        /* \"#utility.yul\":8906:8907   */\n      0x00\n        /* \"#utility.yul\":8899:8911   */\n      revert\n        /* \"#utility.yul\":8850:8913   */\n    tag_470:\n        /* \"#utility.yul\":8797:8919   */\n      pop\n      jump\t// out\n        /* \"#utility.yul\":8925:9064   */\n    tag_339:\n        /* \"#utility.yul\":8971:8976   */\n      0x00\n        /* \"#utility.yul\":9009:9015   */\n      dup2\n        /* \"#utility.yul\":8996:9016   */\n      calldataload\n        /* \"#utility.yul\":8987:9016   */\n      swap1\n      pop\n        /* \"#utility.yul\":9025:9058   */\n      tag_472\n        /* \"#utility.yul\":9052:9057   */\n      dup2\n        /* \"#utility.yul\":9025:9058   */\n      tag_338\n      jump\t// in\n    tag_472:\n        /* \"#utility.yul\":8925:9064   */\n      swap3\n      swap2\n      pop\n      pop\n      jump\t// out\n        /* \"#utility.yul\":9070:9399   */\n    tag_98:\n        /* \"#utility.yul\":9129:9135   */\n      0x00\n        /* \"#utility.yul\":9178:9180   */\n      0x20\n        /* \"#utility.yul\":9166:9175   */\n      dup3\n        /* \"#utility.yul\":9157:9164   */\n      dup5\n        /* \"#utility.yul\":9153:9176   */\n      sub\n        /* \"#utility.yul\":9149:9181   */\n      slt\n        /* \"#utility.yul\":9146:9265   */\n      iszero\n      tag_474\n      jumpi\n        /* \"#utility.yul\":9184:9263   */\n      tag_475\n      tag_310\n      jump\t// in\n    tag_475:\n        /* \"#utility.yul\":9146:9265   */\n    tag_474:\n        /* \"#utility.yul\":9304:9305   */\n      0x00\n        /* \"#utility.yul\":9329:9382   */\n      tag_476\n        /* \"#utility.yul\":9374:9381   */\n      dup5\n        /* \"#utility.yul\":9365:9371   */\n      dup3\n        /* \"#utility.yul\":9354:9363   */\n      dup6\n        /* \"#utility.yul\":9350:9372   */\n      add\n        /* \"#utility.yul\":9329:9382   */\n      tag_339\n      jump\t// in\n    tag_476:\n        /* \"#utility.yul\":9319:9382   */\n      swap2\n      pop\n        /* \"#utility.yul\":9275:9392   */\n      pop\n        /* \"#utility.yul\":9070:9399   */\n      swap3\n      swap2\n      pop\n      pop\n      jump\t// out\n        /* \"#utility.yul\":9405:10204   */\n    tag_122:\n        /* \"#utility.yul\":9492:9498   */\n      0x00\n        /* \"#utility.yul\":9500:9506   */\n      0x00\n        /* \"#utility.yul\":9508:9514   */\n      0x00\n        /* \"#utility.yul\":9557:9559   */\n      0x60\n        /* \"#utility.yul\":9545:9554   */\n      dup5\n        /* \"#utility.yul\":9536:9543   */\n      dup7\n        /* \"#utility.yul\":9532:9555   */\n      sub\n        /* \"#utility.yul\":9528:9560   */\n      slt\n        /* \"#utility.yul\":9525:9644   */\n      iszero\n      tag_478\n      jumpi\n        /* \"#utility.yul\":9563:9642   */\n      tag_479\n      tag_310\n      jump\t// in\n    tag_479:\n        /* \"#utility.yul\":9525:9644   */\n    tag_478:\n        /* \"#utility.yul\":9683:9684   */\n      0x00\n        /* \"#utility.yul\":9708:9761   */\n      tag_480\n        /* \"#utility.yul\":9753:9760   */\n      dup7\n        /* \"#utility.yul\":9744:9750   */\n      dup3\n        /* \"#utility.yul\":9733:9742   */\n      dup8\n        /* \"#utility.yul\":9729:9751   */\n      add\n        /* \"#utility.yul\":9708:9761   */\n      tag_314\n      jump\t// in\n    tag_480:\n        /* \"#utility.yul\":9698:9761   */\n      swap4\n      pop\n        /* \"#utility.yul\":9654:9771   */\n      pop\n        /* \"#utility.yul\":9810:9812   */\n      0x20\n        /* \"#utility.yul\":9836:9889   */\n      tag_481\n        /* \"#utility.yul\":9881:9888   */\n      dup7\n        /* \"#utility.yul\":9872:9878   */\n      dup3\n        /* \"#utility.yul\":9861:9870   */\n      dup8\n        /* \"#utility.yul\":9857:9879   */\n      add\n        /* \"#utility.yul\":9836:9889   */\n      tag_314\n      jump\t// in\n    tag_481:\n        /* \"#utility.yul\":9826:9889   */\n      swap3\n      pop\n        /* \"#utility.yul\":9781:9899   */\n      pop\n        /* \"#utility.yul\":9966:9968   */\n      0x40\n        /* \"#utility.yul\":9955:9964   */\n      dup5\n        /* \"#utility.yul\":9951:9969   */\n      add\n        /* \"#utility.yul\":9938:9970   */\n      calldataload\n        /* \"#utility.yul\":9997:10015   */\n      0xffffffffffffffff\n        /* \"#utility.yul\":9989:9995   */\n      dup2\n        /* \"#utility.yul\":9986:10016   */\n      gt\n        /* \"#utility.yul\":9983:10100   */\n      iszero\n      tag_482\n      jumpi\n        /* \"#utility.yul\":10019:10098   */\n      tag_483\n      tag_311\n      jump\t// in\n    tag_483:\n        /* \"#utility.yul\":9983:10100   */\n    tag_482:\n        /* \"#utility.yul\":10124:10187   */\n      tag_484\n        /* \"#utility.yul\":10179:10186   */\n      dup7\n        /* \"#utility.yul\":10170:10176   */\n      dup3\n        /* \"#utility.yul\":10159:10168   */\n      dup8\n        /* \"#utility.yul\":10155:10177   */\n      add\n        /* \"#utility.yul\":10124:10187   */\n      tag_327\n      jump\t// in\n    tag_484:\n        /* \"#utility.yul\":10114:10187   */\n      swap2\n      pop\n        /* \"#utility.yul\":9909:10197   */\n      pop\n        /* \"#utility.yul\":9405:10204   */\n      swap3\n      pop\n      swap3\n      pop\n      swap3\n      jump\t// out\n        /* \"#utility.yul\":10210:10684   */\n    tag_132:\n        /* \"#utility.yul\":10278:10284   */\n      0x00\n        /* \"#utility.yul\":10286:10292   */\n      0x00\n        /* \"#utility.yul\":10335:10337   */\n      0x40\n        /* \"#utility.yul\":10323:10332   */\n      dup4\n        /* \"#utility.yul\":10314:10321   */\n      dup6\n        /* \"#utility.yul\":10310:10333   */\n      sub\n        /* \"#utility.yul\":10306:10338   */\n      slt\n        /* \"#utility.yul\":10303:10422   */\n      iszero\n      tag_486\n      jumpi\n        /* \"#utility.yul\":10341:10420   */\n      tag_487\n      tag_310\n      jump\t// in\n    tag_487:\n        /* \"#utility.yul\":10303:10422   */\n    tag_486:\n        /* \"#utility.yul\":10461:10462   */\n      0x00\n        /* \"#utility.yul\":10486:10539   */\n      tag_488\n        /* \"#utility.yul\":10531:10538   */\n      dup6\n        /* \"#utility.yul\":10522:10528   */\n      dup3\n        /* \"#utility.yul\":10511:10520   */\n      dup7\n        /* \"#utility.yul\":10507:10529   */\n      add\n        /* \"#utility.yul\":10486:10539   */\n      tag_314\n      jump\t// in\n    tag_488:\n        /* \"#utility.yul\":10476:10539   */\n      swap3\n      pop\n        /* \"#utility.yul\":10432:10549   */\n      pop\n        /* \"#utility.yul\":10588:10590   */\n      0x20\n        /* \"#utility.yul\":10614:10667   */\n      tag_489\n        /* \"#utility.yul\":10659:10666   */\n      dup6\n        /* \"#utility.yul\":10650:10656   */\n      dup3\n        /* \"#utility.yul\":10639:10648   */\n      dup7\n        /* \"#utility.yul\":10635:10657   */\n      add\n        /* \"#utility.yul\":10614:10667   */\n      tag_314\n      jump\t// in\n    tag_489:\n        /* \"#utility.yul\":10604:10667   */\n      swap2\n      pop\n        /* \"#utility.yul\":10559:10677   */\n      pop\n        /* \"#utility.yul\":10210:10684   */\n      swap3\n      pop\n      swap3\n      swap1\n      pop\n      jump\t// out\n        /* \"#utility.yul\":10690:10914   */\n    tag_340:\n        /* \"#utility.yul\":10830:10864   */\n      0x546865726520697320616e20616374697665206164732e20706c732074727920\n        /* \"#utility.yul\":10826:10827   */\n      0x00\n        /* \"#utility.yul\":10818:10824   */\n      dup3\n        /* \"#utility.yul\":10814:10828   */\n      add\n        /* \"#utility.yul\":10807:10865   */\n      mstore\n        /* \"#utility.yul\":10899:10906   */\n      0x6c61746572000000000000000000000000000000000000000000000000000000\n        /* \"#utility.yul\":10894:10896   */\n      0x20\n        /* \"#utility.yul\":10886:10892   */\n      dup3\n        /* \"#utility.yul\":10882:10897   */\n      add\n        /* \"#utility.yul\":10875:10907   */\n      mstore\n        /* \"#utility.yul\":10690:10914   */\n      pop\n      jump\t// out\n        /* \"#utility.yul\":10920:11286   */\n    tag_341:\n        /* \"#utility.yul\":11062:11065   */\n      0x00\n        /* \"#utility.yul\":11083:11150   */\n      tag_492\n        /* \"#utility.yul\":11147:11149   */\n      0x25\n        /* \"#utility.yul\":11142:11145   */\n      dup4\n        /* \"#utility.yul\":11083:11150   */\n      tag_329\n      jump\t// in\n    tag_492:\n        /* \"#utility.yul\":11076:11150   */\n      swap2\n      pop\n        /* \"#utility.yul\":11159:11252   */\n      tag_493\n        /* \"#utility.yul\":11248:11251   */\n      dup3\n        /* \"#utility.yul\":11159:11252   */\n      tag_340\n      jump\t// in\n    tag_493:\n        /* \"#utility.yul\":11277:11279   */\n      0x40\n        /* \"#utility.yul\":11272:11275   */\n      dup3\n        /* \"#utility.yul\":11268:11280   */\n      add\n        /* \"#utility.yul\":11261:11280   */\n      swap1\n      pop\n        /* \"#utility.yul\":10920:11286   */\n      swap2\n      swap1\n      pop\n      jump\t// out\n        /* \"#utility.yul\":11292:11711   */\n    tag_166:\n        /* \"#utility.yul\":11458:11462   */\n      0x00\n        /* \"#utility.yul\":11496:11498   */\n      0x20\n        /* \"#utility.yul\":11485:11494   */\n      dup3\n        /* \"#utility.yul\":11481:11499   */\n      add\n        /* \"#utility.yul\":11473:11499   */\n      swap1\n      pop\n        /* \"#utility.yul\":11545:11554   */\n      dup2\n        /* \"#utility.yul\":11539:11543   */\n      dup2\n        /* \"#utility.yul\":11535:11555   */\n      sub\n        /* \"#utility.yul\":11531:11532   */\n      0x00\n        /* \"#utility.yul\":11520:11529   */\n      dup4\n        /* \"#utility.yul\":11516:11533   */\n      add\n        /* \"#utility.yul\":11509:11556   */\n      mstore\n        /* \"#utility.yul\":11573:11704   */\n      tag_495\n        /* \"#utility.yul\":11699:11703   */\n      dup2\n        /* \"#utility.yul\":11573:11704   */\n      tag_341\n      jump\t// in\n    tag_495:\n        /* \"#utility.yul\":11565:11704   */\n      swap1\n      pop\n        /* \"#utility.yul\":11292:11711   */\n      swap2\n      swap1\n      pop\n      jump\t// out\n        /* \"#utility.yul\":11717:11898   */\n    tag_342:\n        /* \"#utility.yul\":11857:11890   */\n      0x4475726174696f6e206d7573742062652067726174686572207468616e203000\n        /* \"#utility.yul\":11853:11854   */\n      0x00\n        /* \"#utility.yul\":11845:11851   */\n      dup3\n        /* \"#utility.yul\":11841:11855   */\n      add\n        /* \"#utility.yul\":11834:11891   */\n      mstore\n        /* \"#utility.yul\":11717:11898   */\n      pop\n      jump\t// out\n        /* \"#utility.yul\":11904:12270   */\n    tag_343:\n        /* \"#utility.yul\":12046:12049   */\n      0x00\n        /* \"#utility.yul\":12067:12134   */\n      tag_498\n        /* \"#utility.yul\":12131:12133   */\n      0x1f\n        /* \"#utility.yul\":12126:12129   */\n      dup4\n        /* \"#utility.yul\":12067:12134   */\n      tag_329\n      jump\t// in\n    tag_498:\n        /* \"#utility.yul\":12060:12134   */\n      swap2\n      pop\n        /* \"#utility.yul\":12143:12236   */\n      tag_499\n        /* \"#utility.yul\":12232:12235   */\n      dup3\n        /* \"#utility.yul\":12143:12236   */\n      tag_342\n      jump\t// in\n    tag_499:\n        /* \"#utility.yul\":12261:12263   */\n      0x20\n        /* \"#utility.yul\":12256:12259   */\n      dup3\n        /* \"#utility.yul\":12252:12264   */\n      add\n        /* \"#utility.yul\":12245:12264   */\n      swap1\n      pop\n        /* \"#utility.yul\":11904:12270   */\n      swap2\n      swap1\n      pop\n      jump\t// out\n        /* \"#utility.yul\":12276:12695   */\n    tag_169:\n        /* \"#utility.yul\":12442:12446   */\n      0x00\n        /* \"#utility.yul\":12480:12482   */\n      0x20\n        /* \"#utility.yul\":12469:12478   */\n      dup3\n        /* \"#utility.yul\":12465:12483   */\n      add\n        /* \"#utility.yul\":12457:12483   */\n      swap1\n      pop\n        /* \"#utility.yul\":12529:12538   */\n      dup2\n        /* \"#utility.yul\":12523:12527   */\n      dup2\n        /* \"#utility.yul\":12519:12539   */\n      sub\n        /* \"#utility.yul\":12515:12516   */\n      0x00\n        /* \"#utility.yul\":12504:12513   */\n      dup4\n        /* \"#utility.yul\":12500:12517   */\n      add\n        /* \"#utility.yul\":12493:12540   */\n      mstore\n        /* \"#utility.yul\":12557:12688   */\n      tag_501\n        /* \"#utility.yul\":12683:12687   */\n      dup2\n        /* \"#utility.yul\":12557:12688   */\n      tag_343\n      jump\t// in\n    tag_501:\n        /* \"#utility.yul\":12549:12688   */\n      swap1\n      pop\n        /* \"#utility.yul\":12276:12695   */\n      swap2\n      swap1\n      pop\n      jump\t// out\n        /* \"#utility.yul\":12701:12881   */\n    tag_344:\n        /* \"#utility.yul\":12749:12826   */\n      0x4e487b7100000000000000000000000000000000000000000000000000000000\n        /* \"#utility.yul\":12746:12747   */\n      0x00\n        /* \"#utility.yul\":12739:12827   */\n      mstore\n        /* \"#utility.yul\":12846:12850   */\n      0x11\n        /* \"#utility.yul\":12843:12844   */\n      0x04\n        /* \"#utility.yul\":12836:12851   */\n      mstore\n        /* \"#utility.yul\":12870:12874   */\n      0x24\n        /* \"#utility.yul\":12867:12868   */\n      0x00\n        /* \"#utility.yul\":12860:12875   */\n      revert\n        /* \"#utility.yul\":12887:13297   */\n    tag_173:\n        /* \"#utility.yul\":12927:12934   */\n      0x00\n        /* \"#utility.yul\":12950:12970   */\n      tag_504\n        /* \"#utility.yul\":12968:12969   */\n      dup3\n        /* \"#utility.yul\":12950:12970   */\n      tag_312\n      jump\t// in\n    tag_504:\n        /* \"#utility.yul\":12945:12970   */\n      swap2\n      pop\n        /* \"#utility.yul\":12984:13004   */\n      tag_505\n        /* \"#utility.yul\":13002:13003   */\n      dup4\n        /* \"#utility.yul\":12984:13004   */\n      tag_312\n      jump\t// in\n    tag_505:\n        /* \"#utility.yul\":12979:13004   */\n      swap3\n      pop\n        /* \"#utility.yul\":13039:13040   */\n      dup3\n        /* \"#utility.yul\":13036:13037   */\n      dup3\n        /* \"#utility.yul\":13032:13041   */\n      mul\n        /* \"#utility.yul\":13061:13091   */\n      tag_506\n        /* \"#utility.yul\":13079:13090   */\n      dup2\n        /* \"#utility.yul\":13061:13091   */\n      tag_312\n      jump\t// in\n    tag_506:\n        /* \"#utility.yul\":13050:13091   */\n      swap2\n      pop\n        /* \"#utility.yul\":13240:13241   */\n      dup3\n        /* \"#utility.yul\":13231:13238   */\n      dup3\n        /* \"#utility.yul\":13227:13242   */\n      div\n        /* \"#utility.yul\":13224:13225   */\n      dup5\n        /* \"#utility.yul\":13221:13243   */\n      eq\n        /* \"#utility.yul\":13201:13202   */\n      dup4\n        /* \"#utility.yul\":13194:13203   */\n      iszero\n        /* \"#utility.yul\":13174:13257   */\n      or\n        /* \"#utility.yul\":13151:13290   */\n      tag_507\n      jumpi\n        /* \"#utility.yul\":13270:13288   */\n      tag_508\n      tag_344\n      jump\t// in\n    tag_508:\n        /* \"#utility.yul\":13151:13290   */\n    tag_507:\n        /* \"#utility.yul\":12935:13297   */\n      pop\n        /* \"#utility.yul\":12887:13297   */\n      swap3\n      swap2\n      pop\n      pop\n      jump\t// out\n        /* \"#utility.yul\":13303:13635   */\n    tag_178:\n        /* \"#utility.yul\":13424:13428   */\n      0x00\n        /* \"#utility.yul\":13462:13464   */\n      0x40\n        /* \"#utility.yul\":13451:13460   */\n      dup3\n        /* \"#utility.yul\":13447:13465   */\n      add\n        /* \"#utility.yul\":13439:13465   */\n      swap1\n      pop\n        /* \"#utility.yul\":13475:13546   */\n      tag_510\n        /* \"#utility.yul\":13543:13544   */\n      0x00\n        /* \"#utility.yul\":13532:13541   */\n      dup4\n        /* \"#utility.yul\":13528:13545   */\n      add\n        /* \"#utility.yul\":13519:13525   */\n      dup6\n        /* \"#utility.yul\":13475:13546   */\n      tag_317\n      jump\t// in\n    tag_510:\n        /* \"#utility.yul\":13556:13628   */\n      tag_511\n        /* \"#utility.yul\":13624:13626   */\n      0x20\n        /* \"#utility.yul\":13613:13622   */\n      dup4\n        /* \"#utility.yul\":13609:13627   */\n      add\n        /* \"#utility.yul\":13600:13606   */\n      dup5\n        /* \"#utility.yul\":13556:13628   */\n      tag_334\n      jump\t// in\n    tag_511:\n        /* \"#utility.yul\":13303:13635   */\n      swap4\n      swap3\n      pop\n      pop\n      pop\n      jump\t// out\n        /* \"#utility.yul\":13641:13788   */\n    tag_345:\n        /* \"#utility.yul\":13742:13753   */\n      0x00\n        /* \"#utility.yul\":13779:13782   */\n      dup2\n        /* \"#utility.yul\":13764:13782   */\n      swap1\n      pop\n        /* \"#utility.yul\":13641:13788   */\n      swap3\n      swap2\n      pop\n      pop\n      jump\t// out\n        /* \"#utility.yul\":13794:13908   */\n    tag_346:\n      pop\n      jump\t// out\n        /* \"#utility.yul\":13914:14312   */\n    tag_347:\n        /* \"#utility.yul\":14073:14076   */\n      0x00\n        /* \"#utility.yul\":14094:14177   */\n      tag_515\n        /* \"#utility.yul\":14175:14176   */\n      0x00\n        /* \"#utility.yul\":14170:14173   */\n      dup4\n        /* \"#utility.yul\":14094:14177   */\n      tag_345\n      jump\t// in\n    tag_515:\n        /* \"#utility.yul\":14087:14177   */\n      swap2\n      pop\n        /* \"#utility.yul\":14186:14279   */\n      tag_516\n        /* \"#utility.yul\":14275:14278   */\n      dup3\n        /* \"#utility.yul\":14186:14279   */\n      tag_346\n      jump\t// in\n    tag_516:\n        /* \"#utility.yul\":14304:14305   */\n      0x00\n        /* \"#utility.yul\":14299:14302   */\n      dup3\n        /* \"#utility.yul\":14295:14306   */\n      add\n        /* \"#utility.yul\":14288:14306   */\n      swap1\n      pop\n        /* \"#utility.yul\":13914:14312   */\n      swap2\n      swap1\n      pop\n      jump\t// out\n        /* \"#utility.yul\":14318:14697   */\n    tag_182:\n        /* \"#utility.yul\":14502:14505   */\n      0x00\n        /* \"#utility.yul\":14524:14671   */\n      tag_518\n        /* \"#utility.yul\":14667:14670   */\n      dup3\n        /* \"#utility.yul\":14524:14671   */\n      tag_347\n      jump\t// in\n    tag_518:\n        /* \"#utility.yul\":14517:14671   */\n      swap2\n      pop\n        /* \"#utility.yul\":14688:14691   */\n      dup2\n        /* \"#utility.yul\":14681:14691   */\n      swap1\n      pop\n        /* \"#utility.yul\":14318:14697   */\n      swap2\n      swap1\n      pop\n      jump\t// out\n        /* \"#utility.yul\":14703:14873   */\n    tag_348:\n        /* \"#utility.yul\":14843:14865   */\n      0x4661696c656420746f2073656e64204574686572000000000000000000000000\n        /* \"#utility.yul\":14839:14840   */\n      0x00\n        /* \"#utility.yul\":14831:14837   */\n      dup3\n        /* \"#utility.yul\":14827:14841   */\n      add\n        /* \"#utility.yul\":14820:14866   */\n      mstore\n        /* \"#utility.yul\":14703:14873   */\n      pop\n      jump\t// out\n        /* \"#utility.yul\":14879:15245   */\n    tag_349:\n        /* \"#utility.yul\":15021:15024   */\n      0x00\n        /* \"#utility.yul\":15042:15109   */\n      tag_521\n        /* \"#utility.yul\":15106:15108   */\n      0x14\n        /* \"#utility.yul\":15101:15104   */\n      dup4\n        /* \"#utility.yul\":15042:15109   */\n      tag_329\n      jump\t// in\n    tag_521:\n        /* \"#utility.yul\":15035:15109   */\n      swap2\n      pop\n        /* \"#utility.yul\":15118:15211   */\n      tag_522\n        /* \"#utility.yul\":15207:15210   */\n      dup3\n        /* \"#utility.yul\":15118:15211   */\n      tag_348\n      jump\t// in\n    tag_522:\n        /* \"#utility.yul\":15236:15238   */\n      0x20\n        /* \"#utility.yul\":15231:15234   */\n      dup3\n        /* \"#utility.yul\":15227:15239   */\n      add\n        /* \"#utility.yul\":15220:15239   */\n      swap1\n      pop\n        /* \"#utility.yul\":14879:15245   */\n      swap2\n      swap1\n      pop\n      jump\t// out\n        /* \"#utility.yul\":15251:15670   */\n    tag_188:\n        /* \"#utility.yul\":15417:15421   */\n      0x00\n        /* \"#utility.yul\":15455:15457   */\n      0x20\n        /* \"#utility.yul\":15444:15453   */\n      dup3\n        /* \"#utility.yul\":15440:15458   */\n      add\n        /* \"#utility.yul\":15432:15458   */\n      swap1\n      pop\n        /* \"#utility.yul\":15504:15513   */\n      dup2\n        /* \"#utility.yul\":15498:15502   */\n      dup2\n        /* \"#utility.yul\":15494:15514   */\n      sub\n        /* \"#utility.yul\":15490:15491   */\n      0x00\n        /* \"#utility.yul\":15479:15488   */\n      dup4\n        /* \"#utility.yul\":15475:15492   */\n      add\n        /* \"#utility.yul\":15468:15515   */\n      mstore\n        /* \"#utility.yul\":15532:15663   */\n      tag_524\n        /* \"#utility.yul\":15658:15662   */\n      dup2\n        /* \"#utility.yul\":15532:15663   */\n      tag_349\n      jump\t// in\n    tag_524:\n        /* \"#utility.yul\":15524:15663   */\n      swap1\n      pop\n        /* \"#utility.yul\":15251:15670   */\n      swap2\n      swap1\n      pop\n      jump\t// out\n        /* \"#utility.yul\":15676:15856   */\n    tag_350:\n        /* \"#utility.yul\":15724:15801   */\n      0x4e487b7100000000000000000000000000000000000000000000000000000000\n        /* \"#utility.yul\":15721:15722   */\n      0x00\n        /* \"#utility.yul\":15714:15802   */\n      mstore\n        /* \"#utility.yul\":15821:15825   */\n      0x22\n        /* \"#utility.yul\":15818:15819   */\n      0x04\n        /* \"#utility.yul\":15811:15826   */\n      mstore\n        /* \"#utility.yul\":15845:15849   */\n      0x24\n        /* \"#utility.yul\":15842:15843   */\n      0x00\n        /* \"#utility.yul\":15835:15850   */\n      revert\n        /* \"#utility.yul\":15862:16182   */\n    tag_194:\n        /* \"#utility.yul\":15906:15912   */\n      0x00\n        /* \"#utility.yul\":15943:15944   */\n      0x02\n        /* \"#utility.yul\":15937:15941   */\n      dup3\n        /* \"#utility.yul\":15933:15945   */\n      div\n        /* \"#utility.yul\":15923:15945   */\n      swap1\n      pop\n        /* \"#utility.yul\":15990:15991   */\n      0x01\n        /* \"#utility.yul\":15984:15988   */\n      dup3\n        /* \"#utility.yul\":15980:15992   */\n      and\n        /* \"#utility.yul\":16011:16029   */\n      dup1\n        /* \"#utility.yul\":16001:16082   */\n      tag_527\n      jumpi\n        /* \"#utility.yul\":16067:16071   */\n      0x7f\n        /* \"#utility.yul\":16059:16065   */\n      dup3\n        /* \"#utility.yul\":16055:16072   */\n      and\n        /* \"#utility.yul\":16045:16072   */\n      swap2\n      pop\n        /* \"#utility.yul\":16001:16082   */\n    tag_527:\n        /* \"#utility.yul\":16129:16131   */\n      0x20\n        /* \"#utility.yul\":16121:16127   */\n      dup3\n        /* \"#utility.yul\":16118:16132   */\n      lt\n        /* \"#utility.yul\":16098:16116   */\n      dup2\n        /* \"#utility.yul\":16095:16133   */\n      sub\n        /* \"#utility.yul\":16092:16176   */\n      tag_528\n      jumpi\n        /* \"#utility.yul\":16148:16166   */\n      tag_529\n      tag_350\n      jump\t// in\n    tag_529:\n        /* \"#utility.yul\":16092:16176   */\n    tag_528:\n        /* \"#utility.yul\":15913:16182   */\n      pop\n        /* \"#utility.yul\":15862:16182   */\n      swap2\n      swap1\n      pop\n      jump\t// out\n        /* \"#utility.yul\":16188:16329   */\n    tag_351:\n        /* \"#utility.yul\":16237:16241   */\n      0x00\n        /* \"#utility.yul\":16260:16263   */\n      dup2\n        /* \"#utility.yul\":16252:16263   */\n      swap1\n      pop\n        /* \"#utility.yul\":16283:16286   */\n      dup2\n        /* \"#utility.yul\":16280:16281   */\n      0x00\n        /* \"#utility.yul\":16273:16287   */\n      mstore\n        /* \"#utility.yul\":16317:16321   */\n      0x20\n        /* \"#utility.yul\":16314:16315   */\n      0x00\n        /* \"#utility.yul\":16304:16322   */\n      keccak256\n        /* \"#utility.yul\":16296:16322   */\n      swap1\n      pop\n        /* \"#utility.yul\":16188:16329   */\n      swap2\n      swap1\n      pop\n      jump\t// out\n        /* \"#utility.yul\":16335:16428   */\n    tag_352:\n        /* \"#utility.yul\":16372:16378   */\n      0x00\n        /* \"#utility.yul\":16419:16421   */\n      0x20\n        /* \"#utility.yul\":16414:16416   */\n      0x1f\n        /* \"#utility.yul\":16407:16412   */\n      dup4\n        /* \"#utility.yul\":16403:16417   */\n      add\n        /* \"#utility.yul\":16399:16422   */\n      div\n        /* \"#utility.yul\":16389:16422   */\n      swap1\n      pop\n        /* \"#utility.yul\":16335:16428   */\n      swap2\n      swap1\n      pop\n      jump\t// out\n        /* \"#utility.yul\":16434:16541   */\n    tag_353:\n        /* \"#utility.yul\":16478:16486   */\n      0x00\n        /* \"#utility.yul\":16528:16533   */\n      dup3\n        /* \"#utility.yul\":16522:16526   */\n      dup3\n        /* \"#utility.yul\":16518:16534   */\n      shl\n        /* \"#utility.yul\":16497:16534   */\n      swap1\n      pop\n        /* \"#utility.yul\":16434:16541   */\n      swap3\n      swap2\n      pop\n      pop\n      jump\t// out\n        /* \"#utility.yul\":16547:16940   */\n    tag_354:\n        /* \"#utility.yul\":16616:16622   */\n      0x00\n        /* \"#utility.yul\":16666:16667   */\n      0x08\n        /* \"#utility.yul\":16654:16664   */\n      dup4\n        /* \"#utility.yul\":16650:16668   */\n      mul\n        /* \"#utility.yul\":16689:16786   */\n      tag_534\n        /* \"#utility.yul\":16719:16785   */\n      0xffffffffffffffffffffffffffffffffffffffffffffffffffffffffffffffff\n        /* \"#utility.yul\":16708:16717   */\n      dup3\n        /* \"#utility.yul\":16689:16786   */\n      tag_353\n      jump\t// in\n    tag_534:\n        /* \"#utility.yul\":16807:16846   */\n      tag_535\n        /* \"#utility.yul\":16837:16845   */\n      dup7\n        /* \"#utility.yul\":16826:16835   */\n      dup4\n        /* \"#utility.yul\":16807:16846   */\n      tag_353\n      jump\t// in\n    tag_535:\n        /* \"#utility.yul\":16795:16846   */\n      swap6\n      pop\n        /* \"#utility.yul\":16879:16883   */\n      dup1\n        /* \"#utility.yul\":16875:16884   */\n      not\n        /* \"#utility.yul\":16868:16873   */\n      dup5\n        /* \"#utility.yul\":16864:16885   */\n      and\n        /* \"#utility.yul\":16855:16885   */\n      swap4\n      pop\n        /* \"#utility.yul\":16928:16932   */\n      dup1\n        /* \"#utility.yul\":16918:16926   */\n      dup7\n        /* \"#utility.yul\":16914:16933   */\n      and\n        /* \"#utility.yul\":16907:16912   */\n      dup5\n        /* \"#utility.yul\":16904:16934   */\n      or\n        /* \"#utility.yul\":16894:16934   */\n      swap3\n      pop\n        /* \"#utility.yul\":16623:16940   */\n      pop\n      pop\n        /* \"#utility.yul\":16547:16940   */\n      swap4\n      swap3\n      pop\n      pop\n      pop\n      jump\t// out\n        /* \"#utility.yul\":16946:17006   */\n    tag_355:\n        /* \"#utility.yul\":16974:16977   */\n      0x00\n        /* \"#utility.yul\":16995:17000   */\n      dup2\n        /* \"#utility.yul\":16988:17000   */\n      swap1\n      pop\n        /* \"#utility.yul\":16946:17006   */\n      swap2\n      swap1\n      pop\n      jump\t// out\n        /* \"#utility.yul\":17012:17154   */\n    tag_356:\n        /* \"#utility.yul\":17062:17071   */\n      0x00\n        /* \"#utility.yul\":17095:17148   */\n      tag_538\n        /* \"#utility.yul\":17113:17147   */\n      tag_539\n        /* \"#utility.yul\":17122:17146   */\n      tag_540\n        /* \"#utility.yul\":17140:17145   */\n      dup5\n        /* \"#utility.yul\":17122:17146   */\n      tag_312\n      jump\t// in\n    tag_540:\n        /* \"#utility.yul\":17113:17147   */\n      tag_355\n      jump\t// in\n    tag_539:\n        /* \"#utility.yul\":17095:17148   */\n      tag_312\n      jump\t// in\n    tag_538:\n        /* \"#utility.yul\":17082:17148   */\n      swap1\n      pop\n        /* \"#utility.yul\":17012:17154   */\n      swap2\n      swap1\n      pop\n      jump\t// out\n        /* \"#utility.yul\":17160:17235   */\n    tag_357:\n        /* \"#utility.yul\":17203:17206   */\n      0x00\n        /* \"#utility.yul\":17224:17229   */\n      dup2\n        /* \"#utility.yul\":17217:17229   */\n      swap1\n      pop\n        /* \"#utility.yul\":17160:17235   */\n      swap2\n      swap1\n      pop\n      jump\t// out\n        /* \"#utility.yul\":17241:17510   */\n    tag_358:\n        /* \"#utility.yul\":17351:17390   */\n      tag_543\n        /* \"#utility.yul\":17382:17389   */\n      dup4\n        /* \"#utility.yul\":17351:17390   */\n      tag_356\n      jump\t// in\n    tag_543:\n        /* \"#utility.yul\":17412:17503   */\n      tag_544\n        /* \"#utility.yul\":17461:17502   */\n      tag_545\n        /* \"#utility.yul\":17485:17501   */\n      dup3\n        /* \"#utility.yul\":17461:17502   */\n      tag_357\n      jump\t// in\n    tag_545:\n        /* \"#utility.yul\":17453:17459   */\n      dup5\n        /* \"#utility.yul\":17446:17450   */\n      dup5\n        /* \"#utility.yul\":17440:17451   */\n      sload\n        /* \"#utility.yul\":17412:17503   */\n      tag_354\n      jump\t// in\n    tag_544:\n        /* \"#utility.yul\":17406:17410   */\n      dup3\n        /* \"#utility.yul\":17399:17504   */\n      sstore\n        /* \"#utility.yul\":17317:17510   */\n      pop\n        /* \"#utility.yul\":17241:17510   */\n      pop\n      pop\n      pop\n      jump\t// out\n        /* \"#utility.yul\":17516:17589   */\n    tag_359:\n        /* \"#utility.yul\":17561:17564   */\n      0x00\n        /* \"#utility.yul\":17582:17583   */\n      0x00\n        /* \"#utility.yul\":17575:17583   */\n      swap1\n      pop\n        /* \"#utility.yul\":17516:17589   */\n      swap1\n      jump\t// out\n        /* \"#utility.yul\":17595:17784   */\n    tag_360:\n        /* \"#utility.yul\":17672:17704   */\n      tag_548\n      tag_359\n      jump\t// in\n    tag_548:\n        /* \"#utility.yul\":17713:17778   */\n      tag_549\n        /* \"#utility.yul\":17771:17777   */\n      dup2\n        /* \"#utility.yul\":17763:17769   */\n      dup5\n        /* \"#utility.yul\":17757:17761   */\n      dup5\n        /* \"#utility.yul\":17713:17778   */\n      tag_358\n      jump\t// in\n    tag_549:\n        /* \"#utility.yul\":17648:17784   */\n      pop\n        /* \"#utility.yul\":17595:17784   */\n      pop\n      pop\n      jump\t// out\n        /* \"#utility.yul\":17790:17976   */\n    tag_361:\n        /* \"#utility.yul\":17850:17970   */\n    tag_551:\n        /* \"#utility.yul\":17867:17870   */\n      dup2\n        /* \"#utility.yul\":17860:17865   */\n      dup2\n        /* \"#utility.yul\":17857:17871   */\n      lt\n        /* \"#utility.yul\":17850:17970   */\n      iszero\n      tag_553\n      jumpi\n        /* \"#utility.yul\":17921:17960   */\n      tag_554\n        /* \"#utility.yul\":17958:17959   */\n      0x00\n        /* \"#utility.yul\":17951:17956   */\n      dup3\n        /* \"#utility.yul\":17921:17960   */\n      tag_360\n      jump\t// in\n    tag_554:\n        /* \"#utility.yul\":17894:17895   */\n      0x01\n        /* \"#utility.yul\":17887:17892   */\n      dup2\n        /* \"#utility.yul\":17883:17896   */\n      add\n        /* \"#utility.yul\":17874:17896   */\n      swap1\n      pop\n        /* \"#utility.yul\":17850:17970   */\n      jump(tag_551)\n    tag_553:\n        /* \"#utility.yul\":17790:17976   */\n      pop\n      pop\n      jump\t// out\n        /* \"#utility.yul\":17982:18525   */\n    tag_362:\n        /* \"#utility.yul\":18083:18085   */\n      0x1f\n        /* \"#utility.yul\":18078:18081   */\n      dup3\n        /* \"#utility.yul\":18075:18086   */\n      gt\n        /* \"#utility.yul\":18072:18518   */\n      iszero\n      tag_556\n      jumpi\n        /* \"#utility.yul\":18117:18155   */\n      tag_557\n        /* \"#utility.yul\":18149:18154   */\n      dup2\n        /* \"#utility.yul\":18117:18155   */\n      tag_351\n      jump\t// in\n    tag_557:\n        /* \"#utility.yul\":18201:18230   */\n      tag_558\n        /* \"#utility.yul\":18219:18229   */\n      dup5\n        /* \"#utility.yul\":18201:18230   */\n      tag_352\n      jump\t// in\n    tag_558:\n        /* \"#utility.yul\":18191:18199   */\n      dup2\n        /* \"#utility.yul\":18187:18231   */\n      add\n        /* \"#utility.yul\":18384:18386   */\n      0x20\n        /* \"#utility.yul\":18372:18382   */\n      dup6\n        /* \"#utility.yul\":18369:18387   */\n      lt\n        /* \"#utility.yul\":18366:18415   */\n      iszero\n      tag_559\n      jumpi\n        /* \"#utility.yul\":18405:18413   */\n      dup2\n        /* \"#utility.yul\":18390:18413   */\n      swap1\n      pop\n        /* \"#utility.yul\":18366:18415   */\n    tag_559:\n        /* \"#utility.yul\":18428:18508   */\n      tag_560\n        /* \"#utility.yul\":18484:18506   */\n      tag_561\n        /* \"#utility.yul\":18502:18505   */\n      dup6\n        /* \"#utility.yul\":18484:18506   */\n      tag_352\n      jump\t// in\n    tag_561:\n        /* \"#utility.yul\":18474:18482   */\n      dup4\n        /* \"#utility.yul\":18470:18507   */\n      add\n        /* \"#utility.yul\":18457:18468   */\n      dup3\n        /* \"#utility.yul\":18428:18508   */\n      tag_361\n      jump\t// in\n    tag_560:\n        /* \"#utility.yul\":18087:18518   */\n      pop\n      pop\n        /* \"#utility.yul\":18072:18518   */\n    tag_556:\n        /* \"#utility.yul\":17982:18525   */\n      pop\n      pop\n      pop\n      jump\t// out\n        /* \"#utility.yul\":18531:18648   */\n    tag_363:\n        /* \"#utility.yul\":18585:18593   */\n      0x00\n        /* \"#utility.yul\":18635:18640   */\n      dup3\n        /* \"#utility.yul\":18629:18633   */\n      dup3\n        /* \"#utility.yul\":18625:18641   */\n      shr\n        /* \"#utility.yul\":18604:18641   */\n      swap1\n      pop\n        /* \"#utility.yul\":18531:18648   */\n      swap3\n      swap2\n      pop\n      pop\n      jump\t// out\n        /* \"#utility.yul\":18654:18823   */\n    tag_364:\n        /* \"#utility.yul\":18698:18704   */\n      0x00\n        /* \"#utility.yul\":18731:18782   */\n      tag_564\n        /* \"#utility.yul\":18779:18780   */\n      0x00\n        /* \"#utility.yul\":18775:18781   */\n      not\n        /* \"#utility.yul\":18767:18772   */\n      dup5\n        /* \"#utility.yul\":18764:18765   */\n      0x08\n        /* \"#utility.yul\":18760:18773   */\n      mul\n        /* \"#utility.yul\":18731:18782   */\n      tag_363\n      jump\t// in\n    tag_564:\n        /* \"#utility.yul\":18727:18783   */\n      not\n        /* \"#utility.yul\":18812:18816   */\n      dup1\n        /* \"#utility.yul\":18806:18810   */\n      dup4\n        /* \"#utility.yul\":18802:18817   */\n      and\n        /* \"#utility.yul\":18792:18817   */\n      swap2\n      pop\n        /* \"#utility.yul\":18705:18823   */\n      pop\n        /* \"#utility.yul\":18654:18823   */\n      swap3\n      swap2\n      pop\n      pop\n      jump\t// out\n        /* \"#utility.yul\":18828:19123   */\n    tag_365:\n        /* \"#utility.yul\":18904:18908   */\n      0x00\n        /* \"#utility.yul\":19050:19079   */\n      tag_566\n        /* \"#utility.yul\":19075:19078   */\n      dup4\n        /* \"#utility.yul\":19069:19073   */\n      dup4\n        /* \"#utility.yul\":19050:19079   */\n      tag_364\n      jump\t// in\n    tag_566:\n        /* \"#utility.yul\":19042:19079   */\n      swap2\n      pop\n        /* \"#utility.yul\":19112:19115   */\n      dup3\n        /* \"#utility.yul\":19109:19110   */\n      0x02\n        /* \"#utility.yul\":19105:19116   */\n      mul\n        /* \"#utility.yul\":19099:19103   */\n      dup3\n        /* \"#utility.yul\":19096:19117   */\n      or\n        /* \"#utility.yul\":19088:19117   */\n      swap1\n      pop\n        /* \"#utility.yul\":18828:19123   */\n      swap3\n      swap2\n      pop\n      pop\n      jump\t// out\n        /* \"#utility.yul\":19128:20523   */\n    tag_191:\n        /* \"#utility.yul\":19245:19282   */\n      tag_568\n        /* \"#utility.yul\":19278:19281   */\n      dup3\n        /* \"#utility.yul\":19245:19282   */\n      tag_328\n      jump\t// in\n    tag_568:\n        /* \"#utility.yul\":19347:19365   */\n      0xffffffffffffffff\n        /* \"#utility.yul\":19339:19345   */\n      dup2\n        /* \"#utility.yul\":19336:19366   */\n      gt\n        /* \"#utility.yul\":19333:19389   */\n      iszero\n      tag_569\n      jumpi\n        /* \"#utility.yul\":19369:19387   */\n      tag_570\n      tag_321\n      jump\t// in\n    tag_570:\n        /* \"#utility.yul\":19333:19389   */\n    tag_569:\n        /* \"#utility.yul\":19413:19451   */\n      tag_571\n        /* \"#utility.yul\":19445:19449   */\n      dup3\n        /* \"#utility.yul\":19439:19450   */\n      sload\n        /* \"#utility.yul\":19413:19451   */\n      tag_194\n      jump\t// in\n    tag_571:\n        /* \"#utility.yul\":19498:19565   */\n      tag_572\n        /* \"#utility.yul\":19558:19564   */\n      dup3\n        /* \"#utility.yul\":19550:19556   */\n      dup3\n        /* \"#utility.yul\":19544:19548   */\n      dup6\n        /* \"#utility.yul\":19498:19565   */\n      tag_362\n      jump\t// in\n    tag_572:\n        /* \"#utility.yul\":19592:19593   */\n      0x00\n        /* \"#utility.yul\":19616:19620   */\n      0x20\n        /* \"#utility.yul\":19603:19620   */\n      swap1\n      pop\n        /* \"#utility.yul\":19648:19650   */\n      0x1f\n        /* \"#utility.yul\":19640:19646   */\n      dup4\n        /* \"#utility.yul\":19637:19651   */\n      gt\n        /* \"#utility.yul\":19665:19666   */\n      0x01\n        /* \"#utility.yul\":19660:20278   */\n      dup2\n      eq\n      tag_574\n      jumpi\n        /* \"#utility.yul\":20322:20323   */\n      0x00\n        /* \"#utility.yul\":20339:20345   */\n      dup5\n        /* \"#utility.yul\":20336:20413   */\n      iszero\n      tag_575\n      jumpi\n        /* \"#utility.yul\":20388:20397   */\n      dup3\n        /* \"#utility.yul\":20383:20386   */\n      dup8\n        /* \"#utility.yul\":20379:20398   */\n      add\n        /* \"#utility.yul\":20373:20399   */\n      mload\n        /* \"#utility.yul\":20364:20399   */\n      swap1\n      pop\n        /* \"#utility.yul\":20336:20413   */\n    tag_575:\n        /* \"#utility.yul\":20439:20506   */\n      tag_576\n        /* \"#utility.yul\":20499:20505   */\n      dup6\n        /* \"#utility.yul\":20492:20497   */\n      dup3\n        /* \"#utility.yul\":20439:20506   */\n      tag_365\n      jump\t// in\n    tag_576:\n        /* \"#utility.yul\":20433:20437   */\n      dup7\n        /* \"#utility.yul\":20426:20507   */\n      sstore\n        /* \"#utility.yul\":20295:20517   */\n      pop\n        /* \"#utility.yul\":19630:20517   */\n      jump(tag_573)\n        /* \"#utility.yul\":19660:20278   */\n    tag_574:\n        /* \"#utility.yul\":19712:19716   */\n      0x1f\n        /* \"#utility.yul\":19708:19717   */\n      not\n        /* \"#utility.yul\":19700:19706   */\n      dup5\n        /* \"#utility.yul\":19696:19718   */\n      and\n        /* \"#utility.yul\":19746:19783   */\n      tag_577\n        /* \"#utility.yul\":19778:19782   */\n      dup7\n        /* \"#utility.yul\":19746:19783   */\n      tag_351\n      jump\t// in\n    tag_577:\n        /* \"#utility.yul\":19805:19806   */\n      0x00\n        /* \"#utility.yul\":19819:20027   */\n    tag_578:\n        /* \"#utility.yul\":19833:19840   */\n      dup3\n        /* \"#utility.yul\":19830:19831   */\n      dup2\n        /* \"#utility.yul\":19827:19841   */\n      lt\n        /* \"#utility.yul\":19819:20027   */\n      iszero\n      tag_580\n      jumpi\n        /* \"#utility.yul\":19912:19921   */\n      dup5\n        /* \"#utility.yul\":19907:19910   */\n      dup10\n        /* \"#utility.yul\":19903:19922   */\n      add\n        /* \"#utility.yul\":19897:19923   */\n      mload\n        /* \"#utility.yul\":19889:19895   */\n      dup3\n        /* \"#utility.yul\":19882:19924   */\n      sstore\n        /* \"#utility.yul\":19963:19964   */\n      0x01\n        /* \"#utility.yul\":19955:19961   */\n      dup3\n        /* \"#utility.yul\":19951:19965   */\n      add\n        /* \"#utility.yul\":19941:19965   */\n      swap2\n      pop\n        /* \"#utility.yul\":20010:20012   */\n      0x20\n        /* \"#utility.yul\":19999:20008   */\n      dup6\n        /* \"#utility.yul\":19995:20013   */\n      add\n        /* \"#utility.yul\":19982:20013   */\n      swap5\n      pop\n        /* \"#utility.yul\":19856:19860   */\n      0x20\n        /* \"#utility.yul\":19853:19854   */\n      dup2\n        /* \"#utility.yul\":19849:19861   */\n      add\n        /* \"#utility.yul\":19844:19861   */\n      swap1\n      pop\n        /* \"#utility.yul\":19819:20027   */\n      jump(tag_578)\n    tag_580:\n        /* \"#utility.yul\":20055:20061   */\n      dup7\n        /* \"#utility.yul\":20046:20053   */\n      dup4\n        /* \"#utility.yul\":20043:20062   */\n      lt\n        /* \"#utility.yul\":20040:20219   */\n      iszero\n      tag_581\n      jumpi\n        /* \"#utility.yul\":20113:20122   */\n      dup5\n        /* \"#utility.yul\":20108:20111   */\n      dup10\n        /* \"#utility.yul\":20104:20123   */\n      add\n        /* \"#utility.yul\":20098:20124   */\n      mload\n        /* \"#utility.yul\":20156:20204   */\n      tag_582\n        /* \"#utility.yul\":20198:20202   */\n      0x1f\n        /* \"#utility.yul\":20190:20196   */\n      dup10\n        /* \"#utility.yul\":20186:20203   */\n      and\n        /* \"#utility.yul\":20175:20184   */\n      dup3\n        /* \"#utility.yul\":20156:20204   */\n      tag_364\n      jump\t// in\n    tag_582:\n        /* \"#utility.yul\":20148:20154   */\n      dup4\n        /* \"#utility.yul\":20141:20205   */\n      sstore\n        /* \"#utility.yul\":20063:20219   */\n      pop\n        /* \"#utility.yul\":20040:20219   */\n    tag_581:\n        /* \"#utility.yul\":20265:20266   */\n      0x01\n        /* \"#utility.yul\":20261:20262   */\n      0x02\n        /* \"#utility.yul\":20253:20259   */\n      dup9\n        /* \"#utility.yul\":20249:20263   */\n      mul\n        /* \"#utility.yul\":20245:20267   */\n      add\n        /* \"#utility.yul\":20239:20243   */\n      dup9\n        /* \"#utility.yul\":20232:20268   */\n      sstore\n        /* \"#utility.yul\":19667:20278   */\n      pop\n      pop\n      pop\n        /* \"#utility.yul\":19630:20517   */\n    tag_573:\n      pop\n        /* \"#utility.yul\":19220:20523   */\n      pop\n      pop\n      pop\n        /* \"#utility.yul\":19128:20523   */\n      pop\n      pop\n      jump\t// out\n        /* \"#utility.yul\":20529:20685   */\n    tag_366:\n        /* \"#utility.yul\":20669:20677   */\n      0x4661696c65640000000000000000000000000000000000000000000000000000\n        /* \"#utility.yul\":20665:20666   */\n      0x00\n        /* \"#utility.yul\":20657:20663   */\n      dup3\n        /* \"#utility.yul\":20653:20667   */\n      add\n        /* \"#utility.yul\":20646:20678   */\n      mstore\n        /* \"#utility.yul\":20529:20685   */\n      pop\n      jump\t// out\n        /* \"#utility.yul\":20691:21056   */\n    tag_367:\n        /* \"#utility.yul\":20833:20836   */\n      0x00\n        /* \"#utility.yul\":20854:20920   */\n      tag_585\n        /* \"#utility.yul\":20918:20919   */\n      0x06\n        /* \"#utility.yul\":20913:20916   */\n      dup4\n        /* \"#utility.yul\":20854:20920   */\n      tag_329\n      jump\t// in\n    tag_585:\n        /* \"#utility.yul\":20847:20920   */\n      swap2\n      pop\n        /* \"#utility.yul\":20929:21022   */\n      tag_586\n        /* \"#utility.yul\":21018:21021   */\n      dup3\n        /* \"#utility.yul\":20929:21022   */\n      tag_366\n      jump\t// in\n    tag_586:\n        /* \"#utility.yul\":21047:21049   */\n      0x20\n        /* \"#utility.yul\":21042:21045   */\n      dup3\n        /* \"#utility.yul\":21038:21050   */\n      add\n        /* \"#utility.yul\":21031:21050   */\n      swap1\n      pop\n        /* \"#utility.yul\":20691:21056   */\n      swap2\n      swap1\n      pop\n      jump\t// out\n        /* \"#utility.yul\":21062:21481   */\n    tag_209:\n        /* \"#utility.yul\":21228:21232   */\n      0x00\n        /* \"#utility.yul\":21266:21268   */\n      0x20\n        /* \"#utility.yul\":21255:21264   */\n      dup3\n        /* \"#utility.yul\":21251:21269   */\n      add\n        /* \"#utility.yul\":21243:21269   */\n      swap1\n      pop\n        /* \"#utility.yul\":21315:21324   */\n      dup2\n        /* \"#utility.yul\":21309:21313   */\n      dup2\n        /* \"#utility.yul\":21305:21325   */\n      sub\n        /* \"#utility.yul\":21301:21302   */\n      0x00\n        /* \"#utility.yul\":21290:21299   */\n      dup4\n        /* \"#utility.yul\":21286:21303   */\n      add\n        /* \"#utility.yul\":21279:21326   */\n      mstore\n        /* \"#utility.yul\":21343:21474   */\n      tag_588\n        /* \"#utility.yul\":21469:21473   */\n      dup2\n        /* \"#utility.yul\":21343:21474   */\n      tag_367\n      jump\t// in\n    tag_588:\n        /* \"#utility.yul\":21335:21474   */\n      swap1\n      pop\n        /* \"#utility.yul\":21062:21481   */\n      swap2\n      swap1\n      pop\n      jump\t// out\n        /* \"#utility.yul\":21487:21646   */\n    tag_368:\n        /* \"#utility.yul\":21627:21638   */\n      0x546f6f206561726c790000000000000000000000000000000000000000000000\n        /* \"#utility.yul\":21623:21624   */\n      0x00\n        /* \"#utility.yul\":21615:21621   */\n      dup3\n        /* \"#utility.yul\":21611:21625   */\n      add\n        /* \"#utility.yul\":21604:21639   */\n      mstore\n        /* \"#utility.yul\":21487:21646   */\n      pop\n      jump\t// out\n        /* \"#utility.yul\":21652:22017   */\n    tag_369:\n        /* \"#utility.yul\":21794:21797   */\n      0x00\n        /* \"#utility.yul\":21815:21881   */\n      tag_591\n        /* \"#utility.yul\":21879:21880   */\n      0x09\n        /* \"#utility.yul\":21874:21877   */\n      dup4\n        /* \"#utility.yul\":21815:21881   */\n      tag_329\n      jump\t// in\n    tag_591:\n        /* \"#utility.yul\":21808:21881   */\n      swap2\n      pop\n        /* \"#utility.yul\":21890:21983   */\n      tag_592\n        /* \"#utility.yul\":21979:21982   */\n      dup3\n        /* \"#utility.yul\":21890:21983   */\n      tag_368\n      jump\t// in\n    tag_592:\n        /* \"#utility.yul\":22008:22010   */\n      0x20\n        /* \"#utility.yul\":22003:22006   */\n      dup3\n        /* \"#utility.yul\":21999:22011   */\n      add\n        /* \"#utility.yul\":21992:22011   */\n      swap1\n      pop\n        /* \"#utility.yul\":21652:22017   */\n      swap2\n      swap1\n      pop\n      jump\t// out\n        /* \"#utility.yul\":22023:22442   */\n    tag_220:\n        /* \"#utility.yul\":22189:22193   */\n      0x00\n        /* \"#utility.yul\":22227:22229   */\n      0x20\n        /* \"#utility.yul\":22216:22225   */\n      dup3\n        /* \"#utility.yul\":22212:22230   */\n      add\n        /* \"#utility.yul\":22204:22230   */\n      swap1\n      pop\n        /* \"#utility.yul\":22276:22285   */\n      dup2\n        /* \"#utility.yul\":22270:22274   */\n      dup2\n        /* \"#utility.yul\":22266:22286   */\n      sub\n        /* \"#utility.yul\":22262:22263   */\n      0x00\n        /* \"#utility.yul\":22251:22260   */\n      dup4\n        /* \"#utility.yul\":22247:22264   */\n      add\n        /* \"#utility.yul\":22240:22287   */\n      mstore\n        /* \"#utility.yul\":22304:22435   */\n      tag_594\n        /* \"#utility.yul\":22430:22434   */\n      dup2\n        /* \"#utility.yul\":22304:22435   */\n      tag_369\n      jump\t// in\n    tag_594:\n        /* \"#utility.yul\":22296:22435   */\n      swap1\n      pop\n        /* \"#utility.yul\":22023:22442   */\n      swap2\n      swap1\n      pop\n      jump\t// out\n        /* \"#utility.yul\":22448:22780   */\n    tag_239:\n        /* \"#utility.yul\":22569:22573   */\n      0x00\n        /* \"#utility.yul\":22607:22609   */\n      0x40\n        /* \"#utility.yul\":22596:22605   */\n      dup3\n        /* \"#utility.yul\":22592:22610   */\n      add\n        /* \"#utility.yul\":22584:22610   */\n      swap1\n      pop\n        /* \"#utility.yul\":22620:22691   */\n      tag_596\n        /* \"#utility.yul\":22688:22689   */\n      0x00\n        /* \"#utility.yul\":22677:22686   */\n      dup4\n        /* \"#utility.yul\":22673:22690   */\n      add\n        /* \"#utility.yul\":22664:22670   */\n      dup6\n        /* \"#utility.yul\":22620:22691   */\n      tag_334\n      jump\t// in\n    tag_596:\n        /* \"#utility.yul\":22701:22773   */\n      tag_597\n        /* \"#utility.yul\":22769:22771   */\n      0x20\n        /* \"#utility.yul\":22758:22767   */\n      dup4\n        /* \"#utility.yul\":22754:22772   */\n      add\n        /* \"#utility.yul\":22745:22751   */\n      dup5\n        /* \"#utility.yul\":22701:22773   */\n      tag_317\n      jump\t// in\n    tag_597:\n        /* \"#utility.yul\":22448:22780   */\n      swap4\n      swap3\n      pop\n      pop\n      pop\n      jump\t// out\n        /* \"#utility.yul\":22786:22966   */\n    tag_370:\n        /* \"#utility.yul\":22834:22911   */\n      0x4e487b7100000000000000000000000000000000000000000000000000000000\n        /* \"#utility.yul\":22831:22832   */\n      0x00\n        /* \"#utility.yul\":22824:22912   */\n      mstore\n        /* \"#utility.yul\":22931:22935   */\n      0x12\n        /* \"#utility.yul\":22928:22929   */\n      0x04\n        /* \"#utility.yul\":22921:22936   */\n      mstore\n        /* \"#utility.yul\":22955:22959   */\n      0x24\n        /* \"#utility.yul\":22952:22953   */\n      0x00\n        /* \"#utility.yul\":22945:22960   */\n      revert\n        /* \"#utility.yul\":22972:23157   */\n    tag_276:\n        /* \"#utility.yul\":23012:23013   */\n      0x00\n        /* \"#utility.yul\":23029:23049   */\n      tag_600\n        /* \"#utility.yul\":23047:23048   */\n      dup3\n        /* \"#utility.yul\":23029:23049   */\n      tag_312\n      jump\t// in\n    tag_600:\n        /* \"#utility.yul\":23024:23049   */\n      swap2\n      pop\n        /* \"#utility.yul\":23063:23083   */\n      tag_601\n        /* \"#utility.yul\":23081:23082   */\n      dup4\n        /* \"#utility.yul\":23063:23083   */\n      tag_312\n      jump\t// in\n    tag_601:\n        /* \"#utility.yul\":23058:23083   */\n      swap3\n      pop\n        /* \"#utility.yul\":23102:23103   */\n      dup3\n        /* \"#utility.yul\":23092:23127   */\n      tag_602\n      jumpi\n        /* \"#utility.yul\":23107:23125   */\n      tag_603\n      tag_370\n      jump\t// in\n    tag_603:\n        /* \"#utility.yul\":23092:23127   */\n    tag_602:\n        /* \"#utility.yul\":23149:23150   */\n      dup3\n        /* \"#utility.yul\":23146:23147   */\n      dup3\n        /* \"#utility.yul\":23142:23151   */\n      div\n        /* \"#utility.yul\":23137:23151   */\n      swap1\n      pop\n        /* \"#utility.yul\":22972:23157   */\n      swap3\n      swap2\n      pop\n      pop\n      jump\t// out\n\n    auxdata: 0xa2646970667358221220a556a4bcbea86f88cd3b2253f117cdcc6346488edd9dd83d64924d52bf36167764736f6c634300081c0033\n}\n",
				"bytecode": {
					"linkReferences": {},
					"object": "608060405260146002556004600355670de0b6b3a7640000600455600260055534801561002a575f5ffd5b50335f73ffffffffffffffffffffffffffffffffffffffff168173ffffffffffffffffffffffffffffffffffffffff160361009c575f6040517f1e4fbdf700000000000000000000000000000000000000000000000000000000815260040161009391906101ca565b60405180910390fd5b6100ab816100ca60201b60201c565b505f5f60146101000a81548160ff0219169083151502179055506101e3565b5f5f5f9054906101000a900473ffffffffffffffffffffffffffffffffffffffff169050815f5f6101000a81548173ffffffffffffffffffffffffffffffffffffffff021916908373ffffffffffffffffffffffffffffffffffffffff1602179055508173ffffffffffffffffffffffffffffffffffffffff168173ffffffffffffffffffffffffffffffffffffffff167f8be0079c531659141344cd1fd0a4f28419497f9722a3daafe3b4186f6b6457e060405160405180910390a35050565b5f73ffffffffffffffffffffffffffffffffffffffff82169050919050565b5f6101b48261018b565b9050919050565b6101c4816101aa565b82525050565b5f6020820190506101dd5f8301846101bb565b92915050565b611ea1806101f05f395ff3fe60806040526004361061019b575f3560e01c806368226a78116100eb578063a035b1fe11610089578063ddca3f4311610063578063ddca3f4314610567578063efbe1c1c14610591578063f2fde38b146105bb578063fb2228fe146105e35761019b565b8063a035b1fe146104d7578063a37b06d414610501578063be9a65551461053d5761019b565b80637a895f5d116100c55780637a895f5d146104315780638456cb591461045b5780638da5cb5b146104715780639aeccdc41461049b5761019b565b806368226a78146103b5578063715018a6146103f157806372b121c9146104075761019b565b80633ccfd60b116101585780634e71d92d116101325780634e71d92d1461030b57806356a6d9ef146103355780635a05ec901461035d5780635c975abb1461038b5761019b565b80633ccfd60b146102b55780633f4ba83a146102cb578063481c6a75146102e15761019b565b8063074819c81461019f5780630fb5a6b4146101db57806312065fe01461020557806313a55c911461022f57806316ada54714610261578063392f37e91461028b575b5f5ffd5b3480156101aa575f5ffd5b506101c560048036038101906101c091906112f8565b61060d565b6040516101d2919061133d565b60405180910390f35b3480156101e6575f5ffd5b506101ef610626565b6040516101fc9190611365565b60405180910390f35b348015610210575f5ffd5b5061021961062c565b6040516102269190611365565b60405180910390f35b610249600480360381019061024491906114ba565b610633565b6040516102589392919061153a565b60405180910390f35b34801561026c575f5ffd5b5061027561088e565b6040516102829190611365565b60405180910390f35b348015610296575f5ffd5b5061029f610895565b6040516102ac91906115cf565b60405180910390f35b3480156102c0575f5ffd5b506102c9610921565b005b3480156102d6575f5ffd5b506102df6109e0565b005b3480156102ec575f5ffd5b506102f56109f2565b604051610302919061162e565b60405180910390f35b348015610316575f5ffd5b5061031f610a17565b60405161032c919061133d565b60405180910390f35b348015610340575f5ffd5b5061035b60048036038101906103569190611682565b610cf6565b005b348015610368575f5ffd5b50610371610dab565b6040516103829594939291906116c0565b60405180910390f35b348015610396575f5ffd5b5061039f610e79565b6040516103ac919061133d565b60405180910390f35b3480156103c0575f5ffd5b506103db60048036038101906103d69190611742565b610e8e565b6040516103e89190611365565b60405180910390f35b3480156103fc575f5ffd5b50610405610ea3565b005b348015610412575f5ffd5b5061041b610eb6565b6040516104289190611365565b60405180910390f35b34801561043c575f5ffd5b50610445610ebc565b6040516104529190611365565b60405180910390f35b348015610466575f5ffd5b5061046f610ec2565b005b34801561047c575f5ffd5b50610485610ed4565b604051610492919061162e565b60405180910390f35b3480156104a6575f5ffd5b506104c160048036038101906104bc919061176d565b610efb565b6040516104ce919061133d565b60405180910390f35b3480156104e2575f5ffd5b506104eb610f2d565b6040516104f89190611365565b60405180910390f35b34801561050c575f5ffd5b50610527600480360381019061052291906117d9565b610f33565b6040516105349190611365565b60405180910390f35b348015610548575f5ffd5b50610551610f6c565b60405161055e9190611365565b60405180910390f35b348015610572575f5ffd5b5061057b610f72565b6040516105889190611365565b60405180910390f35b34801561059c575f5ffd5b506105a5610f78565b6040516105b29190611365565b60405180910390f35b3480156105c6575f5ffd5b506105e160048036038101906105dc9190611742565b610f7e565b005b3480156105ee575f5ffd5b506105f7611002565b6040516106049190611365565b60405180910390f35b5f61061661100d565b8160058190555060019050919050565b60085481565b5f47905090565b5f5f5f61063e611094565b6007544211610682576040517f08c379a000000000000000000000000000000000000000000000000000000000815260040161067990611887565b60405180910390fd5b5f84116106c4576040517f08c379a00000000000000000000000000000000000000000000000000000000081526004016106bb906118ef565b60405180910390fd5b428710156106da575f8787925092509250610884565b868610156106f0575f8787925092509250610884565b836004546106fe919061193a565b34101561074d576004546107106110d5565b6040517fd42da64100000000000000000000000000000000000000000000000000000000815260040161074492919061197b565b60405180910390fd5b5f61075a34600354610f33565b90505f610765610ed4565b73ffffffffffffffffffffffffffffffffffffffff1682604051610788906119cf565b5f6040518083038185875af1925050503d805f81146107c2576040519150601f19603f3d011682016040523d82523d5f602084013e6107c7565b606091505b505090508061080b576040517f08c379a000000000000000000000000000000000000000000000000000000000815260040161080290611a2d565b60405180910390fd5b8860068190555087600781905550856008819055506108286110d5565b60095f6101000a81548173ffffffffffffffffffffffffffffffffffffffff021916908373ffffffffffffffffffffffffffffffffffffffff16021790555086600a90816108769190611c48565b506001898994509450945050505b9450945094915050565b5f42905090565b600a80546108a290611a78565b80601f01602080910402602001604051908101604052809291908181526020018280546108ce90611a78565b80156109195780601f106108f057610100808354040283529160200191610919565b820191905f5260205f20905b8154815290600101906020018083116108fc57829003601f168201915b505050505081565b61092961100d565b5f4790505f610936610ed4565b73ffffffffffffffffffffffffffffffffffffffff1682604051610959906119cf565b5f6040518083038185875af1925050503d805f8114610993576040519150601f19603f3d011682016040523d82523d5f602084013e610998565b606091505b50509050806109dc576040517f08c379a00000000000000000000000000000000000000000000000000000000081526004016109d390611d61565b60405180910390fd5b5050565b6109e861100d565b6109f06110dc565b565b60095f9054906101000a900473ffffffffffffffffffffffffffffffffffffffff1681565b5f610a20611094565b4260065411610a64576040517f08c379a0000000000000000000000000000000000000000000000000000000008152600401610a5b90611dc9565b60405180910390fd5b5f600b5f610a706110d5565b73ffffffffffffffffffffffffffffffffffffffff1673ffffffffffffffffffffffffffffffffffffffff1681526020019081526020015f2054118015610afc5750600654600b5f610ac06110d5565b73ffffffffffffffffffffffffffffffffffffffff1673ffffffffffffffffffffffffffffffffffffffff1681526020019081526020015f2054115b15610b8257600b5f610b0c6110d5565b73ffffffffffffffffffffffffffffffffffffffff1673ffffffffffffffffffffffffffffffffffffffff1681526020019081526020015f20546040517f8bd6eb1a000000000000000000000000000000000000000000000000000000008152600401610b799190611365565b60405180910390fd5b610b8c600161113d565b42600b5f610b986110d5565b73ffffffffffffffffffffffffffffffffffffffff1673ffffffffffffffffffffffffffffffffffffffff1681526020019081526020015f20819055505f610be247600554610f33565b90505f60095f9054906101000a900473ffffffffffffffffffffffffffffffffffffffff1673ffffffffffffffffffffffffffffffffffffffff1682604051610c2a906119cf565b5f6040518083038185875af1925050503d805f8114610c64576040519150601f19603f3d011682016040523d82523d5f602084013e610c69565b606091505b5050905080610cad576040517f08c379a0000000000000000000000000000000000000000000000000000000008152600401610ca490611a2d565b60405180910390fd5b7fd8138f8a3f377c5259ca548e70e4c2de94f129f5a11036a15b69513cba2b426a610cd66110d5565b83604051610ce5929190611de7565b60405180910390a160019250505090565b610cfe61100d565b5f8273ffffffffffffffffffffffffffffffffffffffff1682604051610d23906119cf565b5f6040518083038185875af1925050503d805f8114610d5d576040519150601f19603f3d011682016040523d82523d5f602084013e610d62565b606091505b5050905080610da6576040517f08c379a0000000000000000000000000000000000000000000000000000000008152600401610d9d90611d61565b60405180910390fd5b505050565b5f5f5f5f606060065460075460085460095f9054906101000a900473ffffffffffffffffffffffffffffffffffffffff16600a808054610dea90611a78565b80601f0160208091040260200160405190810160405280929190818152602001828054610e1690611a78565b8015610e615780601f10610e3857610100808354040283529160200191610e61565b820191905f5260205f20905b815481529060010190602001808311610e4457829003601f168201915b50505050509050945094509450945094509091929394565b5f5f60149054906101000a900460ff16905090565b600b602052805f5260405f205f915090505481565b610eab61100d565b610eb45f611151565b565b60025481565b60055481565b610eca61100d565b610ed2611212565b565b5f5f5f9054906101000a900473ffffffffffffffffffffffffffffffffffffffff16905090565b5f610f0461100d565b836006819055508260078190555081600a9081610f219190611c48565b50600190509392505050565b60045481565b5f60648284610f42919061193a565b1015610f4c575f5ffd5b60648284610f5a919061193a565b610f649190611e3b565b905092915050565b60065481565b60035481565b60075481565b610f8661100d565b5f73ffffffffffffffffffffffffffffffffffffffff168173ffffffffffffffffffffffffffffffffffffffff1603610ff6575f6040517f1e4fbdf7000000000000000000000000000000000000000000000000000000008152600401610fed919061162e565b60405180910390fd5b610fff81611151565b50565b6001805f0154905081565b6110156110d5565b73ffffffffffffffffffffffffffffffffffffffff16611033610ed4565b73ffffffffffffffffffffffffffffffffffffffff1614611092576110566110d5565b6040517f118cdaa7000000000000000000000000000000000000000000000000000000008152600401611089919061162e565b60405180910390fd5b565b61109c610e79565b156110d3576040517fd93c066500000000000000000000000000000000000000000000000000000000815260040160405180910390fd5b565b5f33905090565b6110e4611274565b5f5f60146101000a81548160ff0219169083151502179055507f5db9ee0a495bf2e6ff9c91a7834c1ba4fdd244a5e8aa4e537bd38aeae4b073aa6111266110d5565b604051611133919061162e565b60405180910390a1565b6001815f015f828254019250508190555050565b5f5f5f9054906101000a900473ffffffffffffffffffffffffffffffffffffffff169050815f5f6101000a81548173ffffffffffffffffffffffffffffffffffffffff021916908373ffffffffffffffffffffffffffffffffffffffff1602179055508173ffffffffffffffffffffffffffffffffffffffff168173ffffffffffffffffffffffffffffffffffffffff167f8be0079c531659141344cd1fd0a4f28419497f9722a3daafe3b4186f6b6457e060405160405180910390a35050565b61121a611094565b60015f60146101000a81548160ff0219169083151502179055507f62e78cea01bee320cd4e420270b5ea74000d11b0c9f74754ebdbfc544b05a25861125d6110d5565b60405161126a919061162e565b60405180910390a1565b61127c610e79565b6112b2576040517f8dfc202b00000000000000000000000000000000000000000000000000000000815260040160405180910390fd5b565b5f604051905090565b5f5ffd5b5f5ffd5b5f819050919050565b6112d7816112c5565b81146112e1575f5ffd5b50565b5f813590506112f2816112ce565b92915050565b5f6020828403121561130d5761130c6112bd565b5b5f61131a848285016112e4565b91505092915050565b5f8115159050919050565b61133781611323565b82525050565b5f6020820190506113505f83018461132e565b92915050565b61135f816112c5565b82525050565b5f6020820190506113785f830184611356565b92915050565b5f5ffd5b5f5ffd5b5f601f19601f8301169050919050565b7f4e487b71000000000000000000000000000000000000000000000000000000005f52604160045260245ffd5b6113cc82611386565b810181811067ffffffffffffffff821117156113eb576113ea611396565b5b80604052505050565b5f6113fd6112b4565b905061140982826113c3565b919050565b5f67ffffffffffffffff82111561142857611427611396565b5b61143182611386565b9050602081019050919050565b828183375f83830152505050565b5f61145e6114598461140e565b6113f4565b90508281526020810184848401111561147a57611479611382565b5b61148584828561143e565b509392505050565b5f82601f8301126114a1576114a061137e565b5b81356114b184826020860161144c565b91505092915050565b5f5f5f5f608085870312156114d2576114d16112bd565b5b5f6114df878288016112e4565b94505060206114f0878288016112e4565b935050604085013567ffffffffffffffff811115611511576115106112c1565b5b61151d8782880161148d565b925050606061152e878288016112e4565b91505092959194509250565b5f60608201905061154d5f83018661132e565b61155a6020830185611356565b6115676040830184611356565b949350505050565b5f81519050919050565b5f82825260208201905092915050565b8281835e5f83830152505050565b5f6115a18261156f565b6115ab8185611579565b93506115bb818560208601611589565b6115c481611386565b840191505092915050565b5f6020820190508181035f8301526115e78184611597565b905092915050565b5f73ffffffffffffffffffffffffffffffffffffffff82169050919050565b5f611618826115ef565b9050919050565b6116288161160e565b82525050565b5f6020820190506116415f83018461161f565b92915050565b5f611651826115ef565b9050919050565b61166181611647565b811461166b575f5ffd5b50565b5f8135905061167c81611658565b92915050565b5f5f60408385031215611698576116976112bd565b5b5f6116a58582860161166e565b92505060206116b6858286016112e4565b9150509250929050565b5f60a0820190506116d35f830188611356565b6116e06020830187611356565b6116ed6040830186611356565b6116fa606083018561161f565b818103608083015261170c8184611597565b90509695505050505050565b6117218161160e565b811461172b575f5ffd5b50565b5f8135905061173c81611718565b92915050565b5f60208284031215611757576117566112bd565b5b5f6117648482850161172e565b91505092915050565b5f5f5f60608486031215611784576117836112bd565b5b5f611791868287016112e4565b93505060206117a2868287016112e4565b925050604084013567ffffffffffffffff8111156117c3576117c26112c1565b5b6117cf8682870161148d565b9150509250925092565b5f5f604083850312156117ef576117ee6112bd565b5b5f6117fc858286016112e4565b925050602061180d858286016112e4565b9150509250929050565b7f546865726520697320616e20616374697665206164732e20706c7320747279205f8201527f6c61746572000000000000000000000000000000000000000000000000000000602082015250565b5f611871602583611579565b915061187c82611817565b604082019050919050565b5f6020820190508181035f83015261189e81611865565b9050919050565b7f4475726174696f6e206d7573742062652067726174686572207468616e2030005f82015250565b5f6118d9601f83611579565b91506118e4826118a5565b602082019050919050565b5f6020820190508181035f830152611906816118cd565b9050919050565b7f4e487b71000000000000000000000000000000000000000000000000000000005f52601160045260245ffd5b5f611944826112c5565b915061194f836112c5565b925082820261195d816112c5565b915082820484148315176119745761197361190d565b5b5092915050565b5f60408201905061198e5f830185611356565b61199b602083018461161f565b9392505050565b5f81905092915050565b50565b5f6119ba5f836119a2565b91506119c5826119ac565b5f82019050919050565b5f6119d9826119af565b9150819050919050565b7f4661696c656420746f2073656e642045746865720000000000000000000000005f82015250565b5f611a17601483611579565b9150611a22826119e3565b602082019050919050565b5f6020820190508181035f830152611a4481611a0b565b9050919050565b7f4e487b71000000000000000000000000000000000000000000000000000000005f52602260045260245ffd5b5f6002820490506001821680611a8f57607f821691505b602082108103611aa257611aa1611a4b565b5b50919050565b5f819050815f5260205f209050919050565b5f6020601f8301049050919050565b5f82821b905092915050565b5f60088302611b047fffffffffffffffffffffffffffffffffffffffffffffffffffffffffffffffff82611ac9565b611b0e8683611ac9565b95508019841693508086168417925050509392505050565b5f819050919050565b5f611b49611b44611b3f846112c5565b611b26565b6112c5565b9050919050565b5f819050919050565b611b6283611b2f565b611b76611b6e82611b50565b848454611ad5565b825550505050565b5f5f905090565b611b8d611b7e565b611b98818484611b59565b505050565b5b81811015611bbb57611bb05f82611b85565b600181019050611b9e565b5050565b601f821115611c0057611bd181611aa8565b611bda84611aba565b81016020851015611be9578190505b611bfd611bf585611aba565b830182611b9d565b50505b505050565b5f82821c905092915050565b5f611c205f1984600802611c05565b1980831691505092915050565b5f611c388383611c11565b9150826002028217905092915050565b611c518261156f565b67ffffffffffffffff811115611c6a57611c69611396565b5b611c748254611a78565b611c7f828285611bbf565b5f60209050601f831160018114611cb0575f8415611c9e578287015190505b611ca88582611c2d565b865550611d0f565b601f198416611cbe86611aa8565b5f5b82811015611ce557848901518255600182019150602085019450602081019050611cc0565b86831015611d025784890151611cfe601f891682611c11565b8355505b6001600288020188555050505b505050505050565b7f4661696c656400000000000000000000000000000000000000000000000000005f82015250565b5f611d4b600683611579565b9150611d5682611d17565b602082019050919050565b5f6020820190508181035f830152611d7881611d3f565b9050919050565b7f546f6f206561726c7900000000000000000000000000000000000000000000005f82015250565b5f611db3600983611579565b9150611dbe82611d7f565b602082019050919050565b5f6020820190508181035f830152611de081611da7565b9050919050565b5f604082019050611dfa5f83018561161f565b611e076020830184611356565b9392505050565b7f4e487b71000000000000000000000000000000000000000000000000000000005f52601260045260245ffd5b5f611e45826112c5565b9150611e50836112c5565b925082611e6057611e5f611e0e565b5b82820490509291505056fea2646970667358221220a556a4bcbea86f88cd3b2253f117cdcc6346488edd9dd83d64924d52bf36167764736f6c634300081c0033",
					"opcodes": "PUSH1 0x80 PUSH1 0x40 MSTORE PUSH1 0x14 PUSH1 0x2 SSTORE PUSH1 0x4 PUSH1 0x3 SSTORE PUSH8 0xDE0B6B3A7640000 PUSH1 0x4 SSTORE PUSH1 0x2 PUSH1 0x5 SSTORE CALLVALUE DUP1 ISZERO PUSH2 0x2A JUMPI PUSH0 PUSH0 REVERT JUMPDEST POP CALLER PUSH0 PUSH20 0xFFFFFFFFFFFFFFFFFFFFFFFFFFFFFFFFFFFFFFFF AND DUP2 PUSH20 0xFFFFFFFFFFFFFFFFFFFFFFFFFFFFFFFFFFFFFFFF AND SUB PUSH2 0x9C JUMPI PUSH0 PUSH1 0x40 MLOAD PUSH32 0x1E4FBDF700000000000000000000000000000000000000000000000000000000 DUP2 MSTORE PUSH1 0x4 ADD PUSH2 0x93 SWAP2 SWAP1 PUSH2 0x1CA JUMP JUMPDEST PUSH1 0x40 MLOAD DUP1 SWAP2 SUB SWAP1 REVERT JUMPDEST PUSH2 0xAB DUP2 PUSH2 0xCA PUSH1 0x20 SHL PUSH1 0x20 SHR JUMP JUMPDEST POP PUSH0 PUSH0 PUSH1 0x14 PUSH2 0x100 EXP DUP2 SLOAD DUP2 PUSH1 0xFF MUL NOT AND SWAP1 DUP4 ISZERO ISZERO MUL OR SWAP1 SSTORE POP PUSH2 0x1E3 JUMP JUMPDEST PUSH0 PUSH0 PUSH0 SWAP1 SLOAD SWAP1 PUSH2 0x100 EXP SWAP1 DIV PUSH20 0xFFFFFFFFFFFFFFFFFFFFFFFFFFFFFFFFFFFFFFFF AND SWAP1 POP DUP2 PUSH0 PUSH0 PUSH2 0x100 EXP DUP2 SLOAD DUP2 PUSH20 0xFFFFFFFFFFFFFFFFFFFFFFFFFFFFFFFFFFFFFFFF MUL NOT AND SWAP1 DUP4 PUSH20 0xFFFFFFFFFFFFFFFFFFFFFFFFFFFFFFFFFFFFFFFF AND MUL OR SWAP1 SSTORE POP DUP2 PUSH20 0xFFFFFFFFFFFFFFFFFFFFFFFFFFFFFFFFFFFFFFFF AND DUP2 PUSH20 0xFFFFFFFFFFFFFFFFFFFFFFFFFFFFFFFFFFFFFFFF AND PUSH32 0x8BE0079C531659141344CD1FD0A4F28419497F9722A3DAAFE3B4186F6B6457E0 PUSH1 0x40 MLOAD PUSH1 0x40 MLOAD DUP1 SWAP2 SUB SWAP1 LOG3 POP POP JUMP JUMPDEST PUSH0 PUSH20 0xFFFFFFFFFFFFFFFFFFFFFFFFFFFFFFFFFFFFFFFF DUP3 AND SWAP1 POP SWAP2 SWAP1 POP JUMP JUMPDEST PUSH0 PUSH2 0x1B4 DUP3 PUSH2 0x18B JUMP JUMPDEST SWAP1 POP SWAP2 SWAP1 POP JUMP JUMPDEST PUSH2 0x1C4 DUP2 PUSH2 0x1AA JUMP JUMPDEST DUP3 MSTORE POP POP JUMP JUMPDEST PUSH0 PUSH1 0x20 DUP3 ADD SWAP1 POP PUSH2 0x1DD PUSH0 DUP4 ADD DUP5 PUSH2 0x1BB JUMP JUMPDEST SWAP3 SWAP2 POP POP JUMP JUMPDEST PUSH2 0x1EA1 DUP1 PUSH2 0x1F0 PUSH0 CODECOPY PUSH0 RETURN INVALID PUSH1 0x80 PUSH1 0x40 MSTORE PUSH1 0x4 CALLDATASIZE LT PUSH2 0x19B JUMPI PUSH0 CALLDATALOAD PUSH1 0xE0 SHR DUP1 PUSH4 0x68226A78 GT PUSH2 0xEB JUMPI DUP1 PUSH4 0xA035B1FE GT PUSH2 0x89 JUMPI DUP1 PUSH4 0xDDCA3F43 GT PUSH2 0x63 JUMPI DUP1 PUSH4 0xDDCA3F43 EQ PUSH2 0x567 JUMPI DUP1 PUSH4 0xEFBE1C1C EQ PUSH2 0x591 JUMPI DUP1 PUSH4 0xF2FDE38B EQ PUSH2 0x5BB JUMPI DUP1 PUSH4 0xFB2228FE EQ PUSH2 0x5E3 JUMPI PUSH2 0x19B JUMP JUMPDEST DUP1 PUSH4 0xA035B1FE EQ PUSH2 0x4D7 JUMPI DUP1 PUSH4 0xA37B06D4 EQ PUSH2 0x501 JUMPI DUP1 PUSH4 0xBE9A6555 EQ PUSH2 0x53D JUMPI PUSH2 0x19B JUMP JUMPDEST DUP1 PUSH4 0x7A895F5D GT PUSH2 0xC5 JUMPI DUP1 PUSH4 0x7A895F5D EQ PUSH2 0x431 JUMPI DUP1 PUSH4 0x8456CB59 EQ PUSH2 0x45B JUMPI DUP1 PUSH4 0x8DA5CB5B EQ PUSH2 0x471 JUMPI DUP1 PUSH4 0x9AECCDC4 EQ PUSH2 0x49B JUMPI PUSH2 0x19B JUMP JUMPDEST DUP1 PUSH4 0x68226A78 EQ PUSH2 0x3B5 JUMPI DUP1 PUSH4 0x715018A6 EQ PUSH2 0x3F1 JUMPI DUP1 PUSH4 0x72B121C9 EQ PUSH2 0x407 JUMPI PUSH2 0x19B JUMP JUMPDEST DUP1 PUSH4 0x3CCFD60B GT PUSH2 0x158 JUMPI DUP1 PUSH4 0x4E71D92D GT PUSH2 0x132 JUMPI DUP1 PUSH4 0x4E71D92D EQ PUSH2 0x30B JUMPI DUP1 PUSH4 0x56A6D9EF EQ PUSH2 0x335 JUMPI DUP1 PUSH4 0x5A05EC90 EQ PUSH2 0x35D JUMPI DUP1 PUSH4 0x5C975ABB EQ PUSH2 0x38B JUMPI PUSH2 0x19B JUMP JUMPDEST DUP1 PUSH4 0x3CCFD60B EQ PUSH2 0x2B5 JUMPI DUP1 PUSH4 0x3F4BA83A EQ PUSH2 0x2CB JUMPI DUP1 PUSH4 0x481C6A75 EQ PUSH2 0x2E1 JUMPI PUSH2 0x19B JUMP JUMPDEST DUP1 PUSH4 0x74819C8 EQ PUSH2 0x19F JUMPI DUP1 PUSH4 0xFB5A6B4 EQ PUSH2 0x1DB JUMPI DUP1 PUSH4 0x12065FE0 EQ PUSH2 0x205 JUMPI DUP1 PUSH4 0x13A55C91 EQ PUSH2 0x22F JUMPI DUP1 PUSH4 0x16ADA547 EQ PUSH2 0x261 JUMPI DUP1 PUSH4 0x392F37E9 EQ PUSH2 0x28B JUMPI JUMPDEST PUSH0 PUSH0 REVERT JUMPDEST CALLVALUE DUP1 ISZERO PUSH2 0x1AA JUMPI PUSH0 PUSH0 REVERT JUMPDEST POP PUSH2 0x1C5 PUSH1 0x4 DUP1 CALLDATASIZE SUB DUP2 ADD SWAP1 PUSH2 0x1C0 SWAP2 SWAP1 PUSH2 0x12F8 JUMP JUMPDEST PUSH2 0x60D JUMP JUMPDEST PUSH1 0x40 MLOAD PUSH2 0x1D2 SWAP2 SWAP1 PUSH2 0x133D JUMP JUMPDEST PUSH1 0x40 MLOAD DUP1 SWAP2 SUB SWAP1 RETURN JUMPDEST CALLVALUE DUP1 ISZERO PUSH2 0x1E6 JUMPI PUSH0 PUSH0 REVERT JUMPDEST POP PUSH2 0x1EF PUSH2 0x626 JUMP JUMPDEST PUSH1 0x40 MLOAD PUSH2 0x1FC SWAP2 SWAP1 PUSH2 0x1365 JUMP JUMPDEST PUSH1 0x40 MLOAD DUP1 SWAP2 SUB SWAP1 RETURN JUMPDEST CALLVALUE DUP1 ISZERO PUSH2 0x210 JUMPI PUSH0 PUSH0 REVERT JUMPDEST POP PUSH2 0x219 PUSH2 0x62C JUMP JUMPDEST PUSH1 0x40 MLOAD PUSH2 0x226 SWAP2 SWAP1 PUSH2 0x1365 JUMP JUMPDEST PUSH1 0x40 MLOAD DUP1 SWAP2 SUB SWAP1 RETURN JUMPDEST PUSH2 0x249 PUSH1 0x4 DUP1 CALLDATASIZE SUB DUP2 ADD SWAP1 PUSH2 0x244 SWAP2 SWAP1 PUSH2 0x14BA JUMP JUMPDEST PUSH2 0x633 JUMP JUMPDEST PUSH1 0x40 MLOAD PUSH2 0x258 SWAP4 SWAP3 SWAP2 SWAP1 PUSH2 0x153A JUMP JUMPDEST PUSH1 0x40 MLOAD DUP1 SWAP2 SUB SWAP1 RETURN JUMPDEST CALLVALUE DUP1 ISZERO PUSH2 0x26C JUMPI PUSH0 PUSH0 REVERT JUMPDEST POP PUSH2 0x275 PUSH2 0x88E JUMP JUMPDEST PUSH1 0x40 MLOAD PUSH2 0x282 SWAP2 SWAP1 PUSH2 0x1365 JUMP JUMPDEST PUSH1 0x40 MLOAD DUP1 SWAP2 SUB SWAP1 RETURN JUMPDEST CALLVALUE DUP1 ISZERO PUSH2 0x296 JUMPI PUSH0 PUSH0 REVERT JUMPDEST POP PUSH2 0x29F PUSH2 0x895 JUMP JUMPDEST PUSH1 0x40 MLOAD PUSH2 0x2AC SWAP2 SWAP1 PUSH2 0x15CF JUMP JUMPDEST PUSH1 0x40 MLOAD DUP1 SWAP2 SUB SWAP1 RETURN JUMPDEST CALLVALUE DUP1 ISZERO PUSH2 0x2C0 JUMPI PUSH0 PUSH0 REVERT JUMPDEST POP PUSH2 0x2C9 PUSH2 0x921 JUMP JUMPDEST STOP JUMPDEST CALLVALUE DUP1 ISZERO PUSH2 0x2D6 JUMPI PUSH0 PUSH0 REVERT JUMPDEST POP PUSH2 0x2DF PUSH2 0x9E0 JUMP JUMPDEST STOP JUMPDEST CALLVALUE DUP1 ISZERO PUSH2 0x2EC JUMPI PUSH0 PUSH0 REVERT JUMPDEST POP PUSH2 0x2F5 PUSH2 0x9F2 JUMP JUMPDEST PUSH1 0x40 MLOAD PUSH2 0x302 SWAP2 SWAP1 PUSH2 0x162E JUMP JUMPDEST PUSH1 0x40 MLOAD DUP1 SWAP2 SUB SWAP1 RETURN JUMPDEST CALLVALUE DUP1 ISZERO PUSH2 0x316 JUMPI PUSH0 PUSH0 REVERT JUMPDEST POP PUSH2 0x31F PUSH2 0xA17 JUMP JUMPDEST PUSH1 0x40 MLOAD PUSH2 0x32C SWAP2 SWAP1 PUSH2 0x133D JUMP JUMPDEST PUSH1 0x40 MLOAD DUP1 SWAP2 SUB SWAP1 RETURN JUMPDEST CALLVALUE DUP1 ISZERO PUSH2 0x340 JUMPI PUSH0 PUSH0 REVERT JUMPDEST POP PUSH2 0x35B PUSH1 0x4 DUP1 CALLDATASIZE SUB DUP2 ADD SWAP1 PUSH2 0x356 SWAP2 SWAP1 PUSH2 0x1682 JUMP JUMPDEST PUSH2 0xCF6 JUMP JUMPDEST STOP JUMPDEST CALLVALUE DUP1 ISZERO PUSH2 0x368 JUMPI PUSH0 PUSH0 REVERT JUMPDEST POP PUSH2 0x371 PUSH2 0xDAB JUMP JUMPDEST PUSH1 0x40 MLOAD PUSH2 0x382 SWAP6 SWAP5 SWAP4 SWAP3 SWAP2 SWAP1 PUSH2 0x16C0 JUMP JUMPDEST PUSH1 0x40 MLOAD DUP1 SWAP2 SUB SWAP1 RETURN JUMPDEST CALLVALUE DUP1 ISZERO PUSH2 0x396 JUMPI PUSH0 PUSH0 REVERT JUMPDEST POP PUSH2 0x39F PUSH2 0xE79 JUMP JUMPDEST PUSH1 0x40 MLOAD PUSH2 0x3AC SWAP2 SWAP1 PUSH2 0x133D JUMP JUMPDEST PUSH1 0x40 MLOAD DUP1 SWAP2 SUB SWAP1 RETURN JUMPDEST CALLVALUE DUP1 ISZERO PUSH2 0x3C0 JUMPI PUSH0 PUSH0 REVERT JUMPDEST POP PUSH2 0x3DB PUSH1 0x4 DUP1 CALLDATASIZE SUB DUP2 ADD SWAP1 PUSH2 0x3D6 SWAP2 SWAP1 PUSH2 0x1742 JUMP JUMPDEST PUSH2 0xE8E JUMP JUMPDEST PUSH1 0x40 MLOAD PUSH2 0x3E8 SWAP2 SWAP1 PUSH2 0x1365 JUMP JUMPDEST PUSH1 0x40 MLOAD DUP1 SWAP2 SUB SWAP1 RETURN JUMPDEST CALLVALUE DUP1 ISZERO PUSH2 0x3FC JUMPI PUSH0 PUSH0 REVERT JUMPDEST POP PUSH2 0x405 PUSH2 0xEA3 JUMP JUMPDEST STOP JUMPDEST CALLVALUE DUP1 ISZERO PUSH2 0x412 JUMPI PUSH0 PUSH0 REVERT JUMPDEST POP PUSH2 0x41B PUSH2 0xEB6 JUMP JUMPDEST PUSH1 0x40 MLOAD PUSH2 0x428 SWAP2 SWAP1 PUSH2 0x1365 JUMP JUMPDEST PUSH1 0x40 MLOAD DUP1 SWAP2 SUB SWAP1 RETURN JUMPDEST CALLVALUE DUP1 ISZERO PUSH2 0x43C JUMPI PUSH0 PUSH0 REVERT JUMPDEST POP PUSH2 0x445 PUSH2 0xEBC JUMP JUMPDEST PUSH1 0x40 MLOAD PUSH2 0x452 SWAP2 SWAP1 PUSH2 0x1365 JUMP JUMPDEST PUSH1 0x40 MLOAD DUP1 SWAP2 SUB SWAP1 RETURN JUMPDEST CALLVALUE DUP1 ISZERO PUSH2 0x466 JUMPI PUSH0 PUSH0 REVERT JUMPDEST POP PUSH2 0x46F PUSH2 0xEC2 JUMP JUMPDEST STOP JUMPDEST CALLVALUE DUP1 ISZERO PUSH2 0x47C JUMPI PUSH0 PUSH0 REVERT JUMPDEST POP PUSH2 0x485 PUSH2 0xED4 JUMP JUMPDEST PUSH1 0x40 MLOAD PUSH2 0x492 SWAP2 SWAP1 PUSH2 0x162E JUMP JUMPDEST PUSH1 0x40 MLOAD DUP1 SWAP2 SUB SWAP1 RETURN JUMPDEST CALLVALUE DUP1 ISZERO PUSH2 0x4A6 JUMPI PUSH0 PUSH0 REVERT JUMPDEST POP PUSH2 0x4C1 PUSH1 0x4 DUP1 CALLDATASIZE SUB DUP2 ADD SWAP1 PUSH2 0x4BC SWAP2 SWAP1 PUSH2 0x176D JUMP JUMPDEST PUSH2 0xEFB JUMP JUMPDEST PUSH1 0x40 MLOAD PUSH2 0x4CE SWAP2 SWAP1 PUSH2 0x133D JUMP JUMPDEST PUSH1 0x40 MLOAD DUP1 SWAP2 SUB SWAP1 RETURN JUMPDEST CALLVALUE DUP1 ISZERO PUSH2 0x4E2 JUMPI PUSH0 PUSH0 REVERT JUMPDEST POP PUSH2 0x4EB PUSH2 0xF2D JUMP JUMPDEST PUSH1 0x40 MLOAD PUSH2 0x4F8 SWAP2 SWAP1 PUSH2 0x1365 JUMP JUMPDEST PUSH1 0x40 MLOAD DUP1 SWAP2 SUB SWAP1 RETURN JUMPDEST CALLVALUE DUP1 ISZERO PUSH2 0x50C JUMPI PUSH0 PUSH0 REVERT JUMPDEST POP PUSH2 0x527 PUSH1 0x4 DUP1 CALLDATASIZE SUB DUP2 ADD SWAP1 PUSH2 0x522 SWAP2 SWAP1 PUSH2 0x17D9 JUMP JUMPDEST PUSH2 0xF33 JUMP JUMPDEST PUSH1 0x40 MLOAD PUSH2 0x534 SWAP2 SWAP1 PUSH2 0x1365 JUMP JUMPDEST PUSH1 0x40 MLOAD DUP1 SWAP2 SUB SWAP1 RETURN JUMPDEST CALLVALUE DUP1 ISZERO PUSH2 0x548 JUMPI PUSH0 PUSH0 REVERT JUMPDEST POP PUSH2 0x551 PUSH2 0xF6C JUMP JUMPDEST PUSH1 0x40 MLOAD PUSH2 0x55E SWAP2 SWAP1 PUSH2 0x1365 JUMP JUMPDEST PUSH1 0x40 MLOAD DUP1 SWAP2 SUB SWAP1 RETURN JUMPDEST CALLVALUE DUP1 ISZERO PUSH2 0x572 JUMPI PUSH0 PUSH0 REVERT JUMPDEST POP PUSH2 0x57B PUSH2 0xF72 JUMP JUMPDEST PUSH1 0x40 MLOAD PUSH2 0x588 SWAP2 SWAP1 PUSH2 0x1365 JUMP JUMPDEST PUSH1 0x40 MLOAD DUP1 SWAP2 SUB SWAP1 RETURN JUMPDEST CALLVALUE DUP1 ISZERO PUSH2 0x59C JUMPI PUSH0 PUSH0 REVERT JUMPDEST POP PUSH2 0x5A5 PUSH2 0xF78 JUMP JUMPDEST PUSH1 0x40 MLOAD PUSH2 0x5B2 SWAP2 SWAP1 PUSH2 0x1365 JUMP JUMPDEST PUSH1 0x40 MLOAD DUP1 SWAP2 SUB SWAP1 RETURN JUMPDEST CALLVALUE DUP1 ISZERO PUSH2 0x5C6 JUMPI PUSH0 PUSH0 REVERT JUMPDEST POP PUSH2 0x5E1 PUSH1 0x4 DUP1 CALLDATASIZE SUB DUP2 ADD SWAP1 PUSH2 0x5DC SWAP2 SWAP1 PUSH2 0x1742 JUMP JUMPDEST PUSH2 0xF7E JUMP JUMPDEST STOP JUMPDEST CALLVALUE DUP1 ISZERO PUSH2 0x5EE JUMPI PUSH0 PUSH0 REVERT JUMPDEST POP PUSH2 0x5F7 PUSH2 0x1002 JUMP JUMPDEST PUSH1 0x40 MLOAD PUSH2 0x604 SWAP2 SWAP1 PUSH2 0x1365 JUMP JUMPDEST PUSH1 0x40 MLOAD DUP1 SWAP2 SUB SWAP1 RETURN JUMPDEST PUSH0 PUSH2 0x616 PUSH2 0x100D JUMP JUMPDEST DUP2 PUSH1 0x5 DUP2 SWAP1 SSTORE POP PUSH1 0x1 SWAP1 POP SWAP2 SWAP1 POP JUMP JUMPDEST PUSH1 0x8 SLOAD DUP2 JUMP JUMPDEST PUSH0 SELFBALANCE SWAP1 POP SWAP1 JUMP JUMPDEST PUSH0 PUSH0 PUSH0 PUSH2 0x63E PUSH2 0x1094 JUMP JUMPDEST PUSH1 0x7 SLOAD TIMESTAMP GT PUSH2 0x682 JUMPI PUSH1 0x40 MLOAD PUSH32 0x8C379A000000000000000000000000000000000000000000000000000000000 DUP2 MSTORE PUSH1 0x4 ADD PUSH2 0x679 SWAP1 PUSH2 0x1887 JUMP JUMPDEST PUSH1 0x40 MLOAD DUP1 SWAP2 SUB SWAP1 REVERT JUMPDEST PUSH0 DUP5 GT PUSH2 0x6C4 JUMPI PUSH1 0x40 MLOAD PUSH32 0x8C379A000000000000000000000000000000000000000000000000000000000 DUP2 MSTORE PUSH1 0x4 ADD PUSH2 0x6BB SWAP1 PUSH2 0x18EF JUMP JUMPDEST PUSH1 0x40 MLOAD DUP1 SWAP2 SUB SWAP1 REVERT JUMPDEST TIMESTAMP DUP8 LT ISZERO PUSH2 0x6DA JUMPI PUSH0 DUP8 DUP8 SWAP3 POP SWAP3 POP SWAP3 POP PUSH2 0x884 JUMP JUMPDEST DUP7 DUP7 LT ISZERO PUSH2 0x6F0 JUMPI PUSH0 DUP8 DUP8 SWAP3 POP SWAP3 POP SWAP3 POP PUSH2 0x884 JUMP JUMPDEST DUP4 PUSH1 0x4 SLOAD PUSH2 0x6FE SWAP2 SWAP1 PUSH2 0x193A JUMP JUMPDEST CALLVALUE LT ISZERO PUSH2 0x74D JUMPI PUSH1 0x4 SLOAD PUSH2 0x710 PUSH2 0x10D5 JUMP JUMPDEST PUSH1 0x40 MLOAD PUSH32 0xD42DA64100000000000000000000000000000000000000000000000000000000 DUP2 MSTORE PUSH1 0x4 ADD PUSH2 0x744 SWAP3 SWAP2 SWAP1 PUSH2 0x197B JUMP JUMPDEST PUSH1 0x40 MLOAD DUP1 SWAP2 SUB SWAP1 REVERT JUMPDEST PUSH0 PUSH2 0x75A CALLVALUE PUSH1 0x3 SLOAD PUSH2 0xF33 JUMP JUMPDEST SWAP1 POP PUSH0 PUSH2 0x765 PUSH2 0xED4 JUMP JUMPDEST PUSH20 0xFFFFFFFFFFFFFFFFFFFFFFFFFFFFFFFFFFFFFFFF AND DUP3 PUSH1 0x40 MLOAD PUSH2 0x788 SWAP1 PUSH2 0x19CF JUMP JUMPDEST PUSH0 PUSH1 0x40 MLOAD DUP1 DUP4 SUB DUP2 DUP6 DUP8 GAS CALL SWAP3 POP POP POP RETURNDATASIZE DUP1 PUSH0 DUP2 EQ PUSH2 0x7C2 JUMPI PUSH1 0x40 MLOAD SWAP2 POP PUSH1 0x1F NOT PUSH1 0x3F RETURNDATASIZE ADD AND DUP3 ADD PUSH1 0x40 MSTORE RETURNDATASIZE DUP3 MSTORE RETURNDATASIZE PUSH0 PUSH1 0x20 DUP5 ADD RETURNDATACOPY PUSH2 0x7C7 JUMP JUMPDEST PUSH1 0x60 SWAP2 POP JUMPDEST POP POP SWAP1 POP DUP1 PUSH2 0x80B JUMPI PUSH1 0x40 MLOAD PUSH32 0x8C379A000000000000000000000000000000000000000000000000000000000 DUP2 MSTORE PUSH1 0x4 ADD PUSH2 0x802 SWAP1 PUSH2 0x1A2D JUMP JUMPDEST PUSH1 0x40 MLOAD DUP1 SWAP2 SUB SWAP1 REVERT JUMPDEST DUP9 PUSH1 0x6 DUP2 SWAP1 SSTORE POP DUP8 PUSH1 0x7 DUP2 SWAP1 SSTORE POP DUP6 PUSH1 0x8 DUP2 SWAP1 SSTORE POP PUSH2 0x828 PUSH2 0x10D5 JUMP JUMPDEST PUSH1 0x9 PUSH0 PUSH2 0x100 EXP DUP2 SLOAD DUP2 PUSH20 0xFFFFFFFFFFFFFFFFFFFFFFFFFFFFFFFFFFFFFFFF MUL NOT AND SWAP1 DUP4 PUSH20 0xFFFFFFFFFFFFFFFFFFFFFFFFFFFFFFFFFFFFFFFF AND MUL OR SWAP1 SSTORE POP DUP7 PUSH1 0xA SWAP1 DUP2 PUSH2 0x876 SWAP2 SWAP1 PUSH2 0x1C48 JUMP JUMPDEST POP PUSH1 0x1 DUP10 DUP10 SWAP5 POP SWAP5 POP SWAP5 POP POP POP JUMPDEST SWAP5 POP SWAP5 POP SWAP5 SWAP2 POP POP JUMP JUMPDEST PUSH0 TIMESTAMP SWAP1 POP SWAP1 JUMP JUMPDEST PUSH1 0xA DUP1 SLOAD PUSH2 0x8A2 SWAP1 PUSH2 0x1A78 JUMP JUMPDEST DUP1 PUSH1 0x1F ADD PUSH1 0x20 DUP1 SWAP2 DIV MUL PUSH1 0x20 ADD PUSH1 0x40 MLOAD SWAP1 DUP2 ADD PUSH1 0x40 MSTORE DUP1 SWAP3 SWAP2 SWAP1 DUP2 DUP2 MSTORE PUSH1 0x20 ADD DUP3 DUP1 SLOAD PUSH2 0x8CE SWAP1 PUSH2 0x1A78 JUMP JUMPDEST DUP1 ISZERO PUSH2 0x919 JUMPI DUP1 PUSH1 0x1F LT PUSH2 0x8F0 JUMPI PUSH2 0x100 DUP1 DUP4 SLOAD DIV MUL DUP4 MSTORE SWAP2 PUSH1 0x20 ADD SWAP2 PUSH2 0x919 JUMP JUMPDEST DUP3 ADD SWAP2 SWAP1 PUSH0 MSTORE PUSH1 0x20 PUSH0 KECCAK256 SWAP1 JUMPDEST DUP2 SLOAD DUP2 MSTORE SWAP1 PUSH1 0x1 ADD SWAP1 PUSH1 0x20 ADD DUP1 DUP4 GT PUSH2 0x8FC JUMPI DUP3 SWAP1 SUB PUSH1 0x1F AND DUP3 ADD SWAP2 JUMPDEST POP POP POP POP POP DUP2 JUMP JUMPDEST PUSH2 0x929 PUSH2 0x100D JUMP JUMPDEST PUSH0 SELFBALANCE SWAP1 POP PUSH0 PUSH2 0x936 PUSH2 0xED4 JUMP JUMPDEST PUSH20 0xFFFFFFFFFFFFFFFFFFFFFFFFFFFFFFFFFFFFFFFF AND DUP3 PUSH1 0x40 MLOAD PUSH2 0x959 SWAP1 PUSH2 0x19CF JUMP JUMPDEST PUSH0 PUSH1 0x40 MLOAD DUP1 DUP4 SUB DUP2 DUP6 DUP8 GAS CALL SWAP3 POP POP POP RETURNDATASIZE DUP1 PUSH0 DUP2 EQ PUSH2 0x993 JUMPI PUSH1 0x40 MLOAD SWAP2 POP PUSH1 0x1F NOT PUSH1 0x3F RETURNDATASIZE ADD AND DUP3 ADD PUSH1 0x40 MSTORE RETURNDATASIZE DUP3 MSTORE RETURNDATASIZE PUSH0 PUSH1 0x20 DUP5 ADD RETURNDATACOPY PUSH2 0x998 JUMP JUMPDEST PUSH1 0x60 SWAP2 POP JUMPDEST POP POP SWAP1 POP DUP1 PUSH2 0x9DC JUMPI PUSH1 0x40 MLOAD PUSH32 0x8C379A000000000000000000000000000000000000000000000000000000000 DUP2 MSTORE PUSH1 0x4 ADD PUSH2 0x9D3 SWAP1 PUSH2 0x1D61 JUMP JUMPDEST PUSH1 0x40 MLOAD DUP1 SWAP2 SUB SWAP1 REVERT JUMPDEST POP POP JUMP JUMPDEST PUSH2 0x9E8 PUSH2 0x100D JUMP JUMPDEST PUSH2 0x9F0 PUSH2 0x10DC JUMP JUMPDEST JUMP JUMPDEST PUSH1 0x9 PUSH0 SWAP1 SLOAD SWAP1 PUSH2 0x100 EXP SWAP1 DIV PUSH20 0xFFFFFFFFFFFFFFFFFFFFFFFFFFFFFFFFFFFFFFFF AND DUP2 JUMP JUMPDEST PUSH0 PUSH2 0xA20 PUSH2 0x1094 JUMP JUMPDEST TIMESTAMP PUSH1 0x6 SLOAD GT PUSH2 0xA64 JUMPI PUSH1 0x40 MLOAD PUSH32 0x8C379A000000000000000000000000000000000000000000000000000000000 DUP2 MSTORE PUSH1 0x4 ADD PUSH2 0xA5B SWAP1 PUSH2 0x1DC9 JUMP JUMPDEST PUSH1 0x40 MLOAD DUP1 SWAP2 SUB SWAP1 REVERT JUMPDEST PUSH0 PUSH1 0xB PUSH0 PUSH2 0xA70 PUSH2 0x10D5 JUMP JUMPDEST PUSH20 0xFFFFFFFFFFFFFFFFFFFFFFFFFFFFFFFFFFFFFFFF AND PUSH20 0xFFFFFFFFFFFFFFFFFFFFFFFFFFFFFFFFFFFFFFFF AND DUP2 MSTORE PUSH1 0x20 ADD SWAP1 DUP2 MSTORE PUSH1 0x20 ADD PUSH0 KECCAK256 SLOAD GT DUP1 ISZERO PUSH2 0xAFC JUMPI POP PUSH1 0x6 SLOAD PUSH1 0xB PUSH0 PUSH2 0xAC0 PUSH2 0x10D5 JUMP JUMPDEST PUSH20 0xFFFFFFFFFFFFFFFFFFFFFFFFFFFFFFFFFFFFFFFF AND PUSH20 0xFFFFFFFFFFFFFFFFFFFFFFFFFFFFFFFFFFFFFFFF AND DUP2 MSTORE PUSH1 0x20 ADD SWAP1 DUP2 MSTORE PUSH1 0x20 ADD PUSH0 KECCAK256 SLOAD GT JUMPDEST ISZERO PUSH2 0xB82 JUMPI PUSH1 0xB PUSH0 PUSH2 0xB0C PUSH2 0x10D5 JUMP JUMPDEST PUSH20 0xFFFFFFFFFFFFFFFFFFFFFFFFFFFFFFFFFFFFFFFF AND PUSH20 0xFFFFFFFFFFFFFFFFFFFFFFFFFFFFFFFFFFFFFFFF AND DUP2 MSTORE PUSH1 0x20 ADD SWAP1 DUP2 MSTORE PUSH1 0x20 ADD PUSH0 KECCAK256 SLOAD PUSH1 0x40 MLOAD PUSH32 0x8BD6EB1A00000000000000000000000000000000000000000000000000000000 DUP2 MSTORE PUSH1 0x4 ADD PUSH2 0xB79 SWAP2 SWAP1 PUSH2 0x1365 JUMP JUMPDEST PUSH1 0x40 MLOAD DUP1 SWAP2 SUB SWAP1 REVERT JUMPDEST PUSH2 0xB8C PUSH1 0x1 PUSH2 0x113D JUMP JUMPDEST TIMESTAMP PUSH1 0xB PUSH0 PUSH2 0xB98 PUSH2 0x10D5 JUMP JUMPDEST PUSH20 0xFFFFFFFFFFFFFFFFFFFFFFFFFFFFFFFFFFFFFFFF AND PUSH20 0xFFFFFFFFFFFFFFFFFFFFFFFFFFFFFFFFFFFFFFFF AND DUP2 MSTORE PUSH1 0x20 ADD SWAP1 DUP2 MSTORE PUSH1 0x20 ADD PUSH0 KECCAK256 DUP2 SWAP1 SSTORE POP PUSH0 PUSH2 0xBE2 SELFBALANCE PUSH1 0x5 SLOAD PUSH2 0xF33 JUMP JUMPDEST SWAP1 POP PUSH0 PUSH1 0x9 PUSH0 SWAP1 SLOAD SWAP1 PUSH2 0x100 EXP SWAP1 DIV PUSH20 0xFFFFFFFFFFFFFFFFFFFFFFFFFFFFFFFFFFFFFFFF AND PUSH20 0xFFFFFFFFFFFFFFFFFFFFFFFFFFFFFFFFFFFFFFFF AND DUP3 PUSH1 0x40 MLOAD PUSH2 0xC2A SWAP1 PUSH2 0x19CF JUMP JUMPDEST PUSH0 PUSH1 0x40 MLOAD DUP1 DUP4 SUB DUP2 DUP6 DUP8 GAS CALL SWAP3 POP POP POP RETURNDATASIZE DUP1 PUSH0 DUP2 EQ PUSH2 0xC64 JUMPI PUSH1 0x40 MLOAD SWAP2 POP PUSH1 0x1F NOT PUSH1 0x3F RETURNDATASIZE ADD AND DUP3 ADD PUSH1 0x40 MSTORE RETURNDATASIZE DUP3 MSTORE RETURNDATASIZE PUSH0 PUSH1 0x20 DUP5 ADD RETURNDATACOPY PUSH2 0xC69 JUMP JUMPDEST PUSH1 0x60 SWAP2 POP JUMPDEST POP POP SWAP1 POP DUP1 PUSH2 0xCAD JUMPI PUSH1 0x40 MLOAD PUSH32 0x8C379A000000000000000000000000000000000000000000000000000000000 DUP2 MSTORE PUSH1 0x4 ADD PUSH2 0xCA4 SWAP1 PUSH2 0x1A2D JUMP JUMPDEST PUSH1 0x40 MLOAD DUP1 SWAP2 SUB SWAP1 REVERT JUMPDEST PUSH32 0xD8138F8A3F377C5259CA548E70E4C2DE94F129F5A11036A15B69513CBA2B426A PUSH2 0xCD6 PUSH2 0x10D5 JUMP JUMPDEST DUP4 PUSH1 0x40 MLOAD PUSH2 0xCE5 SWAP3 SWAP2 SWAP1 PUSH2 0x1DE7 JUMP JUMPDEST PUSH1 0x40 MLOAD DUP1 SWAP2 SUB SWAP1 LOG1 PUSH1 0x1 SWAP3 POP POP POP SWAP1 JUMP JUMPDEST PUSH2 0xCFE PUSH2 0x100D JUMP JUMPDEST PUSH0 DUP3 PUSH20 0xFFFFFFFFFFFFFFFFFFFFFFFFFFFFFFFFFFFFFFFF AND DUP3 PUSH1 0x40 MLOAD PUSH2 0xD23 SWAP1 PUSH2 0x19CF JUMP JUMPDEST PUSH0 PUSH1 0x40 MLOAD DUP1 DUP4 SUB DUP2 DUP6 DUP8 GAS CALL SWAP3 POP POP POP RETURNDATASIZE DUP1 PUSH0 DUP2 EQ PUSH2 0xD5D JUMPI PUSH1 0x40 MLOAD SWAP2 POP PUSH1 0x1F NOT PUSH1 0x3F RETURNDATASIZE ADD AND DUP3 ADD PUSH1 0x40 MSTORE RETURNDATASIZE DUP3 MSTORE RETURNDATASIZE PUSH0 PUSH1 0x20 DUP5 ADD RETURNDATACOPY PUSH2 0xD62 JUMP JUMPDEST PUSH1 0x60 SWAP2 POP JUMPDEST POP POP SWAP1 POP DUP1 PUSH2 0xDA6 JUMPI PUSH1 0x40 MLOAD PUSH32 0x8C379A000000000000000000000000000000000000000000000000000000000 DUP2 MSTORE PUSH1 0x4 ADD PUSH2 0xD9D SWAP1 PUSH2 0x1D61 JUMP JUMPDEST PUSH1 0x40 MLOAD DUP1 SWAP2 SUB SWAP1 REVERT JUMPDEST POP POP POP JUMP JUMPDEST PUSH0 PUSH0 PUSH0 PUSH0 PUSH1 0x60 PUSH1 0x6 SLOAD PUSH1 0x7 SLOAD PUSH1 0x8 SLOAD PUSH1 0x9 PUSH0 SWAP1 SLOAD SWAP1 PUSH2 0x100 EXP SWAP1 DIV PUSH20 0xFFFFFFFFFFFFFFFFFFFFFFFFFFFFFFFFFFFFFFFF AND PUSH1 0xA DUP1 DUP1 SLOAD PUSH2 0xDEA SWAP1 PUSH2 0x1A78 JUMP JUMPDEST DUP1 PUSH1 0x1F ADD PUSH1 0x20 DUP1 SWAP2 DIV MUL PUSH1 0x20 ADD PUSH1 0x40 MLOAD SWAP1 DUP2 ADD PUSH1 0x40 MSTORE DUP1 SWAP3 SWAP2 SWAP1 DUP2 DUP2 MSTORE PUSH1 0x20 ADD DUP3 DUP1 SLOAD PUSH2 0xE16 SWAP1 PUSH2 0x1A78 JUMP JUMPDEST DUP1 ISZERO PUSH2 0xE61 JUMPI DUP1 PUSH1 0x1F LT PUSH2 0xE38 JUMPI PUSH2 0x100 DUP1 DUP4 SLOAD DIV MUL DUP4 MSTORE SWAP2 PUSH1 0x20 ADD SWAP2 PUSH2 0xE61 JUMP JUMPDEST DUP3 ADD SWAP2 SWAP1 PUSH0 MSTORE PUSH1 0x20 PUSH0 KECCAK256 SWAP1 JUMPDEST DUP2 SLOAD DUP2 MSTORE SWAP1 PUSH1 0x1 ADD SWAP1 PUSH1 0x20 ADD DUP1 DUP4 GT PUSH2 0xE44 JUMPI DUP3 SWAP1 SUB PUSH1 0x1F AND DUP3 ADD SWAP2 JUMPDEST POP POP POP POP POP SWAP1 POP SWAP5 POP SWAP5 POP SWAP5 POP SWAP5 POP SWAP5 POP SWAP1 SWAP2 SWAP3 SWAP4 SWAP5 JUMP JUMPDEST PUSH0 PUSH0 PUSH1 0x14 SWAP1 SLOAD SWAP1 PUSH2 0x100 EXP SWAP1 DIV PUSH1 0xFF AND SWAP1 POP SWAP1 JUMP JUMPDEST PUSH1 0xB PUSH1 0x20 MSTORE DUP1 PUSH0 MSTORE PUSH1 0x40 PUSH0 KECCAK256 PUSH0 SWAP2 POP SWAP1 POP SLOAD DUP2 JUMP JUMPDEST PUSH2 0xEAB PUSH2 0x100D JUMP JUMPDEST PUSH2 0xEB4 PUSH0 PUSH2 0x1151 JUMP JUMPDEST JUMP JUMPDEST PUSH1 0x2 SLOAD DUP2 JUMP JUMPDEST PUSH1 0x5 SLOAD DUP2 JUMP JUMPDEST PUSH2 0xECA PUSH2 0x100D JUMP JUMPDEST PUSH2 0xED2 PUSH2 0x1212 JUMP JUMPDEST JUMP JUMPDEST PUSH0 PUSH0 PUSH0 SWAP1 SLOAD SWAP1 PUSH2 0x100 EXP SWAP1 DIV PUSH20 0xFFFFFFFFFFFFFFFFFFFFFFFFFFFFFFFFFFFFFFFF AND SWAP1 POP SWAP1 JUMP JUMPDEST PUSH0 PUSH2 0xF04 PUSH2 0x100D JUMP JUMPDEST DUP4 PUSH1 0x6 DUP2 SWAP1 SSTORE POP DUP3 PUSH1 0x7 DUP2 SWAP1 SSTORE POP DUP2 PUSH1 0xA SWAP1 DUP2 PUSH2 0xF21 SWAP2 SWAP1 PUSH2 0x1C48 JUMP JUMPDEST POP PUSH1 0x1 SWAP1 POP SWAP4 SWAP3 POP POP POP JUMP JUMPDEST PUSH1 0x4 SLOAD DUP2 JUMP JUMPDEST PUSH0 PUSH1 0x64 DUP3 DUP5 PUSH2 0xF42 SWAP2 SWAP1 PUSH2 0x193A JUMP JUMPDEST LT ISZERO PUSH2 0xF4C JUMPI PUSH0 PUSH0 REVERT JUMPDEST PUSH1 0x64 DUP3 DUP5 PUSH2 0xF5A SWAP2 SWAP1 PUSH2 0x193A JUMP JUMPDEST PUSH2 0xF64 SWAP2 SWAP1 PUSH2 0x1E3B JUMP JUMPDEST SWAP1 POP SWAP3 SWAP2 POP POP JUMP JUMPDEST PUSH1 0x6 SLOAD DUP2 JUMP JUMPDEST PUSH1 0x3 SLOAD DUP2 JUMP JUMPDEST PUSH1 0x7 SLOAD DUP2 JUMP JUMPDEST PUSH2 0xF86 PUSH2 0x100D JUMP JUMPDEST PUSH0 PUSH20 0xFFFFFFFFFFFFFFFFFFFFFFFFFFFFFFFFFFFFFFFF AND DUP2 PUSH20 0xFFFFFFFFFFFFFFFFFFFFFFFFFFFFFFFFFFFFFFFF AND SUB PUSH2 0xFF6 JUMPI PUSH0 PUSH1 0x40 MLOAD PUSH32 0x1E4FBDF700000000000000000000000000000000000000000000000000000000 DUP2 MSTORE PUSH1 0x4 ADD PUSH2 0xFED SWAP2 SWAP1 PUSH2 0x162E JUMP JUMPDEST PUSH1 0x40 MLOAD DUP1 SWAP2 SUB SWAP1 REVERT JUMPDEST PUSH2 0xFFF DUP2 PUSH2 0x1151 JUMP JUMPDEST POP JUMP JUMPDEST PUSH1 0x1 DUP1 PUSH0 ADD SLOAD SWAP1 POP DUP2 JUMP JUMPDEST PUSH2 0x1015 PUSH2 0x10D5 JUMP JUMPDEST PUSH20 0xFFFFFFFFFFFFFFFFFFFFFFFFFFFFFFFFFFFFFFFF AND PUSH2 0x1033 PUSH2 0xED4 JUMP JUMPDEST PUSH20 0xFFFFFFFFFFFFFFFFFFFFFFFFFFFFFFFFFFFFFFFF AND EQ PUSH2 0x1092 JUMPI PUSH2 0x1056 PUSH2 0x10D5 JUMP JUMPDEST PUSH1 0x40 MLOAD PUSH32 0x118CDAA700000000000000000000000000000000000000000000000000000000 DUP2 MSTORE PUSH1 0x4 ADD PUSH2 0x1089 SWAP2 SWAP1 PUSH2 0x162E JUMP JUMPDEST PUSH1 0x40 MLOAD DUP1 SWAP2 SUB SWAP1 REVERT JUMPDEST JUMP JUMPDEST PUSH2 0x109C PUSH2 0xE79 JUMP JUMPDEST ISZERO PUSH2 0x10D3 JUMPI PUSH1 0x40 MLOAD PUSH32 0xD93C066500000000000000000000000000000000000000000000000000000000 DUP2 MSTORE PUSH1 0x4 ADD PUSH1 0x40 MLOAD DUP1 SWAP2 SUB SWAP1 REVERT JUMPDEST JUMP JUMPDEST PUSH0 CALLER SWAP1 POP SWAP1 JUMP JUMPDEST PUSH2 0x10E4 PUSH2 0x1274 JUMP JUMPDEST PUSH0 PUSH0 PUSH1 0x14 PUSH2 0x100 EXP DUP2 SLOAD DUP2 PUSH1 0xFF MUL NOT AND SWAP1 DUP4 ISZERO ISZERO MUL OR SWAP1 SSTORE POP PUSH32 0x5DB9EE0A495BF2E6FF9C91A7834C1BA4FDD244A5E8AA4E537BD38AEAE4B073AA PUSH2 0x1126 PUSH2 0x10D5 JUMP JUMPDEST PUSH1 0x40 MLOAD PUSH2 0x1133 SWAP2 SWAP1 PUSH2 0x162E JUMP JUMPDEST PUSH1 0x40 MLOAD DUP1 SWAP2 SUB SWAP1 LOG1 JUMP JUMPDEST PUSH1 0x1 DUP2 PUSH0 ADD PUSH0 DUP3 DUP3 SLOAD ADD SWAP3 POP POP DUP2 SWAP1 SSTORE POP POP JUMP JUMPDEST PUSH0 PUSH0 PUSH0 SWAP1 SLOAD SWAP1 PUSH2 0x100 EXP SWAP1 DIV PUSH20 0xFFFFFFFFFFFFFFFFFFFFFFFFFFFFFFFFFFFFFFFF AND SWAP1 POP DUP2 PUSH0 PUSH0 PUSH2 0x100 EXP DUP2 SLOAD DUP2 PUSH20 0xFFFFFFFFFFFFFFFFFFFFFFFFFFFFFFFFFFFFFFFF MUL NOT AND SWAP1 DUP4 PUSH20 0xFFFFFFFFFFFFFFFFFFFFFFFFFFFFFFFFFFFFFFFF AND MUL OR SWAP1 SSTORE POP DUP2 PUSH20 0xFFFFFFFFFFFFFFFFFFFFFFFFFFFFFFFFFFFFFFFF AND DUP2 PUSH20 0xFFFFFFFFFFFFFFFFFFFFFFFFFFFFFFFFFFFFFFFF AND PUSH32 0x8BE0079C531659141344CD1FD0A4F28419497F9722A3DAAFE3B4186F6B6457E0 PUSH1 0x40 MLOAD PUSH1 0x40 MLOAD DUP1 SWAP2 SUB SWAP1 LOG3 POP POP JUMP JUMPDEST PUSH2 0x121A PUSH2 0x1094 JUMP JUMPDEST PUSH1 0x1 PUSH0 PUSH1 0x14 PUSH2 0x100 EXP DUP2 SLOAD DUP2 PUSH1 0xFF MUL NOT AND SWAP1 DUP4 ISZERO ISZERO MUL OR SWAP1 SSTORE POP PUSH32 0x62E78CEA01BEE320CD4E420270B5EA74000D11B0C9F74754EBDBFC544B05A258 PUSH2 0x125D PUSH2 0x10D5 JUMP JUMPDEST PUSH1 0x40 MLOAD PUSH2 0x126A SWAP2 SWAP1 PUSH2 0x162E JUMP JUMPDEST PUSH1 0x40 MLOAD DUP1 SWAP2 SUB SWAP1 LOG1 JUMP JUMPDEST PUSH2 0x127C PUSH2 0xE79 JUMP JUMPDEST PUSH2 0x12B2 JUMPI PUSH1 0x40 MLOAD PUSH32 0x8DFC202B00000000000000000000000000000000000000000000000000000000 DUP2 MSTORE PUSH1 0x4 ADD PUSH1 0x40 MLOAD DUP1 SWAP2 SUB SWAP1 REVERT JUMPDEST JUMP JUMPDEST PUSH0 PUSH1 0x40 MLOAD SWAP1 POP SWAP1 JUMP JUMPDEST PUSH0 PUSH0 REVERT JUMPDEST PUSH0 PUSH0 REVERT JUMPDEST PUSH0 DUP2 SWAP1 POP SWAP2 SWAP1 POP JUMP JUMPDEST PUSH2 0x12D7 DUP2 PUSH2 0x12C5 JUMP JUMPDEST DUP2 EQ PUSH2 0x12E1 JUMPI PUSH0 PUSH0 REVERT JUMPDEST POP JUMP JUMPDEST PUSH0 DUP2 CALLDATALOAD SWAP1 POP PUSH2 0x12F2 DUP2 PUSH2 0x12CE JUMP JUMPDEST SWAP3 SWAP2 POP POP JUMP JUMPDEST PUSH0 PUSH1 0x20 DUP3 DUP5 SUB SLT ISZERO PUSH2 0x130D JUMPI PUSH2 0x130C PUSH2 0x12BD JUMP JUMPDEST JUMPDEST PUSH0 PUSH2 0x131A DUP5 DUP3 DUP6 ADD PUSH2 0x12E4 JUMP JUMPDEST SWAP2 POP POP SWAP3 SWAP2 POP POP JUMP JUMPDEST PUSH0 DUP2 ISZERO ISZERO SWAP1 POP SWAP2 SWAP1 POP JUMP JUMPDEST PUSH2 0x1337 DUP2 PUSH2 0x1323 JUMP JUMPDEST DUP3 MSTORE POP POP JUMP JUMPDEST PUSH0 PUSH1 0x20 DUP3 ADD SWAP1 POP PUSH2 0x1350 PUSH0 DUP4 ADD DUP5 PUSH2 0x132E JUMP JUMPDEST SWAP3 SWAP2 POP POP JUMP JUMPDEST PUSH2 0x135F DUP2 PUSH2 0x12C5 JUMP JUMPDEST DUP3 MSTORE POP POP JUMP JUMPDEST PUSH0 PUSH1 0x20 DUP3 ADD SWAP1 POP PUSH2 0x1378 PUSH0 DUP4 ADD DUP5 PUSH2 0x1356 JUMP JUMPDEST SWAP3 SWAP2 POP POP JUMP JUMPDEST PUSH0 PUSH0 REVERT JUMPDEST PUSH0 PUSH0 REVERT JUMPDEST PUSH0 PUSH1 0x1F NOT PUSH1 0x1F DUP4 ADD AND SWAP1 POP SWAP2 SWAP1 POP JUMP JUMPDEST PUSH32 0x4E487B7100000000000000000000000000000000000000000000000000000000 PUSH0 MSTORE PUSH1 0x41 PUSH1 0x4 MSTORE PUSH1 0x24 PUSH0 REVERT JUMPDEST PUSH2 0x13CC DUP3 PUSH2 0x1386 JUMP JUMPDEST DUP2 ADD DUP2 DUP2 LT PUSH8 0xFFFFFFFFFFFFFFFF DUP3 GT OR ISZERO PUSH2 0x13EB JUMPI PUSH2 0x13EA PUSH2 0x1396 JUMP JUMPDEST JUMPDEST DUP1 PUSH1 0x40 MSTORE POP POP POP JUMP JUMPDEST PUSH0 PUSH2 0x13FD PUSH2 0x12B4 JUMP JUMPDEST SWAP1 POP PUSH2 0x1409 DUP3 DUP3 PUSH2 0x13C3 JUMP JUMPDEST SWAP2 SWAP1 POP JUMP JUMPDEST PUSH0 PUSH8 0xFFFFFFFFFFFFFFFF DUP3 GT ISZERO PUSH2 0x1428 JUMPI PUSH2 0x1427 PUSH2 0x1396 JUMP JUMPDEST JUMPDEST PUSH2 0x1431 DUP3 PUSH2 0x1386 JUMP JUMPDEST SWAP1 POP PUSH1 0x20 DUP2 ADD SWAP1 POP SWAP2 SWAP1 POP JUMP JUMPDEST DUP3 DUP2 DUP4 CALLDATACOPY PUSH0 DUP4 DUP4 ADD MSTORE POP POP POP JUMP JUMPDEST PUSH0 PUSH2 0x145E PUSH2 0x1459 DUP5 PUSH2 0x140E JUMP JUMPDEST PUSH2 0x13F4 JUMP JUMPDEST SWAP1 POP DUP3 DUP2 MSTORE PUSH1 0x20 DUP2 ADD DUP5 DUP5 DUP5 ADD GT ISZERO PUSH2 0x147A JUMPI PUSH2 0x1479 PUSH2 0x1382 JUMP JUMPDEST JUMPDEST PUSH2 0x1485 DUP5 DUP3 DUP6 PUSH2 0x143E JUMP JUMPDEST POP SWAP4 SWAP3 POP POP POP JUMP JUMPDEST PUSH0 DUP3 PUSH1 0x1F DUP4 ADD SLT PUSH2 0x14A1 JUMPI PUSH2 0x14A0 PUSH2 0x137E JUMP JUMPDEST JUMPDEST DUP2 CALLDATALOAD PUSH2 0x14B1 DUP5 DUP3 PUSH1 0x20 DUP7 ADD PUSH2 0x144C JUMP JUMPDEST SWAP2 POP POP SWAP3 SWAP2 POP POP JUMP JUMPDEST PUSH0 PUSH0 PUSH0 PUSH0 PUSH1 0x80 DUP6 DUP8 SUB SLT ISZERO PUSH2 0x14D2 JUMPI PUSH2 0x14D1 PUSH2 0x12BD JUMP JUMPDEST JUMPDEST PUSH0 PUSH2 0x14DF DUP8 DUP3 DUP9 ADD PUSH2 0x12E4 JUMP JUMPDEST SWAP5 POP POP PUSH1 0x20 PUSH2 0x14F0 DUP8 DUP3 DUP9 ADD PUSH2 0x12E4 JUMP JUMPDEST SWAP4 POP POP PUSH1 0x40 DUP6 ADD CALLDATALOAD PUSH8 0xFFFFFFFFFFFFFFFF DUP2 GT ISZERO PUSH2 0x1511 JUMPI PUSH2 0x1510 PUSH2 0x12C1 JUMP JUMPDEST JUMPDEST PUSH2 0x151D DUP8 DUP3 DUP9 ADD PUSH2 0x148D JUMP JUMPDEST SWAP3 POP POP PUSH1 0x60 PUSH2 0x152E DUP8 DUP3 DUP9 ADD PUSH2 0x12E4 JUMP JUMPDEST SWAP2 POP POP SWAP3 SWAP6 SWAP2 SWAP5 POP SWAP3 POP JUMP JUMPDEST PUSH0 PUSH1 0x60 DUP3 ADD SWAP1 POP PUSH2 0x154D PUSH0 DUP4 ADD DUP7 PUSH2 0x132E JUMP JUMPDEST PUSH2 0x155A PUSH1 0x20 DUP4 ADD DUP6 PUSH2 0x1356 JUMP JUMPDEST PUSH2 0x1567 PUSH1 0x40 DUP4 ADD DUP5 PUSH2 0x1356 JUMP JUMPDEST SWAP5 SWAP4 POP POP POP POP JUMP JUMPDEST PUSH0 DUP2 MLOAD SWAP1 POP SWAP2 SWAP1 POP JUMP JUMPDEST PUSH0 DUP3 DUP3 MSTORE PUSH1 0x20 DUP3 ADD SWAP1 POP SWAP3 SWAP2 POP POP JUMP JUMPDEST DUP3 DUP2 DUP4 MCOPY PUSH0 DUP4 DUP4 ADD MSTORE POP POP POP JUMP JUMPDEST PUSH0 PUSH2 0x15A1 DUP3 PUSH2 0x156F JUMP JUMPDEST PUSH2 0x15AB DUP2 DUP6 PUSH2 0x1579 JUMP JUMPDEST SWAP4 POP PUSH2 0x15BB DUP2 DUP6 PUSH1 0x20 DUP7 ADD PUSH2 0x1589 JUMP JUMPDEST PUSH2 0x15C4 DUP2 PUSH2 0x1386 JUMP JUMPDEST DUP5 ADD SWAP2 POP POP SWAP3 SWAP2 POP POP JUMP JUMPDEST PUSH0 PUSH1 0x20 DUP3 ADD SWAP1 POP DUP2 DUP2 SUB PUSH0 DUP4 ADD MSTORE PUSH2 0x15E7 DUP2 DUP5 PUSH2 0x1597 JUMP JUMPDEST SWAP1 POP SWAP3 SWAP2 POP POP JUMP JUMPDEST PUSH0 PUSH20 0xFFFFFFFFFFFFFFFFFFFFFFFFFFFFFFFFFFFFFFFF DUP3 AND SWAP1 POP SWAP2 SWAP1 POP JUMP JUMPDEST PUSH0 PUSH2 0x1618 DUP3 PUSH2 0x15EF JUMP JUMPDEST SWAP1 POP SWAP2 SWAP1 POP JUMP JUMPDEST PUSH2 0x1628 DUP2 PUSH2 0x160E JUMP JUMPDEST DUP3 MSTORE POP POP JUMP JUMPDEST PUSH0 PUSH1 0x20 DUP3 ADD SWAP1 POP PUSH2 0x1641 PUSH0 DUP4 ADD DUP5 PUSH2 0x161F JUMP JUMPDEST SWAP3 SWAP2 POP POP JUMP JUMPDEST PUSH0 PUSH2 0x1651 DUP3 PUSH2 0x15EF JUMP JUMPDEST SWAP1 POP SWAP2 SWAP1 POP JUMP JUMPDEST PUSH2 0x1661 DUP2 PUSH2 0x1647 JUMP JUMPDEST DUP2 EQ PUSH2 0x166B JUMPI PUSH0 PUSH0 REVERT JUMPDEST POP JUMP JUMPDEST PUSH0 DUP2 CALLDATALOAD SWAP1 POP PUSH2 0x167C DUP2 PUSH2 0x1658 JUMP JUMPDEST SWAP3 SWAP2 POP POP JUMP JUMPDEST PUSH0 PUSH0 PUSH1 0x40 DUP4 DUP6 SUB SLT ISZERO PUSH2 0x1698 JUMPI PUSH2 0x1697 PUSH2 0x12BD JUMP JUMPDEST JUMPDEST PUSH0 PUSH2 0x16A5 DUP6 DUP3 DUP7 ADD PUSH2 0x166E JUMP JUMPDEST SWAP3 POP POP PUSH1 0x20 PUSH2 0x16B6 DUP6 DUP3 DUP7 ADD PUSH2 0x12E4 JUMP JUMPDEST SWAP2 POP POP SWAP3 POP SWAP3 SWAP1 POP JUMP JUMPDEST PUSH0 PUSH1 0xA0 DUP3 ADD SWAP1 POP PUSH2 0x16D3 PUSH0 DUP4 ADD DUP9 PUSH2 0x1356 JUMP JUMPDEST PUSH2 0x16E0 PUSH1 0x20 DUP4 ADD DUP8 PUSH2 0x1356 JUMP JUMPDEST PUSH2 0x16ED PUSH1 0x40 DUP4 ADD DUP7 PUSH2 0x1356 JUMP JUMPDEST PUSH2 0x16FA PUSH1 0x60 DUP4 ADD DUP6 PUSH2 0x161F JUMP JUMPDEST DUP2 DUP2 SUB PUSH1 0x80 DUP4 ADD MSTORE PUSH2 0x170C DUP2 DUP5 PUSH2 0x1597 JUMP JUMPDEST SWAP1 POP SWAP7 SWAP6 POP POP POP POP POP POP JUMP JUMPDEST PUSH2 0x1721 DUP2 PUSH2 0x160E JUMP JUMPDEST DUP2 EQ PUSH2 0x172B JUMPI PUSH0 PUSH0 REVERT JUMPDEST POP JUMP JUMPDEST PUSH0 DUP2 CALLDATALOAD SWAP1 POP PUSH2 0x173C DUP2 PUSH2 0x1718 JUMP JUMPDEST SWAP3 SWAP2 POP POP JUMP JUMPDEST PUSH0 PUSH1 0x20 DUP3 DUP5 SUB SLT ISZERO PUSH2 0x1757 JUMPI PUSH2 0x1756 PUSH2 0x12BD JUMP JUMPDEST JUMPDEST PUSH0 PUSH2 0x1764 DUP5 DUP3 DUP6 ADD PUSH2 0x172E JUMP JUMPDEST SWAP2 POP POP SWAP3 SWAP2 POP POP JUMP JUMPDEST PUSH0 PUSH0 PUSH0 PUSH1 0x60 DUP5 DUP7 SUB SLT ISZERO PUSH2 0x1784 JUMPI PUSH2 0x1783 PUSH2 0x12BD JUMP JUMPDEST JUMPDEST PUSH0 PUSH2 0x1791 DUP7 DUP3 DUP8 ADD PUSH2 0x12E4 JUMP JUMPDEST SWAP4 POP POP PUSH1 0x20 PUSH2 0x17A2 DUP7 DUP3 DUP8 ADD PUSH2 0x12E4 JUMP JUMPDEST SWAP3 POP POP PUSH1 0x40 DUP5 ADD CALLDATALOAD PUSH8 0xFFFFFFFFFFFFFFFF DUP2 GT ISZERO PUSH2 0x17C3 JUMPI PUSH2 0x17C2 PUSH2 0x12C1 JUMP JUMPDEST JUMPDEST PUSH2 0x17CF DUP7 DUP3 DUP8 ADD PUSH2 0x148D JUMP JUMPDEST SWAP2 POP POP SWAP3 POP SWAP3 POP SWAP3 JUMP JUMPDEST PUSH0 PUSH0 PUSH1 0x40 DUP4 DUP6 SUB SLT ISZERO PUSH2 0x17EF JUMPI PUSH2 0x17EE PUSH2 0x12BD JUMP JUMPDEST JUMPDEST PUSH0 PUSH2 0x17FC DUP6 DUP3 DUP7 ADD PUSH2 0x12E4 JUMP JUMPDEST SWAP3 POP POP PUSH1 0x20 PUSH2 0x180D DUP6 DUP3 DUP7 ADD PUSH2 0x12E4 JUMP JUMPDEST SWAP2 POP POP SWAP3 POP SWAP3 SWAP1 POP JUMP JUMPDEST PUSH32 0x546865726520697320616E20616374697665206164732E20706C732074727920 PUSH0 DUP3 ADD MSTORE PUSH32 0x6C61746572000000000000000000000000000000000000000000000000000000 PUSH1 0x20 DUP3 ADD MSTORE POP JUMP JUMPDEST PUSH0 PUSH2 0x1871 PUSH1 0x25 DUP4 PUSH2 0x1579 JUMP JUMPDEST SWAP2 POP PUSH2 0x187C DUP3 PUSH2 0x1817 JUMP JUMPDEST PUSH1 0x40 DUP3 ADD SWAP1 POP SWAP2 SWAP1 POP JUMP JUMPDEST PUSH0 PUSH1 0x20 DUP3 ADD SWAP1 POP DUP2 DUP2 SUB PUSH0 DUP4 ADD MSTORE PUSH2 0x189E DUP2 PUSH2 0x1865 JUMP JUMPDEST SWAP1 POP SWAP2 SWAP1 POP JUMP JUMPDEST PUSH32 0x4475726174696F6E206D7573742062652067726174686572207468616E203000 PUSH0 DUP3 ADD MSTORE POP JUMP JUMPDEST PUSH0 PUSH2 0x18D9 PUSH1 0x1F DUP4 PUSH2 0x1579 JUMP JUMPDEST SWAP2 POP PUSH2 0x18E4 DUP3 PUSH2 0x18A5 JUMP JUMPDEST PUSH1 0x20 DUP3 ADD SWAP1 POP SWAP2 SWAP1 POP JUMP JUMPDEST PUSH0 PUSH1 0x20 DUP3 ADD SWAP1 POP DUP2 DUP2 SUB PUSH0 DUP4 ADD MSTORE PUSH2 0x1906 DUP2 PUSH2 0x18CD JUMP JUMPDEST SWAP1 POP SWAP2 SWAP1 POP JUMP JUMPDEST PUSH32 0x4E487B7100000000000000000000000000000000000000000000000000000000 PUSH0 MSTORE PUSH1 0x11 PUSH1 0x4 MSTORE PUSH1 0x24 PUSH0 REVERT JUMPDEST PUSH0 PUSH2 0x1944 DUP3 PUSH2 0x12C5 JUMP JUMPDEST SWAP2 POP PUSH2 0x194F DUP4 PUSH2 0x12C5 JUMP JUMPDEST SWAP3 POP DUP3 DUP3 MUL PUSH2 0x195D DUP2 PUSH2 0x12C5 JUMP JUMPDEST SWAP2 POP DUP3 DUP3 DIV DUP5 EQ DUP4 ISZERO OR PUSH2 0x1974 JUMPI PUSH2 0x1973 PUSH2 0x190D JUMP JUMPDEST JUMPDEST POP SWAP3 SWAP2 POP POP JUMP JUMPDEST PUSH0 PUSH1 0x40 DUP3 ADD SWAP1 POP PUSH2 0x198E PUSH0 DUP4 ADD DUP6 PUSH2 0x1356 JUMP JUMPDEST PUSH2 0x199B PUSH1 0x20 DUP4 ADD DUP5 PUSH2 0x161F JUMP JUMPDEST SWAP4 SWAP3 POP POP POP JUMP JUMPDEST PUSH0 DUP2 SWAP1 POP SWAP3 SWAP2 POP POP JUMP JUMPDEST POP JUMP JUMPDEST PUSH0 PUSH2 0x19BA PUSH0 DUP4 PUSH2 0x19A2 JUMP JUMPDEST SWAP2 POP PUSH2 0x19C5 DUP3 PUSH2 0x19AC JUMP JUMPDEST PUSH0 DUP3 ADD SWAP1 POP SWAP2 SWAP1 POP JUMP JUMPDEST PUSH0 PUSH2 0x19D9 DUP3 PUSH2 0x19AF JUMP JUMPDEST SWAP2 POP DUP2 SWAP1 POP SWAP2 SWAP1 POP JUMP JUMPDEST PUSH32 0x4661696C656420746F2073656E64204574686572000000000000000000000000 PUSH0 DUP3 ADD MSTORE POP JUMP JUMPDEST PUSH0 PUSH2 0x1A17 PUSH1 0x14 DUP4 PUSH2 0x1579 JUMP JUMPDEST SWAP2 POP PUSH2 0x1A22 DUP3 PUSH2 0x19E3 JUMP JUMPDEST PUSH1 0x20 DUP3 ADD SWAP1 POP SWAP2 SWAP1 POP JUMP JUMPDEST PUSH0 PUSH1 0x20 DUP3 ADD SWAP1 POP DUP2 DUP2 SUB PUSH0 DUP4 ADD MSTORE PUSH2 0x1A44 DUP2 PUSH2 0x1A0B JUMP JUMPDEST SWAP1 POP SWAP2 SWAP1 POP JUMP JUMPDEST PUSH32 0x4E487B7100000000000000000000000000000000000000000000000000000000 PUSH0 MSTORE PUSH1 0x22 PUSH1 0x4 MSTORE PUSH1 0x24 PUSH0 REVERT JUMPDEST PUSH0 PUSH1 0x2 DUP3 DIV SWAP1 POP PUSH1 0x1 DUP3 AND DUP1 PUSH2 0x1A8F JUMPI PUSH1 0x7F DUP3 AND SWAP2 POP JUMPDEST PUSH1 0x20 DUP3 LT DUP2 SUB PUSH2 0x1AA2 JUMPI PUSH2 0x1AA1 PUSH2 0x1A4B JUMP JUMPDEST JUMPDEST POP SWAP2 SWAP1 POP JUMP JUMPDEST PUSH0 DUP2 SWAP1 POP DUP2 PUSH0 MSTORE PUSH1 0x20 PUSH0 KECCAK256 SWAP1 POP SWAP2 SWAP1 POP JUMP JUMPDEST PUSH0 PUSH1 0x20 PUSH1 0x1F DUP4 ADD DIV SWAP1 POP SWAP2 SWAP1 POP JUMP JUMPDEST PUSH0 DUP3 DUP3 SHL SWAP1 POP SWAP3 SWAP2 POP POP JUMP JUMPDEST PUSH0 PUSH1 0x8 DUP4 MUL PUSH2 0x1B04 PUSH32 0xFFFFFFFFFFFFFFFFFFFFFFFFFFFFFFFFFFFFFFFFFFFFFFFFFFFFFFFFFFFFFFFF DUP3 PUSH2 0x1AC9 JUMP JUMPDEST PUSH2 0x1B0E DUP7 DUP4 PUSH2 0x1AC9 JUMP JUMPDEST SWAP6 POP DUP1 NOT DUP5 AND SWAP4 POP DUP1 DUP7 AND DUP5 OR SWAP3 POP POP POP SWAP4 SWAP3 POP POP POP JUMP JUMPDEST PUSH0 DUP2 SWAP1 POP SWAP2 SWAP1 POP JUMP JUMPDEST PUSH0 PUSH2 0x1B49 PUSH2 0x1B44 PUSH2 0x1B3F DUP5 PUSH2 0x12C5 JUMP JUMPDEST PUSH2 0x1B26 JUMP JUMPDEST PUSH2 0x12C5 JUMP JUMPDEST SWAP1 POP SWAP2 SWAP1 POP JUMP JUMPDEST PUSH0 DUP2 SWAP1 POP SWAP2 SWAP1 POP JUMP JUMPDEST PUSH2 0x1B62 DUP4 PUSH2 0x1B2F JUMP JUMPDEST PUSH2 0x1B76 PUSH2 0x1B6E DUP3 PUSH2 0x1B50 JUMP JUMPDEST DUP5 DUP5 SLOAD PUSH2 0x1AD5 JUMP JUMPDEST DUP3 SSTORE POP POP POP POP JUMP JUMPDEST PUSH0 PUSH0 SWAP1 POP SWAP1 JUMP JUMPDEST PUSH2 0x1B8D PUSH2 0x1B7E JUMP JUMPDEST PUSH2 0x1B98 DUP2 DUP5 DUP5 PUSH2 0x1B59 JUMP JUMPDEST POP POP POP JUMP JUMPDEST JUMPDEST DUP2 DUP2 LT ISZERO PUSH2 0x1BBB JUMPI PUSH2 0x1BB0 PUSH0 DUP3 PUSH2 0x1B85 JUMP JUMPDEST PUSH1 0x1 DUP2 ADD SWAP1 POP PUSH2 0x1B9E JUMP JUMPDEST POP POP JUMP JUMPDEST PUSH1 0x1F DUP3 GT ISZERO PUSH2 0x1C00 JUMPI PUSH2 0x1BD1 DUP2 PUSH2 0x1AA8 JUMP JUMPDEST PUSH2 0x1BDA DUP5 PUSH2 0x1ABA JUMP JUMPDEST DUP2 ADD PUSH1 0x20 DUP6 LT ISZERO PUSH2 0x1BE9 JUMPI DUP2 SWAP1 POP JUMPDEST PUSH2 0x1BFD PUSH2 0x1BF5 DUP6 PUSH2 0x1ABA JUMP JUMPDEST DUP4 ADD DUP3 PUSH2 0x1B9D JUMP JUMPDEST POP POP JUMPDEST POP POP POP JUMP JUMPDEST PUSH0 DUP3 DUP3 SHR SWAP1 POP SWAP3 SWAP2 POP POP JUMP JUMPDEST PUSH0 PUSH2 0x1C20 PUSH0 NOT DUP5 PUSH1 0x8 MUL PUSH2 0x1C05 JUMP JUMPDEST NOT DUP1 DUP4 AND SWAP2 POP POP SWAP3 SWAP2 POP POP JUMP JUMPDEST PUSH0 PUSH2 0x1C38 DUP4 DUP4 PUSH2 0x1C11 JUMP JUMPDEST SWAP2 POP DUP3 PUSH1 0x2 MUL DUP3 OR SWAP1 POP SWAP3 SWAP2 POP POP JUMP JUMPDEST PUSH2 0x1C51 DUP3 PUSH2 0x156F JUMP JUMPDEST PUSH8 0xFFFFFFFFFFFFFFFF DUP2 GT ISZERO PUSH2 0x1C6A JUMPI PUSH2 0x1C69 PUSH2 0x1396 JUMP JUMPDEST JUMPDEST PUSH2 0x1C74 DUP3 SLOAD PUSH2 0x1A78 JUMP JUMPDEST PUSH2 0x1C7F DUP3 DUP3 DUP6 PUSH2 0x1BBF JUMP JUMPDEST PUSH0 PUSH1 0x20 SWAP1 POP PUSH1 0x1F DUP4 GT PUSH1 0x1 DUP2 EQ PUSH2 0x1CB0 JUMPI PUSH0 DUP5 ISZERO PUSH2 0x1C9E JUMPI DUP3 DUP8 ADD MLOAD SWAP1 POP JUMPDEST PUSH2 0x1CA8 DUP6 DUP3 PUSH2 0x1C2D JUMP JUMPDEST DUP7 SSTORE POP PUSH2 0x1D0F JUMP JUMPDEST PUSH1 0x1F NOT DUP5 AND PUSH2 0x1CBE DUP7 PUSH2 0x1AA8 JUMP JUMPDEST PUSH0 JUMPDEST DUP3 DUP2 LT ISZERO PUSH2 0x1CE5 JUMPI DUP5 DUP10 ADD MLOAD DUP3 SSTORE PUSH1 0x1 DUP3 ADD SWAP2 POP PUSH1 0x20 DUP6 ADD SWAP5 POP PUSH1 0x20 DUP2 ADD SWAP1 POP PUSH2 0x1CC0 JUMP JUMPDEST DUP7 DUP4 LT ISZERO PUSH2 0x1D02 JUMPI DUP5 DUP10 ADD MLOAD PUSH2 0x1CFE PUSH1 0x1F DUP10 AND DUP3 PUSH2 0x1C11 JUMP JUMPDEST DUP4 SSTORE POP JUMPDEST PUSH1 0x1 PUSH1 0x2 DUP9 MUL ADD DUP9 SSTORE POP POP POP JUMPDEST POP POP POP POP POP POP JUMP JUMPDEST PUSH32 0x4661696C65640000000000000000000000000000000000000000000000000000 PUSH0 DUP3 ADD MSTORE POP JUMP JUMPDEST PUSH0 PUSH2 0x1D4B PUSH1 0x6 DUP4 PUSH2 0x1579 JUMP JUMPDEST SWAP2 POP PUSH2 0x1D56 DUP3 PUSH2 0x1D17 JUMP JUMPDEST PUSH1 0x20 DUP3 ADD SWAP1 POP SWAP2 SWAP1 POP JUMP JUMPDEST PUSH0 PUSH1 0x20 DUP3 ADD SWAP1 POP DUP2 DUP2 SUB PUSH0 DUP4 ADD MSTORE PUSH2 0x1D78 DUP2 PUSH2 0x1D3F JUMP JUMPDEST SWAP1 POP SWAP2 SWAP1 POP JUMP JUMPDEST PUSH32 0x546F6F206561726C790000000000000000000000000000000000000000000000 PUSH0 DUP3 ADD MSTORE POP JUMP JUMPDEST PUSH0 PUSH2 0x1DB3 PUSH1 0x9 DUP4 PUSH2 0x1579 JUMP JUMPDEST SWAP2 POP PUSH2 0x1DBE DUP3 PUSH2 0x1D7F JUMP JUMPDEST PUSH1 0x20 DUP3 ADD SWAP1 POP SWAP2 SWAP1 POP JUMP JUMPDEST PUSH0 PUSH1 0x20 DUP3 ADD SWAP1 POP DUP2 DUP2 SUB PUSH0 DUP4 ADD MSTORE PUSH2 0x1DE0 DUP2 PUSH2 0x1DA7 JUMP JUMPDEST SWAP1 POP SWAP2 SWAP1 POP JUMP JUMPDEST PUSH0 PUSH1 0x40 DUP3 ADD SWAP1 POP PUSH2 0x1DFA PUSH0 DUP4 ADD DUP6 PUSH2 0x161F JUMP JUMPDEST PUSH2 0x1E07 PUSH1 0x20 DUP4 ADD DUP5 PUSH2 0x1356 JUMP JUMPDEST SWAP4 SWAP3 POP POP POP JUMP JUMPDEST PUSH32 0x4E487B7100000000000000000000000000000000000000000000000000000000 PUSH0 MSTORE PUSH1 0x12 PUSH1 0x4 MSTORE PUSH1 0x24 PUSH0 REVERT JUMPDEST PUSH0 PUSH2 0x1E45 DUP3 PUSH2 0x12C5 JUMP JUMPDEST SWAP2 POP PUSH2 0x1E50 DUP4 PUSH2 0x12C5 JUMP JUMPDEST SWAP3 POP DUP3 PUSH2 0x1E60 JUMPI PUSH2 0x1E5F PUSH2 0x1E0E JUMP JUMPDEST JUMPDEST DUP3 DUP3 DIV SWAP1 POP SWAP3 SWAP2 POP POP JUMP INVALID LOG2 PUSH5 0x6970667358 0x22 SLT KECCAK256 0xA5 JUMP LOG4 0xBC 0xBE 0xA8 PUSH16 0x88CD3B2253F117CDCC6346488EDD9DD8 RETURNDATASIZE PUSH5 0x924D52BF36 AND PUSH24 0x64736F6C634300081C003300000000000000000000000000 "
				},
				"gasEstimates": {
					"creation": {
						"codeDepositCost": "1568200",
						"executionCost": "infinite",
						"totalCost": "infinite"
					},
					"external": {
						"_claimCounter()": "2548",
						"advertiser(uint256,uint256,string,uint256)": "infinite",
						"calcPercentage(uint256,uint256)": "infinite",
						"claim()": "infinite",
						"claimPercentage()": "2470",
						"duration()": "2471",
						"end()": "2491",
						"fee()": "2469",
						"getAD()": "infinite",
						"getBalance()": "402",
						"manager()": "2598",
						"metadata()": "infinite",
						"owner()": "2603",
						"pause()": "infinite",
						"paused()": "2634",
						"permission(address)": "2848",
						"price()": "2470",
						"renounceOwnership()": "infinite",
						"requiredFollowers()": "2515",
						"start()": "2514",
						"time()": "443",
						"transferBalance(address,uint256)": "infinite",
						"transferOwnership(address)": "infinite",
						"unpause()": "infinite",
						"updateAD(uint256,uint256,string)": "infinite",
						"updateClaimPercentage(uint256)": "infinite",
						"withdraw()": "infinite"
					}
				},
				"methodIdentifiers": {
					"_claimCounter()": "fb2228fe",
					"advertiser(uint256,uint256,string,uint256)": "13a55c91",
					"calcPercentage(uint256,uint256)": "a37b06d4",
					"claim()": "4e71d92d",
					"claimPercentage()": "7a895f5d",
					"duration()": "0fb5a6b4",
					"end()": "efbe1c1c",
					"fee()": "ddca3f43",
					"getAD()": "5a05ec90",
					"getBalance()": "12065fe0",
					"manager()": "481c6a75",
					"metadata()": "392f37e9",
					"owner()": "8da5cb5b",
					"pause()": "8456cb59",
					"paused()": "5c975abb",
					"permission(address)": "68226a78",
					"price()": "a035b1fe",
					"renounceOwnership()": "715018a6",
					"requiredFollowers()": "72b121c9",
					"start()": "be9a6555",
					"time()": "16ada547",
					"transferBalance(address,uint256)": "56a6d9ef",
					"transferOwnership(address)": "f2fde38b",
					"unpause()": "3f4ba83a",
					"updateAD(uint256,uint256,string)": "9aeccdc4",
					"updateClaimPercentage(uint256)": "074819c8",
					"withdraw()": "3ccfd60b"
				}
			},
			"storageLayout": {
				"storage": [
					{
						"astId": 1808,
						"contract": "UniversalADs.sol:UniversalADs",
						"label": "_owner",
						"offset": 0,
						"slot": "0",
						"type": "t_address"
					},
					{
						"astId": 1956,
						"contract": "UniversalADs.sol:UniversalADs",
						"label": "_paused",
						"offset": 20,
						"slot": "0",
						"type": "t_bool"
					},
					{
						"astId": 1325,
						"contract": "UniversalADs.sol:UniversalADs",
						"label": "_claimCounter",
						"offset": 0,
						"slot": "1",
						"type": "t_struct(Counter)35_storage"
					},
					{
						"astId": 1328,
						"contract": "UniversalADs.sol:UniversalADs",
						"label": "requiredFollowers",
						"offset": 0,
						"slot": "2",
						"type": "t_uint256"
					},
					{
						"astId": 1331,
						"contract": "UniversalADs.sol:UniversalADs",
						"label": "fee",
						"offset": 0,
						"slot": "3",
						"type": "t_uint256"
					},
					{
						"astId": 1334,
						"contract": "UniversalADs.sol:UniversalADs",
						"label": "price",
						"offset": 0,
						"slot": "4",
						"type": "t_uint256"
					},
					{
						"astId": 1337,
						"contract": "UniversalADs.sol:UniversalADs",
						"label": "claimPercentage",
						"offset": 0,
						"slot": "5",
						"type": "t_uint256"
					},
					{
						"astId": 1339,
						"contract": "UniversalADs.sol:UniversalADs",
						"label": "start",
						"offset": 0,
						"slot": "6",
						"type": "t_uint256"
					},
					{
						"astId": 1341,
						"contract": "UniversalADs.sol:UniversalADs",
						"label": "end",
						"offset": 0,
						"slot": "7",
						"type": "t_uint256"
					},
					{
						"astId": 1343,
						"contract": "UniversalADs.sol:UniversalADs",
						"label": "duration",
						"offset": 0,
						"slot": "8",
						"type": "t_uint256"
					},
					{
						"astId": 1345,
						"contract": "UniversalADs.sol:UniversalADs",
						"label": "manager",
						"offset": 0,
						"slot": "9",
						"type": "t_address"
					},
					{
						"astId": 1347,
						"contract": "UniversalADs.sol:UniversalADs",
						"label": "metadata",
						"offset": 0,
						"slot": "10",
						"type": "t_string_storage"
					},
					{
						"astId": 1351,
						"contract": "UniversalADs.sol:UniversalADs",
						"label": "permission",
						"offset": 0,
						"slot": "11",
						"type": "t_mapping(t_address,t_uint256)"
					}
				],
				"types": {
					"t_address": {
						"encoding": "inplace",
						"label": "address",
						"numberOfBytes": "20"
					},
					"t_bool": {
						"encoding": "inplace",
						"label": "bool",
						"numberOfBytes": "1"
					},
					"t_mapping(t_address,t_uint256)": {
						"encoding": "mapping",
						"key": "t_address",
						"label": "mapping(address => uint256)",
						"numberOfBytes": "32",
						"value": "t_uint256"
					},
					"t_string_storage": {
						"encoding": "bytes",
						"label": "string",
						"numberOfBytes": "32"
					},
					"t_struct(Counter)35_storage": {
						"encoding": "inplace",
						"label": "struct Counters.Counter",
						"members": [
							{
								"astId": 34,
								"contract": "UniversalADs.sol:UniversalADs",
								"label": "_value",
								"offset": 0,
								"slot": "0",
								"type": "t_uint256"
							}
						],
						"numberOfBytes": "32"
					},
					"t_uint256": {
						"encoding": "inplace",
						"label": "uint256",
						"numberOfBytes": "32"
					}
				}
			},
			"userdoc": {
				"kind": "user",
				"methods": {
					"calcPercentage(uint256,uint256)": {
						"notice": "calcPercentage percentage"
					},
					"claim()": {
						"notice": "Claim"
					},
					"getBalance()": {
						"notice": "Return the balance of this contract"
					},
					"pause()": {
						"notice": "Pause"
					},
					"transferBalance(address,uint256)": {
						"notice": "Transfer balance from this contract to input address"
					},
					"unpause()": {
						"notice": "Unpause"
					},
					"updateAD(uint256,uint256,string)": {
						"notice": "Reset permission list"
					},
					"updateClaimPercentage(uint256)": {
						"notice": "Update token claim count"
					},
					"withdraw()": {
						"notice": "Withdraw the balance from this contract and transfer it to the owner's address"
					}
				},
				"notice": "UniversalADs",
				"version": 1
			}
		}
	}
}