{
	"data": {
		"bytecode": {
			"linkReferences": {},
			"object": "6080604052348015600e575f5ffd5b50607480601a5f395ff3fe6080604052348015600e575f5ffd5b50600436106026575f3560e01c80634c9eb4d414602a575b5f5ffd5b5f1960405190815260200160405180910390f3fea26469706673582212205d96fa340196eb938faf994f2886fc3abedc7140ee431a54f88b8dccd8ee851a64736f6c634300081e0033",
			"opcodes": "PUSH1 0x80 PUSH1 0x40 MSTORE CALLVALUE DUP1 ISZERO PUSH1 0xE JUMPI PUSH0 PUSH0 REVERT JUMPDEST POP PUSH1 0x74 DUP1 PUSH1 0x1A PUSH0 CODECOPY PUSH0 RETURN INVALID PUSH1 0x80 PUSH1 0x40 MSTORE CALLVALUE DUP1 ISZERO PUSH1 0xE JUMPI PUSH0 PUSH0 REVERT JUMPDEST POP PUSH1 0x4 CALLDATASIZE LT PUSH1 0x26 JUMPI PUSH0 CALLDATALOAD PUSH1 0xE0 SHR DUP1 PUSH4 0x4C9EB4D4 EQ PUSH1 0x2A JUMPI JUMPDEST PUSH0 PUSH0 REVERT JUMPDEST PUSH0 NOT PUSH1 0x40 MLOAD SWAP1 DUP2 MSTORE PUSH1 0x20 ADD PUSH1 0x40 MLOAD DUP1 SWAP2 SUB SWAP1 RETURN INVALID LOG2 PUSH5 0x6970667358 0x22 SLT KECCAK256 TSTORE SWAP7 STATICCALL CALLVALUE ADD SWAP7 0xEB SWAP4 DUP16 0xAF SWAP10 0x4F 0x28 DUP7 0xFC GASPRICE 0xBE 0xDC PUSH18 0x40EE431A54F88B8DCCD8EE851A64736F6C63 NUMBER STOP ADDMOD 0x1E STOP CALLER "
		},
		"gasEstimates": {
			"creation": {
				"codeDepositCost": "23200",
				"executionCost": "73",
				"totalCost": "23273"
			},
			"external": {
				"getMaxValue()": "147"
			}
		},
		"methodIdentifiers": {
			"getMaxValue()": "4c9eb4d4"
		}
	},
	"abi": [
		{
			"inputs": [],
			"name": "getMaxValue",
			"outputs": [
				{
					"internalType": "uint256",
					"name": "",
					"type": "uint256"
				}
			],
			"stateMutability": "pure",
			"type": "function"
		}
	]
}